:1000000000000120190200000102000003020000AC
:1000100005020000070200000902000000000000C5
:100020000000000000000000000000000B020000C3
:100030000D020000000000000F020000110200008D
:10004000F11500001302000013020000130200006B
:10005000130200001302000013020000130200004C
:10006000130200001302000013020000591A0000DE
:10007000130200001302000013020000130200002C
:10008000130200001302000013020000130200001C
:10009000130200001302000013020000130200000C
:1000A00013020000130200001302000013020000FC
:1000B0001302000013020000000000000000000016
:1000C00013020000130200001302000013020000DC
:1000D0006D1A00001302000013020000000000006F
:1000E0000000000000000000000000000000000010
:1000F0000000000000000000000000000000000000
:1001000000000000000000000000000000000000EF
:1001100000000000000000000000000000000000DF
:1001200000000000000000000000000000000000CF
:1001300000000000000000000000000000000000BF
:1001400000000000000000000000000000000000AF
:10015000000000000000000000000000000000009F
:10016000000000000000000000000000000000008F
:10017000000000000000000000000000000000007F
:10018000000000000000000000000000000000006F
:10019000000000000000000000000000000000005F
:1001A000000000000000000000000000000000004F
:1001B000000000000000000000000000000000003F
:1001C000000000000000000000000000000000002F
:1001D000000000000000000000000000000000001F
:1001E000000000000000000000000000000000000F
:1001F00000000000000000000000000000000000FF
:10020000FEE7FEE7FEE7FEE7FEE7FEE7FEE7FEE7C6
:10021000FEE7FEE700F002B8FFF7FCBF0F484FF023
:100220000701884385460E4880470E48016841F41F
:1002300070010160BFF34F8FBFF36F8F00F01AB8EA
:1002400009480A490A4A884207D0521A05D0037859
:1002500001300B700131013AF9D1704700000120E3
:10026000150E000088ED00E0901C0000000000204A
:1002700000000020344935480A1A02D00722914371
:100280008D46334933480A1A06D00722914381F339
:100290000988022282F314882F483049304A00F03E
:1002A00041F830483049314A00F03CF83048314993
:1002B000314A00F037F831483149324A00F032F81B
:1002C00031483249324A00F02DF832483249334A37
:1002D00000F028F832483349334A00F023F8334815
:1002E0003349002200F029F832483349002200F057
:1002F00024F832483249091A01F0C0FC314A9047CB
:100300001F482049884205D00268043003B4904752
:1003100003BCF7E700208646EC46002000212A4A6D
:100320009047FEE7884207D0521A05D00378013083
:100330000B700131013AF9D17047884202D0027046
:100340000130FAE7704700000000012000E00020C3
:100350000000012000000120981E00000000002085
:1003600004000020CC030000CC030000901C00001F
:10037000981E00000000002000000020901C0000DB
:10038000901C0000901C0000901C0000901C0000BD
:10039000901C0000901C0000901C0000951E0000A6
:1003A0009C1E000004000020040000200400002027
:1003B000580000205800002058000020580000205D
:0C03C00058200020410200002D05000024
:1003CC0000B583B00190019B1B68184600F032F811
:1003DC000346002B04D105494FF4F67001F031FCB3
:1003EC004FF0A043184603B05DF804FB901C0000CE
:1003FC0000B585B0019001AB1846FFF7E1FF039003
:10040C00039BD3F804350293029BDA43019B012131
:10041C0001FA03F31A40039BC3F80825019B012240
:10042C009A40029B1A40039BC3F80C2500BF05B0F1
:10043C005DF804FB84B00190019B5B0902930023DF
:10044C000393029B002B03D14FF0FF33039300BFA8
:10045C00019B03F01F030193039A019B22FA03F300
:10046C0003F00103002B14BF01230023DBB2184659
:10047C0004B0704700B583B000F028FE0190019BDA
:10048C000093009B002B04D0054A1321009801F027
:10049C003DFB002000F078FE00BF03B05DF804FBCC
:1004AC00B81C000000B583B003468DF807309DF8EA
:1004BC000730042B02D11120FFF79AFF00BF03B0C5
:1004CC005DF804FB00B585B0114A6B4692E8030059
:1004DC0018600433198040F6FF73ADF800306B469A
:1004EC000C4A19460C4801F08BF90390039B0293BC
:1004FC00029B002B04D0094A2B21029801F006FB29
:10050C00054801F0EFF900BF05B05DF804FB00BF32
:10051C00E41C0000B1040000EC1C0000B81C00003E
:10052C0008B5012000F048F9FFF7A4FFFFF7CAFF58
:10053C0040BF20BF20BFFBE700B583B00190019BFB
:10054C001B68184600F0B5F80346002B04D105498A
:10055C004FF4F67001F075FB4FF0A043184603B052
:10056C005DF804FBF41C000000B585B00190084652
:10057C0011461A4603468DF803300B468DF80230AF
:10058C0013468DF8013001AB1846FFF7D5FF0390E9
:10059C009DF803209DF802305B001A439DF8013052
:1005AC009B001A439DF818301B0242EA03019DF888
:1005BC001C301B04019A1943039B02F5E07243F8AB
:1005CC00221000BF05B05DF804FB00B585B00390A8
:1005DC00002301930023009300230122012103989F
:1005EC00FFF7C2FF00BF05B05DF804FB00B585B096
:1005FC0003900B468DF80B309DF80B3000220192C6
:10060C0000220092002200210398FFF7ADFF00BFEB
:10061C0005B05DF804FB00B585B0019001AB184640
:10062C00FFF78AFF0390019B012202FA03F319469C
:10063C00039800F02AF800BF05B05DF804FB00B584
:10064C0085B0019001AB1846FFF776FF0390019B34
:10065C00012202FA03F31946039800F020F800BFB8
:10066C0005B05DF804FB00B583B001900091009BD0
:10067C00002B03D10198FFF7E2FF02E00198FFF78E
:10068C00CAFF00BF03B05DF804FB82B0019000917B
:10069C00019B009AC3F8082500BF02B0704782B0D6
:1006AC0001900091019B009AC3F80C2500BF02B089
:1006BC00704784B00190019B5B0902930023039364
:1006CC00029B002B03D14FF0FF33039300BF019B20
:1006DC0003F01F030193039A019B22FA03F303F027
:1006EC000103002B14BF01230023DBB2184604B016
:1006FC007047000000B583B00190019B032B03D918
:10070C000749472001F09DFA064A019B13441B78C8
:10071C0001211846FFF7A7FF00BF03B05DF804FBEB
:10072C001C1D0000441D000000B583B00023019384
:10073C0005E00198FFF7DEFF019B01330193019B5C
:10074C00032BF6D900BF00BF03B05DF804FB00001B
:10075C0000B583B00023019309E0094A019B1344BF
:10076C001B781846FFF731FF019B01330193019B66
:10077C00032BF2D9FFF7D8FF00BF03B05DF804FBE1
:10078C00441D000000B583B0002301930AE0094A20
:10079C00019B13441B7803211846FFF727FF019B8D
:1007AC0001330193019B032BF1D900BF00BF03B0B0
:1007BC005DF804FB481D000000B583B00190019B5F
:1007CC0003F00103002B01D0FFF7C2FF019B03F0E4
:1007DC000203002B01D0FFF7D5FF00BF03B05DF87B
:1007EC0004FB0000BFF34F8F00BF064BDB6803F424
:1007FC00E0620449044B1343CB60BFF34F8F00BF3F
:10080C0000BFFDE700ED00E00400FA0582B01D4BCF
:10081C001B68B3F1FF3F0AD11B4B1B68DBB2019382
:10082C001A4B1B681B0903F00F03009305E0154BD3
:10083C001B680193164B1B680093019B062B1DD163
:10084C00009B033B042B17D801A252F823F000BFE6
:10085C007108000075080000790800007D08000090
:10086C008108000001230AE0012308E0012306E0CF
:10087C00012304E0012302E0012300E000231846D9
:10088C0002B0704730010010E00F00F0E80F00F0EC
:10089C003401001082B0174B1B68DBB20193164B6E
:1008AC001B681B0903F00F030093019B062B1DD142
:1008BC00009B033B042B17D801A252F823F000BF76
:1008CC00E1080000E5080000E9080000ED08000060
:1008DC00F108000001230AE0002308E0002306E0F1
:1008EC00002304E0002302E0002300E0002318466C
:1008FC0002B07047E00F00F0E80F00F082B01D4B23
:10090C001B68B3F1FF3F0AD11B4B1B68DBB2019391
:10091C001A4B1B681B0903F00F03009305E0154BE2
:10092C001B680193164B1B680093019B062B1DD172
:10093C00009B033B042B17D801A252F823F000BFF5
:10094C006109000065090000690900006D090000DB
:10095C007109000001230AE0012308E0012306E0ED
:10096C00012304E0012302E0012300E000231846E8
:10097C0002B0704730010010E00F00F0E80F00F0FB
:10098C003401001082B0174B1B68DBB20193164B7D
:10099C001B681B0903F00F030093019B062B1DD151
:1009AC00009B033B042B17D801A252F823F000BF85
:1009BC00D1090000D5090000D9090000DD090000AB
:1009CC00E109000001230AE0002308E0002306E00F
:1009DC00002304E0002302E0002300E0002318467B
:1009EC0002B07047E00F00F0E80F00F082B01D4B32
:1009FC001B68B3F1FF3F0AD11B4B1B68DBB20193A1
:100A0C001A4B1B681B0903F00F03009305E0154BF1
:100A1C001B680193164B1B680093019B062B1DD181
:100A2C00009B033B042B17D801A252F823F000BF04
:100A3C00510A0000550A0000590A00005D0A000026
:100A4C00610A000001230AE0012308E0012306E00B
:100A5C00012304E0012302E0012300E000231846F7
:100A6C0002B0704730010010E00F00F0E80F00F00A
:100A7C003401001082B0174B1B68DBB20193164B8C
:100A8C001B681B0903F00F030093019B062B1DD160
:100A9C00009B033B042B17D801A252F823F000BF94
:100AAC00C10A0000C50A0000C90A0000CD0A0000F6
:100ABC00D10A000001230AE0002308E0002306E02D
:100ACC00002304E0002302E0002300E0002318468A
:100ADC0002B07047E00F00F0E80F00F082B0174B47
:100AEC001B68DBB20193164B1B681B0903F00F0349
:100AFC000093019B062B1DD1009B033B042B17D8A5
:100B0C0001A252F823F000BF290B00002D0B0000AE
:100B1C00310B0000350B0000390B000001230AE0FB
:100B2C00002308E0002306E0002304E0002302E099
:100B3C00002300E00023184602B07047E00F00F0DD
:100B4C00E80F00F082B01D4B1B68B3F1FF3F0AD1D8
:100B5C001B4B1B68DBB201931A4B1B681B0903F080
:100B6C000F03009305E0154B1B680193164B1B6894
:100B7C000093019B062B1DD1009B033B042B17D824
:100B8C0001A252F823F000BFA90B0000AD0B00002E
:100B9C00B10B0000B50B0000B90B000000230AE0FC
:100BAC00002308E0012306E0012304E0012302E016
:100BBC00012300E00023184602B0704730010010FA
:100BCC00E00F00F0E80F00F03401001082B01D4B74
:100BDC001B68B3F1FF3F0AD11B4B1B68DBB20193BF
:100BEC001A4B1B681B0903F00F03009305E0154B10
:100BFC001B680193164B1B680093019B062B1DD1A0
:100C0C00009B033B042B17D801A252F823F000BF22
:100C1C00310C0000350C0000390C00003D0C0000BC
:100C2C00410C000001230AE0012308E0012306E047
:100C3C00012304E0012302E0012300E00023184615
:100C4C0002B0704730010010E00F00F0E80F00F028
:100C5C003401001082B01D4B1B68B3F1FF3F0AD169
:100C6C001B4B1B68DBB201931A4B1B681B0903F06F
:100C7C000F03009305E0154B1B680193164B1B6883
:100C8C000093019B062B1DD1009B033B042B17D813
:100C9C0001A252F823F000BFB90C0000BD0C0000FB
:100CAC00C10C0000C50C0000C90C000001230AE0B7
:100CBC00012308E0012306E0012304E0012302E004
:100CCC00012300E00023184602B0704730010010E9
:100CDC00E00F00F0E80F00F03401001082B0154B6B
:100CEC001B680193144B1B680093019B062B1DD1B1
:100CFC00009B033B042B17D801A252F823F000BF32
:100D0C00210D0000250D0000290D00002D0D000007
:100D1C00310D000000230AE0002308E0002306E068
:100D2C00012304E0012302E0012300E00023184624
:100D3C0002B07047300100103401001082B0154B26
:100D4C001B680193144B1B680093019B062B1DD150
:100D5C00009B033B042B17D801A252F823F000BFD1
:100D6C00810D0000850D0000890D00008D0D000027
:100D7C00910D000000230AE0002308E0002306E0A8
:100D8C00002304E0012302E0012300E000231846C5
:100D9C0002B07047300100103401001008B5FFF7A5
:100DAC00CDFF0346002B07D04FF010234FF08042AD
:100DBC00D3F80832C2F8583500BF08BD00BF044B49
:100DCC00D3F80034002BFAD000BF00BF704700BF2F
:100DDC0000E0014000B583B00190054A019BC2F8C8
:100DEC000435FFF7EBFF00BF03B05DF804FB00BF59
:100DFC0000E00140024B034A1A6000BF704700BF7D
:100E0C00000000200090D00308B5FFF7FFFC03465C
:100E1C00002B06D0964B1B681B0A964A03F01F0347
:100E2C001360FFF737FD0346002B02D0924B934A19
:100E3C001A60FFF763FD0346002B06D0904B1B682E
:100E4C005B0B904A03F007031360FFF79BFD03460F
:100E5C00002B05D08C4BDB688B4A23F08073D3605E
:100E6C00FFF7C4FD0346002B0ED04FF08043002249
:100E7C00C3F80C214FF080430022C3F810214FF02F
:100E8C0080430022C3F83825FFF7F4FD0346002BFE
:100E9C0002D07E4B03221A60FFF720FE0346002B84
:100EAC000BD07B4B05221A607A4B01221A607A4BCD
:100EBC0000221A60794B3F221A60FFF743FE03466B
:100ECC00002B76D04FF08053754AD3F80434C2F817
:100EDC0020354FF08053724AD3F80834C2F82435C9
:100EEC004FF080536E4AD3F80C34C2F828354FF0CB
:100EFC0080536B4AD3F81034C2F82C354FF0805322
:100F0C00674AD3F81434C2F830354FF08053644A32
:100F1C00D3F81834C2F834354FF08053604AD3F804
:100F2C001C34C2F840354FF080535D4AD3F820345E
:100F3C00C2F844354FF08053594AD3F82434C2F8E0
:100F4C0048354FF08053564AD3F82834C2F84C3504
:100F5C004FF08053524AD3F82C34C2F850354FF02E
:100F6C0080534F4AD3F83034C2F854354FF0805385
:100F7C004B4AD3F83434C2F860354FF08053484AAA
:100F8C00D3F83834C2F864354FF08053444AD3F860
:100F9C003C34C2F868354FF08053414AD3F84034A2
:100FAC00C2F86C354FF080533D4AD3F84434C2F844
:100FBC007035FFF70BFE0346002B05D0394B1B6831
:100FCC00394A03F04F031360FFF744FE0346002B2E
:100FDC000DD04FF08043D3F8003403F00103002B05
:100FEC0005D04FF080436FF00102C3F80024FFF7E7
:100FFC0075FE0346002B05D02C4B1B682B4A43F483
:10100C00806313602A4BD3F88830294A43F4700369
:10101C00C2F88830BFF34F8F00BFBFF36F8F00BF94
:10102C00FFF7BCFE4FF01023D3F80032002B05DB8A
:10103C004FF01023D3F80432002B15DA0120FFF700
:10104C00C9FE4FF010231522C3F80022FFF7B6FE9D
:10105C004FF010231522C3F80422FFF7AFFE002037
:10106C00FFF7B8FEFFF7BEFBFFF7C4FE00BF08BDDD
:10107C00240300104035014074C007400DF0ADBA98
:10108C00440200103C050040F0ED00E0A0050040DB
:10109C001056004088560040185600401456004028
:1010AC0000C0004058020010E40E00403C17004005
:1010BC0000ED00E0044BD3F80034002B14BF0123E7
:1010CC000023DBB2184670470000014000B583B026
:1010DC0000230193144B1B78002B02D08523019322
:1010EC0014E0114B00229A600F4B00225A600E4BF9
:1010FC0000221A610C4B0022DA600C4800F01CFA3A
:10110C00019000F03FFA084B01221A70FFF7D2FF52
:10111C000346002B02D0044B01229A70019B184607
:10112C0003B05DF804FB00BF040000207D1200003A
:10113C0084B001900091019B1B68039306E0039A15
:10114C00009B9A420DD0039B1B680393039B002BBF
:10115C00F5D1019B1A68009B1A60019B009A1A60DA
:10116C0000E000BF04B0704784B00190019B1B6885
:10117C000393039B002B03D0039B1A68019B1A60FB
:10118C00039B184604B0704700B583B00190224B06
:10119C001B78002B03D12149F62000F052FD1E4B89
:1011AC009B78DBB2002B12D0019B002B03D0019B50
:1011BC005B6801209847002000F0FCFC164BDB68B4
:1011CC000133154AD360002000F008FD17E0002021
:1011DC0000F0F0FC019B002B03D001991048FFF7A5
:1011EC00A7FF0D4BDB68002B01D100F0DFF90A4B98
:1011FC00DB680133084AD360002000F0EFFC064B9B
:10120C00DB68002B04D105494FF4897000F019FDFF
:10121C0000BF03B05DF804FB040000204C1D00006F
:10122C001400002000B585B003468DF807309DF8FA
:10123C000730002B02D10C4B039301E00B4B0393B3
:10124C000398FFF791FF0290029B002B06D0029BA4
:10125C005B689DF8072010469847F1E700BF00BF78
:10126C0005B05DF804FB00BF0C000020140000204A
:10127C0000B583B003468DF807309DF80730002B7E
:10128C0005D10A4B01225A700020FFF7CBFF9DF8C5
:10129C000730012B05D1054B01229A700120FFF775
:1012AC00C1FF00BF03B05DF804FB00BF04000020C9
:1012BC0082B003468DF807309DF90730002B0CDB0C
:1012CC009DF8073003F01F0205499DF907305B09B3
:1012DC00012000FA02F241F8232000BF02B070474F
:1012EC0000E100E082B0034600918DF807309DF9D3
:1012FC000730002B0ADB009BDAB20C499DF9073052
:10130C005201D2B20B4483F800230BE0009BDAB2FB
:10131C0007499DF8073003F00F03043B5201D2B28A
:10132C000B441A7600BF02B0704700BF00E100E02A
:10133C0000ED00E082B00190019B1B0B5BB21846E4
:10134C0002B0704700B583B003460A468DF80730EB
:10135C0013468DF806309DF80630072B03D9084943
:10136C006B2000F06EFC9DF806209DF907301146AD
:10137C001846FFF7B7FF00BF03B05DF804FB00BFD2
:10138C00801D000000B583B003468DF807309DF931
:10139C0007301846FFF78CFF00BF03B05DF804FB65
:1013AC0082B003468DF807300F4A9DF90730002BA9
:1013BC0000DA1F335B115BB252F823209DF9073022
:1013CC00594203F01F0301F01F0158BF4B425BB29F
:1013DC0022FA03F303F00103002B14BF01230023B3
:1013EC00DBB2184602B0704700E100E082B0019019
:1013FC004FF08042019BC2F8043300BF02B070472B
:10140C0082B001904FF08042019BC2F8083300BFBC
:10141C0002B0704782B003468DF807309DF8073054
:10142C0003F1804301221A6000BF02B0704784B000
:10143C000346ADF80630BDF8063003F180430022B8
:10144C001A60BDF8063003F180431B680393039BBD
:10145C0000BF04B0704782B00346ADF80630BDF84B
:10146C00063003F180431B68002B14BF01230023BB
:10147C00DBB2184602B0704782B001904FF0804248
:10148C00019BC2F8183500BF02B0704700B583B09D
:10149C0006238DF807304FF08040FFF74BFF0346D3
:1014AC001846FFF77DFF034683F00103DBB2002BE8
:1014BC0013D04FF08040FFF73DFF03461A469DF8CE
:1014CC00073019461046FFF73DFF4FF08040FFF7FD
:1014DC0031FF03461846FFF755FF00BF03B05DF818
:1014EC0004FB000084B0124BDB680393104A039B8F
:1014FC0043F08073D3600F4B1B6802930D4A029B21
:10150C0043F0010313600B4B5B68019300BF094B65
:10151C005A68019BD31AB3F50A5FF8D3054A029BAC
:10152C001360034A039BD36000BF04B0704700BF35
:10153C00F0ED00E0001000E000B585B00190019BDB
:10154C00002B03D10D49A42000F07BFB0023039357
:10155C000B4B1B79002B02D08523039308E0084A20
:10156C00019B1360064B01221A71054B00225A7124
:10157C00039B184605B05DF804FB00BFA81D0000D6
:10158C001800002008B5074B1B79002B03D1064926
:10159C00BD2000F056FBFFF779FF0120FFF76CFF31
:1015AC0000BF08BD18000020A81D000008B50B4B9B
:1015BC001B79002B03D10A49EA2000F042FB4FF4BF
:1015CC008270FFF734FF0220FFF710FFFFF78AFF4E
:1015DC000820FFF71FFF00BF08BD00BF1800002048
:1015EC00A81D000008B54FF48070FFF734FF0346C8
:1015FC00002B14D04FF48070FFF719FF0120FFF778
:10160C00FFFE114B5B7983F00103DBB2002B06D09C
:10161C000D4B01225A710C4B1B68002098474FF45C
:10162C008270FFF718FF0346002B0AD04FF482702C
:10163C00FFF7FDFE0220FFF7E3FE034B1B680120C2
:10164C00984700BF08BD00BF1800002082B00346B9
:10165C008DF807309DF90730002B0CDB9DF8073017
:10166C0003F01F0205499DF907305B09012000FAC0
:10167C0002F241F8232000BF02B0704700E100E005
:10168C0082B0034600918DF807309DF90730002B8E
:10169C000ADB009BDAB20C499DF907305201D2B239
:1016AC000B4483F800230BE0009BDAB207499DF84A
:1016BC00073003F00F03043B5201D2B20B441A76ED
:1016CC0000BF02B0704700BF00E100E000ED00E099
:1016DC0000B583B003460A468DF8073013468DF8E3
:1016EC0006309DF80630072B03D908496B2000F013
:1016FC00A8FA9DF806209DF9073011461846FFF709
:10170C00BFFF00BF03B05DF804FB00BFDC1D000091
:10171C0000B583B003468DF807309DF907301846A5
:10172C00FFF794FF00BF03B05DF804FB82B001909B
:10173C000091019B009AC3F8082300BF02B07047C8
:10174C0082B001900091019BD3F80423009B1340BD
:10175C00184602B0704782B001900B46ADF80230CB
:10176C00BDF80230019A13441B68184602B070474A
:10177C0084B001900B46ADF80230BDF80230019AEE
:10178C00134400221A60BDF80230019A13441B68FE
:10179C000393039B00BF04B07047000000B583B0F7
:1017AC0001900091009BB3F5805F04D306494FF480
:1017BC00BE7000F046FA019B009AC3F8082500BFE2
:1017CC0003B05DF804FB00BF041E000082B0019062
:1017DC000B468DF803309DF80320019B13441A46E9
:1017EC000123136000BF02B0704782B001900091DA
:1017FC00019B009AC3F8482300BF02B07047000059
:10180C0000B587B0039002910192029B002B03D18B
:10181C003149512000F015FA019B002B03D12E49C0
:10182C00522000F00EFA039B5B7919462B4A019B60
:10183C0042F82130039B5B791946294A0B465B0021
:10184C000B4413441B78002B03D008230593059BF2
:10185C003DE0039B93F90420029B9B7819461046AC
:10186C00FFF736FF039B93F904301846FFF750FF40
:10187C00039B1A68029B1B8819461046FFF78EFFC4
:10188C00039B5B791946029B1879154A0B465B0042
:10189C000B441344013302461A70039B5B791946BF
:1018AC00029BD8780E4A0B465B000B441344023360
:1018BC0002461A70039B5B791946094A0B465B007A
:1018CC000B44134401221A7000230593059B184600
:1018DC0007B05DF804FB00BF2C1E000020000020A8
:1018EC002800002000B583B00190019B5B7919465C
:1018FC000F4A0B465B000B4413441B78012B03D09F
:10190C000C49822000F09DF9019B1B6800211846B0
:10191C00FFF75CFF019B5B791946054A0B465B00A0
:10192C000B44134402221A7000BF03B05DF804FB91
:10193C00280000202C1E000000B589B003900291F5
:10194C0001924FF4803306934FF4A073ADF8163028
:10195C000023079330E006990398FFF7F1FE034646
:10196C00002B1ED0BDF8163019460398FFF7F3FE76
:10197C000346002B15D006990398FFF736FF0699FE
:10198C000398FFF7D3FEBDF8163019460398FFF7FE
:10199C00EFFE2D4A029B52F82330079AD2B2104622
:1019AC009847069B5B000693BDF816300433ADF8E0
:1019BC001630079B01330793079A019B9A42CAD3AF
:1019CC004FF48073ADF8163001210398FFF7B8FE81
:1019DC000346002B14D0BDF8163019460398FFF7B8
:1019EC00BAFE0346002B0BD0BDF8163019460398EF
:1019FC00FFF7BEFE144A029B52F82330042098478E
:101A0C004FF48273ADF8163002210398FFF798FE5D
:101A1C000346002B14D0BDF8163019460398FFF777
:101A2C009AFE0346002B0BD0BDF8163019460398CE
:101A3C00FFF79EFE044A029B52F82330052098477C
:101A4C0000BF09B05DF804FB2000002008B503229C
:101A5C0000210248FFF770FF00BF08BD00B0004036
:101A6C0008B5042201210248FFF766FF00BF08BD3C
:101A7C000040024086B003900291019201238DF840
:101A8C0017309DF81730204A039B13601E4A029BA7
:101A9C0053601D4A019B9360039B44F201029342E5
:101AAC0012D0039B44F20202934220D1019B164AAE
:101ABC00D360154BDB681B68134A9361124BDB68D0
:101ACC005B68114AD36112E0019B0F4A13610E4B04
:101ADC001B699B680C4A53610B4B1B691B680A4AB8
:101AEC009361094B1B695B68074AD36100BF72B6EF
:101AFC0000BF00BF9DF81730DBB2002BFAD162B6E5
:101B0C0000BF00BF06B070473000002000B583B0A6
:101B1C0002900091019244F2010071466A4600F075
:101B2C0003F803B000BD00BF00B587B0039002916D
:101B3C00019272B600BF039B44F20102934207D09C
:101B4C00039B44F20202934205D1019B059303E0EF
:101B5C00019B049300E000BF074B1B6803F00103DB
:101B6C00002B00D000BE019A02990398FFF782FF68
:101B7C0000BF07B05DF804FBF0ED00E072B600BFEB
:101B8C00034B1B680133024A136000BF704700BF50
:101B9C0050000020064B1B68013B054A1360044BA8
:101BAC001B68002B01D162B600BF00BF704700BF9D
:101BBC005000002000B583B0019000F025F80346DA
:101BCC00012B03D00449432000F03BF8FFF7D6FF6C
:101BDC0000BF03B05DF804FB5C1E000000B583B0D1
:101BEC0003468DF8073000F00FF80346012B03D0A5
:101BFC000449512000F025F8FFF7CCFF00BF03B0DB
:101C0C005DF804FB5C1E000084B0EFF305830193C8
:101C1C00019BC3F308030393039B002B0DD1EFF33C
:101C2C0014830093009B0293029B03F00103002B8F
:101C3C000CBF01230023DBB200E00123184604B0E3
:101C4C00704700B585B003460091ADF80630BDF87D
:101C5C0006300293009B039302AB1A46002144F218
:101C6C000200FFF761FF00BF05B05DF804FB000048
:101C7C00072904D90023024AC0E9003110607047DB
:041C8C0054000020E0
:101C9000633A5C6E72665F73646B5C6D6F64756CE7
:101CA00065735C6E7266785C68616C5C6E72665FB0
:101CB0006770696F2E680000433A5C6E72665F73EE
:101CC000646B5C6578616D706C65735C59656E6999
:101CD0005C5254435F4F726E656B5C6D61696E2E32
:101CE00063000000000006410000000000400240C8
:101CF00024010400633A5C6E72665F73646B5C6D12
:101D00006F64756C65735C6E7266785C68616C5C40
:101D10006E72665F6770696F2E680000433A5C6E92
:101D200072665F73646B5C636F6D706F6E656E740B
:101D3000735C626F617264735C626F617264732E54
:101D400063000000111213140D0E0F10433A5C6E65
:101D500072665F73646B5C696E74656772617469E7
:101D60006F6E5C6E7266785C6C65676163795C6EE1
:101D700072665F6472765F636C6F636B2E630000E4
:101D8000633A5C6E72665F73646B5C696E74656700
:101D9000726174696F6E5C6E7266785C6E72667882
:101DA0005F676C75652E6800433A5C6E72665F73A0
:101DB000646B5C6D6F64756C65735C6E7266785C89
:101DC000647269766572735C7372635C6E72667856
:101DD0005F636C6F636B2E6300000000633A5C6EA0
:101DE00072665F73646B5C696E7465677261746957
:101DF0006F6E5C6E7266785C6E7266785F676C752B
:101E0000652E6800633A5C6E72665F73646B5C6D2E
:101E10006F64756C65735C6E7266785C68616C5C2F
:101E20006E72665F7274632E68000000433A5C6EE7
:101E300072665F73646B5C6D6F64756C65735C6E0A
:101E40007266785C647269766572735C7372635CE7
:101E50006E7266785F7274632E630000433A5C6E44
:101E600072665F73646B5C636F6D706F6E656E74CA
:101E7000735C6C69627261726965735C7574696CBC
:101E80005C6170705F7574696C5F706C6174666FB3
:051E9000726D2E6300DD
:041E98000090D003E3
:0400000300000219DE
:00000001FF
