:1000000000000120190200000102000003020000AC
:1000100005020000070200000902000000000000C5
:100020000000000000000000000000000B020000C3
:100030000D020000000000000F020000110200008D
:10004000130200001302000013020000130200005C
:10005000130200001302000013020000130200004C
:1000600051160000130200001302000013020000EA
:10007000130200001302000013020000130200002C
:10008000130200001302000013020000130200001C
:10009000130200001302000013020000130200000C
:1000A00013020000130200001302000013020000FC
:1000B0001302000013020000000000000000000016
:1000C00013020000130200001302000013020000DC
:1000D00013020000130200001302000000000000E1
:1000E0000000000000000000000000000000000010
:1000F0000000000000000000000000000000000000
:1001000000000000000000000000000000000000EF
:1001100000000000000000000000000000000000DF
:1001200000000000000000000000000000000000CF
:1001300000000000000000000000000000000000BF
:1001400000000000000000000000000000000000AF
:10015000000000000000000000000000000000009F
:10016000000000000000000000000000000000008F
:10017000000000000000000000000000000000007F
:10018000000000000000000000000000000000006F
:10019000000000000000000000000000000000005F
:1001A000000000000000000000000000000000004F
:1001B000000000000000000000000000000000003F
:1001C000000000000000000000000000000000002F
:1001D000000000000000000000000000000000001F
:1001E000000000000000000000000000000000000F
:1001F00000000000000000000000000000000000FF
:10020000FEE7FEE7FEE7FEE7FEE7FEE7FEE7FEE7C6
:10021000FEE7FEE700F002B8FFF7FCBF0F484FF023
:100220000701884385460E4880470E48016841F41F
:1002300070010160BFF34F8FBFF36F8F00F01AB8EA
:1002400009480A490A4A884207D0521A05D0037859
:1002500001300B700131013AF9D1704700000120E3
:10026000890D000088ED00E0D4340000000000207B
:1002700000000020344935480A1A02D00722914371
:100280008D46334933480A1A06D00722914381F339
:100290000988022282F314882F483049304A00F03E
:1002A00041F830483049314A00F03CF83048314993
:1002B000314A00F037F831483149324A00F032F81B
:1002C00031483249324A00F02DF832483249334A37
:1002D00000F028F832483349334A00F023F8334815
:1002E0003349002200F029F832483349002200F057
:1002F00024F832483249091A03F0D0F8314A9047BD
:100300001F482049884205D00268043003B4904752
:1003100003BCF7E700208646EC46002000212A4A6D
:100320009047FEE7884207D0521A05D00378013083
:100330000B700131013AF9D17047884202D0027046
:100340000130FAE7704700000000012000E00020C3
:100350000000012000000120B03E0000000000204D
:1003600030000020CC030000CC030000B0340000BB
:10037000B03E00000000002000000020D434000047
:10038000D4340000D4340000D4340000D43400004D
:10039000D4340000D4340000D4340000AD3E00005A
:1003A000E03E00003000002030000020300000203F
:1003B0001C0A00201C0A00201C0A00201C0A002025
:0C03C0001C2A002041020000350400004F
:1003CC0000B585B00190019B002B0AD0074B43F080
:1003DC0001030393019B9B010293039B0298984793
:1003EC0000E000BF05B05DF804FB00BF3035000035
:1003FC0000B583B00190019B002B0AD04FF47A70AA
:10040C00FFF7DEFF019B013B0193019B002BF5D114
:10041C0000E000BF03B05DF804FB82B001900091D6
:10042C0000BF02B07047000000B587B000230593F1
:10043C00012000F07BF9184A01AB92E8030083E835
:10044C00030001238DF8053001AB144A19461448FA
:10045C0000F01CFF0590059B0493049B002B04D01B
:10046C00104A1E21049801F045F9002303930C480F
:10047C0001F006F80A4801F031F80021084801F0B3
:10048C005BF803900399084802F091FB4FF47A70E3
:10049C00FFF7AEFFEEE700BF1C350000270400009D
:1004AC0000000020D43400000435000000B583B0F7
:1004BC000190019B1B68184600F0B5F80346002B11
:1004CC0004D105494FF4F67001F007FA4FF0A04340
:1004DC00184603B05DF804FB3835000000B585B054
:1004EC000190084611461A4603468DF803300B4618
:1004FC008DF8023013468DF8013001AB1846FFF72A
:10050C00D5FF03909DF803209DF802305B001A4341
:10051C009DF801309B001A439DF818301B0242EAEB
:10052C0003019DF81C301B04019A1943039B02F52F
:10053C00E07243F8221000BF05B05DF804FB00B573
:10054C0085B0039000230193002300930023012224
:10055C0001210398FFF7C2FF00BF05B05DF804FB53
:10056C0000B585B003900B468DF80B309DF80B3021
:10057C000022019200220092002200210398FFF732
:10058C00ADFF00BF05B05DF804FB00B585B0019070
:10059C0001AB1846FFF78AFF0390019B012202FA78
:1005AC0003F31946039800F02AF800BF05B05DF874
:1005BC0004FB00B585B0019001AB1846FFF776FF40
:1005CC000390019B012202FA03F31946039800F0F1
:1005DC0020F800BF05B05DF804FB00B583B00190B6
:1005EC000091009B002B03D10198FFF7E2FF02E082
:1005FC000198FFF7CAFF00BF03B05DF804FB82B09F
:10060C0001900091019B009AC3F8082500BF02B02D
:10061C00704782B001900091019B009AC3F80C25A1
:10062C0000BF02B0704784B00190019B5B0902933C
:10063C0000230393029B002B03D14FF0FF33039352
:10064C0000BF019B03F01F030193039A019B22FA45
:10065C0003F303F00103002B14BF01230023DBB2CF
:10066C00184604B07047000000B583B00190019BA0
:10067C00032B03D90749472001F02FF9064A019BA8
:10068C0013441B7801211846FFF7A7FF00BF03B0E6
:10069C005DF804FB603500008835000000B583B0C0
:1006AC000023019305E00198FFF7DEFF019B013366
:1006BC000193019B032BF6D900BF00BF03B05DF87B
:1006CC0004FB000000B583B00023019309E0094A44
:1006DC00019B13441B781846FFF731FF019B013334
:1006EC000193019B032BF2D9FFF7D8FF00BF03B096
:1006FC005DF804FB8835000000B583B0002301933E
:10070C000AE0094A019B13441B7803211846FFF7A2
:10071C0027FF019B01330193019B032BF1D900BFF0
:10072C0000BF03B05DF804FB8C35000000B583B04E
:10073C000190019B03F00103002B01D0FFF7C2FFD6
:10074C00019B03F00203002B01D0FFF7D5FF00BF84
:10075C0003B05DF804FB0000BFF34F8F00BF064BE6
:10076C00DB6803F4E0620449044B1343CB60BFF332
:10077C004F8F00BF00BFFDE700ED00E00400FA055D
:10078C0082B01D4B1B68B3F1FF3F0AD11B4B1B689A
:10079C00DBB201931A4B1B681B0903F00F03009388
:1007AC0005E0154B1B680193164B1B680093019BCE
:1007BC00062B1DD1009B033B042B17D801A252F82A
:1007CC0023F000BFE5070000E9070000ED0700007B
:1007DC00F1070000F507000001230AE0012308E0FF
:1007EC00012306E0012304E0012302E0012300E0E1
:1007FC000023184602B0704730010010E00F00F0E3
:10080C00E80F00F03401001082B0174B1B68DBB20C
:10081C000193164B1B681B0903F00F030093019BFC
:10082C00062B1DD1009B033B042B17D801A252F8B9
:10083C0023F000BF55080000590800005D080000B7
:10084C00610800006508000001230AE0002308E0AD
:10085C00002306E0002304E0002302E0002300E074
:10086C000023184602B07047E00F00F0E80F00F0CC
:10087C0082B01D4B1B68B3F1FF3F0AD11B4B1B68A9
:10088C00DBB201931A4B1B681B0903F00F03009397
:10089C0005E0154B1B680193164B1B680093019BDD
:1008AC00062B1DD1009B033B042B17D801A252F839
:1008BC0023F000BFD5080000D9080000DD080000B7
:1008CC00E1080000E508000001230AE0012308E02C
:1008DC00012306E0012304E0012302E0012300E0F0
:1008EC000023184602B0704730010010E00F00F0F2
:1008FC00E80F00F03401001082B0174B1B68DBB21C
:10090C000193164B1B681B0903F00F030093019B0B
:10091C00062B1DD1009B033B042B17D801A252F8C8
:10092C0023F000BF45090000490900004D090000F3
:10093C00510900005509000001230AE0002308E0DA
:10094C00002306E0002304E0002302E0002300E083
:10095C000023184602B07047E00F00F0E80F00F0DB
:10096C0082B01D4B1B68B3F1FF3F0AD11B4B1B68B8
:10097C00DBB201931A4B1B681B0903F00F030093A6
:10098C0005E0154B1B680193164B1B680093019BEC
:10099C00062B1DD1009B033B042B17D801A252F848
:1009AC0023F000BFC5090000C9090000CD090000F3
:1009BC00D1090000D509000001230AE0012308E059
:1009CC00012306E0012304E0012302E0012300E0FF
:1009DC000023184602B0704730010010E00F00F001
:1009EC00E80F00F03401001082B0174B1B68DBB22B
:1009FC000193164B1B681B0903F00F030093019B1B
:100A0C00062B1DD1009B033B042B17D801A252F8D7
:100A1C0023F000BF350A0000390A00003D0A00002F
:100A2C00410A0000450A000001230AE0002308E007
:100A3C00002306E0002304E0002302E0002300E092
:100A4C000023184602B07047E00F00F0E80F00F0EA
:100A5C0082B0174B1B68DBB20193164B1B681B094A
:100A6C0003F00F030093019B062B1DD1009B033B4E
:100A7C00042B17D801A252F823F000BF9D0A0000E6
:100A8C00A10A0000A50A0000A90A0000AD0A000096
:100A9C0001230AE0002308E0002306E0002304E021
:100AAC00002302E0002300E00023184602B0704748
:100ABC00E00F00F0E80F00F082B01D4B1B68B3F1A3
:100ACC00FF3F0AD11B4B1B68DBB201931A4B1B680F
:100ADC001B0903F00F03009305E0154B1B680193F2
:100AEC00164B1B680093019B062B1DD1009B033BEF
:100AFC00042B17D801A252F823F000BF1D0B0000E5
:100B0C00210B0000250B0000290B00002D0B000011
:100B1C0000230AE0002308E0012306E0012304E09F
:100B2C00012302E0012300E00023184602B07047C5
:100B3C0030010010E00F00F0E80F00F0340100105D
:100B4C0082B01D4B1B68B3F1FF3F0AD11B4B1B68D6
:100B5C00DBB201931A4B1B681B0903F00F030093C4
:100B6C0005E0154B1B680193164B1B680093019B0A
:100B7C00062B1DD1009B033B042B17D801A252F866
:100B8C0023F000BFA50B0000A90B0000AD0B00006B
:100B9C00B10B0000B50B000001230AE0012308E0B3
:100BAC00012306E0012304E0012302E0012300E01D
:100BBC000023184602B0704730010010E00F00F01F
:100BCC00E80F00F03401001082B01D4B1B68B3F12C
:100BDC00FF3F0AD11B4B1B68DBB201931A4B1B68FE
:100BEC001B0903F00F03009305E0154B1B680193E1
:100BFC00164B1B680093019B062B1DD1009B033BDE
:100C0C00042B17D801A252F823F000BF2D0C0000C2
:100C1C00310C0000350C0000390C00003D0C0000BC
:100C2C0001230AE0012308E0012306E0012304E08C
:100C3C00012302E0012300E00023184602B07047B4
:100C4C0030010010E00F00F0E80F00F0340100104C
:100C5C0082B0154B1B680193144B1B680093019BCE
:100C6C00062B1DD1009B033B042B17D801A252F875
:100C7C0023F000BF950C0000990C00009D0C0000A7
:100C8C00A10C0000A50C000000230AE0002308E0E2
:100C9C00002306E0012304E0012302E0012300E02D
:100CAC000023184602B070473001001034010010C8
:100CBC0082B0154B1B680193144B1B680093019B6E
:100CCC00062B1DD1009B033B042B17D801A252F815
:100CDC0023F000BFF50C0000F90C0000FD0C000027
:100CEC00010D0000050D000000230AE0002308E0C0
:100CFC00002306E0002304E0012302E0012300E0CE
:100D0C000023184602B07047300100103401001067
:100D1C0008B5FFF7CDFF0346002B07D04FF010238B
:100D2C004FF08042D3F80832C2F8583500BF08BDE6
:100D3C0000BF044BD3F80034002BFAD000BF00BF27
:100D4C00704700BF00E0014000B583B00190054A38
:100D5C00019BC2F80435FFF7EBFF00BF03B05DF851
:100D6C0004FB00BF00E00140024B034A1A6000BFC5
:100D7C00704700BF080000200090D00308B5FFF7B3
:100D8C00FFFC0346002B06D0964B1B681B0A964AA9
:100D9C0003F01F031360FFF737FD0346002B02D04F
:100DAC00924B934A1A60FFF763FD0346002B06D063
:100DBC00904B1B685B0B904A03F007031360FFF723
:100DCC009BFD0346002B05D08C4BDB688B4A23F034
:100DDC008073D360FFF7C4FD0346002B0ED04FF099
:100DEC0080430022C3F80C214FF080430022C3F84B
:100DFC0010214FF080430022C3F83825FFF7F4FD93
:100E0C000346002B02D07E4B03221A60FFF720FE14
:100E1C000346002B0BD07B4B05221A607A4B012228
:100E2C001A607A4B00221A60794B3F221A60FFF746
:100E3C0043FE0346002B76D04FF08053754AD3F80F
:100E4C000434C2F820354FF08053724AD3F808347A
:100E5C00C2F824354FF080536E4AD3F80C34C2F8E4
:100E6C0028354FF080536B4AD3F81034C2F82C3528
:100E7C004FF08053674AD3F81434C2F830354FF032
:100E8C008053644AD3F81834C2F834354FF0805389
:100E9C00604AD3F81C34C2F840354FF080535D4A99
:100EAC00D3F82034C2F844354FF08053594AD3F864
:100EBC002434C2F848354FF08053564AD3F82834BE
:100ECC00C2F84C354FF08053524AD3F82C34C2F848
:100EDC0050354FF080534F4AD3F83034C2F8543564
:100EEC004FF080534B4AD3F83434C2F860354FF08E
:100EFC008053484AD3F83834C2F864354FF08053E5
:100F0C00444AD3F83C34C2F868354FF08053414A18
:100F1C00D3F84034C2F86C354FF080533D4AD3F8C7
:100F2C004434C2F87035FFF70BFE0346002B05D096
:100F3C00394B1B68394A03F04F031360FFF744FE2B
:100F4C000346002B0DD04FF08043D3F8003403F050
:100F5C000103002B05D04FF080436FF00102C3F862
:100F6C000024FFF775FE0346002B05D02C4B1B68A5
:100F7C002B4A43F4806313602A4BD3F88830294AF8
:100F8C0043F47003C2F88830BFF34F8F00BFBFF338
:100F9C006F8F00BFFFF7BCFE4FF01023D3F8003269
:100FAC00002B05DB4FF01023D3F80432002B15DA9D
:100FBC000120FFF7C9FE4FF010231522C3F80022C1
:100FCC00FFF7B6FE4FF010231522C3F80422FFF7EB
:100FDC00AFFE0020FFF7B8FEFFF7BEFBFFF7C4FE25
:100FEC0000BF08BD240300104035014074C0074009
:100FFC000DF0ADBA440200103C050040F0ED00E0ED
:10100C00A00500401056004088560040185600407D
:10101C001456004000C0004058020010E40E00407E
:10102C003C17004000ED00E082B003468DF807301D
:10103C009DF90730002B0CDB9DF8073003F01F02E5
:10104C0005499DF907305B09012000FA02F241F8CD
:10105C00232000BF02B0704700E100E082B00346DD
:10106C0000918DF807309DF90730002B0ADB009BAF
:10107C00DAB20C499DF907305201D2B20B4483F815
:10108C0000230BE0009BDAB207499DF8073003F010
:10109C000F03043B5201D2B20B441A7600BF02B0CC
:1010AC00704700BF00E100E000ED00E082B001906D
:1010BC00019B1B0B5BB2184602B0704700B583B0A6
:1010CC0003460A468DF8073013468DF806309DF816
:1010DC000630072B03D908496B2000F0FEFB9DF866
:1010EC0006209DF9073011461846FFF7B7FF00BFE1
:1010FC0003B05DF804FB00BF9035000000B583B071
:10110C0003468DF807309DF907301846FFF78CFF22
:10111C0000BF03B05DF804FB82B001900B468DF864
:10112C0003309DF80330019A134401221A6000BF6A
:10113C0002B0704784B001900B46ADF80230BDF898
:10114C000230019A134400221A60BDF80230019A51
:10115C0013441B680393039B00BF04B0704782B019
:10116C0001900B46ADF80230BDF80230019A1344E1
:10117C001B68002B14BF01230023DBB2184602B0FE
:10118C00704782B001900091019BD3F80423009B1F
:10119C001340002B14BF01230023DBB2184602B00E
:1011AC00704782B001900B468DF80330019BD3F849
:1011BC00043523F003029DF8033003F003031A43B4
:1011CC00019BC3F8042500BF02B0704782B00190A8
:1011DC00019BD3F80435DBB2184602B0704782B0DD
:1011EC0001900B468DF80330019BD3F8083523F0A2
:1011FC0003029DF8033003F003031A43019BC3F869
:10120C00082500BF02B0704782B001900B468DF8E4
:10121C000330019BD3F8103523F00F029DF80330F7
:10122C0003F00F031A43019BC3F8102500BF02B053
:10123C00704782B001900B468DF803309DF8032067
:10124C00019B02F5A87253F82230184602B0704781
:10125C0082B00190019B9B004033DBB2184602B078
:10126C00704782B00190019B9B0003F5A0739BB269
:10127C00184602B0704782B001904FF48032019B47
:10128C0002FA03F3184602B07047000010B588B09C
:10129C00039002910192039B1B791A4613465B0043
:1012AC0013449B006F4A13440793029B002B03D1FA
:1012BC006D494A2000F011FB019B002B03D16A49B8
:1012CC004B2000F00AFB079B1B7A002B03D0082352
:1012DC000593059BC2E0039B1B68644A93420FD1A4
:1012EC00029B9B78012B63D0029B9B78002B5FD0D9
:1012FC00029B9B78022B5BD0029B9B78032B57D0D5
:10130C00039B1B685A4A93420FD1029B9B78012B7B
:10131C004ED0029B9B78002B4AD0029B9B78022BD1
:10132C0046D0029B9B78032B42D0039B1B68514AEF
:10133C0093420FD1029B9B78012B39D0029B9B7857
:10134C00002B35D0029B9B78022B31D0029B9B78D3
:10135C00032B2DD0039B1B68474A93420FD1029B52
:10136C009B78012B24D0029B9B78002B20D0029BD6
:10137C009B78022B1CD0029B9B78032B18D0039BD1
:10138C001B683E4A93420FD1029B9B78012B0FD0D6
:10139C00029B9B78002B0BD0029B9B78022B07D0D7
:1013AC00029B9B78032B03D02F495F2000F095FA0A
:1013BC00079B019A1A60029B5A68079B5A6000238C
:1013CC008DF81B3010E0039B1C689DF81B301846F1
:1013DC00FFF747FF034619462046FFF7ABFE9DF883
:1013EC001B3001338DF81B30039B5B799DF81B2060
:1013FC009A42E8D3039B1B681846FFF757FE034637
:10140C001A46029BDB7819461046FFF757FE039BE2
:10141C001B681846FFF74AFE03461846FFF76EFE98
:10142C00039B1A68029B5B7819461046FFF7B9FEBE
:10143C00039B1A68029B9B7819461046FFF7CFFE58
:10144C00039B1A68029B1B7819461046FFF7DCFEBB
:10145C00079B01221A7200230593059B184608B0BE
:10146C0010BD00BF30000020C035000000800040DF
:10147C000090004000A0004000A0014000B00140DE
:10148C0000B583B00190019B1B791946114A0B469C
:10149C005B000B449B00134408331B78012B03D0D7
:1014AC000D498F2000F019FA019B1B68002118468A
:1014BC00FFF732FE019B1B791946064A0B465B006F
:1014CC000B449B001344083302221A7000BF03B074
:1014DC005DF804FB30000020C035000000B583B07F
:1014EC000190019B1B791946114A0B465B000B447A
:1014FC009B00134408331B78002B03D10D49B920F2
:10150C0000F0EBF9019B1B681846FFF75FFE0346E2
:10151C00002B03D10749BA2000F0DFF9019B1B68AF
:10152C0008211846FFF7F8FD00BF03B05DF804FB77
:10153C0030000020C035000010B582B001900B4681
:10154C008DF80330019B1B791946184A0B465B003A
:10155C000B449B00134408331B78002B03D1144914
:10156C00C22000F0BAF9019B5B799DF803209A42E6
:10157C0003D30F49C32000F0B0F9019B1C689DF800
:10158C0003301846FFF764FE034619462046FFF762
:10159C00C3FD019B1B689DF8032011461846FFF7FD
:1015AC0048FE0346184602B010BD00BF30000020B4
:1015BC00C035000000B587B00390029113468DF83A
:1015CC00073000238DF8173030E09DF8173018469F
:1015DC00FFF747FE0346ADF814309DF81730184658
:1015EC00FFF749FE0490BDF8143019460398FFF735
:1015FC00B6FD0346002B14D004990398FFF7C1FDE8
:10160C000346002B0DD0BDF8143019460398FFF794
:10161C0091FD029B1B68029A5168BDF8142010467C
:10162C0098479DF8173001338DF817309DF8172027
:10163C009DF807309A42C8D300BF00BF07B05DF8D1
:10164C0004FB000008B5042202490348FFF7B2FF6F
:10165C0000BF08BD300000200080004086B0039021
:10166C000291019201238DF817309DF81730204A12
:10167C00039B13601E4A029B53601D4A019B93609F
:10168C00039B44F20102934212D0039B44F20202E8
:10169C00934220D1019B164AD360154BDB681B6823
:1016AC00134A9361124BDB685B68114AD36112E0F9
:1016BC00019B0F4A13610E4B1B699B680C4A5361CB
:1016CC000B4B1B691B680A4A9361094B1B695B68CE
:1016DC00074AD36100BF72B600BF00BF9DF8173038
:1016EC00DBB2002BFAD162B600BF00BF06B0704768
:1016FC003C00002000B583B002900091019244F2AE
:10170C00010071466A4600F003F803B000BD00BF4B
:10171C0030B58BB007900691059272B600BF01F000
:10172C0057F800F085FE0346002BFAD1079B44F2D4
:10173C000102934216D0079B44F2020293423ED11F
:10174C00059B09932C4A2D4BD31ADB081B0443F041
:10175C000100099B5B681A46099B1B68284900F02D
:10176C002AFE39E0059B0893234A244BD31ADB0845
:10177C001B0443F00104089B9D68089B9B6818465A
:10178C0000F05EFB03461846089B5B681946089BF5
:10179C001B68069A02920193009103462A46194946
:1017AC00204600F01CFE144A144BD31ADB081B0411
:1017BC0043F001031449184600F0DEFD0CE00E4A1C
:1017CC000E4BD31ADB081B0443F00103069A0F4996
:1017DC00184600F0DFFD00BF0D4B1B6803F0010342
:1017EC00002B00D000BE059A06990798FFF736FF2C
:1017FC0000BF0BB030BD00BFB8340000B0340000E7
:10180C00F435000010360000383600004C3600006D
:10181C00F0ED00E072B600BF034B1B680133024AC7
:10182C00136000BF704700BF5C000020064B1B68B4
:10183C00013B054A1360044B1B68002B01D162B6B7
:10184C0000BF00BF704700BF5C00002000B583B034
:10185C00019000F025F80346012B03D004494320E6
:10186C0000F03BF8FFF7D6FF00BF03B05DF804FBB8
:10187C006436000000B583B003468DF8073000F0E5
:10188C000FF80346012B03D00449512000F025F832
:10189C00FFF7CCFF00BF03B05DF804FB643600001B
:1018AC0084B0EFF305830193019BC3F30803039307
:1018BC00039B002B0DD1EFF314830093009B029339
:1018CC00029B03F00103002B0CBF01230023DBB2AE
:1018DC0000E00123184604B0704700B585B00346FC
:1018EC000091ADF80630BDF806300293009B0393CF
:1018FC0002AB1A46002144F20200FFF709FF00BFB9
:10190C0005B05DF804FB10B487B001900091019B09
:10191C00009A53E8004F104643E8000191F0000F85
:10192C00F7D1059404900391059B184607B05DF818
:10193C00044B704710B487B001900091019B009A42
:10194C0053E8004F44EA020043E8000191F0000F15
:10195C00F6D1059404900391049B184607B05DF8EA
:10196C00044B704710B487B001900091019B009A12
:10197C0053E8004F04EA020043E8000191F0000F25
:10198C00F6D1059404900391059B184607B05DF8B9
:10199C00044B704710B487B001900091019B009AE2
:1019AC0053E8004F04EB020043E8000191F0000FF4
:1019BC00F6D1059404900391049B184607B05DF88A
:1019CC00044B704710B487B001900091019B009AB2
:1019DC0053E8004FA4EB020043E8000191F0000F24
:1019EC00F6D1059404900391049B184607B05DF85A
:1019FC00044B704700B583B0019001210198FFF7AB
:101A0C0099FF0346184603B05DF804FB00B583B09C
:101A1C00019000210198FFF7A5FF0346184603B07B
:101A2C005DF804FB00B583B001900B468DF80330D4
:101A3C00019B002B03D10849E820FFF74EFF019BC7
:101A4C00DA689DF803300199098A01FB03F313440A
:101A5C00184603B05DF804FBA036000000B583B057
:101A6C0001900091019B002B03D10849F520FFF751
:101A7C0034FF009B019AD2689B1A019A128AB3FB1D
:101A8C00F2F3DBB2184603B05DF804FBA03600009D
:101A9C0000B585B00190019B002B04D11C494FF47B
:101AAC009270FFF71AFF002303930020FFF7CEFE7E
:101ABC00019B1B681A68019B5B689A421FD9019BAA
:101ACC001B681A68013A1A601B681B781946019842
:101ADC00FFF7A8FF0390019B9A68019B1B681B688A
:101AEC00D31A8DF80B30019B1B681B799DF80B20CA
:101AFC009A4204D9019B1B689DF80B201A71002097
:101B0C00FFF7B8FE039B184605B05DF804FB00BF59
:101B1C00A036000010B584B001900091019B002B01
:101B2C0004D1114940F24710FFF7D7FE009B002B60
:101B3C0004D10D494FF4A470FFF7CFFE009B039323
:101B4C000020FFF783FE019B1B681C68621C1A6057
:101B5C0003990198FFF782FF034623700020FFF7DB
:101B6C0089FE00BF04B010BDA036000000B58BB0DC
:101B7C0001900091019B1B8A043B0793009A079BE1
:101B8C001344DA1C079BB2FBF3F38DF81B3001985E
:101B9C00FFF77EFF0590059B002B01D1002338E059
:101BAC00059B00221A71059B01225A71079B9AB260
:101BBC00059BDA80059B09939DF81B30013B049330
:101BCC00099B019A1A60002308931DE00198FFF706
:101BDC005FFF0390039B002B0ED0059B5B790133B9
:101BEC00DAB2059B5A71099B039A1A60039B019AFE
:101BFC001A60039B099304E0059800F00EF800238B
:101C0C0007E0089B01330893089A049B9A42DDD3A2
:101C1C00059B18460BB05DF804FB00B58BB001902A
:101C2C00019B0793079B5B798DF81B30019B0893F5
:101C3C009DF81B30013B05930023099305E0089B9D
:101C4C001B680893099B01330993099A059B9A42D7
:101C5C00F5D3089B1B680493019B089300230993FD
:101C6C000BE0089B1B68039308990498FFF752FF3D
:101C7C00039B0893099B013309939DF81B30099A28
:101C8C009A42EED300BF00BF0BB05DF804FB00B569
:101C9C0085B00190019B0393039B043301211846EB
:101CAC00FFF778FE00BF05B05DF804FB00B587B008
:101CBC000190019B0593059B043301211846FFF706
:101CCC0081FE0346039303AB0493049B1B78002B08
:101CDC0002D10198FFF7A1FF00BF07B05DF804FB2C
:101CEC0000B591B00390029101920093039B002BDD
:101CFC0003D14349B620FFF7F0FD039B0993039BE7
:101D0C000F93099BDB881A46099B5B7902FB03F353
:101D1C00043B0893009A089B9A4203D33849C42089
:101D2C00FFF7DBFD099BDB880793009B1A1D079BC4
:101D3C00B2FBF3F30E93009B0433079AB3FBF2F25E
:101D4C00079901FB02F29B1A0D93019B1A68009BE9
:101D5C001344089A9A4203D2089A009BD31A01E0C2
:101D6C00019B1B680C93019B0C9A1A6005E00F9B5E
:101D7C001B680F930E9B013B0E930E9B002BF6D111
:101D8C0000230B93079A0D9BD31A0A930A9A0C9B68
:101D9C00934228BF13460A932AE0029A0B9B1344E2
:101DAC0006930F9A0D9B1344043305939DF848300A
:101DBC00002B05D00A9A0599069800F0BBFD04E0AB
:101DCC000A9A0699059800F0B5FD00230D930F9B18
:101DDC001B680F930C9A0A9BD31A0C930B9A0A9BB1
:101DEC0013440B93079A0C9B934228BF13460A93F8
:101DFC000C9B002BD1D100BF00BF11B05DF804FBD0
:101E0C00D436000000B589B005900491039202937A
:101E1C00039B079307AA00230093029B0499059840
:101E2C00FFF75EFF079B039A9A4203D00349F62003
:101E3C00FFF753FD00BF09B05DF804FBD43600007A
:101E4C0000B585B00190019800F00EF80390039B4B
:101E5C00002B01D0039B00E0024B184605B05DF847
:101E6C0004FB00BF0837000086B00190164B0593A9
:101E7C00164B04931FE0049A059BD31ADB10DA0F60
:101E8C0013445B10DB00059A13440393039B1B68FC
:101E9C000293029A019B9A4202D9039B04930AE093
:101EAC00029A019B9A4203D2039B0833059302E0EA
:101EBC00039B5B6804E0059A049B9A42DBD30023E6
:101ECC00184606B0704700BFDC3A0000F43B000037
:101EDC0000B583B001900091019B1B681B680099B1
:101EEC000198984700BF03B05DF804FB00B583B0C0
:101EFC000190019B1B685B680198984700BF03B079
:101F0C005DF804FB00B583B00190019B1B689B68D6
:101F1C000198984700BF03B05DF804FB82B00190B4
:101F2C00019BDB6801225A7100BF02B0704782B07E
:101F3C000190019BDB685B79184602B0704700008A
:101F4C00024A034BD31ADB0818467047C034000012
:101F5C00B034000084B00190009100238DF80F3054
:101F6C00019B1B7803F00403DBB2002B24D0019BF4
:101F7C001B78C3F30103DBB2012B02D0022B0CD074
:101F8C0017E0009B1B68019A1288C2F38312D2B22D
:101F9C0013449A1C009B1A600BE0009B1B68019A6F
:101FAC005288C2F3891292B213449A1C009B1A6095
:101FBC0000BF01238DF80F309DF80F30184604B088
:101FCC007047000000B58BB00023ADF826303E48BA
:101FDC00FFF710FD3D48FFF70DFD3D4B9B6804934B
:101FEC003C4B1B680693049A069B134002339B00E0
:101FFC00374A13440433089304AB19460898FFF787
:10200C00A9FF0346002B09D0049A069B1340023308
:10201C009B002F4A134404330893EDE700BF0023C1
:10202C00079311E0049B5A1C0492069A1340079ADA
:10203C00920001A90A44264902339B000B445B68B9
:10204C001360079B01330793079B012BEAD99DF87B
:10205C000430C3F30103DBB2012B10D0022B1CD1D3
:10206C00BDF80A30ADF82630BDF80630C3F389133D
:10207C009BB203339A08049B1344049313E0BDF8FA
:10208C000A30ADF82630BDF80430C3F38313DBB24D
:10209C001A46049B1344049305E00F494FF4C27095
:1020AC00FFF71BFC00BF0948FFF7B0FC0590059B30
:1020BC00002B02D0049B064A9360BDF826301846CC
:1020CC000BB05DF804FB00BF480500204405002060
:1020DC00300100200C000020F83B000000B585B05A
:1020EC0000210748FFF70FFC0390039B0293029B10
:1020FC0083F310030193019B184605B05DF804FBB4
:10210C004C05002000B589B0039002910192009318
:10211C00039B1B0C0793FFF7E1FF0690FFF710FFE3
:10212C000246079B934204D3214940F2A910FFF7C2
:10213C00D4FB069B1904009B5A1C0A9B1340079A5C
:10214C000A431C4902339B000B445A60009A0A9BB9
:10215C00134002339B00174A134404330593039B2B
:10216C0003F00703D9B2059A137861F3C503137012
:10217C00019B03F00F03D9B2059A138861F38913FD
:10218C001380029BC3F31501059A136861F39F2317
:10219C001360059A1378012161F301031370059AFA
:1021AC0013786FF38203137000BF09B05DF804FB62
:1021BC00F83B00003001002000BF704700B58BB029
:1021CC000390029113468DF80730039B023308935A
:1021DC0001238DF81F300020FFF738FB3E4B5A6867
:1021EC00029B1A603D4B1A683B4B99683A4B5B68F3
:1021FC00CB1A13440133099314E001213848FFF73B
:10220C00C9FBFFF7DFFE059005993548FFF7C2FBC8
:10221C00324B1A68304B99682F4B5B68CB1A1344BE
:10222C0001330993089A099B9A42E6D89DF81F300E
:10223C00002B48D0002304939DF80730002B17D0B7
:10224C009DF81030012262F301038DF810309DF8D7
:10225C00103043F004038DF81030039B03F00F0390
:10226C00DAB2BDF8103062F38913ADF8103016E015
:10227C009DF81030022262F301038DF810309DF8A6
:10228C00103043F004038DF81030039BC3F30903A3
:10229C009AB2BDF8123062F38F13ADF812300E4BB8
:1022AC005A680E4B1B68134002339B000A4A1344B6
:1022BC0004330693049A069B1A60074B5A68089BD2
:1022CC001344054A53600020FFF7D4FA9DF81F30E1
:1022DC0018460BB05DF804FB300100200C00002008
:1022EC004C05002000B58BB005900491039202932D
:1022FC001F4B1B68079306AB012219460298FFF788
:10230C005DFF0346002B24D0069B02330993002368
:10231C00089311E0089B9B00039A1A44099B591CD3
:10232C00099107990B401268124902339B000B4428
:10233C005A60089B01330893089A029B9A42E9D38E
:10234C00069A079B00931346029A04990598FFF787
:10235C00D9FE084B1B78002B04D000F069F803461B
:10236C00002BFAD1FFF728FF00BF0BB05DF804FB80
:10237C000C0000203001002000B583B001900091CA
:10238C000023002200990198FFF7ACFF00BF03B0B7
:10239C005DF804FB00B587B0039002910192019B9C
:1023AC00059305AA012302990398FFF79BFF00BF31
:1023BC0007B05DF804FB00B587B003900291019261
:1023CC000093019B0493009B059304AA022302999A
:1023DC000398FFF787FF00BF07B05DF804FB00B55B
:1023EC008BB00390029101920093019B0593009B8B
:1023FC0006930C9B07930D9B08930E9B099305AAC0
:10240C00052302990398FFF76DFF00BF0BB05DF831
:10241C0004FB0000054B9A68044B5B689A420CBFA6
:10242C0001230023DBB21846704700BF30010020A7
:10243C0000B599B0FFF7EEFF0346002B01D0002347
:10244C00B9E19B4B0022C3F81824BFF34F8F00BF98
:10245C00974B9B680493974B1B681093049A109BA3
:10246C00134002339B00924A13440433119300230C
:10247C0017930023169300230F9304AB194611985E
:10248C00FFF768FD0346002B19D0894BD3F818349D
:10249C00002B14D1864B5A68049B9A4205D8844B66
:1024AC005B68834A9360002385E1049A109B134078
:1024BC0002339B007E4A134404331193DDE700235F
:1024CC00159311E0049B5A1C0492109A1340159A10
:1024DC00920001A90A44764902339B000B445B68C5
:1024EC001360159B01331593159B012BEAD99DF8AD
:1024FC00043003F00303DBB2022B40F09C80BDF8E8
:10250C000630C3F389139BB20D93BDF80630C3F3A9
:10251C0089139BB2502B28BF50239BB20C930C9B5E
:10252C00C3F309039AB2BDF8063062F38F13ADF80A
:10253C0006300C9B08330B939DF80430C3F3C20395
:10254C00DBB20F930B995C48FFF710FB1790179BAE
:10255C00002B00F0D3801798FFF799FB01A9169B6D
:10256C0008221798FFF74EFC169B08331693049B12
:10257C00DA43109B134001339B000A930C9A0A9B7D
:10258C009A4242D90A9B002B08D0049A109B134004
:10259C0002339B00464A1344043300E0474B089334
:1025AC000A9B002B02D00A9BDBB201E00C9BDBB236
:1025BC008DF81F300A9B002B01D0404B00E000230C
:1025CC0006930A9B002B06D00C9BDAB20A9BDBB25B
:1025DC00D31ADBB200E000238DF817309DF81F20D2
:1025EC00169B08991798FFF70DFC9DF81F30169A4B
:1025FC0013441693069B002B16D09DF81720169BA0
:10260C0006991798FFF7FEFB0EE0049A109B1340F7
:10261C0002339B00264A134404330993169B0C9AED
:10262C0009991798FFF7EEFB0D9B03339A08049B4F
:10263C001344049362E09DF8043003F00303DBB20F
:10264C00012B5BD1BDF80430C3F38313DBB2062B33
:10265C0028BF0623DAB2BDF8043062F38913ADF853
:10266C000430BDF80430C3F38313DBB202330E9392
:10267C009DF80430C3F3C203DBB20F930E9B9B0097
:10268C0019460D48FFF772FA1790179B002B35D09F
:10269C001798FFF7FCFA01A9169B08221798FFF769
:1026AC00B1FB169B08331693002315931DE000BF56
:1026BC00300100200C000020C03400003C01002040
:1026CC00049B5A1C0492109A134002339B003C4A00
:1026DC001344191D169B04221798FFF793FB169BA6
:1026EC0004331693159B01331593BDF80430C3F3D3
:1026FC008313DBB21A46159B9342E1D3179B002B35
:10270C0039D02F4BD3F8103414932D4BD3F81834F5
:10271C00002B1BD01798FFF7C9FA46E000238DF861
:10272C004F301498FFF703FC0346002B02D0012313
:10273C008DF84F309DF84F30002B03D0179914981B
:10274C00FFF7C6FB149BDB681B681493149B002BD0
:10275C00E4D11798FFF7AAFA0020FFF777F8184B87
:10276C00D3F81834002B02D1049B154A9360002037
:10277C00FFF780F819E0124BD3F81034129306E0EF
:10278C001298FFF7BFFB129BDB681B681293129B1E
:10279C00002BF5D10B4A0C4BD31ADB081B0443F06E
:1027AC0002030A491846FFF7E7FDFFF733FE03461D
:1027BC0083F00103DBB2184619B05DF804FB00BFCF
:1027CC0030010020B8340000B0340000343C00006C
:1027DC0000B583B00C4BD3F8103401930A4B012293
:1027EC001A7009E00198FFF799FB0198FFF77EFB3F
:1027FC00019BDB681B680193019B002BF2D100BF8E
:10280C0000BF03B05DF804FB3001002040F25051D2
:10281C00C2F200010868002802BF40F21000C2F2A8
:10282C00000008607047002A04BF002070478446EF
:10283C00097848B2002844BF6FF001007047BCF122
:10284C00000F18BFCCF800100021C3E900110028BC
:10285C0018BF012070477F298EBF6FF001000170F7
:10286C00012070477F2884BF0020704743F65C62CC
:10287C00C0F20002515C43F6DC52C0F20002105C64
:10288C0008407047A0F161011A2938BF2038704701
:10289C00A0F141011A2938BF203070477F2884BF2E
:1028AC000020704743F65C62C0F20002515C43F6B4
:1028BC00DC52C0F20002105C08407047A0F16101CC
:1028CC001A2938BF20387047A0F141011A2938BFA6
:1028DC0020307047411C82070CD010F8012B3AB302
:1028EC00820707D010F8012B12B3820702D010F820
:1028FC00012BEAB14FF0013C50F8042BCCFA52F307
:10290C007BB950F8042BCCFA52F353B950F8042B82
:10291C00CCFA52F32BB950F8042BCCFA52F3002B0F
:10292C00EAD004381BBAB3FA83F300EBD3000130BE
:10293C00401A704772B3844690EA01039B0721D179
:10294C00830709D011F8013B00F8013B013A20D074
:10295C008307F7D100E08446202A0AD32DE9F0073B
:10296C00B1E8F807A0E8F807203A202AF8D2BDE829
:10297C00F007042A06D351F8043B40F8043B043A10
:10298C00042AF8D22AB111F8013B00F8013B013AB4
:10299C00F9D16046704700BF00220B0011001A00ED
:1029AC0084465AB3830704D000F8011B013AF9D1CD
:1029BC0024E0C9B241EA012141EA0141202A11D3A4
:1029CC00203A2DE9F0030B460C460D460E460F46F9
:1029DC0088468946A0E8FA03203AFBD2BDE8F0030A
:1029EC0020320BD0042A05D340F8041B043A05D03E
:1029FC00042AF9D200F8011B013AFBD1604670475A
:102A0C0000B500291CBF0278002A01D1002000BDAE
:102A1C00D0F800E00429034609D34FF0013CCCFA6E
:102A2C005EF222B953F804EF04390329F7D8181AC7
:102A3C004FF00132C2FA5EF292FAA2F2B2FA82F2CC
:102A4C00B1EBD20F88BFD108084400BD10B582B0DD
:102A5C00044600698DF8071078B1D4E900239A4236
:102A6C0031D26269531C63618154D4E905018842F7
:102A7C0029D1204600F02CF825E0E06850B1D4E9CB
:102A8C00002C62451FD2531CB3EB0C0318BF0B4632
:102A9C00835418E0A06858B1D4E9002C624512D2D6
:102AAC00531CB3EB0C0318BFCBB240F822300AE036
:102ABC00236A43B1D4E90001884204D20DF1070125
:102ACC0020460122984720680130206002B010BDDA
:102ADC0010B54269002A08BF10BD0446036A002BDA
:102AEC001CBF216998470020606110BD70B5012A98
:102AFC00B8BF70BD0C460546561C28462146FFF74C
:102B0C00A5FF013E012EF8D870BDCB0648BF70471B
:102B1C0089054CBF30212021FFF7E8BF70B5144662
:102B2C000D460646FFF772FE014630462A462346FE
:102B3C00BDE8704000F000B82DE9F04F03AF8DB048
:102B4C0047F83C3C91460E46044600F0AFFB054668
:102B5C00EB46073020F00700ADEB0008C546A7F1A7
:102B6C00380A504600212422FFF71AFF42F6B130F2
:102B7C00C0F2000047E907606FF0004047F8340CE2
:102B8C0047F8144C47F8205C47F8288C50464946C7
:102B9C0057F83C2C00F022F8DD46A7F10C04A546B2
:102BAC00BDE8F08F436A0846012100F0B8BA83B043
:102BBC0000B582B00DF10C0C8CE80E0040F228022E
:102BCC00C2F200020146106803AA0192FFF7A6FFA9
:102BDC0002B0BDE8004003B0704700002DE9F04F93
:102BEC008DB006928B460646002030600DF11E0813
:102BFC00A8F10104049401961BF8011B252906D0A9
:102C0C00002900F077823046FFF720FFF4E7002719
:102C1C0059461BF8012BA2F12003102B0DD8802054
:102C2C00DFE803F0091B1B191B1B1B101B1B3213AA
:102C3C001B151B1B170040200DE05E2A0DD14FF415
:102C4C00805008E04FF4004005E0202003E0102005
:102C5C0001E04FF400700743DAE701F1010BA2F138
:102C6C003000C0B209284FF0000019D81BF8011B26
:102C7C0000EB800002EB40003038A1F13002D2B200
:102C8C000A2A0A46F2D30BE0069A52F8040B069273
:102C9C00002844BF47F0100740424A7801F1020B6C
:102CAC002E2A0DD1594611F8012B2A2A0BD106993F
:102CBC009BF8012051F804CB06910BF1020B18E0A4
:102CCC004FF0000C1EE0A2F13003DBB2092B4FF0E9
:102CDC00000C14D811F8013B0CEB8C0B02EB4B02E3
:102CEC00A2F1300CA3F13002D2B20A2A1A46F1D367
:102CFC008B46BCF1000F58BF47F4807702E047F4D5
:102D0C0080778B46A2F16801CBB2C90141EA53012D
:102D1C00C9B209292AD8DFE801F008141729292992
:102D2C00052929051BF8012B20E0594611F8012B28
:102D3C00682A15D19BF801200BF1020B47F008070C
:102D4C0014E01BF8012B08E0594611F8012B6C2AF2
:102D5C0009D19BF801200BF1020B47F0020705E0AB
:102D6C0047F0040701E047F001078B4620EAE07AC0
:102D7C00622A15DDA2F1630015283FF63DAFDFE8AE
:102D8C0000F0240C0B0B0B0B0C0B0B0B0B36434DED
:102D9C000B0B5C0B6B0B0B172EE747F480475FE0BC
:102DAC00252A00F0AA80582A40F0738147F4005776
:102DBC00F8054FEA076048BF27F40077782A43F2FA
:102DCC00580108BF43F2780125E0DDF81890AAF10C
:102DDC00010599F80040304639462A46FFF795FE22
:102DEC0030462146049CFFF731FE484677E1380710
:102DFC0000F15381B80706993068096852BF086022
:102E0C00002205C106984DE1F8054FEA076048BF5E
:102E1C0027F40077302101EAE07322E03806232101
:102E2C0001EAE070059047F48077069A002152F889
:102E3C00040B06924FF0080CC7E006980468002CAF
:102E4C0004BF43F68964C0F20004F805204600F183
:102E5C002C81FFF73FFD2BE1F80548BF27F40077E5
:102E6C00002307F002007904059305D40028069886
:102E7C0009D1031D00210CE0A8B9069951F8040BE7
:102E8C000691C11717E0073020F0070000F1080386
:102E9C00416800685FEA477915D417F008091CBF30
:102EAC00C0B2002111E00698073020F007035968E2
:102EBC0053F8080B06937B0709D43B0744BF40F338
:102ECC00C01140B206E080B2002106931CE040F332
:102EDC00C03100B200290ADBBB0613D47B06DDF837
:102EEC00149048BF4FF02009CDF814900CE000234B
:102EFC00404263EB01012D2305E030462521FFF70D
:102F0C00A5FD79E62B230593FB0548BF27F4007735
:102F1C00FB0558BF4FF0010C00256E2A23DD6F3ADC
:102F2C00092A00F27480DFE802F0055072727272A6
:102F3C002472725050EA010269D0C20842EA41720E
:102F4C004FF00609134669F3DF0008F80500013558
:102F5C0052EAD1004FEAD1014FEAD20040EA417265
:102F6C001846EFD153E0582A2FD0642A18BF692A8B
:102F7C004DD150EA01024AD0CDE902ACC24607F469
:102F8C0000460C4681463EB105F00300032802BF03
:102F9C002C200AF80500013548460A22002300F0CF
:102FAC00D5F800EB8002A9EB420242F0300208F89F
:102FBC0005200135D9F109020022A241E1D3049C7C
:102FCC000DF1040C9CE8401421E0002550EA0102AC
:102FDC001DD0BA0443F66962C0F200025CBF43F62E
:102FEC007962C0F20002030943EA017300F00F0991
:102FFC00184612F8093008F80530013550EA11135B
:10300C004FEA11114FEA101343EA0173EED1AAEB08
:10301C0005000599FF2988BF013800290A4618BF09
:10302C000122801AACEB050222EAE279A0EB090A34
:10303C00B80507D4304639465246FFF766FD059968
:10304C004FF0000AFF2904D9090A3046FFF7FEFCAD
:10305C00059900291CBF3046FFF7F8FC304639466D
:10306C005246FFF752FD304630214A46FFF73EFDEF
:10307C00012D05DB615D3046FFF7E8FC013DF9D819
:10308C00F8067FF5B9AD304620215246FFF72EFDEC
:10309C00B2E5002A7FF4B0AD3BE0069A10683168C7
:1030AC000170104604300690A6E56146FFF7A8FCB7
:1030BC00814627F40077AAEB0005304639462A46AC
:1030CC00FFF723FDB9F1000F07D014F8011B3046B0
:1030DC00FFF7BCFCB9F10109F7D1049C0698043048
:1030EC000690F8067FF588AD304620212A46FFF77A
:1030FC00FDFC81E5F06828B1D6E9001291423CBF95
:10310C00002242543046FFF7E3FC30680DB0BDE8B6
:10311C00F08F3046FFF7DCFC4FF0FF30F6E7F8B5E8
:10312C001D4617460C460646184600F0A7F8002820
:10313C0003D407FB04F2A24201D20020F8BD2846BA
:10314C00314600F0B5F8B0FBF4F0F8BD002B35D1EA
:10315C0029B9B0FBF2FC0CFB12026046704791429D
:10316C0015D22DE9F041B2FA82F39A409940D3F18D
:10317C00200C30FA0CFC51EA0C01984000F04EF88F
:10318C00280036FA03F200210023BDE8F081F0B5E7
:10319C00B1FBF2FC0CFB1211B2FA82F39A4099408B
:1031AC00D3F1200630FA06F63143984000F036F899
:1031BC00614628003200DA400023F0BDF3B5B3FAC3
:1031CC0083FC49085FEA300013FA0CF3DCF12004AD
:1031DC0032FA04F423430CB41A0000F01FF80CBCB0
:1031EC0033FA0CF3DCF11F0C35FA0CF518BF013D6A
:1031FC0003BCA5FB026705FB0377801BB94190421A
:10320C0071EB030C05D3821A71EB0303681C0021CC
:10321C00F0BD02000B0028000021F0BD940D4FF60C
:10322C00C2752D02B5FBF4F4D60A013604FB04F585
:10323C00A5FB0656F64306EB0416550832BF0027CD
:10324C007708013505FB1677A6FB07477F0807EBC8
:10325C00C63714001500E7FB02457F1B4D1C04000C
:10326C00E7FB014505FB1206A64284BF013DB618DB
:10327C00964224BF0135B61A704700BF084B1B6835
:10328C0083420AD0074B1B68834206D0064B1B684F
:10329C00181A18BF4FF0FF3070470020704700BF5E
:1032AC002C00002028000020240000204020704723
:1032BC00006800F0D3B800BF1348144A032110B5BE
:1032CC000161134C41614FF4806182610023C46140
:1032DC000162104C836210214362C3620266446631
:1032EC0081660367C3664367BFF35F8F0A4BA3F125
:1032FC00100E9C46ACEB030213F8011D8154734570
:10330C00F8D1BFF35F8F10BD70090020903E000014
:10331C007005002060050020AC3E00002DE9F8434C
:10332C00C568D0F80890A9EB0508904504461646E8
:10333C0009D940682844FFF7FDFABFF35F8F354485
:10334C00E560BDE8F8834068284435440F464246A2
:10335C00A5EB0905FFF7EEFA60682A4607EB0801B2
:10336C00FFF7E8FABFF35F8FE560BDE8F88300BFB5
:10337C002DE9F8430646D0E90204894617464FF07A
:10338C00000833699C4203F1FF3228BF03F1FF337D
:10339C00A0EB04052ABF1B18131B1B1BBD4228BF27
:1033AC003D469D42706828BF1D46494620442A462A
:1033BC00FFF7C0FAB0682C44A844A9447F1BA04274
:1033CC0008BF0024BFF35F8FF460002FD9D14046B3
:1033DC00BDE8F88338B5204B00EB400403EBC40E7A
:1033EC000130DEF82C4000EB4000012C8C461546D9
:1033FC0003EBC00005D0022C2AD0B4B10024204627
:10340C0038BDDEF82830DEF82440A3429CBFDEF83D
:10341C0020105B18013B1C1B944228BF144622460B
:10342C006146FFF77BFF204638BDDEF82830DEF81A
:10343C00242093429CBFDEF820105B18013B9A1AA3
:10344C009542DCD82A466146FFF768FF2C46D6E742
:10345C00BDE83840FFF78CBF70090020F8B50B4B66
:10346C001B7804460D4616466BB1EFF311874FF0EF
:10347C00200181F31188324629462046FFF7AAFF26
:10348C0087F31188F8BDFFF717FFEEE770090020EE
:10349C00072904D90023024AC0E9003110607047A3
:0434AC00180A0020DA
:1034B000B835000000000000F43B000000000303EA
:1034C0002801002060000020680000206800002023
:0434D00018000000E0
:1034D400433A5C6E72665F73646B5C6578616D70B1
:1034E4006C65735C59656E695C54696D65725F43A4
:1034F4006F756E7465725C6D61696E2E6300000099
:1035040054696D65722044656765723A20256420AC
:103514002F722F6E00000000000003060000000060
:103524000000000000000000000000000338FDD887
:1035340070470000633A5C6E72665F73646B5C6D27
:103544006F64756C65735C6E7266785C68616C5CE4
:103554006E72665F6770696F2E680000433A5C6E36
:1035640072665F73646B5C636F6D706F6E656E74AF
:10357400735C626F617264735C626F617264732EF8
:1035840063000000111213140D0E0F10633A5C6EE9
:1035940072665F73646B5C696E746567726174698B
:1035A4006F6E5C6E7266785C6E7266785F676C755F
:1035B400652E680054494D4552000000433A5C6E44
:1035C40072665F73646B5C6D6F64756C65735C6E5F
:1035D4007266785C647269766572735C7372635C3C
:1035E4006E7266785F74696D65722E630000000008
:1035F400415353455254494F4E204641494C45444A
:103604002061742025733A25750000004552524FFD
:1036140052202575205B25735D2061742025733A43
:1036240025750D0A50432061743A203078253038CE
:1036340078000000456E64206F66206572726F72B8
:10364400207265706F727400554E4B4E4F574E206A
:103654004641554C54206174203078253038580048
:10366400433A5C6E72665F73646B5C636F6D706F1C
:103674006E656E74735C6C69627261726965735CA9
:103684007574696C5C6170705F7574696C5F706C83
:103694006174666F726D2E6300000000433A5C6EC5
:1036A40072665F73646B5C636F6D706F6E656E746E
:1036B400735C6C69627261726965735C62616C6C83
:1036C4006F635C6E72665F62616C6C6F632E630025
:1036D400433A5C6E72665F73646B5C636F6D706FAC
:1036E4006E656E74735C6C69627261726965735C39
:1036F4006D656D6F626A5C6E72665F6D656D6F623B
:103704006A2E6300556E6B6E6F776E206572726FF2
:103714007220636F646500004E52465F5355434305
:10372400455353004E52465F4552524F525F5356D3
:10373400435F48414E444C45525F4D495353494EB3
:10374400470000004E52465F4552524F525F534F5E
:1037540046544445564943455F4E4F545F454E4198
:10376400424C4544000000004E52465F4552524FC1
:10377400525F494E5445524E414C00004E52465FF2
:103784004552524F525F4E4F5F4D454D0000000071
:103794004E52465F4552524F525F4E4F545F464F12
:1037A400554E44004E52465F4552524F525F4E4F63
:1037B400545F535550504F52544544004E52465F47
:1037C4004552524F525F494E56414C49445F504115
:1037D40052414D004E52465F4552524F525F494E40
:1037E40056414C49445F5354415445004E52465F40
:1037F4004552524F525F494E56414C49445F4C45E5
:103804004E475448000000004E52465F4552524F06
:10381400525F494E56414C49445F464C4147530020
:103824004E52465F4552524F525F494E56414C49A3
:10383400445F4441544100004E52465F4552524F4A
:10384400525F444154415F53495A45004E52465FCA
:103854004552524F525F54494D454F555400000054
:103864004E52465F4552524F525F4E554C4C0000EB
:103874004E52465F4552524F525F464F5242494460
:1038840044454E004E52465F4552524F525F494E98
:1038940056414C49445F4144445200004E52465FF5
:1038A4004552524F525F4255535900004E52465FA3
:1038B4004552524F525F4D4F44554C455F4E4F5405
:1038C4005F494E495449414C495A4544000000005F
:1038D4004E52465F4552524F525F4D555445585FC4
:1038E400494E49545F4641494C4544004E52465F57
:1038F4004552524F525F4D555445585F4C4F434BC0
:103904005F4641494C4544004E52465F4552524F32
:10391400525F4D555445585F554E4C4F434B5F468F
:1039240041494C45440000004E52465F4552524FB7
:10393400525F4D555445585F434F4E445F494E497D
:10394400545F4641494C4544000000004E52465FD6
:103954004552524F525F4D4F44554C455F414C5276
:10396400454144595F494E495449414C495A45449B
:10397400000000004E52465F4552524F525F53546E
:103984004F524147455F46554C4C00004E52465FEE
:103994004552524F525F4150495F4E4F545F494D1B
:1039A400504C454D454E5445440000004E52465F30
:1039B4004552524F525F464541545552455F4E4F12
:1039C400545F454E41424C45440000004E52465F10
:1039D4004552524F525F494F5F50454E44494E47FE
:1039E400000000004E52465F4552524F525F44520F
:1039F400565F5457495F4552525F4F564552525590
:103A04004E0000004E52465F4552524F525F4452A0
:103A1400565F5457495F4552525F414E41434B00F4
:103A24004E52465F4552524F525F4452565F54576E
:103A3400495F4552525F444E41434B004E52465FEC
:103A44004552524F525F424C455F495053505F526A
:103A5400585F504B545F5452554E434154454400B3
:103A64004E52465F4552524F525F424C455F495059
:103A740053505F4348414E4E454C5F414C52454183
:103A840044595F4558495354530000004E52465F11
:103A94004552524F525F424C455F495053505F4C20
:103AA400494E4B5F444953434F4E4E45435445445E
:103AB400000000004E52465F4552524F525F424C46
:103AC400455F495053505F504545525F52454A4502
:103AD4004354454400000000000000001C3700006F
:103AE40001000000283700000200000048370000F1
:103AF400030000006C370000040000008037000061
:103B0400050000009437000006000000A8370000FC
:103B140007000000C037000008000000D83700008C
:103B240009000000F03700000A0000000C38000013
:103B34000B000000243800000C0000003C3800009A
:103B44000D000000503800000E0000006438000032
:103B54000F000000743800001000000088380000D6
:103B640011000000A038000080000000B038000000
:103B740081000000D438000082000000F03800000A
:103B8400830000000C390000840000002C39000080
:103B940085000000503900008600000078390000DC
:103BA400900000009039000091000000B03900003E
:103BB40092000000D039000000820000E8390000C3
:103BC40001820000083A000002820000243A00004A
:103BD40000840000403A000001840000643A0000C0
:103BE40002840000903A000003840000B83A000008
:103BF40061707000433A5C6E72665F73646B5C6301
:103C04006F6D706F6E656E74735C6C6962726172F5
:103C14006965735C6C6F675C7372635C6E72665F1C
:103C24006C6F675F66726F6E74656E642E630000FE
:103C34004261636B656E647320666C75736865645A
:103C440000000000543C0000843D0000583C00008B
:103C54004300000071280000912800009D28000006
:103C6400A9280000C9280000D52800006328000006
:103C74003328000053756E004D6F6E005475650057
:103C84005765640054687500467269005361740096
:103C9400004A616E00466562004D617200417072B7
:103CA400004D6179004A756E004A756C0041756774
:103CB40000536570004F6374004E6F760044656373
:103CC40000002E000053756E646179004D6F6E64C0
:103CD40061790054756573646179005765646E6534
:103CE4007364617900546875727364617900467213
:103CF4006964617900536174757264617900004A82
:103D0400616E7561727900466562727561727900DF
:103D14004D6172636800417072696C004D61790095
:103D24004A756E65004A756C7900417567757374E0
:103D34000053657074656D626572004F63746F62E1
:103D44006572004E6F76656D6265720044656365E9
:103D54006D6265720000414D00504D0000256D2FCD
:103D640025642F25790025483A254D3A2553002509
:103D74006120256220256520255420255900000056
:103D8400C63C0000C83C0000C83C0000C83C000021
:103D9400C83C0000C83C0000C83C0000C83C00000F
:103DA400C83C0000C83C0000FFFFFFFFFFFFFFFF0F
:103DB400FFFFFFFFFFFF0000C93C0000783C00004C
:103DC400033D0000953C00005A3D0000613D0000A9
:103DD4006A3D0000733D0000202020202020202088
:103DE4002068282828282020202020202020202067
:103DF4002020202020202020481010101010101007
:103E0400101010101010101084848484848484840E
:103E1400848410101010101010818181818181011F
:103E2400010101010101010101010101010101017E
:103E3400010101101010101010828282828282020D
:103E4400020202020202020202020202020202024E
:103E540002020210101010200007032004170201B0
:103E640008571040803031323334353637383941D1
:103E7400424344454630313233343536373839617C
:103E84006263646566286E756C6C29005465726D96
:103E9400696E616C000000000000000000005454D2
:093EA400522052454747455300E6
:103EB00000800040000400000090D003FF000000DC
:103EC000483C0000483C0000483C0000483C0000E2
:103ED000483C000054050020580500205C050020E7
:0400000300000219DE
:00000001FF
