:1000000000000120190200000102000003020000AC
:1000100005020000070200000902000000000000C5
:100020000000000000000000000000000B020000C3
:100030000D020000000000000F020000110200008D
:10004000130200001302000013020000130200005C
:1000500013020000130200009D1D000013020000A7
:1000600079220000130200001302000013020000B6
:10007000130200001302000013020000130200002C
:10008000130200001302000013020000130200001C
:10009000130200001302000013020000130200000C
:1000A00013020000130200001302000013020000FC
:1000B0001302000013020000000000000000000016
:1000C00013020000130200001302000013020000DC
:1000D00013020000130200001302000000000000E1
:1000E0000000000000000000000000000000000010
:1000F0000000000000000000000000000000000000
:1001000000000000000000000000000000000000EF
:1001100000000000000000000000000000000000DF
:1001200000000000000000000000000000000000CF
:1001300000000000000000000000000000000000BF
:1001400000000000000000000000000000000000AF
:10015000000000000000000000000000000000009F
:10016000000000000000000000000000000000008F
:10017000000000000000000000000000000000007F
:10018000000000000000000000000000000000006F
:10019000000000000000000000000000000000005F
:1001A000000000000000000000000000000000004F
:1001B000000000000000000000000000000000003F
:1001C000000000000000000000000000000000002F
:1001D000000000000000000000000000000000001F
:1001E000000000000000000000000000000000000F
:1001F00000000000000000000000000000000000FF
:10020000FEE7FEE7FEE7FEE7FEE7FEE7FEE7FEE7C6
:10021000FEE7FEE700F002B8FFF7FCBF0F484FF023
:100220000701884385460E4880470E48016841F41F
:1002300070010160BFF34F8FBFF36F8F00F01AB8EA
:1002400009480A490A4A884207D0521A05D0037859
:1002500001300B700131013AF9D1704700000120E3
:10026000610B000088ED00E0082500000000002080
:1002700000000020344935480A1A02D00722914371
:100280008D46334933480A1A06D00722914381F339
:100290000988022282F314882F483049304A00F03E
:1002A00041F830483049314A00F03CF83048314993
:1002B000314A00F037F831483149324A00F032F81B
:1002C00031483249324A00F02DF832483249334A37
:1002D00000F028F832483349334A00F023F8334815
:1002E0003349002200F029F832483349002200F057
:1002F00024F832483249091A02F0FCF8314A904792
:100300001F482049884205D00268043003B4904752
:1003100003BCF7E700208646EC46002000212A4A6D
:100320009047FEE7884207D0521A05D00378013083
:100330000B700131013AF9D17047884202D0027046
:100340000130FAE7704700000000012000E00020C3
:100350000000012000000120FC250000000000201A
:1003600004000020CC030000CC030000082500009E
:10037000FC250000000000200000002008250000EF
:1003800008250000082500000825000008250000B9
:10039000082500000825000008250000F9250000B8
:1003A00000260000040000200400002004000020BB
:1003B0008C0000208C0000208C0000208C0000208D
:0C03C0008C2000204102000031050000EC
:1003CC0082B001900B468DF8033000BF02B070472D
:1003DC0000B587B00023059301F0C0F90590059B8B
:1003EC000493049B002B04D0214A1D21049801F096
:1003FC0095FF204A01AB1268114619800233120C8A
:10040C001A7003238DF8053001AB1B4A19460D20D9
:10041C0001F0E2FA0590059B0393039B002B04D09B
:10042C00134A2321039801F079FF144A6B46126892
:10043C00114619800233120C1A706B4619461120A2
:10044C0001F0F0F90590059B0293029B002B04D060
:10045C00074A2721029801F061FF112001F04CFAA4
:10046C0001210D2001F034FB00BF07B05DF804FB47
:10047C000825000034250000CD03000038250000BD
:10048C0000B589B00023079300F0BAFC0790079BD6
:10049C000693069B002B04D0204A3621069801F0C7
:1004AC003DFF1F4801F08EFD0790079B0593059BB0
:1004BC00002B04D0194A3921059801F02FFF0D208B
:1004CC0001F0C2FB0490112001F072FA0390144B5E
:1004DC001B78039A0499184601F0C8FD0790079BF6
:1004EC000293029B002B04D00C4A3F21029801F08E
:1004FC0015FF0B4B1B78184601F0F1FD0790079B7D
:10050C000193019B002B04D0044A4221019801F075
:10051C0005FF00BF09B05DF804FB00BF0825000013
:10052C000400002008B5FFF753FFFFF7A9FFFEE713
:10053C00BFF34F8F00BF064BDB6803F4E062044946
:10054C00044B1343CB60BFF34F8F00BF00BFFDE7DD
:10055C0000ED00E00400FA0582B01D4B1B68B3F1FE
:10056C00FF3F0AD11B4B1B68DBB201931A4B1B6874
:10057C001B0903F00F03009305E0154B1B68019357
:10058C00164B1B680093019B062B1DD1009B033B54
:10059C00042B17D801A252F823F000BFBD050000B0
:1005AC00C1050000C5050000C9050000CD0500000F
:1005BC0001230AE0012308E0012306E0012304E003
:1005CC00012302E0012300E00023184602B070472B
:1005DC0030010010E00F00F0E80F00F034010010C3
:1005EC0082B0174B1B68DBB20193164B1B681B09BF
:1005FC0003F00F030093019B062B1DD1009B033BC3
:10060C00042B17D801A252F823F000BF2D060000CE
:10061C003106000035060000390600003D060000DA
:10062C0001230AE0002308E0002306E0002304E095
:10063C00002302E0002300E00023184602B07047BC
:10064C00E00F00F0E80F00F082B01D4B1B68B3F117
:10065C00FF3F0AD11B4B1B68DBB201931A4B1B6883
:10066C001B0903F00F03009305E0154B1B68019366
:10067C00164B1B680093019B062B1DD1009B033B63
:10068C00042B17D801A252F823F000BFAD060000CE
:10069C00B1060000B5060000B9060000BD0600005A
:1006AC0001230AE0012308E0012306E0012304E012
:1006BC00012302E0012300E00023184602B070473A
:1006CC0030010010E00F00F0E80F00F034010010D2
:1006DC0082B0174B1B68DBB20193164B1B681B09CE
:1006EC0003F00F030093019B062B1DD1009B033BD2
:1006FC00042B17D801A252F823F000BF1D070000ED
:10070C002107000025070000290700002D07000025
:10071C0001230AE0002308E0002306E0002304E0A4
:10072C00002302E0002300E00023184602B07047CB
:10073C00E00F00F0E80F00F082B01D4B1B68B3F126
:10074C00FF3F0AD11B4B1B68DBB201931A4B1B6892
:10075C001B0903F00F03009305E0154B1B68019375
:10076C00164B1B680093019B062B1DD1009B033B72
:10077C00042B17D801A252F823F000BF9D070000EC
:10078C00A1070000A5070000A9070000AD070000A5
:10079C0001230AE0012308E0012306E0012304E021
:1007AC00012302E0012300E00023184602B0704749
:1007BC0030010010E00F00F0E80F00F034010010E1
:1007CC0082B0174B1B68DBB20193164B1B681B09DD
:1007DC0003F00F030093019B062B1DD1009B033BE1
:1007EC00042B17D801A252F823F000BF0D0800000B
:1007FC001108000015080000190800001D08000071
:10080C0001230AE0002308E0002306E0002304E0B3
:10081C00002302E0002300E00023184602B07047DA
:10082C00E00F00F0E80F00F082B0174B1B68DBB252
:10083C000193164B1B681B0903F00F030093019BDC
:10084C00062B1DD1009B033B042B17D801A252F899
:10085C0023F000BF75080000790800007D08000037
:10086C00810800008508000001230AE0002308E04D
:10087C00002306E0002304E0002302E0002300E054
:10088C000023184602B07047E00F00F0E80F00F0AC
:10089C0082B01D4B1B68B3F1FF3F0AD11B4B1B6889
:1008AC00DBB201931A4B1B681B0903F00F03009377
:1008BC0005E0154B1B680193164B1B680093019BBD
:1008CC00062B1DD1009B033B042B17D801A252F819
:1008DC0023F000BFF5080000F9080000FD08000037
:1008EC00010900000509000000230AE0002308E0CC
:1008FC00012306E0012304E0012302E0012300E0D0
:10090C000023184602B0704730010010E00F00F0D1
:10091C00E80F00F03401001082B01D4B1B68B3F1DE
:10092C00FF3F0AD11B4B1B68DBB201931A4B1B68B0
:10093C001B0903F00F03009305E0154B1B68019393
:10094C00164B1B680093019B062B1DD1009B033B90
:10095C00042B17D801A252F823F000BF7D09000028
:10096C008109000085090000890900008D0900003B
:10097C0001230AE0012308E0012306E0012304E03F
:10098C00012302E0012300E00023184602B0704767
:10099C0030010010E00F00F0E80F00F034010010FF
:1009AC0082B01D4B1B68B3F1FF3F0AD11B4B1B6878
:1009BC00DBB201931A4B1B681B0903F00F03009366
:1009CC0005E0154B1B680193164B1B680093019BAC
:1009DC00062B1DD1009B033B042B17D801A252F808
:1009EC0023F000BF050A0000090A00000D0A0000F0
:1009FC00110A0000150A000001230AE0012308E097
:100A0C00012306E0012304E0012302E0012300E0BE
:100A1C000023184602B0704730010010E00F00F0C0
:100A2C00E80F00F03401001082B0154B1B680193E5
:100A3C00144B1B680093019B062B1DD1009B033BA1
:100A4C00042B17D801A252F823F000BF6D0A000046
:100A5C00710A0000750A0000790A00007D0A000086
:100A6C0000230AE0002308E0002306E0012304E051
:100A7C00012302E0012300E00023184602B0704776
:100A8C00300100103401001082B0154B1B6801932B
:100A9C00144B1B680093019B062B1DD1009B033B41
:100AAC00042B17D801A252F823F000BFCD0A000086
:100ABC00D10A0000D50A0000D90A0000DD0A0000A6
:100ACC0000230AE0002308E0002306E0002304E0F2
:100ADC00012302E0012300E00023184602B0704716
:100AEC00300100103401001008B5FFF7CDFF0346AC
:100AFC00002B07D04FF010234FF08042D3F8083270
:100B0C00C2F8583500BF08BD00BF044BD3F8003401
:100B1C00002BFAD000BF00BF704700BF00E00140BF
:100B2C0000B583B00190054A019BC2F80435FFF76C
:100B3C00EBFF00BF03B05DF804FB00BF00E0014019
:100B4C00024B034A1A6000BF704700BF0000002030
:100B5C000090D00308B5FFF7FFFC0346002B06D02E
:100B6C00964B1B681B0A964A03F01F031360FFF792
:100B7C0037FD0346002B02D0924B934A1A60FFF7C5
:100B8C0063FD0346002B06D0904B1B685B0B904A11
:100B9C0003F007031360FFF79BFD0346002B05D002
:100BAC008C4BDB688B4A23F08073D360FFF7C4FD5A
:100BBC000346002B0ED04FF080430022C3F80C21CB
:100BCC004FF080430022C3F810214FF080430022E5
:100BDC00C3F83825FFF7F4FD0346002B02D07E4BFB
:100BEC0003221A60FFF720FE0346002B0BD07B4B31
:100BFC0005221A607A4B01221A607A4B00221A6085
:100C0C00794B3F221A60FFF743FE0346002B76D048
:100C1C004FF08053754AD3F80434C2F820354FF0A6
:100C2C008053724AD3F80834C2F824354FF08053FD
:100C3C006E4AD3F80C34C2F828354FF080536B4A07
:100C4C00D3F81034C2F82C354FF08053674AD3F8E0
:100C5C001434C2F830354FF08053644AD3F818344A
:100C6C00C2F834354FF08053604AD3F81C34C2F8C4
:100C7C0040354FF080535D4AD3F82034C2F84435E8
:100C8C004FF08053594AD3F82434C2F848354FF00A
:100C9C008053564AD3F82834C2F84C354FF0805361
:100CAC00524AD3F82C34C2F850354FF080534F4A87
:100CBC00D3F83034C2F854354FF080534B4AD3F844
:100CCC003434C2F860354FF08053484AD3F8383486
:100CDC00C2F864354FF08053444AD3F83C34C2F820
:100CEC0068354FF08053414AD3F84034C2F86C3524
:100CFC004FF080533D4AD3F84434C2F87035FFF7B7
:100D0C000BFE0346002B05D0394B1B68394A03F008
:100D1C004F031360FFF744FE0346002B0DD04FF03A
:100D2C008043D3F8003403F00103002B05D04FF0BF
:100D3C0080436FF00102C3F80024FFF775FE0346F1
:100D4C00002B05D02C4B1B682B4A43F4806313609B
:100D5C002A4BD3F88830294A43F47003C2F8883000
:100D6C00BFF34F8F00BFBFF36F8F00BFFFF7BCFE09
:100D7C004FF01023D3F80032002B05DB4FF010237B
:100D8C00D3F80432002B15DA0120FFF7C9FE4FF01F
:100D9C0010231522C3F80022FFF7B6FE4FF01023E4
:100DAC001522C3F80422FFF7AFFE0020FFF7B8FEB0
:100DBC00FFF7BEFBFFF7C4FE00BF08BD2403001005
:100DCC004035014074C007400DF0ADBA440200102C
:100DDC003C050040F0ED00E0A0050040105600403E
:100DEC0088560040185600401456004000C0004081
:100DFC0058020010E40E00403C17004000ED00E0EB
:100E0C00054B1B78002B04D1034B01221A700023D5
:100E1C0000E08523184670470500002082B0034689
:100E2C008DF807309DF90730002B0CDB9DF807304F
:100E3C0003F01F0205499DF907305B09012000FAF8
:100E4C0002F241F8232000BF02B0704700E100E03D
:100E5C0082B0034600918DF807309DF90730002BC6
:100E6C000ADB009BDAB20C499DF907305201D2B271
:100E7C000B4483F800230BE0009BDAB207499DF882
:100E8C00073003F00F03043B5201D2B20B441A7625
:100E9C0000BF02B0704700BF00E100E000ED00E0D1
:100EAC0082B00190019B1B0B5BB2184602B07047DD
:100EBC0000B583B003460A468DF8073013468DF80B
:100ECC0006309DF80630072B03D908496B2001F03A
:100EDC00C0FA9DF806209DF9073011461846FFF719
:100EEC00B7FF00BF03B05DF804FB00BF3C2500005A
:100EFC0000B583B003468DF807309DF907301846CE
:100F0C00FFF78CFF00BF03B05DF804FB82B0034613
:100F1C008DF807309DF8073003F1804303F5C0438B
:100F2C00184602B0704700B583B00346ADF80630E2
:100F3C00BDF80630184600F026F803461B68012B56
:100F4C000CBF01230023DBB2184603B05DF804FB91
:100F5C0000B585B00346ADF80630BDF8063018462E
:100F6C0000F011F803461A4600231360BDF8063052
:100F7C00184600F008F803461B680393039B00BF58
:100F8C0005B05DF804FB82B00346ADF80630BDF841
:100F9C00063003F1804303F5C043184602B0704796
:100FAC0082B00190034A019BC2F8043300BF02B027
:100FBC00704700BF0060004082B00190034BD3F833
:100FCC000423019B1340184602B070470060004098
:100FDC0082B00190084A019B03F5A27352F82330AA
:100FEC00054943F00102019B03F5A27341F823204C
:100FFC0000BF02B0704700BF0060004084B0039097
:10100C00029113468DF80730144A039B03F5A27323
:10101C0052F82330114923F4473323F44073039AD5
:10102C0002F5A27241F822300C4A039B03F5A2731D
:10103C0052F82320029B1B0203F4F8519DF8073051
:10104C001B0403F440330B4304491A43039B03F57D
:10105C00A27341F8232000BF04B070470060004029
:10106C0082B00190054A019B03F5A27352F823301C
:10107C001B0A03F01F03184602B0704700600040C3
:10108C0082B00190064A019B03F5A27352F82330FB
:10109C001B0C03F00303DBB2184602B0704700BF11
:1010AC000060004084B00190094A019B03F5A273D3
:1010BC0052F8233043F0030303930549019B03F5D6
:1010CC00A273039A41F8232000BF04B0704700BFFD
:1010DC000060004084B00390029111461A460B4602
:1010EC008DF8073013468DF80630184A039B03F52C
:1010FC00A27352F82330154923F4981323F4F853B0
:10110C00039A02F5A27241F82230104A039B03F5B0
:10111C00A27352F82320029B1B0203F4F8519DF892
:10112C0007301B0403F4403319439DF806301B05AC
:10113C0003F480130B4305491A43039B03F5A27375
:10114C0041F8232000BF04B0704700BF006000408E
:10115C0000B583B00190019B1B68184600F061F943
:10116C000346002B04D105494FF4F67001F071F9D8
:10117C004FF0A043184603B05DF804FB6425000053
:10118C0000B585B00190084611461A4603468DF805
:10119C0003300B468DF8023013468DF8013001AB4D
:1011AC001846FFF7D5FF03909DF803209DF80230F9
:1011BC005B001A439DF801309B001A439DF81830D0
:1011CC001B0242EA03019DF81C301B04019A1943CF
:1011DC00039B02F5E07243F8221000BF05B05DF8E6
:1011EC0004FB00B585B0039000230193002300930A
:1011FC000023012201210398FFF7C2FF00BF05B0B5
:10120C005DF804FB00B585B003900B468DF80B30F0
:10121C009DF80B3000220192002200920022002146
:10122C000398FFF7ADFF00BF05B05DF804FB00B5F8
:10123C0085B0019001AB1846FFF78AFF0390019A25
:10124C00039B02F5E07253F8223023F00203029361
:10125C00019A039B02F5E072029943F8221000BF39
:10126C0005B05DF804FB00B585B001900B468DF818
:10127C00033001AB1846FFF76BFF0390019A039BF9
:10128C0002F5E07253F82230019A23F44031039BAB
:10129C0002F5E07243F82210019A039B02F5E0720A
:1012AC0053F822109DF803301B04019A1943039B39
:1012BC0002F5E07243F8221000BF05B05DF804FBA4
:1012CC0000B585B0019001AB1846FFF741FF0390C4
:1012DC00019B012202FA03F31946039800F04BF824
:1012EC0000BF05B05DF804FB00B585B0019001AB03
:1012FC001846FFF72DFF0390019B012202FA03F31E
:10130C001946039800F041F800BF05B05DF804FBE6
:10131C0000B585B0019001AB1846FFF719FF03909B
:10132C00039800F020F80246019B22FA03F303F025
:10133C000103184605B05DF804FB00B585B00190BB
:10134C0001AB1846FFF704FF0390019A039B02F5CB
:10135C00E07253F822301B0C03F00303DBB2184687
:10136C0005B05DF804FB82B00190019BD3F81035F9
:10137C00184602B0704782B001900091019B009A10
:10138C00C3F8082500BF02B0704782B001900091ED
:10139C00019B009AC3F80C2500BF02B0704786B0C1
:1013AC000390029101924FF0A0430493039B059389
:1013BC0019E0059B9B0018336B4453F8083CD3F899
:1013CC002025019B1A60059B9B0018336B4453F836
:1013DC00083C019A1268C3F82025019B0433019341
:1013EC00059B01330593039A029B1344059A9A4279
:1013FC00DFD300BF00BF06B0704700B585B00190C9
:10140C0001AB1846FFF7A4FE0390019B012202FAE0
:10141C0003F31A46039BC3F8202500BF05B05DF803
:10142C0004FB84B00190019B5B090293002303939E
:10143C00029B002B03D14FF0FF33039300BF019BA2
:10144C0003F01F030193039A019B22FA03F303F0A9
:10145C000103002B14BF01230023DBB2184604B098
:10146C00704784B001900091009B0393019BDB08B3
:10147C000293019B03F0070301930122019B02FAE3
:10148C0003F30399029A0A4412781340184604B0E5
:10149C00704784B001900091009B0393019BDB0883
:1014AC000293019B03F007030193039A029B1344DD
:1014BC001B785AB20121019B01FA03F35BB213436F
:1014CC0059B2039A029B1344CAB21A7000BF04B0FB
:1014DC007047000082B00190074A019B13442433EB
:1014EC0093F90030B3F1FF3F14BF01230023DBB2AB
:1014FC00184602B0704700BF0800002082B001906F
:10150C000C4A019B1344243393F90030002B09DB64
:10151C00084A019B1344243393F90030072B01DC58
:10152C00012300E0002303F00103DBB2184602B0F4
:10153C00704700BF0800002082B00190064A019B52
:10154C001344243393F90030072BCCBF0123002321
:10155C00DBB2184602B070470800002082B0019040
:10156C00064A019B1344243393F90030DB43DBB26E
:10157C00DB09DBB2184602B0704700BF0800002040
:10158C0084B00390029101928DF80330029B59B202
:10159C000E4A039B134424330A461A700B49029BD0
:1015AC00019A41F823209DF8033083F00103DBB24C
:1015BC00002B08D0029B083B039A51B2034A1344F8
:1015CC000A4683F8442000BF04B07047080000208E
:1015DC0082B00190044A019B13442433FE221A70FA
:1015EC0000BF02B0704700BF0800002082B001901D
:1015FC00044A019B13442433FF221A7000BF02B02B
:10160C00704700BF0800002000B583B0019004496A
:10161C000198FFF73EFF00BF03B05DF804FB00BF6D
:10162C004D00002082B00190044A019B13442433E6
:10163C0093F90030184602B0704700BF0800002034
:10164C0082B00190034A019B52F82330184602B035
:10165C00704700BF0800002084B00190074A019B2E
:10166C001344443393F900308DF80F309DF80F304C
:10167C0023F0C003184604B0704700BF08000020D8
:10168C0084B00190074A019B1344443393F9003012
:10169C008DF80F309DF80F309B09DBB2184604B063
:1016AC00704700BF0800002000B589B0039002917C
:1016BC0013468DF80730FF238DF81F309DF8073047
:1016CC00002B01D0002300E0082305939DF8073080
:1016DC00002B01D0082300E009230493059B0693FB
:1016EC0014E00F4A069B52F82330B3F1FF3F0AD1A6
:1016FC009DF80730029A06990398FFF741FF069B65
:10170C008DF81F3006E0069B01330693069A049B66
:10171C009A42E6D39DF91F30184609B05DF804FBD8
:10172C000800002082B003468DF807309DF8073082
:10173C00094A4FF0FF3142F823109DF80730072B70
:10174C0007D99DF80730083B034A1344FF2283F85E
:10175C00442000BF02B070470800002000B583B0E1
:10176C002D4B93F84930002B03D008230093009B9A
:10177C004EE000238DF8073011E09DF80730184635
:10178C00FFF74FFE0346002B04D09DF80730184698
:10179C00FFF72CFF9DF8073001338DF807309DF8CB
:1017AC0007301F2BE9D900238DF8073009E09DF88D
:1017BC0007301846FFF7B6FF9DF8073001338DF858
:1017CC0007309DF80730082BF1D90422002113486B
:1017DC0000F05AFE1248FFF763FB03460621184639
:1017EC00FFF766FB0E48FFF75BFB03461846FFF757
:1017FC007FFB4FF4BE70FFF7ABFB4FF00040FFF7E1
:10180C00CFFB054B012283F8492000230093009B5A
:10181C00184603B05DF804FB080000204D000020C2
:10182C000060004000B585B0019000910198FFF771
:10183C00F8FD0346002B04D12D4940F2491000F06D
:10184C0008FE2C4B93F84930012B04D028494FF457
:10185C00A57000F0FEFD009B002B04D1244940F242
:10186C004B1000F0F6FD002303930198FFF732FEB6
:10187C000346002B02D00823039334E0009B9B7893
:10188C00002B19D0012200210198FFF70DFF034610
:10189C008DF80B309DF90B30B3F1FF3F09D09DF95A
:1018AC000B00009B1A78009B5B780199FFF712FCE8
:1018BC0005E00423039302E00198FFF789FE039BE4
:1018CC00002B10D1009B5B78012B03D10198FFF703
:1018DC00F7FC02E00198FFF707FD0198FFF781FC88
:1018EC000198FFF791FE039B184605B05DF804FBC9
:1018FC008C2500000800002000B583B001900198F1
:10190C00FFF78FFD0346002B04D1144940F2B310AE
:10191C0000F09FFD0198FFF7DDFD0346002B04D17D
:10192C000E494FF4DA7000F094FD0198FFF7E6FDD4
:10193C000346002B04D1094940F2B51000F089FD93
:10194C00074A019B1344243393F900301846FFF7E0
:10195C00A9FB00BF03B05DF804FB00BF8C250000A1
:10196C000800002000B583B001900198FFF759FDE5
:10197C000346002B04D10D4940F2C71000F069FD5D
:10198C000198FFF7BBFD0346002B04D107494FF428
:10199C00E47000F05EFD0198FFF744FE0346DBB2F5
:1019AC009B00DBB2184603B05DF804FB8C250000ED
:1019BC0000B585B001900198FFF7D4FF03468DF870
:1019CC000F309DF80F301846FFF7A0FA0346184663
:1019DC0005B05DF804FB000000B587B003900291E0
:1019EC0001920398FFF71DFD0346002B04D13649E5
:1019FC004FF40C7000F02DFD002305930398FFF7B6
:101A0C00ADFD0346002B02D00823059357E0029B43
:101A1C009B78C3F34003DBB21A4601990398FFF796
:101A2C0043FE03468DF813309DF91330B3F1FF3F9D
:101A3C0043D0029B9B78C3F38003DBB283F001039A
:101A4C00DBB2002B13D0029B9B7803F00103DBB2BB
:101A5C00002B03D00398FFF7EAFB05E0029B5B78B1
:101A6C0019460398FFF7CEFB0398FFF7CDFD029BB9
:101A7C009B7803F00203DBB2002B08D09DF9130016
:101A8C00029B1B781A460399FFF7B8FA17E09DF9E9
:101A9C001330083B0D4A134493F94410029B1B78F6
:101AAC009B015AB29DF91330083B0A4351B2074AC5
:101ABC0013440A4683F8442001E004230593059B54
:101ACC00184607B05DF804FB8C25000008000020C8
:101ADC0000B589B001900B468DF803300198FFF7E3
:101AEC00A0FC0346002B04D13A494FF4187000F0C7
:101AFC00B0FC0198FFF732FD0346002B04D13549A9
:101B0C0040F2612000F0A5FC0198FFF715FD03469B
:101B1C00002B2AD00198FFF785FD0346083B184699
:101B2C00FFF7AEFD03468DF80F309DF80F30032BF9
:101B3C000BD10198FFF7ECFB0346002B01D00323DC
:101B4C0000E002238DF81F3008E09DF80F30012BC8
:101B5C0001D1022300E003238DF81F309DF81F30C4
:101B6C0019460198FFF77FFB30E00198FFF7C6FCA0
:101B7C000346002B2AD00198FFF754FD0346069329
:101B8C00069B9BB240339BB29B00ADF81630069B74
:101B9C001846FFF71DFABDF816301846FFF7D8F9AE
:101BAC009DF80330002B11D00198FFF73BFD034645
:101BBC001846FFF745FD0490049B002B06D001222C
:101BCC00069B02FA03F31846FFF7EAF900BF09B0C7
:101BDC005DF804FB8C25000000B583B001900198E2
:101BEC00FFF71FFC0346002B04D1164940F2B92025
:101BFC0000F02FFC0198FFF79FFC0346002B0AD145
:101C0C000198FFF77BFC0346002B04D10D4940F2F1
:101C1C00BA2000F01EFC0198FFF770FC0346002B65
:101C2C0009D00198FFF7FEFC03469BB240339BB2F0
:101C3C009B009BB201E04FF4BE73184603B05DF8F5
:101C4C0004FB00BF8C25000000B585B00190019805
:101C5C00FFF7C2FF0346ADF80E30BDF80E30184644
:101C6C00FFF791F90346184605B05DF804FB00B583
:101C7C0085B00190019A01210020FFF790FB002311
:101C8C0003930BE0039B9B00019A13441B68002BEE
:101C9C0001D0012306E0039B01330393039B002B2C
:101CAC00F0D00023184605B05DF804FB00B587B0F2
:101CBC000190002305935BE0344A059B13444433A5
:101CCC0093F90030B3F1FF3F4ED00598FFF7C4FCF9
:101CDC00049001990498FFF7C4FB0346002B44D0F1
:101CEC000598FFF7CDFC03468DF80F300498FFF7ED
:101CFC0024FB03468DF80E309DF80E30022B01D1DB
:101D0C00032300E002238DF80D309DF80D301946A9
:101D1C000498FFF7A8FA0498FFF76FFB0498FFF7F5
:101D2C0081FC03461846FFF78BFC0290029B002BAC
:101D3C001BD09DF80F30032B0FD09DF80E30022BCB
:101D4C0003D19DF80F30012B07D09DF80E30032BDB
:101D5C000BD19DF80F30022B07D19DF80F20029B61
:101D6C0011460498984700E000BF059B013305938A
:101D7C00059B002BA0D00198FFF779FF0346002BA1
:101D8C0097D100BF00BF07B05DF804FB080000202E
:101D9C0000B589B000230793002300934FF48073A0
:101DAC00ADF81630012304930023069321E0BDF80F
:101DBC0016301846FFF7B7F80346002B0ED00498E0
:101DCC00FFF7FAF80346002B08D0BDF8163018467A
:101DDC00FFF7BEF8079A049B13430793049B5B0021
:101DEC000493BDF816300433ADF81630069B01335E
:101DFC000693069B072BDAD94FF4BE70FFF793F8C6
:101E0C000346002B0DD04FF4BE70FFF7A1F8079BD3
:101E1C0043F0004307936B461A4601210020FFF75D
:101E2C00BEFA079BDBB2002B29D0012304930023BD
:101E3C00069321E0049A079B1340002B16D00698BA
:101E4C00FFF70EF903900698FFF71AF903468DF881
:101E5C000B300698FFF7F4FB0190019B002B05D08B
:101E6C009DF80B20019B114603989847049B5B003F
:101E7C000493069B01330693069B072BDAD9079B29
:101E8C00002B03DA6B461846FFF710FF00BF09B0B2
:101E9C005DF804FB82B003468DF807309DF80730DF
:101EAC00044A012101FA03F3C2F8043500BF02B061
:101EBC00704700BF00F0014084B0034602910192CC
:101ECC008DF80F3008499DF80F30A233029A41F873
:101EDC003320054A9DF80F30A233DB001344019ADE
:101EEC005A6000BF04B0704700F0014082B0034656
:101EFC008DF807309DF80730012202FA03F31846DB
:101F0C0002B0704700B583B003468DF807309DF8DA
:101F1C0007301846FFF7EAFF0346C3F31303002B01
:101F2C0014BF01230023DBB2184603B05DF804FB99
:101F3C0082B001900123184602B0704700B583B0FF
:101F4C0003468DF807309DF807301846FFF7CEFF93
:101F5C0003461846FFF7ECFF0346184603B05DF83E
:101F6C0004FB000000B583B003468DF807309DF8E4
:101F7C0007301846FFF7BAFF0246064B1B681340A2
:101F8C00002B14BF01230023DBB2184603B05DF80D
:101F9C0004FB00BF5400002000B583B003468DF84D
:101FAC0007309DF807301846FFF7A0FF0246044B98
:101FBC001B681343024A136000BF03B05DF804FBB7
:101FCC005400002000B587B0019000230593002336
:101FDC00039304230593244B039300238DF81330B0
:101FEC0037E0002000F0EEF99DF813301846FFF7AB
:101FFC007DFF0246039B1340002B15D09DF8133038
:10200C001846FFF7AFFF034683F00103DBB2002B4A
:10201C000AD09DF813301846FFF7BEFF019B9DF8C0
:10202C0013201A7000230593002000F0DFF9059BA4
:10203C00002B12D09DF813301846FFF757FF0346BC
:10204C00DB43039A134003939DF8133001338DF84F
:10205C001330039B002BC4D100E000BF059B184636
:10206C0007B05DF804FB00BFFFFF0F0000B587B0A1
:10207C000346029101928DF80F30029B002B02D087
:10208C00019B002B01D10E2325E0002305939DF825
:10209C000F301846FFF736FF034683F00103DBB21F
:1020AC00002B02D00723059314E09DF80F3018463F
:1020BC00FFF758FF034683F00103DBB2002B02D07D
:1020CC000823059306E09DF80F30019A02991846F3
:1020DC00FFF7F2FE059B184607B05DF804FB00B550
:1020EC0085B003468DF80730002303939DF8073025
:1020FC001846FFF723FF034683F00103DBB2002BE6
:10210C0002D0072303931AE09DF807301846FFF717
:10211C00F9FE0346002B0DD09DF807301846FFF74B
:10212C0021FF034683F00103DBB2002B02D008230E
:10213C00039304E09DF807301846FFF7ABFE039BB2
:10214C00184605B05DF804FB84B001900B46ADF861
:10215C000230BDF80230019A134400221A60BDF817
:10216C000230019A13441B680393039B00BF04B015
:10217C00704782B001900B46ADF80230BDF80230CA
:10218C00019A13441B68002B14BF01230023DBB2FC
:10219C00184602B0704782B001900091019BD3F8B1
:1021AC000423009B1340002B14BF01230023DBB23C
:1021BC00184602B0704782B00190019B9B0003F55A
:1021CC00A0739BB2184602B0704782B001904FF4D6
:1021DC008032019B02FA03F3184602B0704700B537
:1021EC0087B00390029113468DF8073000238DF8C9
:1021FC00173030E09DF817301846FFF7DCFF034628
:10220C00ADF814309DF817301846FFF7DEFF049038
:10221C00BDF8143019460398FFF7ABFF0346002BAB
:10222C0014D004990398FFF7B6FF0346002B0DD08A
:10223C00BDF8143019460398FFF786FF029B1B6804
:10224C00029A5168BDF81420104698479DF8173033
:10225C0001338DF817309DF817209DF807309A42FE
:10226C00C8D300BF00BF07B05DF804FB08B504225B
:10227C0002490348FFF7B3FF00BF08BD5800002018
:10228C000080004086B003900291019201238DF8EA
:10229C0017309DF81730204A039B13601E4A029B8F
:1022AC0053601D4A019B9360039B44F201029342CD
:1022BC0012D0039B44F20202934220D1019B164A96
:1022CC00D360154BDB681B68134A9361124BDB68B8
:1022DC005B68114AD36112E0019B0F4A13610E4BEC
:1022EC001B699B680C4A53610B4B1B691B680A4AA0
:1022FC009361094B1B695B68074AD36100BF72B6D7
:10230C0000BF00BF9DF81730DBB2002BFAD162B6CC
:10231C0000BF00BF06B070476400002000B583B05A
:10232C0002900091019244F2010071466A4600F05D
:10233C0003F803B000BD00BF00B587B00390029155
:10234C00019272B600BF039B44F20102934207D084
:10235C00039B44F20202934205D1019B059303E0D7
:10236C00019B049300E000BF074B1B6803F00103C3
:10237C00002B00D000BE019A02990398FFF782FF50
:10238C0000BF07B05DF804FBF0ED00E072B600BFD3
:10239C00034B1B680133024A136000BF704700BF38
:1023AC0084000020064B1B68013B054A1360044B5C
:1023BC001B68002B01D162B600BF00BF704700BF85
:1023CC008400002000B583B0019000F025F803468E
:1023DC00012B03D00449432000F03BF8FFF7D6FF54
:1023EC0000BF03B05DF804FBC025000000B583B04E
:1023FC0003468DF8073000F00FF80346012B03D08D
:10240C000449512000F025F8FFF7CCFF00BF03B0C2
:10241C005DF804FBC025000084B0EFF30583019345
:10242C00019BC3F308030393039B002B0DD1EFF324
:10243C0014830093009B0293029B03F00103002B77
:10244C000CBF01230023DBB200E00123184604B0CB
:10245C00704700B585B003460091ADF80630BDF865
:10246C0006300293009B039302AB1A46002144F200
:10247C000200FFF761FF00BF05B05DF804FB000030
:10248C0000220B0011001A0084465AB3830704D0B3
:10249C0000F8011B013AF9D124E0C9B241EA01214B
:1024AC0041EA0141202A11D3203A2DE9F0030B46D1
:1024BC000C460D460E460F4688468946A0E8FA03A0
:1024CC00203AFBD2BDE8F00320320BD0042A05D30E
:1024DC0040F8041B043A05D0042AF9D200F8011B79
:1024EC00013AFBD160467047072904D90023024A00
:0C24FC00C0E9003110607047880000202B
:10250800433A5C6E72665F73646B5C6578616D708C
:102518006C65735C59656E695C5050495F4F726EAB
:10252800656B5C6D61696E2E63000000020002003D
:1025380003010100633A5C6E72665F73646B5C69E9
:102548006E746567726174696F6E5C6E7266785CD2
:102558006E7266785F676C75652E6800633A5C6EAC
:1025680072665F73646B5C6D6F64756C65735C6ECB
:102578007266785C68616C5C6E72665F6770696FC2
:102588002E680000433A5C6E72665F73646B5C6D24
:102598006F64756C65735C6E7266785C647269767C
:1025A8006572735C7372635C6E7266785F6770697C
:1025B8006F74652E63000000433A5C6E72665F7349
:1025C800646B5C636F6D706F6E656E74735C6C6961
:1025D800627261726965735C7574696C5C61707054
:1025E8005F7574696C5F706C6174666F726D2E6371
:0125F80000E2
:0425FC000090D00378
:0400000300000219DE
:00000001FF
