:020000022000DC
:106000000000012019620200016202000362020026
:10601000056202000762020009620200000000003F
:106020000000000000000000000000000B62020001
:106030000D620200000000000F6202001162020007
:1060400005CB0200136202009DDA02001362020017
:10605000136202001362020099D90200A14B0300EF
:106060002167030039670300136202001362020014
:106070001362020013620200136202001362020044
:1060800013620200C9FA02001362020013620200E6
:1060900013620200136202009541030013620200C2
:1060A0001362020013620200136202001362020014
:1060B0004D480300136202000000000000000000D1
:1060C00013620200654803001362020013620200BB
:1060D000136202001362020013620200000000005B
:1060E00000000000000000000000000000000000B0
:1060F00000000000000000000000000000000000A0
:10610000000000000000000000000000000000008F
:10611000000000000000000000000000000000007F
:10612000000000000000000000000000000000006F
:10613000000000000000000000000000000000005F
:10614000000000000000000000000000000000004F
:10615000000000000000000000000000000000003F
:10616000000000000000000000000000000000002F
:10617000000000000000000000000000000000001F
:10618000000000000000000000000000000000000F
:1061900000000000000000000000000000000000FF
:1061A00000000000000000000000000000000000EF
:1061B00000000000000000000000000000000000DF
:1061C00000000000000000000000000000000000CF
:1061D00000000000000000000000000000000000BF
:1061E00000000000000000000000000000000000AF
:1061F000000000000000000000000000000000009F
:10620000FEE7FEE7FEE7FEE7FEE7FEE7FEE7FEE766
:10621000FEE7FEE700F002B8FFF7FCBF0F484FF0C3
:106220000701884385460E4880470E48016841F4BF
:1062300070010160BFF34F8FBFF36F8F00F01AB88A
:1062400009480A490A4A884207D0521A05D00378F9
:1062500001300B700131013AF9D170470000012083
:10626000A16F020088ED00E0106B030050220020B7
:1062700064220020344935480A1A02D0072291438B
:106280008D46334933480A1A06D00722914381F3D9
:106290000988022282F314882F483049304A00F0DE
:1062A00041F830483049314A00F03CF83048314933
:1062B000314A00F037F831483149324A00F032F8BB
:1062C00031483249324A00F02DF832483249334AD7
:1062D00000F028F832483349334A00F023F83348B5
:1062E0003349002200F029F832483349002200F0F7
:1062F00024F832483249091A10F04EFB314A9047CF
:106300001F482049884205D00268043003B49047F2
:1063100003BCF7E700208646EC46002000212A4A0D
:106320009047FEE7884207D0521A05D00378013023
:106330000B700131013AF9D17047884202D00270E6
:106340000130FAE7704700000000012000E0002063
:106350000000012000000120CCA1030064220020E5
:10636000F0220020CC630200CC630200AC69030081
:10637000CCA103006422002064220020246B0300CF
:10638000246B0300246B0300246B0300246B0300C5
:10639000246B0300246B0300246B0300C9A10300DA
:1063A00058A20300F0220020F0220020F02200205A
:1063B0008C2D00208C2D00208C2D00208C2D002079
:0C63C0008C4D00204162020021670200A9
:1063CC0000B583B00190019B1B68184600F08EF855
:1063DC000346002B04D105494FF4F6700AF0D4FEA5
:1063EC004FF0A043184603B05DF804FB246B030088
:1063FC0000B585B00190084611461A4603468DF843
:10640C0003300B468DF8023013468DF8013001AB8A
:10641C001846FFF7D5FF03909DF803209DF8023036
:10642C005B001A439DF801309B001A439DF818300D
:10643C001B0242EA03019DF81C301B04019A19430C
:10644C00039B02F5E07243F8221000BF05B05DF823
:10645C0004FB00B585B00390002301930023009347
:10646C000023012201210398FFF7C2FF00BF05B0F2
:10647C005DF804FB00B585B0019001AB1846FFF741
:10648C009FFF0390019B012202FA03F31946039824
:10649C0000F018F800BF05B05DF804FB00B585B03E
:1064AC00019001AB1846FFF78BFF0390019B012273
:1064BC0002FA03F31946039800F00EF800BF05B07A
:1064CC005DF804FB82B001900091019B009AC3F827
:1064DC00082500BF02B0704782B001900091019B6B
:1064EC00009AC3F80C2500BF02B0704784B001902D
:1064FC00019B5B09029300230393029B002B03D1A6
:10650C004FF0FF33039300BF019B03F01F03019374
:10651C00039A019B22FA03F303F00103002B14BF2F
:10652C0001230023DBB2184604B0704700B583B0DA
:10653C0001900091019B002B01D1054B0193009917
:10654C0001980EF053FC0346184603B05DF804FBAB
:10655C00AC6B030082B00190024B01221A7000BF99
:10656C0002B070471423002082B0019000BF02B02B
:10657C007047000000B587B0134A6B4607CA03C3C7
:10658C001A7012490020FFF7D1FF0590059B049368
:10659C00049B002B04D00E4A8921049808F0CCFFF0
:1065AC006B46194600200EF091FC0590059B039359
:1065BC00039B002B04D0064A8C21039808F0BCFFE7
:1065CC0000BF07B05DF804FB7C6B0300756502002F
:1065DC004C6B030030B589B00620FFF73AFF08205A
:1065EC00FFF737FF1F20FFF734FF0620FFF742FFAE
:1065FC000820FFF753FF104B01AC1D460FCD0FC405
:10660C002B68236001238DF80D3001AB0B4A194622
:10661C000B480FF07FFA0790079B0693069B002B05
:10662C0004D0084AA321069808F086FF04480FF00E
:10663C00A5FB00BF09B030BD886B0300616502008B
:10664C00A46B03004C6B030008B5304B1B78012B7B
:10665C0009D92E4B1B78092B05D8282200212C4850
:10666C000FF028F94FE0294B1B780A2B09D9274B3F
:10667C001B78132B05D81E22002125480FF01AF980
:10668C0041E0224B1B78142B09D9204B1B781D2B76
:10669C0005D8142200211E480FF00CF933E01B4BD7
:1066AC001B781E2B09D9194B1B78272B05D80F22C9
:1066BC00002117480FF0FEF825E0144B1B78282B0F
:1066CC0009D9124B1B78312B05D80A22002110480E
:1066DC000FF0F0F817E00D4B1B78322B09D90B4B50
:1066EC001B783B2B05D80522002109480FF0E2F856
:1066FC0009E0064B1B78002B05D1642200210448CD
:10670C000FF0D8F8FFE700BF08BD00BF1C23002026
:10671C00A46B030000B583B0FFF72CFFFFF75AFF03
:10672C000DF10603194600200EF062FCBDF906308F
:10673C001A4613469B001344002B01DA03F2FF3375
:10674C009B1207EE903AF8EEE77A0A4BC3ED007A0B
:10675C00BDF906301A4613465B001344064A82FB09
:10676C0003125211DB17D31ADAB2044B1A70FFF76B
:10677C006BFFD5E7182300201F85EB511C2300204D
:10678C0084B001900B468DF8033013468DF802301F
:10679C0000230393019B032B3CD89DF80230012B63
:1067AC000BD19DF80330012B04D1019BDBB20E33CE
:1067BC00DBB200E000238DF802309DF80330022B91
:1067CC000FD0022B23DC002B16D0012B1FD1144928
:1067DC00019A13465B0013440B449DF802201A7077
:1067EC001AE00F49019A13465B0013440B44013322
:1067FC009DF802201A700FE00949019A13465B00BC
:10680C0013440B4402339DF802201A7004E0072352
:10681C00039301E007230393039B184604B07047CE
:10682C002023002000B583B0012200210020FFF7B7
:10683C00A7FF0190019B002B04D0019B072B01D0DB
:10684C00019B1CE0072202210120FFF799FF019018
:10685C00019B002B04D0019B072B01D0019B0EE068
:10686C00042202210020FFF78BFF0190019B002BDB
:10687C0004D0019B072B01D0019B00E0002318469C
:10688C0003B05DF804FB00B583B0012202210020A7
:10689C00FFF776FF0190019B002B04D0019B072B87
:1068AC0001D0019B1CE0072202210120FFF768FFA9
:1068BC000190019B002B04D0019B072B01D0019B65
:1068CC000EE00A2200210020FFF75AFF0190019BE5
:1068DC00002B04D0019B072B01D0019B00E000236F
:1068EC00184603B05DF804FB00B585B0019000912B
:1068FC00019B1B88102B02D0112B18D02FE01A4BA8
:10690C001B68002B0DD1FFF78DFF0390039B002B11
:10691C0007D0164B1B68002B03D0144B1B68039835
:10692C009847114B1B6801330F4A136017E00E4B4D
:10693C001B68013B0C4A13600B4B1B68002B0DD1E1
:10694C00FFF7A1FF0390039B002B07D0074B1B689D
:10695C00002B03D0054B1B680398984700BF00BF62
:10696C0005B05DF804FB00BF302300202C23002071
:10697C00BFF34F8F00BF064BDB6803F4E0620449A2
:10698C00044B1343CB60BFF34F8F00BF00BFFDE739
:10699C0000ED00E00400FA0582B01D4B1B68B3F15A
:1069AC00FF3F0AD11B4B1B68DBB201931A4B1B68D0
:1069BC001B0903F00F03009305E0154B1B680193B3
:1069CC00164B1B680093019B062B1DD1009B033BB0
:1069DC00042B17D801A252F823F000BFFD69020066
:1069EC00016A0200056A0200096A02000D6A0200CF
:1069FC0001230AE0012308E0012306E0012304E05F
:106A0C00012302E0012300E00023184602B0704786
:106A1C0030010010E00F00F0E80F00F0340100101E
:106A2C0082B0174B1B68DBB20193164B1B681B091A
:106A3C0003F00F030093019B062B1DD1009B033B1E
:106A4C00042B17D801A252F823F000BF6D6A020084
:106A5C00716A0200756A0200796A02007D6A02009E
:106A6C0001230AE0002308E0002306E0002304E0F1
:106A7C00002302E0002300E00023184602B0704718
:106A8C00E00F00F0E80F00F082B01D4B1B68B3F173
:106A9C00FF3F0AD11B4B1B68DBB201931A4B1B68DF
:106AAC001B0903F00F03009305E0154B1B680193C2
:106ABC00164B1B680093019B062B1DD1009B033BBF
:106ACC00042B17D801A252F823F000BFED6A020084
:106ADC00F16A0200F56A0200F96A0200FD6A02001E
:106AEC0001230AE0012308E0012306E0012304E06E
:106AFC00012302E0012300E00023184602B0704796
:106B0C0030010010E00F00F0E80F00F0340100102D
:106B1C0082B0174B1B68DBB20193164B1B681B0929
:106B2C0003F00F030093019B062B1DD1009B033B2D
:106B3C00042B17D801A252F823F000BF5D6B0200A2
:106B4C00616B0200656B0200696B02006D6B0200E9
:106B5C0001230AE0002308E0002306E0002304E000
:106B6C00002302E0002300E00023184602B0704727
:106B7C00E00F00F0E80F00F082B01D4B1B68B3F182
:106B8C00FF3F0AD11B4B1B68DBB201931A4B1B68EE
:106B9C001B0903F00F03009305E0154B1B680193D1
:106BAC00164B1B680093019B062B1DD1009B033BCE
:106BBC00042B17D801A252F823F000BFDD6B0200A2
:106BCC00E16B0200E56B0200E96B0200ED6B020069
:106BDC0001230AE0012308E0012306E0012304E07D
:106BEC00012302E0012300E00023184602B07047A5
:106BFC0030010010E00F00F0E80F00F0340100103D
:106C0C0082B0174B1B68DBB20193164B1B681B0938
:106C1C0003F00F030093019B062B1DD1009B033B3C
:106C2C00042B17D801A252F823F000BF4D6C0200C0
:106C3C00516C0200556C0200596C02005D6C020034
:106C4C0001230AE0002308E0002306E0002304E00F
:106C5C00002302E0002300E00023184602B0704736
:106C6C00E00F00F0E80F00F082B0174B1B68DBB2AE
:106C7C000193164B1B681B0903F00F030093019B38
:106C8C00062B1DD1009B033B042B17D801A252F8F5
:106C9C0023F000BFB56C0200B96C0200BD6C0200A1
:106CAC00C16C0200C56C020001230AE0002308E05D
:106CBC00002306E0002304E0002302E0002300E0B0
:106CCC000023184602B07047E00F00F0E80F00F008
:106CDC0082B01D4B1B68B3F1FF3F0AD11B4B1B68E5
:106CEC00DBB201931A4B1B681B0903F00F030093D3
:106CFC0005E0154B1B680193164B1B680093019B19
:106D0C00062B1DD1009B033B042B17D801A252F874
:106D1C0023F000BF356D0200396D02003D6D02009D
:106D2C00416D0200456D020000230AE0002308E0DB
:106D3C00012306E0012304E0012302E0012300E02B
:106D4C000023184602B0704730010010E00F00F02D
:106D5C00E80F00F03401001082B01D4B1B68B3F13A
:106D6C00FF3F0AD11B4B1B68DBB201931A4B1B680C
:106D7C001B0903F00F03009305E0154B1B680193EF
:106D8C00164B1B680093019B062B1DD1009B033BEC
:106D9C00042B17D801A252F823F000BFBD6D0200DE
:106DAC00C16D0200C56D0200C96D0200CD6D0200FF
:106DBC0001230AE0012308E0012306E0012304E09B
:106DCC00012302E0012300E00023184602B07047C3
:106DDC0030010010E00F00F0E80F00F0340100105B
:106DEC0082B01D4B1B68B3F1FF3F0AD11B4B1B68D4
:106DFC00DBB201931A4B1B681B0903F00F030093C2
:106E0C0005E0154B1B680193164B1B680093019B07
:106E1C00062B1DD1009B033B042B17D801A252F863
:106E2C0023F000BF456E0200496E02004D6E020059
:106E3C00516E0200556E020001230AE0012308E0A6
:106E4C00012306E0012304E0012302E0012300E01A
:106E5C000023184602B0704730010010E00F00F01C
:106E6C00E80F00F03401001082B0154B1B68019341
:106E7C00144B1B680093019B062B1DD1009B033BFD
:106E8C00042B17D801A252F823F000BFAD6E0200FC
:106E9C00B16E0200B56E0200B96E0200BD6E02004A
:106EAC0000230AE0002308E0002306E0012304E0AD
:106EBC00012302E0012300E00023184602B07047D2
:106ECC00300100103401001082B0154B1B68019387
:106EDC00144B1B680093019B062B1DD1009B033B9D
:106EEC00042B17D801A252F823F000BF0D6F02003B
:106EFC00116F0200156F0200196F02001D6F020066
:106F0C0000230AE0002308E0002306E0002304E04D
:106F1C00012302E0012300E00023184602B0704771
:106F2C00300100103401001008B5FFF7CDFF034607
:106F3C00002B07D04FF010234FF08042D3F80832CB
:106F4C00C2F8583500BF08BD00BF044BD3F800345D
:106F5C00002BFAD000BF00BF704700BF00E001401B
:106F6C0000B583B00190054A019BC2F80435FFF7C8
:106F7C00EBFF00BF03B05DF804FB00BF00E0014075
:106F8C00024B034A1A6000BF704700BF6422002006
:106F9C000090D00308B5FFF7FFFC0346002B06D08A
:106FAC00964B1B681B0A964A03F01F031360FFF7EE
:106FBC0037FD0346002B02D0924B934A1A60FFF721
:106FCC0063FD0346002B06D0904B1B685B0B904A6D
:106FDC0003F007031360FFF79BFD0346002B05D05E
:106FEC008C4BDB688B4A23F08073D360FFF7C4FDB6
:106FFC000346002B0ED04FF080430022C3F80C2127
:10700C004FF080430022C3F810214FF08043002240
:10701C00C3F83825FFF7F4FD0346002B02D07E4B56
:10702C0003221A60FFF720FE0346002B0BD07B4B8C
:10703C0005221A607A4B01221A607A4B00221A60E0
:10704C00794B3F221A60FFF743FE0346002B76D0A4
:10705C004FF08053754AD3F80434C2F820354FF002
:10706C008053724AD3F80834C2F824354FF0805359
:10707C006E4AD3F80C34C2F828354FF080536B4A63
:10708C00D3F81034C2F82C354FF08053674AD3F83C
:10709C001434C2F830354FF08053644AD3F81834A6
:1070AC00C2F834354FF08053604AD3F81C34C2F820
:1070BC0040354FF080535D4AD3F82034C2F8443544
:1070CC004FF08053594AD3F82434C2F848354FF066
:1070DC008053564AD3F82834C2F84C354FF08053BD
:1070EC00524AD3F82C34C2F850354FF080534F4AE3
:1070FC00D3F83034C2F854354FF080534B4AD3F8A0
:10710C003434C2F860354FF08053484AD3F83834E1
:10711C00C2F864354FF08053444AD3F83C34C2F87B
:10712C0068354FF08053414AD3F84034C2F86C357F
:10713C004FF080533D4AD3F84434C2F87035FFF712
:10714C000BFE0346002B05D0394B1B68394A03F064
:10715C004F031360FFF744FE0346002B0DD04FF096
:10716C008043D3F8003403F00103002B05D04FF01B
:10717C0080436FF00102C3F80024FFF775FE03464D
:10718C00002B05D02C4B1B682B4A43F480631360F7
:10719C002A4BD3F88830294A43F47003C2F888305C
:1071AC00BFF34F8F00BFBFF36F8F00BFFFF7BCFE65
:1071BC004FF01023D3F80032002B05DB4FF01023D7
:1071CC00D3F80432002B15DA0120FFF7C9FE4FF07B
:1071DC0010231522C3F80022FFF7B6FE4FF0102340
:1071EC001522C3F80422FFF7AFFE0020FFF7B8FE0C
:1071FC00FFF7BEFBFFF7C4FE00BF08BD2403001061
:10720C004035014074C007400DF0ADBA4402001087
:10721C003C050040F0ED00E0A00500401056004099
:10722C0088560040185600401456004000C00040DC
:10723C0058020010E40E00403C17004000ED00E046
:10724C0084B00346ADF806300023039316E00F49D3
:10725C00039A13469B0013449B000B441B88BDF8F8
:10726C0006209A4207D1039A13469B0013449B00B5
:10727C00064A134406E0039B01330393039B002B44
:10728C00E5D00023184604B0704700BF342300201B
:10729C0082B001900B46ADF80230019BBDF8022084
:1072AC001A80019B00221A72019B054903F10A0204
:1072BC000B4603CB1060516000BF02B0704700BF9B
:1072CC006423002082B00190019B4FF6FF721A805C
:1072DC0000BF02B0704788B00390029111461A4665
:1072EC000B46ADF806301346ADF80430039B9B8873
:1072FC001A46BDF8063013440793039B9B88194626
:10730C00039B9B88BDF80620934228BF13469BB273
:10731C00CB1A0693039BDB881A46BDF80430134442
:10732C000593039BDB881946039BDB88BDF804207F
:10733C00934228BF13469BB2CB1A0493029B5A88E4
:10734C00039B1B889A4205D3029B5A88039B5B883C
:10735C009A4201D900231CE0029B9B881A46069B8B
:10736C00934205D8029B9B881A46079B934201D2F5
:10737C0000230EE0029BDB881A46049B934205D83F
:10738C00029BDB881A46059B934201D2002300E046
:10739C000123184608B0704700B583B00190064B26
:1073AC009B69002B03D0044B9B690198984700BF45
:1073BC0003B05DF804FB00BF4823002000B587B084
:1073CC0003460091ADF80630009B5B7A002B1AD176
:1073DC00009B1B7A002B03D1164B5B68059302E0D4
:1073EC00144B9B680593009B5B68BDF806200599C0
:1073FC00184608F0C5F90490049B002B16D004988D
:10740C00FFF7CAFF12E0009B00221A72094B5B695E
:10741C00002B0BD001238DF80C30BDF80630ADF8E5
:10742C000E30044B5B6903AA1046984700BF07B0A7
:10743C005DF804FB4823002000B585B00190019B4A
:10744C00DB7B8DF80F30019B9B88ADF80C309DF8E1
:10745C000F30012B2CD14FF6FF70FFF7F1FE02908D
:10746C00029B002B03D10420FFF796FF21E0BDF80F
:10747C000C3019460298FFF70BFF029B03F10A0030
:10748C00019B03F110014FF6FF7340F2F312FFF76B
:10749C0022FF03461A46029B5A72074BDB89002BCC
:1074AC0007D1BDF80C3002991846FFF787FF00E0B2
:1074BC0000BF05B05DF804FB4823002000B587B081
:1074CC000190019B9B88ADF81630BDF8163018461C
:1074DC00FFF7B6FE0490049B002B0ED0049B5B6858
:1074EC00184608F0A5F90390039B002B02D00398D3
:1074FC00FFF752FF0498FFF7E5FE00BF07B05DF8F9
:10750C0004FB000000B587B00190019B0633059386
:10751C00059B1A88194BDB899A422BD1059B5B89F9
:10752C00022B27D1019B9B88ADF81230BDF812308D
:10753C001846FFF785FE0390039B002B1AD0059B82
:10754C000C33184600F082FB0346002B06D0BDF826
:10755C00123003991846FFF731FF0BE0039B5B6871
:10756C00184608F065F90290029B002B02D0029895
:10757C00FFF712FF00BF07B05DF804FB48230020A3
:10758C0000B585B00190019B9B88ADF80E30BDF81D
:10759C000E301846FFF754FE0290029B002B15D0BC
:1075AC00029B03F10A00019B03F108014FF6FF73E4
:1075BC0040F2F312FFF78FFE03461A46029B5A72F3
:1075CC00BDF80E3002991846FFF7F8FE00BF05B063
:1075DC005DF804FB00B583B001900091019B1B8802
:1075EC00502B12D0502B18DC122B12D0122B14DC77
:1075FC00102B02D0112B04D00FE00198FFF71CFFC9
:10760C000CE00198FFF75AFF08E00198FFF77AFFAA
:10761C0004E00198FFF7B4FF00E000BF00BF03B027
:10762C005DF804FB30B58FB00190009100230293FC
:10763C00009B002B1AD000230D9314E06B460D9980
:10764C00184609F0DBFE0346002B09D0029B5A1C9E
:10765C0002920D9A92B25B0038336B4423F82C2CB7
:10766C000D9B01330D930D9B132BE7D9019B1D46ED
:10767C0002AC0FCC0FC50FCC0FC594E8070085E802
:10768C00070001980FB030BD00B583B00346ADF8CC
:10769C000630BDF80630132B01D900230CE0BDF8E1
:1076AC0006301946064809F054FEBDF80630194656
:1076BC00044809F04EFE0123184603B05DF804FBA4
:1076CC00742300207023002000B585B00346ADF86C
:1076DC000630002303930DE0039B9B00094A1344DF
:1076EC000433BDF806201146184609F06EFE039BC4
:1076FC0001330393039B1D2BEED900BF00BF05B0D4
:10770C005DF804FB6C23002000B583B00346ADF894
:10771C000630BDF806301946034809F056FE00BF86
:10772C0003B05DF804FB00BF7423002030B59BB0A0
:10773C00184B9B68DB431893164B5A6818AB1146D1
:10774C00184609F031FF189A6B4611461846FFF798
:10775C0069FF0DAC6D460FCD0FC40FCD0FC495E86E
:10776C00070084E80700002319930BE0199B5B00CA
:10777C0068336B4433F8303C1846FFF7A5FF199B70
:10778C00013319930D9B199A9A42EFD300BF00BF96
:10779C001BB030BD6C23002000B583B003468DF8C0
:1077AC0007309DF807301946034809F027FE0346B9
:1077BC00184603B05DF804FB6C23002000B583B0C1
:1077CC0001900B46ADF8023013468DF801309DF850
:1077DC000130002B06D0BDF802301946019809F093
:1077EC00B8FD05E0BDF802301946019809F0EDFD31
:1077FC0000BF03B05DF804FB00B585B001900091AB
:10780C00019B9B88ADF80E30019B1B88103B0A2B0B
:10781C0000F2888001A252F823F000BF55780200D4
:10782C00917802003179020031790200317902003D
:10783C00317902003179020031790200317902008C
:10784C00FB7802009D780200FFF770FFBDF80E3048
:10785C001846FFF719FF034683F00103DBB2002B38
:10786C0005D0324AF021042007F066FE57E0019B58
:10787C00DB7B022B53D1BDF80E3019462C4809F096
:10788C0068FD4CE0BDF80E301846FFF73DFF49E0AF
:10789C00019B1B7AC3F30313DBB28DF80D309DF8FB
:1078AC000D30032B8CBF01230023DAB2BDF80E3050
:1078BC0019462048FFF782FF9DF80D30022B8CBF34
:1078CC0001230023DAB2BDF80E3019461A48FFF72F
:1078DC0075FF9DF80D30012B8CBF01230023DAB20C
:1078EC00BDF80E3019461548FFF768FF1AE0019BEA
:1078FC001B7A002B15D1019B5B7AC3F3C003DBB25F
:10790C00002B14BF012300238DF80C309DF80C20A4
:10791C00BDF80E3019460748FFF750FF01E000BFD5
:10792C0000E000BF00BF05B05DF804FBB06B0300C6
:10793C007823002084230020802300207C23002037
:10794C0000B583B00346ADF80630BDF80630132BF6
:10795C0001D9002306E0BDF806301946034809F0AA
:10796C004DFD0346184603B05DF804FB7023002060
:10797C0000B585B00346ADF8063000238DF80F3006
:10798C00BDF806301846FFF7DBFF0346002B11D07D
:10799C00BDF8063019460A4809F030FD03468DF84B
:1079AC000E309DF80E30002B01D0022300E0012395
:1079BC008DF80F309DF80F30184605B05DF804FBBC
:1079CC007823002000B585B00346ADF806300023BF
:1079DC008DF80F30BDF806301846FFF7B1FF03469F
:1079EC00002B11D0BDF8063019460A4809F006FDE7
:1079FC0003468DF80E309DF80E30002B01D002237B
:107A0C0000E001238DF80F309DF80F30184605B0BB
:107A1C005DF804FB7423002000B583B00346ADF879
:107A2C000630BDF806301846FFF78AFF0346002BD8
:107A3C0007D0BDF806301946044809F0DFFC0346B0
:107A4C0000E00023184603B05DF804FB7C23002003
:107A5C0000B583B00346ADF80630BDF806301846C5
:107A6C00FFF76EFF0346002B07D0BDF80630194612
:107A7C00044809F0C3FC034600E00023184603B099
:107A8C005DF804FB8023002000B583B00346ADF8FD
:107A9C000630BDF806301846FFF752FF0346002BA0
:107AAC0007D0BDF806301946044809F0A7FC034678
:107ABC0000E00023184603B05DF804FB842300208B
:107ACC0000B583B003460A46ADF8063013468DF870
:107ADC0005309DF805301846FFF75EFE0346002B77
:107AEC0016D0BDF806301846FFF72AFF0346002BC8
:107AFC000ED09DF8053006339B00084A134404331E
:107B0C00BDF806201146184609F078FC034600E043
:107B1C000023184603B05DF804FB00BF6C23002063
:107B2C0000B583B00346ADF806300B468DF8053032
:107B3C0013468DF804309DF805301846FFF72CFEDF
:107B4C000346002B15D0BDF806301846FFF7F8FE9B
:107B5C000346002B0DD09DF8053006339B00074AD9
:107B6C00134404339DF80420BDF806101846FFF7A3
:107B7C0025FE00BF03B05DF804FB00BF6C230020A2
:107B8C0000B587B0039002910192029B002B01D1AA
:107B9C0000231FE000230593039B002B19D0002327
:107BAC00049313E003AB0499184609F027FC034631
:107BBC00002B08D0049B9AB2029B0199104698475F
:107BCC00059B01330593049B01330493049B132BF6
:107BDC00E8D9059B184607B05DF804FB00B585B0E5
:107BEC000346029101928DF80F309DF80F30184624
:107BFC00FFF7D2FD034683F00103DBB2002B01D06B
:107C0C0000230CE09DF80F30074A06339B00134409
:107C1C005B68019A02991846FFF7B2FF03461846B3
:107C2C0005B05DF804FB00BF6C23002082B001900E
:107C3C00019B1B781AB2019B01331B781B021BB2F0
:107C4C0013431BB29BB2184602B0704700B585B007
:107C5C0001900198FFF7EAFF0346ADF80E30BDF82E
:107C6C000E3003F00103002B14BF01230023DBB201
:107C7C00184605B05DF804FBA0DF704700BF18463E
:107C8C00A1DF704700BF1846ADDF704700BF184634
:107C9C00B3DF704700BF1846B4DF704700BF18460B
:107CAC0000B585B00190019B002B03D10A498520BA
:107CBC0009F06AFA0121019809F017FC0390BFF34F
:107CCC005F8F00BF039B002B0CBF01230023DBB293
:107CDC00184605B05DF804FBE46B030000B583B0F7
:107CEC000190019B002B03D10A49922009F04CFA18
:107CFC00019B1B68012B03D00649932009F044FA21
:107D0C00BFF35F8F00BF019B00221A6000BF03B05E
:107D1C005DF804FBE46B030000B585B00190019B9A
:107D2C005B88184601F05AFA03461A46019B9A8062
:107D3C000023039308E0084A039B52F82330019870
:107D4C009847039B01330393039B002BF3D000BF95
:107D5C0000BF05B05DF804FB6822002082B00190E2
:107D6C00019B9B79012B0BD1019B1B79012B07D11B
:107D7C00019B5B8842F60212934201D1012300E081
:107D8C00002303F00103DBB2184602B0704700B5C4
:107D9C0089B003460091ADF8063003AB00221A609F
:107DAC005A609A60DA601A6108238DF80C30BDF8BD
:107DBC000630ADF80E30009B059303AB1846FFF769
:107DCC00ABFF00BF09B05DF804FB000010B58AB032
:107DDC000346ADF8063000238DF8273003AB0022A4
:107DEC001A605A609A60DA601A61BDF80630ADF814
:107DFC000E30BDF806304FF6FF72934261D0BDF8DD
:107E0C000630184600F034FF0890089B43F202023B
:107E1C0093424BD0089B43F2020293422DD8089B0D
:107E2C00112B11D0089B112B27D8089B002B03D0AA
:107E3C00089B0B2B0CD020E00F238DF80C3003ABE0
:107E4C001846FFF769FF32E001238DF827302EE04A
:107E5C0010238DF80C301C4A1C4BD31ADB081B0466
:107E6C0043F00203BDF80620194918460BF0ECFA52
:107E7C0003AB1846FFF750FF19E0134A134BD31A04
:107E8C00DB081B0443F0010408980AF00BFE0346C0
:107E9C001A46BDF806300F4920460BF0E6FABDF83D
:107EAC00063008991846FFF772FF00E000BF0A4B36
:107EBC0019789DF82720BDF806301846FFF730FEDC
:107ECC0000E000BF0AB010BDB06A0300186A0300DE
:107EDC00286C0300A86C0300ED23002000B583B0D0
:107EEC0003460A46ADF8063013468DF80530064BAE
:107EFC0019789DF80520BDF806301846FFF710FEDE
:107F0C0000BF03B05DF804FBEC23002010B58AB071
:107F1C000346ADF8063000238DF8273000238DF88A
:107F2C002630BDF80630184600F0BAFD0890089BC4
:107F3C0043F20202934258D0089B43F2020293424E
:107F4C003AD8089B862B17D0089B862B34D8089BD5
:107F5C00112B0DD0089B112B2ED8089B002B03D076
:107F6C00089B0B2B41D027E001238DF826303DE0F8
:107F7C0001238DF8273039E003AB00221A605A60D8
:107F8C009A60DA601A6107238DF80C30BDF8063060
:107F9C00ADF80E301C4A1D4BD31ADB081B0443F002
:107FAC000203BDF806201A4918460BF04DFA03AB34
:107FBC001846FFF7B1FE19E0134A144BD31ADB082D
:107FCC001B0443F0010408980AF06CFD03461A46A2
:107FDC00BDF806300F4920460BF047FABDF80630C5
:107FEC0008991846FFF7D3FE00E000BF9DF8272044
:107FFC00BDF8063011461846FFF770FF9DF8263085
:10800C0018460AB010BD00BFB06A0300186A03001E
:10801C00FC6C0300346D030000B589B0034600917D
:10802C00ADF8063000238DF81F300DF116031846FD
:10803C00FFF72EFE0690069B002B04D02A494FF426
:10804C00997009F0A1F80123ADF81C3040E002232F
:10805C00ADF808300023ADF80A3004AB039304A943
:10806C00BDF81C3000221846FFF716FE0690069B42
:10807C00002B01D0069B32E09DF81F3083F00103EA
:10808C00DBB2002B09D0BDF8103042F6052293422A
:10809C0003D101238DF81F3015E09DF81F30002B04
:1080AC0011D0BDF8103042F6021293420BD1009B56
:1080BC00039302AABDF81C10BDF806301846FFF752
:1080CC00E3FD03460BE0BDF81C300133ADF81C306A
:1080DC00BDF81630BDF81C209A42B8D305231846BB
:1080EC0009B05DF804FB00BF746D030010B58AB0D5
:1080FC000346ADF8063001238DF8273000238DF8A8
:10810C002630BDF80630184600F062FE0890089B39
:10811C0043F2014293426AD0089B43F201429342DC
:10812C006BD8089B112B29D8089B112B65D801A261
:10813C0052F823F0958102000782020007820200A8
:10814C00078202000782020007820200E18102001E
:10815C0007820200C181020007820200078202002E
:10816C0007820200078202000782020007820200D7
:10817C00078202000782020039820200089B43F248
:10818C000202934254D038E003AB00221A605A60CA
:10819C009A60DA601A6111238DF80C30BDF8063044
:1081AC00ADF80E3001238DF8263003AB1846FFF7DF
:1081BC00B3FD3EE00DF10A02BDF80630114618463B
:1081CC00FFF72AFF0890089B002B03D1BDF80A305B
:1081DC00002B2ED100238DF82730BDF80630184621
:1081EC0000F0FCFF0346184600F03AFE21E0BDF813
:1081FC0006301846FFF7EAFD1BE0184A184BD31A55
:10820C00DB081B0443F0010408980AF04BFC0346FE
:10821C001A46BDF80630134920460BF026F9BDF876
:10822C00063008991846FFF7B2FD02E000BF00E0E7
:10823C0000BF0D4B19789DF82720BDF80630184665
:10824C00FFF76EFC094B19789DF82620BDF8063017
:10825C001846FFF765FC00BF0AB010BDB06A0300FA
:10826C00186A0300B06D0300EE230020EF230020FA
:10827C0000B583B003460091ADF80630BDF806306A
:10828C001846FFF7A3FD00BF03B05DF804FB000028
:10829C0008B5044B1B78002203491846FFF79EFCD7
:1082AC0000BF08BDED2300207D82020000B583B025
:1082BC0003460091ADF806300A48FFF7F1FC03467F
:1082CC00002B0CD0BDF806301846FFF71FFE0346F6
:1082DC00002B03D10348FFF701FD00E000BF03B002
:1082EC005DF804FBE823002000B583B00346009141
:1082FC00ADF806300B4B1A78BDF80630114618460F
:10830C00FFF7DEFB034683F00103DBB2002B04D046
:10831C00BDF806301846FFF7E9FE00BF03B05DF864
:10832C0004FB00BFEF23002008B5044B1B78002290
:10833C0003491846FFF752FC00BF08BDEE2300208E
:10834C00F582020000B583B00346ADF80630BDF8E7
:10835C000630184600F018FD0346002B07D0064BDC
:10836C001978BDF8063001221846FFF7D9FB00BF7B
:10837C0003B05DF804FB00BFEE23002000B587B00E
:10838C0003460091ADF8063004AB042200211846D8
:10839C000EF0A8FA42F6A623ADF8103001238DF8A2
:1083AC0012300D4B1B68039303AA04A9BDF80630C9
:1083BC001846FFF761FC0590059B002B07D1074B76
:1083CC001978BDF8063001221846FFF7A9FB00BF4B
:1083DC0007B05DF804FB00BFF06D0300F123002033
:1083EC0000B585B00346ADF80630BDF8063018462A
:1083FC0000F0F4FE0346184602AA0023092101F0FE
:10840C00EEF90346052B07D1054B1978BDF806305C
:10841C0001221846FFF784FB00BF05B05DF804FB92
:10842C00F023002000B583B00B4B1B7800220B49C6
:10843C001846FFF7D3FB0190019B002B07D1084B8B
:10844C001B78002207491846FFF7C8FB019000BFB4
:10845C0003B05DF804FB00BFEC230020B9820200DE
:10846C00F02300208983020000B583B00190019BAA
:10847C001B78002B11D1019B5B881846FFF7A6FCDB
:10848C00019B5B881846FFF75DFF019B5B881846D4
:10849C00FFF7A6FFFFF7C6FF00E000BF00BF03B069
:1084AC005DF804FB00B589B00190019B1B78092B8A
:1084BC005ED1019B5B7A002B5AD1019B1B7A082B56
:1084CC0047D0082B4DDC012B1BD0072B49D1019B2E
:1084DC009B88184600F02CFF0346ADF81E30BDF803
:1084EC001E304FF6FF7293423DD0BDF81E30012175
:1084FC001846FFF7F3FCBDF81E301846FFF770FF67
:10850C0031E0019B9B8803AA0121184601F0B0FEC3
:10851C000690069B002B28D1049B1B78002B24D0A3
:10852C00019B9B88184600F003FF0346ADF81630FC
:10853C00BDF816304FF6FF72934216D00F4B1978D8
:10854C00BDF8163001221846FFF7EAFAFFF7ECFEE9
:10855C000BE00B4B1B68012B09D10948FFF7BEFB45
:10856C0005E000BF04E000BF02E000BF00E000BF78
:10857C00FFF758FF00BF09B05DF804FBEE230020A5
:10858C00E823002010B586B003460A46ADF8063045
:10859C0013468DF8053003AB00221A605A60012394
:1085AC00ADF80C3009238DF80E30194B1978BDF845
:1085BC00063000221846FFF7B3FA9DF80530002B61
:1085CC0001D0144B00E0144B0493BDF80630184650
:1085DC0000F004FE0346184603AB0022194601F0D6
:1085EC00C5F90590059B002B0FD00C4A0C4BD31AE8
:1085FC00DB081B0443F0020405980AF053FA034607
:10860C001A46084920460AF01FFF00BF06B010BDED
:10861C00F0230020786F03007C6F0300B06A030026
:10862C00186A0300646E030000B58DB00190019BC5
:10863C009B88ADF82C30019B1B88353B1F2B00F21F
:10864C00688101A252F823F0658702006788020056
:10865C001F8902001F8902001F8902001F89020066
:10866C001F8902001F8902001F8902001F89020056
:10867C001F8902001F8902001F8902001F89020046
:10868C001F8902001F8902001F8902001F89020036
:10869C001F8902001F8902001F8902001F89020026
:1086AC001F8902001F8902001F8902001F89020016
:1086BC001F890200418702001F890200D586020033
:1086CC001F890200E1860200BDF82C301846FFF726
:1086DC007DFB1EE103AB00221A605A609A60DA60DF
:1086EC001A6112238DF80C30BDF82C30ADF80E3019
:1086FC00BDF82C30184600F071FD0346ADF8103073
:10870C00BDF81030184600F0ABFB864B1978BDF85D
:10871C002C3000221846FFF703FA834B1978BDF86A
:10872C002C3000221846FFF7FBF903AB1846FFF775
:10873C00F3FAEEE0019B06331846FFF70FFB0346F6
:10874C00002B00F0DF80BDF82C3001211846FFF71C
:10875C00C5FBFFF767FED5E000238DF82F30019B9A
:10876C009B88ADF82C30019B0A3309936F4B1A7818
:10877C00BDF82C3011461846FFF7A2F9034683F0DA
:10878C000103DBB2002B40F0BF80684B1978BDF8B9
:10879C002C3000221846FFF7C3F9019BDB88B3F598
:1087AC00857F4CD0019BDB88002B0DD0604A614B40
:1087BC00D31ADB081B0443F00200019BDB881A462A
:1087CC005D490AF041FE3AE0099B1B88012B0CD055
:1087DC00574A584BD31ADB081B0443F00200099B81
:1087EC001B881A4655490AF02FFE099B5B88012B02
:1087FC000DD04F4A4F4BD31ADB081B0443F0020039
:10880C00099B5B881A464E490AF01EFE17E0099B2D
:10881C0004331988BDF82C3000221846FFF730FAC3
:10882C000890089B002B0AD101238DF82F30454B63
:10883C001978BDF82C3001221846FFF771F99DF814
:10884C002F3083F00103DBB2002B5FD0BDF82C304E
:10885C0000211846FFF796FE58E000238DF82E30C5
:10886C00019B9B88ADF82C30019B0A330A93354B46
:10887C001A78BDF82C3011461846FFF721F903463B
:10888C0083F00103DBB2002B42D12E4B1978BDF8DB
:10889C002C3000221846FFF743F9019BDB88002B94
:1088AC000DD0234A234BD31ADB081B0443F00200E0
:1088BC00019BDB881A4620490AF0C6FD19E00A9B89
:1088CC009B88012B0DD01A4A1A4BD31ADB081B04B8
:1088DC0043F002000A9B9B881A4619490AF0B4FD22
:1088EC0007E00A9B9B79002B14BF012300238DF812
:1088FC002E309DF82E20BDF82C3011461846FFF76F
:10890C0041FE06E000BF04E000BF02E000BF00E053
:10891C0000BFFFF7BDFCFFF707FD00BF0DB05DF812
:10892C0004FB00BFEF230020EE230020F1230020E6
:10893C00B06A0300186A0300C46E0300006F0300E2
:10894C003C6F0300F2230020AFDF704700BF1846D6
:10895C00B1DF704700BF1846B2DF704700BF184642
:10896C00B3DF704700BF184600B585B00190019B7E
:10897C009B88184600F0DCFC03461A46019B5A8083
:10898C000023039308E0084A039B52F82330019814
:10899C009847039B01330393039B002BF3D000BF39
:1089AC0000BF05B05DF804FB6C22002010B588B048
:1089BC002D4A05AB92E8030083E8030048E02B4BFB
:1089CC001B8805A90022184600F0D0FF0790079BD2
:1089DC00002B34D06B4600221A605A609A60DA6021
:1089EC001A61224B1B88ADF80430079B112B36D033
:1089FC00079B862B07D107238DF800306B46184652
:108A0C00FFF7B2FF2BE01A4A1A4BD31ADB081B04F0
:108A1C0043F0010407980AF045F803461A46134B35
:108A2C001B88154920460AF020FD08238DF80030DC
:108A3C00079B02936B461846FFF796FF0FE00B4B14
:108A4C001B88184601F062F803461A46074B1A8039
:108A5C00064B1B884FF6FF729342B0D100E000BF6B
:108A6C0000BF08B010BD00BFEC6F0300F423002062
:108A7C00B86A0300186A0300946F030000B583B052
:108A8C000190064B1B884FF6FF72934201D0FFF703
:108A9C008DFF00BF03B05DF804FB00BFF423002082
:108AAC0030B58DB00346ADF80630BDF8063018462B
:108ABC0000F094FB0346ADF82630BDF826304FF697
:108ACC00FF72934202D143F20203C5E00123ADF8D9
:108ADC002A3000238DF8293000238DF82930BDF879
:108AEC002A305A1CADF82A201A4604ABBDF82600D1
:108AFC00082101F0D3FB0B900B9B002B40F0A180C5
:108B0C00059B0893089B03221A60089B991D089BE0
:108B1C001A1D089B1B68BDF80600FFF71DFF0B9084
:108B2C000B9B002B62D102AABDF8263008211846F7
:108B3C0001F09EFB0B900B9B002B16D00B9B052B77
:108B4C0013D0474A474BD31ADB081B0443F00104EC
:108B5C000B9809F0A7FF03461A46BDF806304249A8
:108B6C0020460AF082FC032376E00B9B052B11D0E8
:108B7C00089B9A88039B9B889A420BD1089B981D53
:108B8C00039B991D089B9B881A460DF0DBFE034640
:108B9C00002B09D0BDF82620BDF826300821184638
:108BAC0001F03BFC0B9051E0BDF826300821184633
:108BBC0001F014FC0690069B002B02D10B230B93A7
:108BCC0044E0274A274BD31ADB081B0443F001046B
:108BDC00BDF82650069809F065FF03462A4623493E
:108BEC0020460AF042FC03230B932FE00B9B0C2B2B
:108BFC0003D101238DF8293004E00B9B052B01D107
:108C0C0000230B93BDF826300821184601F0E6FB33
:108C1C000790079B002B19D0114A124BD31ADB0873
:108C2C001B0443F00104BDF82650079809F03AFFE5
:108C3C0003462A460D4920460AF017FC03230B93E2
:108C4C0004E00B9B072B01D10C230B939DF82930CF
:108C5C00002B7FF441AF0B9B18460DB030BD00BF0D
:108C6C00B86A0300186A0300F46F03002C70030049
:108C7C0000B58BB00346ADF80630BDF8063018468B
:108C8C0000F0ACFA0346ADF814300023089300232F
:108C9C00ADF81E300323069301238DF81730BDF871
:108CAC0014304FF6FF72934216D002AABDF814305E
:108CBC000821184601F0DCFA0990099B002B0BD116
:108CCC00039B0493049B06330893049B9B88ADF889
:108CDC001E30049B1B680693BDF81E20BDF80600D1
:108CEC00069B0899FFF734FE0990099B042B02D1CF
:108CFC001123099331E0099B082B02D1002309931E
:108D0C002BE0099B0B2B28D100238DF81730069BE9
:108D1C0003F00203002B02D0012306931DE0089BF5
:108D2C00002B03D1BDF81E30002B07D00023089375
:108D3C000023ADF81E30032306930EE00F4A104BB0
:108D4C00D31ADB081B0443F00103BDF806200D49C0
:108D5C0018460AF079FB03230993099B0B2BBBD014
:108D6C009DF8173083F00103DBB2002B01D00B23ED
:108D7C000993099B18460BB05DF804FBB86A030015
:108D8C00186A0300AC70030000B589B00346ADF857
:108D9C0006300DF117030493BDF80630184600F0A9
:108DAC001DFA0346ADF81E3003AABDF81E30012192
:108DBC00184601F05DFA0690069B002B01D00023AB
:108DCC0001E0049B1B78184609B05DF804FB000019
:108DDC0010B584B00346ADF806304FF6FF73ADF80E
:108DEC000E301B48FFF7BCFD0290029B002B11D0EC
:108DFC00184A194BD31ADB081B0443F001040298E0
:108E0C0009F050FE03461A46144920460AF01CFB92
:108E1C0003231AE00E4B1988BDF80E20BDF806305E
:108E2C001846FFF791FD0290029B43F20302934216
:108E3C0005D1074B1B8801339AB2054B1A80029B54
:108E4C0043F203029342E5D0029B184604B010BDD6
:108E5C00F6230020B86A0300186A0300247103008B
:108E6C0000B585B00346ADF80630084A02AB92E86F
:108E7C00030083E8030002A9BDF80630002218465F
:108E8C0000F074FD00BF05B05DF804FB70710300C9
:108E9C0046DF704700BF184600B585B0019000232F
:108EAC00039308E0084A039B52F823300198984733
:108EBC00039B01330393039B012BF3D900BF00BF2A
:108ECC0005B05DF804FB00BF8072030084B0019014
:108EDC00002303930AE0019A039B13441B78002B95
:108EEC0001D0012306E0039B01330393039B0F2B5B
:108EFC00F1D90023184604B0704700B583B0019037
:108F0C000091019B002B02D0009B002B01D1002370
:108F1C001BE0019B1B78C3F34603DAB2009B1B7862
:108F2C00C3F34603DBB29A4201D000230DE0019B50
:108F3C00581C009B0133062219460DF003FD034615
:108F4C00002B0CBF01230023DBB2184603B05DF8E5
:108F5C0004FB000030B597B00190019B1B88102BCF
:108F6C0040F09180019B0AAC1D1D0FCD0FC40FCD9D
:108F7C000FC495E8070084E807004FF6FF73ADF8BF
:108F8C0056309DF82C3023F00103DBB2062B47D072
:108F9C0000F08EFC9DF82C30C3F34603DBB2012BA2
:108FAC0002DC002B15DA3BE0022B2ED038E0089BBC
:108FBC0003F111020AAB043311461846FFF79DFF6B
:108FCC000346002B05D0BDF82630ADF8563000BF57
:108FDC0026E007AA0DF126031946072000F072FCC3
:108FEC000346002BE3D11BE0089B5A1C0AAB04334D
:108FFC001146184600F08FFA0346002B05D0BDF839
:10900C002630ADF8563000BF09E007AA0DF1260353
:10901C001946072000F056FC0346002BE4D100BF94
:10902C00BDF828301946194A0B469B000B445B00CF
:10903C001344BDF856201A80BDF828301946134A3F
:10904C000B469B000B445B00134402330BAA1068C5
:10905C0018609188927999809A71BDF856304FF6C4
:10906C00FF72934210D0BDF82830ADF80A30BDF82D
:10907C005630ADF80C3000238DF8083002AB184692
:10908C00FFF70AFF00E000BF17B030BDF823002047
:10909C0000B587B001900091019B11330593009BA3
:1090AC0011330493019B581C009B01331022194669
:1090BC000DF048FC0346002B11D1019B01331846DF
:1090CC00FFF704FF0346002B09D0009B0133184621
:1090DC00FFF7FCFE0346002B01D0012300E0002328
:1090EC008DF80F309DF80F3003F001038DF80F3021
:1090FC0004990598FFF701FF03468DF80E30059B88
:10910C001B7823F00103DBB2042B16D0059B1B78D4
:10911C0023F00103DBB2062B0FD0049B1B7823F04A
:10912C000103DBB2042B08D0049B1B7823F0010352
:10913C00DBB2062B01D0012300E000238DF80D30AB
:10914C009DF80D3003F001038DF80D309DF80E30B5
:10915C00002B03D09DF80D30002B0AD19DF80F3059
:10916C00002B08D09DF80D3083F00103DBB2002BEF
:10917C0001D0012300E0002303F00103DBB2184609
:10918C0007B05DF804FB00B587B001900B46ADF855
:10919C00023000F08DFB10E0BDF81630BDF8022057
:1091AC009A420AD0049B19460198FFF771FF0346B7
:1091BC00002B02D0BDF816300BE003AA0DF11603FC
:1091CC001946072000F07EFB0346002BE4D14FF636
:1091DC00FF73184607B05DF804FB000000B583B0C0
:1091EC000346ADF80630BDF80630132B0AD8BDF88F
:1091FC0006301846FEF7A4FB034683F00103DBB2EE
:10920C00002B02D04FF6FF7308E0BDF8062005498D
:10921C0013469B0013445B000B441B88184603B099
:10922C005DF804FBF823002000B583B003460091E1
:10923C00ADF80630BDF80630132B0AD8BDF8063051
:10924C001846FEF77DFB034683F00103DBB2002BCF
:10925C0002D043F2020311E0BDF806200098094940
:10926C0013469B0013445B000B44024602331968FF
:10927C00116099889B79918093710023184603B0F3
:10928C005DF804FBF823002000B583B00190009139
:10929C00019800F089F8034683F00103DBB2002B40
:1092AC0001D0002315E0019B1A88009B1B889A4271
:1092BC0001D000230DE0019B981C009B0233082277
:1092CC0019460DF03FFB0346002B0CBF0123002376
:1092DC00DBB2184603B05DF804FB00B587B0019013
:1092EC0000F0E6FA14E0049B463319460198FFF7A8
:1092FC00CBFF0346002B08D1049B2A331946019857
:10930C00FFF7C2FF0346002B02D0BDF816300BE06E
:10931C0003AA0DF116031946072000F0D3FA0346F1
:10932C00002BE0D14FF6FF73184607B05DF804FB35
:10933C0000B585B00346ADF80630BDF806304FF6E3
:10934C00FF72934202D14FF6FF7326E00023ADF873
:10935C000E301CE0BDF80E20124913469B0013443E
:10936C005B000B441B88BDF806209A420AD1BDF85D
:10937C000E301846FEF7E4FA0346002B02D0BDF877
:10938C000E300AE0BDF80E300133ADF80E30BDF8EA
:10939C000E30132BDED94FF6FF73184605B05DF86F
:1093AC0004FB00BFF823002084B00190019B1B88B4
:1093BC00002B01D0012312E0002303930BE0019A50
:1093CC00039B134402331B78002B01D0012306E0CE
:1093DC00039B01330393039B072BF0D900231846FF
:1093EC0004B0704782B003460A46ADF80630134607
:1093FC00ADF80430BDF80630132B0AD8BDF80620A2
:10940C00054913469B0013445B000B44BDF8042034
:10941C001A8000BF02B07047F823002000B585B059
:10942C000346ADF80630BDF806301846FFF780FF4E
:10943C000346ADF80E30BDF80630184600F0A6FE17
:10944C000290029B002B0ED1BDF80E30132B0AD8C4
:10945C00BDF80E20064913469B0013445B000B44D9
:10946C004FF6FF721A80029B184605B05DF804FB9C
:10947C00F823002000B595B00390029101920023CF
:10948C0013930DE0139BC3F10F03039A1344197844
:10949C0005AA139B13440A461A70139B01331393AA
:1094AC00139B0F2BEED905AB10330D220021184660
:1094BC000DF018FA002312930DE0029A129B1A4435
:1094CC00129BC3F10F03127850336B4403F82C2C0E
:1094DC00129B01331293129B022BEED905AB18464B
:1094EC00FFF7D6FC002311930DE0119BC3F10F0283
:1094FC000199119B0B4450326A4412F81C2C1A70BF
:10950C00119B01331193119B022BEED900BF00BFAD
:10951C0015B05DF804FB00B587B001900091019B7C
:10952C001B7823F00103DBB2042B01D000231FE0D6
:10953C00019B5A1C05AB1188927819809A70019B7B
:10954C001A1D03AB1188927819809A70009B04AA9B
:10955C0003A91846FFF78EFF04A905AB0322184692
:10956C000DF0F0F90346002B0CBF01230023DBB2F6
:10957C00184607B05DF804FB00B585B00190019B5F
:10958C004FF6FF725A800023039305E0064B0198B7
:10959C009847039B01330393039B002BF6D000BF2A
:1095AC0000BF05B05DF804FBEDA0020082B00346DD
:1095BC00ADF80630BDF80630A3F580439BB21846D3
:1095CC0002B0704782B00346ADF80630BDF80630E5
:1095DC0003F580439BB2184602B0704782B0034635
:1095EC008DF807309DF807309BB2A3F580439BB2F2
:1095FC00184602B0704782B003468DF807309DF8CC
:10960C000730072B17D09DF80730012B13D09DF88E
:10961C000730082B0FD09DF80730052B0BD09DF889
:10962C000730062B07D09DF80730092B03D09DF887
:10963C000730042B01D1012300E0002303F00103C8
:10964C00DBB2184602B0704700B589B003460091F2
:10965C00ADF8063003AB00221A605A609A60DA60EB
:10966C001A6108238DF80C30BDF80630ADF81030B7
:10967C00009B059303AB1846FFF77EFF00BF09B0B4
:10968C005DF804FB00B589B0354B00221A7001ABB4
:10969C000822002118460DF025F94FF6FF7001F055
:1096AC0045F80346ADF81E300CE0BDF81E301846E8
:1096BC0000F08EFFBDF81E30184601F037F8034657
:1096CC00ADF81E30BDF81E304FF6FF72934210D02D
:1096DC00BDF81E301846FFF769FF0346184601AA6D
:1096EC0003AB194607F029FD034648F20962934281
:1096FC00DBD0BDF81E304FF6FF7293422CD0BDF874
:10970C001E301846FFF752FF0346ADF81C30BDF86B
:10971C001C30184607F0ACFC0690069B48F207621A
:10972C00934203D10E4B01221A7015E0069B002BBD
:10973C0012D00C4A0C4BD31ADB081B0443F001006B
:10974C00BDF81E30069A094909F08FFEBDF81E308F
:10975C0006991846FFF778FF00BF09B05DF804FBC7
:10976C00C0240020D86A0300186A0300F4730300B5
:10977C0000B587B003460092ADF806300B468DF865
:10978C0005309DF805301846FFF735FF02AB08226F
:10979C00002118460DF0A6F8BDF806301846FFF764
:1097AC0005FF0346ADF816309DF805301846FFF757
:1097BC0015FF0346ADF8143002ABBDF81410BDF81C
:1097CC001600009A07F090FC0490049B002B01D02B
:1097DC00052300E00023184607B05DF804FB00B534
:1097EC008DB0029201930346ADF80E300B468DF806
:1097FC000D30BDF80E30FF2B01D9072354E09DF836
:10980C000D301846FFF7F7FE034683F00103DBB279
:10981C00002B01D0072347E006AA9DF80D10BDF8D8
:10982C000E301846FFF7A4FF0B900B9B002B01D0BA
:10983C00052339E004AA06AB1146184607F06AFB6B
:10984C000B900B9B002B01D005232DE0029B9DF868
:10985C000D209A70049B5A88029B1A80019B002B46
:10986C0003D1059A029B5A6019E0029B1B889B004E
:10987C000A93029B1B889A00019B1B68934228BF8A
:10988C0013460993029B5B680599099A18460CF0DC
:10989C00F3FF099A0A9B9A4201D20C2304E006AB0F
:1098AC00184607F075FB002318460DB05DF804FB55
:1098BC0008B50822002102480DF014F800BF08BDBD
:1098CC00C424002000B58DB00346029101928DF89E
:1098DC000F309DF80F301846FFF78DFE034683F0CE
:1098EC000103DBB2002B01D0012338E09DF80F30CF
:1098FC001846FFF773FE0346ADF82E3007A9BDF8E6
:10990C002E30194A184607F005FC0346002B01D0EF
:10991C00002324E005AA07AB1146184607F0FAFA13
:10992C000A900A9B002B01D0002318E0019B9DF8A4
:10993C000F209A70059B5A88019B1A80069A019BEE
:10994C005A60059B9B881846FFF73CFE03461A4657
:10995C00029B1A8007AB184607F01AFB0123184626
:10996C000DB05DF804FB00BFC424002000B58DB021
:10997C00034602910192ADF80E30BDF80E30FF2B6C
:10998C0001D907238AE0029B9B781846FFF733FE28
:10999C00034683F00103DBB2002B01D007237DE0EB
:1099AC00BDF80E301846FFF701FE0346ADF8203027
:1099BC00029B9B781846FFF711FE0346ADF8223048
:1099CC00029B5B680993029B1B880A93029B997804
:1099DC0005AABDF80E301846FFF7CAFE0B900B9B7C
:1099EC00052B07D108AA05AB1146184607F01CFB3E
:1099FC000B9006E008AA05AB1146184607F023FBAE
:109A0C000B900B9B002B2BD00B9B48F20D629342BF
:109A1C0036D80B9B48F20262934231D30B9BA3F5D1
:109A2C000643023B0B2B2BD801A252F823F000BFAC
:109A3C00899A02008D9A02008D9A02008D9A02007A
:109A4C00859A0200819A02008D9A02008D9A02007A
:109A5C008D9A02008D9A02008D9A0200819A020062
:109A6C00019B002B04D005AB0199184607F078FB3D
:109A7C00002313E0112311E086230FE010230DE0E7
:109A8C00084A094BD31ADB081B0443F00100BDF84C
:109A9C000E300B9A054909F0E8FC032318460DB06B
:109AAC005DF804FBD86A0300186A0300C474030051
:109ABC0008B54FF6FF7000F053FD0346184608BD7D
:109ACC0000B583B00346ADF80630BDF80630FF2B69
:109ADC0001D9072307E0BDF80630184600F052FD07
:109AEC00FFF7D0FD0023184603B05DF804FB00B56A
:109AFC0083B00346ADF80630BDF80630184600F0CA
:109B0C0081FD0346184603B05DF804FB00B583B035
:109B1C000346ADF80630BDF80630184600F0D2FD0D
:109B2C000346184603B05DF804FB00B583B003464A
:109B3C00ADF80630BDF80630184600F0F7FD0346C8
:109B4C00184603B05DF804FB82B00190019B4FF600
:109B5C00FF721A80019BFF229A70019BFF225A729E
:109B6C00019A937A6FF341039372019A937A6FF38C
:109B7C0000039372019B00221A72019B00225A600F
:109B8C0000BF02B07047000084B003460091ADF8EE
:109B9C000630009B1B68039319E01049039A134687
:109BAC005B0013449B000B441B88BDF806209A42B3
:109BBC000AD1009B039A1A60039A13465B00134464
:109BCC009B00064A134406E0039B01330393039B5B
:109BDC00032BE2D90023184604B07047DC24002084
:109BEC0000B585B003460A46ADF8063013468DF82D
:109BFC0005300023029302AABDF806301146184620
:109C0C00FFF7C2FF03900AE0029B0133029302AA02
:109C1C00BDF8063011461846FFF7B6FF0390039BBC
:109C2C00002B17D0039B9B789DF805209A42EBD113
:109C3C00039B9B7A03F00203DBB2002BE4D1039B62
:109C4C009B7A03F00103DBB2002BDDD1039B5B6835
:109C5C00002BD9D1039B184605B05DF804FB00001E
:109C6C0084B001900023039316E00F49039A134626
:109C7C005B0013449B000B4404331B68019A9A420B
:109C8C0007D1039A13465B0013449B00064A134406
:109C9C0006E0039B01330393039B032BE5DD0023B9
:109CAC00184604B0704700BFDC24002008B5FF2123
:109CBC004FF6FF70FFF794FF0346184608BD0000EF
:109CCC0000B585B00190002303930CE0019B5A7AF8
:109CDC00039BDBB21344DBB21946094801F0AAF826
:109CEC00039B01330393019B1B7A1A46039B9342FC
:109CFC00ECD30198FFF728FF00BF05B05DF804FB1B
:109D0C00CC24002000B583B001900B46ADF8023096
:109D1C0013468DF80130019B002B13D0FFF7C6FFC3
:109D2C000246019B1A60019B1B68002B0CD0019B07
:109D3C001B68BDF802201A80019B1B689DF801204E
:109D4C009A7002E000BF00E000BF03B05DF804FBB6
:109D5C0000B585B001900023039308E0084A039BEB
:109D6C0052F8233001989847039B01330393039BCC
:109D7C00032BF3D900BF00BF05B05DF804FB00BF97
:109D8C009477030086B0039001921A460B468DF827
:109D9C000B301346ADF80830BDF808301A46920067
:109DAC0013441B01ADF81630039B9DF80B209A70E1
:109DBC00039B019A5A60BDF8163003339B109AB27C
:109DCC00039B1A8000BF06B0704700B585B00390A6
:109DDC00019200930B468DF80B30009B9BB29DF8C3
:109DEC000B10019A0398FFF7CDFF00BF05B05DF88B
:109DFC0004FB000082B00190019B9B78013B072B78
:109E0C0027D801A252F823F03D9E02005F9E02006B
:109E1C005F9E02005F9E02005F9E0200459E020054
:109E2C00359E02004D9E0200019B14221A8011E007
:109E3C00019B01221A800DE0019B01221A8009E08E
:109E4C00019B5B689B8809339B089AB2019B1A8023
:109E5C0000E000BF00BF02B0704700BF10B586B075
:109E6C0001900023059302AB00221A605A60019BFB
:109E7C009B788DF80A30019B5B7A1946404800F0BC
:109E8C00A8FF0490049B002B0ED13E4A3E4BD31AE4
:109E9C00DB081B0443F00100019B5B7A1A463B492B
:109EAC0009F0D2FA032367E0019B9978019B1B7A96
:109EBC0002A8049AFFF789FF02AB1846FFF79AFF36
:109ECC00019B1888019B1A1D02AB1946FFF74EFD2A
:109EDC000590059B862B2AD0059B862B35D8059B98
:109EEC00112B14D0059B112B2FD8059B002B03D0C5
:109EFC00059B072B3ED028E0019A937A6FF3410320
:109F0C009372019A937A6FF30003937233E0019A80
:109F1C00937A43F002039372019A937A6FF30003DE
:109F2C0093721B4B01221A700023059323E0019AB4
:109F3C00937A6FF341039372019A937A43F001037E
:109F4C009372134B01221A7015E00E4A0E4BD31A62
:109F5C00DB081B0443F00104059808F0A3FD03463D
:109F6C001A46019B1B880B49204609F07EFA0323F5
:109F7C00059300E000BF059B184606B010BD00BF5E
:109F8C00CC240020D06A0300186A030084750300F7
:109F9C000C250020C475030010B588B00190019801
:109FAC00FFF75CFF0790079B002B2BD04FF6FF733E
:109FBC00ADF80A30019B1B88ADF80C30079B862B43
:109FCC0003D107238DF8083016E008238DF80830EC
:109FDC00079B04930D4A0E4BD31ADB081B0443F06A
:109FEC000104079808F05EFD03461A46019B1B8886
:109FFC000849204609F039FA02AB1846FFF7A8FECB
:10A00C00002300E00123184608B010BDD06A0300FD
:10A01C00186A0300F475030000B585B003468DF88B
:10A02C0007302D4B1B7883F00103DBB2002B4DD195
:10A03C00294B00221A700023039343E02749039A0B
:10A04C0013465B0013449B000B4408339B78C3F30B
:10A05C004003DBB2002B0DD12049039A13465B0061
:10A06C0013449B000B4408339B78C3F30003DBB20F
:10A07C00002B24D0184B01221A701849039A13464E
:10A08C005B0013449B000B4408339B78C3F34003E1
:10A09C00DBB2002B03D19DF80730002B0FD0039AB5
:10A0AC0013465B0013449B000C4A13441846FFF7FD
:10A0BC0073FF034683F00103DBB2002B08D1039B33
:10A0CC0001330393039B032BB8D902E000BF00E0DC
:10A0DC0000BF05B05DF804FB0C250020DC2400203B
:10A0EC0000B585B0019001238DF80F3000238DF859
:10A0FC000E30019BDB681846FFF7B2FD0290019B06
:10A10C001B78142B27D0142B29DC092B02D00A2BFB
:10A11C000BD024E0019B5B7A002B22D1029B002BFD
:10A12C001FD00298FFF7CCFD1BE0019B5B7A002B44
:10A13C0019D1029B002B16D0029B00225A60029A66
:10A14C00937A43F0020393720F4B01221A7000238F
:10A15C008DF80F3007E001238DF80E3004E000BFBE
:10A16C0002E000BF00E000BF9DF80F30002B02D0D2
:10A17C000198FFF7EDFD9DF80E301846FFF74CFFE8
:10A18C0000BF05B05DF804FB0C25002030B589B08C
:10A19C000346ADF80E300023059305AABDF80E302A
:10A1AC0011461846FFF7F0FC079032E0079B9A78AF
:10A1BC00BDF80E301146184600F010F90690069BBB
:10A1CC00002B1BD0069B052B18D0254A254BD31AE8
:10A1DC00DB081B0443F00104069808F063FC0346FB
:10A1EC001946BDF80E20079B9B78009313460A4630
:10A1FC001D49204609F04DF903232EE0059B013340
:10A20C00059305AABDF80E3011461846FFF7BCFCA5
:10A21C000790079B002BC9D1BDF80E301846FFF7ED
:10A22C004FFC0690069B002B02D0069B072B01D1FE
:10A23C00069B12E00A4A0B4BD31ADB081B0443F0B3
:10A24C000104BDF80E50069808F02CFC03462A4673
:10A25C000649204609F009F90323184609B030BD18
:10A26C00D06A0300186A030074760300CC760300EE
:10A27C0000B583B003460092ADF806300B468DF85E
:10A28C0005309DF80510BDF806000023009AFFF775
:10A29C00A6FA0346184603B05DF804FB10B588B067
:10A2AC00029201930346ADF80E300B468DF80D303B
:10A2BC00019B002B01D10E2385E09DF80D30072B5F
:10A2CC0005D09DF80D30082B01D007237BE0029BB5
:10A2DC00002B02D0029B042B01D9072373E000232F
:10A2EC008DF81F309DF80D20BDF80E301146184624
:10A2FC00FFF776FC03460593059B002B0CD19DF8CC
:10A30C000D20BDF80E1005AB1846FFF7FBFC059BA6
:10A31C00002B09D1112356E0059B1B7A1A46029B90
:10A32C00934201D00F234EE0059B5B7AFF2B13D198
:10A33C00059C0299254800F0E8FC03466372059BD6
:10A34C005B7AFF2B05D1059B1846FFF7FDFB11230C
:10A35C0039E001238DF81F30059B029AD2B21A7294
:10A36C00059B5B7A1946194800F033FD0690069B55
:10A37C00002B0ED1164A174BD31ADB081B0443F0E3
:10A38C000100059B5B7A1A46134909F05DF803231B
:10A39C0019E0029B9BB29DF80D10069A0198FFF7ED
:10A3AC00F1FC9DF81F30002B0CD09DF80D30082BC4
:10A3BC0008D1019B1B889B009AB2019B5B68063AF3
:10A3CC0092B29A800023184608B010BDCC2400200D
:10A3DC00D06A0300186A03002077030000B585B02B
:10A3EC0003460A46ADF8063013468DF805309DF845
:10A3FC000520BDF8063011461846FFF7F1FB039017
:10A40C00039B002B01D1052303E00398FFF758FCB5
:10A41C000023184605B05DF804FB00B585B0034673
:10A42C00ADF806300B468DF805301346ADF802300A
:10A43C009DF80530072B05D09DF80530082B01D071
:10A44C00072326E0BDF802301846FFF750FB034601
:10A45C0083F00103DBB2002B01D0072319E09DF838
:10A46C000520BDF8063011461846FFF7B9FB0390DE
:10A47C00039B002B01D105230BE0039BBDF80220AD
:10A48C001A80039B9DF805209A700398FFF7E6FC51
:10A49C000346184605B05DF804FB00B585B00346CD
:10A4AC000091ADF806304FF6FF73ADF80E30BDF8E5
:10A4BC0006304FF6FF72934211D14FF48071009821
:10A4CC0006F0B4FF0346ADF80E30BDF80E30B3F510
:10A4DC00807F2AD14FF6FF73ADF80E3025E0BDF822
:10A4EC000630FF2B21D8BDF806301946009806F02F
:10A4FC0048FF0346002B14BF01230023DBB283F07B
:10A50C000103DBB28DF80D309DF80D3003F0010323
:10A51C008DF80D309DF80D30002B02D0BDF80630B3
:10A52C0001E04FF6FF73ADF80E30BDF80E30184653
:10A53C0005B05DF804FB00B583B003460091ADF89F
:10A54C000630BDF80630FF2B05D8BDF8063019468D
:10A55C00009806F03AFF00BF03B05DF804FB000062
:10A56C0000B583B00346ADF80630BDF8063004499B
:10A57C001846FFF792FF0346184603B05DF804FB3C
:10A58C001025002000B585B00346ADF80630BDF8A7
:10A59C0006304FF6FF72934201D1002311E0BDF853
:10A5AC0006300A491846FFF778FF0346ADF80E301F
:10A5BC00BDF80E20BDF806309A420CBF01230023D3
:10A5CC00DBB2184605B05DF804FB00BF3025002057
:10A5DC0000B583B00346ADF80630BDF80630074928
:10A5EC001846FFF7A8FFBDF8063005491846FFF7D7
:10A5FC00A2FF00BF03B05DF804FB00BF10250020D4
:10A60C003025002000B583B00346ADF80630BDF808
:10A61C000630FF2B07D8BDF806301946044806F063
:10A62C00EDFE034600E00023184603B05DF804FB82
:10A63C001025002000B583B00346ADF80630BDF8F8
:10A64C000630FF2B07D8BDF806301946044806F033
:10A65C00D5FE034600E00023184603B05DF804FB6A
:10A66C003025002000B585B003460091ADF80630CA
:10A67C00BDF806304FF6FF72934204D0BDF8063099
:10A68C0001339BB200E00023ADF80E3010E0BDF8B2
:10A69C000E301946009806F0B1FE0346002B02D08E
:10A6AC00BDF80E300AE0BDF80E300133ADF80E30B7
:10A6BC00BDF80E30FF2BEAD94FF6FF73184605B0E4
:10A6CC005DF804FB00B583B00346ADF80630BDF869
:10A6DC00063015491846FFF7C5FF0346ADF806309E
:10A6EC0016E0BDF806301846FFF7A4FF034683F0CA
:10A6FC000103DBB2002B02D0BDF8063010E0BDF830
:10A70C00063009491846FFF7ADFF0346ADF8063091
:10A71C00BDF806304FF6FF729342E2D1BDF8063019
:10A72C00184603B05DF804FB1025002000B583B07B
:10A73C000346ADF80630BDF8063004491846FFF75D
:10A74C0091FF0346184603B05DF804FB302500204A
:10A75C0000B585B001900023039308E0094A039BE0
:10A76C0052F8233001989847039B01330393064B0F
:10A77C001B781A46039B9342F0DB00BF00BF05B069
:10A78C005DF804FB602500206C25002000B583B02B
:10A79C00002300221049114800F0BCF90190019BE4
:10A7AC00052B06D10D4B4FF6FF721A800A4B002277
:10A7BC001A60019B002B02D0019B052B01D10123B8
:10A7CC0000E0002303F00103DAB2054B1A7000BF5E
:10A7DC0003B05DF804FB00BF582500205C25002069
:10A7EC005125002000B58FB0019001238DF8373032
:10A7FC00019B9B881846FEF79BFD03461A46019B5E
:10A80C005A80019B1B78093B032B00F2D58001A2D7
:10A81C0052F823F031A80200BDA80200F3A80200F0
:10A82C0079A90200019B5B7A002B28D16C4B1B6829
:10A83C00002B10D0019BDA68694B1B689A420AD135
:10A84C00674B00221A60019B9A88664B1A80019B09
:10A85C000022DA60B2E0644B1B78002B00F0AE8073
:10A86C00019B9A885F4B1B889A4240F0A780019B02
:10A87C001B7A062B40F0A280FFF788FF9EE0019B1D
:10A88C005B7A012B40F09A80574B1B78002B00F021
:10A89C009580019B9A88534B1B889A4240F08E807E
:10A8AC00019B1B7A062B40F08980FFF76FFF85E038
:10A8BC00019B5B7A002B40F08380494B1B68002B7B
:10A8CC007ED0019BDA68464B1B689A4278D1444B88
:10A8DC0000221A60454B1B68013B444A1360019BE4
:10A8EC000022DA606CE0424B1B78002B31D04FF623
:10A8FC00FF70FFF70BF903461A464FF6FF739A42A7
:10A90C0027D14FF6FF70FFF710F903461A464FF6A2
:10A91C00FF739A421DD1364B00221A7008AB1422D9
:10A92C00002118460BF0DEFF0D238DF820304FF67A
:10A93C00FF73ADF824304FF6FF73ADF822300023CF
:10A94C008DF837300198FFF703FF08AB1846FFF777
:10A95C00FFFE254B1B78002B34D0019B9A88214B92
:10A96C001B889A422ED1FFF711FF2BE0204B1B784E
:10A97C00002B29D01E4B00221A7003AB142200218D
:10A98C0018460BF0AFFF0E238DF80C304FF6FF730B
:10A99C00ADF810304FF6FF73ADF80E30019B9B688D
:10A9AC00059300238DF837300198FFF7D1FE03ABE8
:10A9BC001846FFF7CDFE07E000BF06E000BF04E03D
:10A9CC0000BF02E000BF00E000BF9DF83730002B55
:10A9DC0002D00198FFF7BCFE00BF0FB05DF804FB7E
:10A9EC00542500205C2500205125002058250020EE
:10A9FC005225002000B583B00190019B002B02D0A2
:10AA0C000198FFF7A5FE03B05DF804FB00B583B019
:10AA1C0001900198FFF79CFE00BF03B05DF804FBAA
:10AA2C0000B583B001900198FFF792FE00BF03B010
:10AA3C005DF804FB00B583B001900198FFF788FE28
:10AA4C0000BF03B05DF804FB00B58BB00190019B17
:10AA5C009B88ADF82630019B1B88102B29D1002335
:10AA6C008DF80F3004AB1422002118460BF03AFF7E
:10AA7C0001238DF810304FF6FF73ADF81430BDF88C
:10AA8C002630ADF81230019B083306930DF10F03FD
:10AA9C00079304AB1846FFF75BFE0C4B19789DF837
:10AAAC000F20BDF826301846FDF73AF89DF80F3008
:10AABC0008E0064B1A78BDF8263011461846FCF70C
:10AACC00FFFF034618460BB05DF804FB7022002014
:10AADC0000B583B0019000910D4B1B7883F00103FE
:10AAEC00DBB2002B10D10198FFF7AEFF0346002B11
:10AAFC0009D10198FEF72EFA019801F037FC019864
:10AB0C00FDF792FD00E000BF03B05DF804FB00BF51
:10AB1C005025002010B58EB0039002910192009345
:10AB2C00554B1B7883F00103DBB2002B01D00823BB
:10AB3C009EE04FF6FF70FEF7E9FF0346ADF83630A6
:10AB4C00002308930423079305AB00221A605A6074
:10AB5C0008AB069307AB05AABDF836000621FEF735
:10AB6C003EFE0C9000230B934FF0FF330A934FF6ED
:10AB7C00FF73ADF826304FF6FF73ADF824300C9B05
:10AB8C00072B28D1052373E00C9B002B13D1089BBA
:10AB9C000B9A9A4205D8089B0B93BDF83630ADF84A
:10ABAC002630089B0A9A9A4205D9089B0A93BDF84D
:10ABBC003630ADF82430BDF836301846FEF7A6FF17
:10ABCC000346ADF8363007AB05AABDF836000621B2
:10ABDC00FEF705FE0C900C9B002BD5D00C9B052B87
:10ABEC00D2D0BDF836304FF6FF7293422BD1BDF860
:10ABFC0026304FF6FF72934205D0BDF824304FF645
:10AC0C00FF72934202D105230C9301E000230C93B5
:10AC1C00039B002B03D0039BBDF826201A80029BBC
:10AC2C00002B02D0029B0B9A1A60019B002B03D0C5
:10AC3C00019BBDF824201A80009B002B17D0009B91
:10AC4C000A9A1A6013E00D4A0D4BD31ADB081B0449
:10AC5C0043F001040C9807F025FF03461A46BDF893
:10AC6C0036300849204608F000FC03230C930C9B5B
:10AC7C0018460EB010BD00BF50250020A86A030076
:10AC8C00186A03006079030000B585B0019000914B
:10AC9C000099019806F075FB0346002B14BF0123A5
:10ACAC000023DBB283F00103DBB28DF80F309DF88B
:10ACBC000F3003F001038DF80F30BFF35F8F00BF2F
:10ACCC009DF80F30184605B05DF804FB00B583B055
:10ACDC0001900091BFF35F8F00BF0099019806F0BF
:10ACEC0074FB00BF03B05DF804FB00B583B00190AA
:10ACFC000091BFF35F8F00BF0099019806F07EFBB7
:10AD0C000346184603B05DF804FB00B585B001900E
:10AD1C000091019B002B07D0019B1B68002B03D0DB
:10AD2C00019B5B68002B01D1FF234EE0FF238DF8C4
:10AD3C000F3000238DF80E3040E0019B5B689DF8CE
:10AD4C000E2011461846FFF79FFF0346002B13D029
:10AD5C009DF80F30FF2B03D19DF80E308DF80F307E
:10AD6C009DF80E209DF80F30D31A0133009A9A42A9
:10AD7C001FD19DF80F3028E09DF80F30FF2B18D015
:10AD8C009DF80F308DF80D300AE09DF80D30194606
:10AD9C00019800F04FF89DF80D3001338DF80D300F
:10ADAC009DF80D209DF80E309A42EED3FF238DF8BE
:10ADBC000F309DF80E3001338DF80E309DF80E20BB
:10ADCC00019B9B689A42B8D3FF23184605B05DF8E7
:10ADDC0004FB00B583B001900B468DF80330019B4A
:10ADEC00002B07D0019B1B68002B03D0019B5B68D9
:10ADFC00002B01D1002319E09DF80330FF2B14D058
:10AE0C00019B5B689DF8032011461846FFF76DFF08
:10AE1C000346002B09D0019B1A689DF80330019959
:10AE2C00C96801FB03F3134400E00023184603B088
:10AE3C005DF804FB00B583B001900B468DF8033030
:10AE4C00019B002B1ED0019B1B68002B1AD0019B71
:10AE5C005B68002B16D09DF80330FF2B12D0019BA2
:10AE6C005B689DF8032011461846FFF73EFF03462A
:10AE7C00002B07D0019B5B689DF8032011461846F8
:10AE8C00FFF724FF00BF03B05DF804FB7EDF7047C3
:10AE9C0000BF18467FDF704700BF184686DF70473B
:10AEAC0000BF184600B583B00346ADF80630064B1C
:10AEBC001A78BDF8063011461846FCF701FE034619
:10AECC00184603B05DF804FB7122002000B583B076
:10AEDC000346ADF80630064B1A78BDF8063011461D
:10AEEC001846FCF7EDFD0346184603B05DF804FB6D
:10AEFC007222002000B583B00346ADF80630064B35
:10AF0C001A78BDF8063011461846FCF7D9FD0346F1
:10AF1C00184603B05DF804FB7322002000B583B023
:10AF2C000346ADF80630064B1A78BDF806301146CC
:10AF3C001846FCF7C5FD0346184603B05DF804FB44
:10AF4C007422002000B585B00190019B5B881846E7
:10AF5C00FEF744F903461A46019B9A80002303939B
:10AF6C0005E0074B01989847039B01330393039B20
:10AF7C00002BF6D000BF00BF05B05DF804FB00BF8E
:10AF8C0079C2020000B589B003460A46ADF8063016
:10AF9C0013468DF8053003AB00221A605A609A6094
:10AFAC00DA601A6102238DF80C30BDF80630ADF86A
:10AFBC000E309DF805308DF8143003AB1846FFF7B2
:10AFCC00C1FF00BF09B05DF804FB00B589B00346B2
:10AFDC000091ADF8063003AB00221A605A609A60FB
:10AFEC00DA601A6108238DF80C30BDF80630ADF824
:10AFFC000E30009B059303AB1846FFF7A3FF00BF71
:10B00C0009B05DF804FB00B589B00346ADF8063015
:10B01C0003AB00221A605A609A60DA601A61072347
:10B02C008DF80C30BDF80630ADF80E3003AB184679
:10B03C00FFF788FF00BF09B05DF804FB10B588B0BE
:10B04C000446084611461A462346ADF80630034618
:10B05C008DF805300B46ADF8023013468DF80430F0
:10B06C0003AB00221A605A609A60DA601A610423FA
:10B07C008DF80C30BDF80630ADF80E309DF805306B
:10B08C008DF81430BDF80230ADF816309DF8043050
:10B09C008DF81830074B1978BDF806300022184689
:10B0AC00FCF73EFD03AB1846FFF74CFF00BF08B0A2
:10B0BC0010BD00BF7122002010B584B00346ADF85E
:10B0CC0006300B46ADF8043013468DF803300023E0
:10B0DC000393BDF806301846FFF70CFF0346002B10
:10B0EC0001D0012300E002238DF80B30BDF80630AF
:10B0FC0003F580739BB207211846FFF76FF9039095
:10B10C00039B002B1AD0039B052B17D0124A134B11
:10B11C00D31ADB081B0443F00104039807F0C2FCAC
:10B12C0003461A46BDF806300D49204608F09DF935
:10B13C00BDF8063003991846FFF747FF9DF803301A
:10B14C00BDF804209DF80B10BDF80600FFF776FF44
:10B15C0000BF04B010BD00BFE86A0300186A03000A
:10B16C004484030000B583B00346ADF806300B46AB
:10B17C00ADF8043013468DF803309DF80330BDF85C
:10B18C000420BDF806000021FFF758FF00BF03B0F4
:10B19C005DF804FB00B583B00346ADF806300B46F2
:10B1AC00ADF8043013468DF80330BDF80630184660
:10B1BC00FFF778FE0346002B1AD0BDF80630184670
:10B1CC00FFF784FE0346002B09D09DF80320BDF841
:10B1DC000410BDF806301846FFF76EFF08E09DF826
:10B1EC000320BDF80410BDF806301846FFF7BAFF6F
:10B1FC0000BF03B05DF804FB00B583B00346ADF8A7
:10B20C0006300B468DF8053013468DF804301A4B7A
:10B21C0019789DF80520BDF806301846FCF780FC1F
:10B22C009DF80530002B23D0144B19789DF8043071
:10B23C00002B14BF01230023DAB2BDF806301846E8
:10B24C00FCF76EFC0E4B19789DF80430012B0CBFEB
:10B25C0001230023DAB2BDF806301846FCF760FC77
:10B26C009DF80420BDF8063011461846FFF78AFEFB
:10B27C0000BF03B05DF804FB712200207222002095
:10B28C007322002010B58AB0039000230993039B0E
:10B29C000C331846FEF721F80346ADF82230BDF802
:10B2AC0022304FF6FF72934208D1039B1B8818463D
:10B2BC00FDF794FF0346ADF8223007E0039B1B8893
:10B2CC00BDF8222011461846FEF78CF8039B1B880C
:10B2DC00002201211846FFF78FFFBDF822304FF6F0
:10B2EC00FF72934229D004AABDF8223007211846D8
:10B2FC00FEF7BEFF0790079B002B1ED1059B343336
:10B30C000693039B9B7D03F00103DBB2002B14D04F
:10B31C00069B1B7C03F00103DBB2002B0BD1069BBD
:10B32C0003F11202039B0C3319461046FDF7ACFFD8
:10B33C000346002B01D0069B0993039B188800231E
:10B34C0000220999FFF7AAFD0790079B082B0BD148
:10B35C00214A224BD31ADB081B0443F00203204979
:10B36C00184608F063F833E0079B002B1DD01A4AEF
:10B37C001A4BD31ADB081B0443F00104079807F09F
:10B38C0091FB03461A46039B1B881946BDF82230D5
:10B39C0000930B461349204608F07BF8039B1B884F
:10B3AC0007991846FFF711FE12E0039B9B7D03F0F3
:10B3BC000103DBB2002B0BD0099B002B08D1039BA4
:10B3CC001B88002241F206011846FFF7CBFE00BF96
:10B3DC0000BF0AB010BD00BFE86A0300186A030082
:10B3EC00B08403002085030000B589B00346ADF896
:10B3FC00063003AB1422002118460BF073FA052318
:10B40C008DF80C30BDF80630ADF80E3003AB184695
:10B41C00FFF798FD00BF09B05DF804FB00B585B0DF
:10B42C000190019B1B793D2B02D141F23D0301E0C0
:10B43C004FF48853ADF80E30019B1B88BDF80E10ED
:10B44C0000221846FFF7A6FE00BF05B05DF804FB0E
:10B45C0000B589B003460091ADF8063003AB00226D
:10B46C001A605A609A60DA601A6106238DF80C3003
:10B47C00BDF80630ADF80E30009B059303AB1846B3
:10B48C00FFF760FD00BF09B05DF804FB00B583B0A9
:10B49C000190019B1B881846FCF76AFA0346012BA6
:10B4AC000FD1019B1888019B1B7903F00103DBB2C0
:10B4BC00002B01D0012300E002231A460121FFF7E3
:10B4CC009BFE019B1A88019B043319461046FFF71B
:10B4DC00BFFF00BF03B05DF804FB00B589B001905D
:10B4EC000B468DF8033003238DF80C30019B1B8821
:10B4FC00ADF80E30019B5B7903F00403DBB2002B3B
:10B50C0001D0012300E002238DF814309DF80330A4
:10B51C008DF8153003AB1846FFF714FD00BF09B0CA
:10B52C005DF804FB10B58AB00390039B1B88ADF843
:10B53C00223000238DF82530814B1978BDF822304C
:10B54C0000221846FCF7ECFA039B5B7903F004032A
:10B55C00DBB2002B04D100210398FFF7BEFFEDE016
:10B56C00BDF8223003F5807398B205AB0122072198
:10B57C00FEF794FE0790079B002B1CD0714A724B70
:10B58C00D31ADB081B0443F00104079807F08AFA6E
:10B59C0003461A46BDF822306C49204607F065FF79
:10B5AC00BDF8223007991846FFF70FFD00210398CC
:10B5BC00FFF793FFC2E0BDF822301846FDF70EFEF0
:10B5CC000346ADF82630BDF826304FF6FF72934295
:10B5DC0036D1069B4FF6FF711846FDF7D4FD034696
:10B5EC00ADF82630BDF826304FF6FF72934227D0C7
:10B5FC00BDF82620BDF8223011461846FDF7F2FEA4
:10B60C00BDF822301846FFF789FC034683F001038E
:10B61C00DBB2002B14D0BDF822301846FFF7E4FE45
:10B62C00BDF822301846FFF779FC034683F001037E
:10B63C00DBB2002B04D000210398FFF74EFF7DE016
:10B64C00BDF826304FF6FF7293422BD1FEF730FA3D
:10B65C000346ADF82630BDF826304FF6FF72934204
:10B66C0015D1384A384BD31ADB081B0443F00103BD
:10B67C003749184607F0DAFEBDF822300421184687
:10B68C00FFF7A3FC00210398FFF727FF56E0BDF856
:10B69C002620BDF8223011461846FDF7A3FE0123E3
:10B6AC008DF82530BDF8223003F580739BB2BDF8C0
:10B6BC00262007211846FEF7B0FE0790079B002BAB
:10B6CC0004D101210398FFF708FF36E0079B862B76
:10B6DC0009D1BDF822301846FFF795FC01210398DB
:10B6EC00FFF7FBFE29E0174A174BD31ADB081B04A4
:10B6FC0043F00104079807F0D5F903461946BDF845
:10B70C002220BDF82630009313460A4611492046E4
:10B71C0007F0BFFEBDF8223007991846FFF755FC1D
:10B72C0000210398FFF7D9FE9DF82530002B04D09B
:10B73C00BDF826301846FDF771FE00BF0AB010BDEB
:10B74C0071220020E86A0300186A03009085030048
:10B75C00EC8503002086030000B583B00190019BAB
:10B76C001888019B1B791946019B5B79C3F3010374
:10B77C00DBB21A46FFF70EFD00BF03B05DF804FB09
:10B78C0000B583B00190019B1B79002B03D101986C
:10B79C00FFF7C8FE03E00198FFF7DEFF00BF00BF14
:10B7AC0003B05DF804FB000000B589B00190019B6B
:10B7BC001B881846FFF78AFB034683F00103DBB2B4
:10B7CC00002B2CD0019B1B881846FCF725F903464F
:10B7DC0083F00103DBB2002B08D0019B1B880122F4
:10B7EC0041F206011846FFF7BDFC18E0019B1B88CF
:10B7FC000D4A117800221846FCF792F903238DF8B4
:10B80C000C30019B1B88ADF80E3000238DF81430E2
:10B81C0000238DF8153003AB1846FFF793FB00BFE0
:10B82C0009B05DF804FB00BF7122002010B588B090
:10B83C00029201930346ADF80E300B468DF80D3095
:10B84C00019B002B0DD13B4A3B4BD31ADB081B044D
:10B85C0043F00103394A3A49184607F0F5FD032332
:10B86C0065E0BDF80E3003F5807398B205AB01228C
:10B87C000721FEF713FD0790079B112B56D0079B52
:10B88C00002B14D02B4A2C4BD31ADB081B0443F08F
:10B89C000104079807F006F903461A46BDF80E3066
:10B8AC002849204607F0E1FD032307933EE0069B61
:10B8BC005022002118460BF015F8069B9DF80D2020
:10B8CC001A70069B03F13402019B1A60019B029AC9
:10B8DC00DA60069B03F11802019B1A61069B5A1C45
:10B8EC00019B5A61019B184ADA61069B03F1110214
:10B8FC00BDF80E3011461846FDF796FC0790079BD5
:10B90C00002B13D00B4A0C4BD31ADB081B0443F04F
:10B91C000204079807F0C6F803461A46BDF80E3025
:10B92C000A49204607F0A1FD082300E0079B1846B2
:10B93C0008B010BDE86A0300186A0300D087030042
:10B94C00E88603001C870300702500208087030015
:10B95C0000B591B0034602910192ADF80E30BDF8DE
:10B96C000E301846FCF704F803468DF83A300023E5
:10B97C000F9300238DF83B3005AB20220021184695
:10B98C000AF0B0FF9DF83A30012B07D13B4B1978E8
:10B99C00BDF80E3000221846FCF7C2F89DF83A307C
:10B9AC00002B02D143F2020363E0029B002B03D174
:10B9BC0085238DF83B3045E0BDF80E301846FDF779
:10B9CC000DFC03461A464FF6FF739A4221D09DF8A0
:10B9DC003A30012B1DD1BDF80E301846FFF79EFAF8
:10B9EC00034683F00103DBB2002B12D0BDF80E30FE
:10B9FC001846FFF7F9FCBDF80E301846FFF78EFA23
:10BA0C00034683F00103DBB2002B02D085238DF8B3
:10BA1C003B30029B1B7803F00103DBB2002B04D1FB
:10BA2C00019B0893164B0C930CE09DF83B30852B37
:10BA3C0008D005AB9DF83A10BDF80E00019AFFF73F
:10BA4C00F5FE0F900F9B002B12D100230D939DF848
:10BA5C003A30012B01D1029B00E000230D9305AB82
:10BA6C009DF83B10BDF80E000D9AFFF713FA0F90DE
:10BA7C000F9B184611B05DF804FB00BF7422002028
:10BA8C007025002000B585B003460091ADF8063056
:10BA9C00BDF8063000991846FFF7F8F90390039BA0
:10BAAC00042B01D111230393039B184605B05DF8B9
:10BABC0004FB00B585B003460091ADF806300023B9
:10BACC000393009B002B06D0BDF806300099184656
