:020000022000DC
:106000000000012019620200016202000362020026
:10601000056202000762020009620200000000003F
:106020000000000000000000000000000B62020001
:106030000D620200000000000F6202001162020007
:106040001362020013620200136202001362020074
:106050001362020013620200136202001362020064
:106060001362020013620200136202001362020054
:106070001362020013620200136202001362020044
:106080001362020013620200136202001362020034
:106090001362020013620200D58202001362020042
:1060A0001362020013620200136202001362020014
:1060B00013620200136202000000000000000000F2
:1060C00013620200136202001362020013620200F4
:1060D000136202001362020013620200000000005B
:1060E00000000000000000000000000000000000B0
:1060F00000000000000000000000000000000000A0
:10610000000000000000000000000000000000008F
:10611000000000000000000000000000000000007F
:10612000000000000000000000000000000000006F
:10613000000000000000000000000000000000005F
:10614000000000000000000000000000000000004F
:10615000000000000000000000000000000000003F
:10616000000000000000000000000000000000002F
:10617000000000000000000000000000000000001F
:10618000000000000000000000000000000000000F
:1061900000000000000000000000000000000000FF
:1061A00000000000000000000000000000000000EF
:1061B00000000000000000000000000000000000DF
:1061C00000000000000000000000000000000000CF
:1061D00000000000000000000000000000000000BF
:1061E00000000000000000000000000000000000AF
:1061F000000000000000000000000000000000009F
:10620000FEE7FEE7FEE7FEE7FEE7FEE7FEE7FEE766
:10621000FEE7FEE700F002B8FFF7FCBF0F484FF0C3
:106220000701884385460E4880470E48016841F4BF
:1062300070010160BFF34F8FBFF36F8F00F01AB88A
:1062400009480A490A4A884207D0521A05D00378F9
:1062500001300B700131013AF9D170470000012083
:10626000FD6B020088ED00E03087020068590020D5
:1062700068590020344935480A1A02D00722914350
:106280008D46334933480A1A06D00722914381F3D9
:106290000988022282F314882F483049304A00F0DE
:1062A00041F830483049314A00F03CF83048314933
:1062B000314A00F037F831483149324A00F032F8BB
:1062C00031483249324A00F02DF832483249334AD7
:1062D00000F028F832483349334A00F023F83348B5
:1062E0003349002200F029F832483349002200F0F7
:1062F00024F832483249091A02F0F6F9314A904737
:106300001F482049884205D00268043003B49047F2
:1063100003BCF7E700208646EC46002000212A4A0D
:106320009047FEE7884207D0521A05D00378013023
:106330000B700131013AF9D17047884202D00270E6
:106340000130FAE7704700000000012000E0002063
:106350000000012000000120189002006859002070
:106360007C590020CC630200CC630200FC86020052
:1063700018900200685900206859002030870200F8
:106380003087020030870200308702003087020029
:10639000308702003087020030870200159002002B
:1063A0002C9002007C5900207C5900207C59002050
:1063B0006063002060630020606300206063002051
:0C63C0006083002041620200956502002D
:1063CC0000B585B00190019B002B0AD0074B43F020
:1063DC0001030393019B9B010293039B0298984733
:1063EC0000E000BF05B05DF804FB00BF9087020021
:1063FC0000B583B00190019B002B0AD04FF47A704A
:10640C00FFF7DEFF019B013B0193019B002BF5D1B4
:10641C0000E000BF03B05DF804FB000000B583B0E2
:10642C000190019B1B68184600F08EF80346002B68
:10643C0004D105494FF4F67000F0FBFE4FF0A04379
:10644C00184603B05DF804FB3087020000B585B038
:10645C000190084611461A4603468DF803300B4648
:10646C008DF8023013468DF8013001AB1846FFF75A
:10647C00D5FF03909DF803209DF802305B001A4372
:10648C009DF801309B001A439DF818301B0242EA1C
:10649C0003019DF81C301B04019A1943039B02F560
:1064AC00E07243F8221000BF05B05DF804FB00B5A4
:1064BC0085B0039000230193002300930023012255
:1064CC0001210398FFF7C2FF00BF05B05DF804FB84
:1064DC0000B585B0019001AB1846FFF79FFF039004
:1064EC00019B012202FA03F31946039800F018F8F5
:1064FC0000BF05B05DF804FB00B585B0019001ABA1
:10650C001846FFF78BFF0390019B012202FA03F35D
:10651C001946039800F00EF800BF05B05DF804FBB7
:10652C0082B001900091019B009AC3F8082500BF2E
:10653C0002B0704782B001900091019B009AC3F8A1
:10654C000C2500BF02B0704784B00190019B5B0921
:10655C00029300230393029B002B03D14FF0FF33D4
:10656C00039300BF019B03F01F030193039A019B4C
:10657C0022FA03F303F00103002B14BF01230023C1
:10658C00DBB2184604B0704708B50D4801F00CFF9B
:10659C001F20FFF78CFF0B4801F006FF1F20FFF7B1
:1065AC0097FF4FF4FA70FFF723FF074801F0FCFE4A
:1065BC001F20FFF7A1FF4FF4FA70FFF719FFEAE76E
:1065CC00588702006C87020078870200BFF34F8F58
:1065DC0000BF064BDB6803F4E0620449044B134331
:1065EC00CB60BFF34F8F00BF00BFFDE700ED00E0B5
:1065FC000400FA0582B01D4B1B68B3F1FF3F0AD1B2
:10660C001B4B1B68DBB201931A4B1B681B0903F075
:10661C000F03009305E0154B1B680193164B1B6889
:10662C000093019B062B1DD1009B033B042B17D819
:10663C0001A252F823F000BF596602005D66020009
:10664C0061660200656602006966020001230AE0C9
:10665C00012308E0012306E0012304E0012302E00A
:10666C00012300E00023184602B0704730010010EF
:10667C00E00F00F0E80F00F03401001082B0174B6F
:10668C001B68DBB20193164B1B681B0903F00F034D
:10669C000093019B062B1DD1009B033B042B17D8A9
:1066AC0001A252F823F000BFC9660200CD660200B9
:1066BC00D1660200D5660200D966020001230AE009
:1066CC00002308E0002306E0002304E0002302E09E
:1066DC00002300E00023184602B07047E00F00F0E2
:1066EC00E80F00F082B01D4B1B68B3F1FF3F0AD1DD
:1066FC001B4B1B68DBB201931A4B1B681B0903F085
:10670C000F03009305E0154B1B680193164B1B6898
:10671C000093019B062B1DD1009B033B042B17D828
:10672C0001A252F823F000BF496702004D67020036
:10673C0051670200556702005967020001230AE005
:10674C00012308E0012306E0012304E0012302E019
:10675C00012300E00023184602B0704730010010FE
:10676C00E00F00F0E80F00F03401001082B0174B7E
:10677C001B68DBB20193164B1B681B0903F00F035C
:10678C000093019B062B1DD1009B033B042B17D8B8
:10679C0001A252F823F000BFB9670200BD670200E6
:1067AC00C1670200C5670200C967020001230AE045
:1067BC00002308E0002306E0002304E0002302E0AD
:1067CC00002300E00023184602B07047E00F00F0F1
:1067DC00E80F00F082B01D4B1B68B3F1FF3F0AD1EC
:1067EC001B4B1B68DBB201931A4B1B681B0903F094
:1067FC000F03009305E0154B1B680193164B1B68A8
:10680C000093019B062B1DD1009B033B042B17D837
:10681C0001A252F823F000BF396802003D68020063
:10682C0041680200456802004968020001230AE041
:10683C00012308E0012306E0012304E0012302E028
:10684C00012300E00023184602B07047300100100D
:10685C00E00F00F0E80F00F03401001082B0174B8D
:10686C001B68DBB20193164B1B681B0903F00F036B
:10687C000093019B062B1DD1009B033B042B17D8C7
:10688C0001A252F823F000BFA9680200AD68020013
:10689C00B1680200B5680200B968020001230AE081
:1068AC00002308E0002306E0002304E0002302E0BC
:1068BC00002300E00023184602B07047E00F00F000
:1068CC00E80F00F082B0174B1B68DBB20193164B3C
:1068DC001B681B0903F00F030093019B062B1DD1B2
:1068EC00009B033B042B17D801A252F823F000BFE6
:1068FC001169020015690200196902001D69020084
:10690C002169020001230AE0002308E0002306E0CD
:10691C00002304E0002302E0002300E000231846DB
:10692C0002B07047E00F00F0E80F00F082B01D4B92
:10693C001B68B3F1FF3F0AD11B4B1B68DBB2019301
:10694C001A4B1B681B0903F00F03009305E0154B52
:10695C001B680193164B1B680093019B062B1DD1E2
:10696C00009B033B042B17D801A252F823F000BF65
:10697C009169020095690200996902009D69020003
:10698C00A169020000230AE0002308E0012306E0CD
:10699C00012304E0012302E0012300E00023184658
:1069AC0002B0704730010010E00F00F0E80F00F06B
:1069BC003401001082B01D4B1B68B3F1FF3F0AD1AC
:1069CC001B4B1B68DBB201931A4B1B681B0903F0B2
:1069DC000F03009305E0154B1B680193164B1B68C6
:1069EC000093019B062B1DD1009B033B042B17D856
:1069FC0001A252F823F000BF196A02001D6A0200BE
:106A0C00216A0200256A0200296A020001230AE0B9
:106A1C00012308E0012306E0012304E0012302E046
:106A2C00012300E00023184602B07047300100102B
:106A3C00E00F00F0E80F00F03401001082B01D4BA5
:106A4C001B68B3F1FF3F0AD11B4B1B68DBB20193F0
:106A5C001A4B1B681B0903F00F03009305E0154B41
:106A6C001B680193164B1B680093019B062B1DD1D1
:106A7C00009B033B042B17D801A252F823F000BF54
:106A8C00A16A0200A56A0200A96A0200AD6A0200AE
:106A9C00B16A020001230AE0012308E0012306E0A9
:106AAC00012304E0012302E0012300E00023184647
:106ABC0002B0704730010010E00F00F0E80F00F05A
:106ACC003401001082B0154B1B680193144B1B68EA
:106ADC000093019B062B1DD1009B033B042B17D865
:106AEC0001A252F823F000BF096B02000D6B0200EB
:106AFC00116B0200156B0200196B020000230AE0F7
:106B0C00002308E0002306E0012304E0012302E057
:106B1C00012300E00023184602B07047300100103A
:106B2C003401001082B0154B1B680193144B1B6889
:106B3C000093019B062B1DD1009B033B042B17D804
:106B4C0001A252F823F000BF696B02006D6B0200CA
:106B5C00716B0200756B0200796B020000230AE076
:106B6C00002308E0002306E0002304E0012302E0F8
:106B7C00012300E00023184602B0704730010010DA
:106B8C003401001008B5FFF7CDFF0346002B07D0EA
:106B9C004FF010234FF08042D3F80832C2F858352A
:106BAC0000BF08BD00BF044BD3F80034002BFAD053
:106BBC0000BF00BF704700BF00E0014000B583B0CC
:106BCC000190054A019BC2F80435FFF7EBFF00BFAB
:106BDC0003B05DF804FB00BF00E00140024B034A28
:106BEC001A6000BF704700BF685900200090D003A6
:106BFC0008B5FFF7FFFC0346002B06D0964B1B682D
:106C0C001B0A964A03F01F031360FFF737FD034678
:106C1C00002B02D0924B934A1A60FFF763FD034698
:106C2C00002B06D0904B1B685B0B904A03F00703BC
:106C3C001360FFF79BFD0346002B05D08C4BDB68E4
:106C4C008B4A23F08073D360FFF7C4FD0346002BFF
:106C5C000ED04FF080430022C3F80C214FF080433C
:106C6C000022C3F810214FF080430022C3F83825CE
:106C7C00FFF7F4FD0346002B02D07E4B03221A6073
:106C8C00FFF720FE0346002B0BD07B4B05221A602E
:106C9C007A4B01221A607A4B00221A60794B3F2200
:106CAC001A60FFF743FE0346002B76D04FF080535B
:106CBC00754AD3F80434C2F820354FF08053724A29
:106CCC00D3F80834C2F824354FF080536E4AD3F809
:106CDC000C34C2F828354FF080536B4AD3F810347B
:106CEC00C2F82C354FF08053674AD3F81434C2F8ED
:106CFC0030354FF08053644AD3F81834C2F8343529
:106D0C004FF08053604AD3F81C34C2F840354FF032
:106D1C0080535D4AD3F82034C2F844354FF0805389
:106D2C00594AD3F82434C2F848354FF08053564AA8
:106D3C00D3F82834C2F84C354FF08053524AD3F86C
:106D4C002C34C2F850354FF080534F4AD3F83034BE
:106D5C00C2F854354FF080534B4AD3F83434C2F850
:106D6C0060354FF08053484AD3F83834C2F8643554
:106D7C004FF08053444AD3F83C34C2F868354FF096
:106D8C008053414AD3F84034C2F86C354FF08053ED
:106D9C003D4AD3F84434C2F87035FFF70BFE034676
:106DAC00002B05D0394B1B68394A03F04F03136095
:106DBC00FFF744FE0346002B0DD04FF08043D3F871
:106DCC00003403F00103002B05D04FF080436FF02B
:106DDC000102C3F80024FFF775FE0346002B05D013
:106DEC002C4B1B682B4A43F4806313602A4BD3F85B
:106DFC008830294A43F47003C2F88830BFF34F8FB0
:106E0C0000BFBFF36F8F00BFFFF7BCFE4FF0102326
:106E1C00D3F80032002B05DB4FF01023D3F80432EB
:106E2C00002B15DA0120FFF7C9FE4FF010231522B5
:106E3C00C3F80022FFF7B6FE4FF010231522C3F85B
:106E4C000422FFF7AFFE0020FFF7B8FEFFF7BEFBF2
:106E5C00FFF7C4FE00BF08BD2403001040350140FD
:106E6C0074C007400DF0ADBA440200103C05004060
:106E7C00F0ED00E0A00500401056004088560040A0
:106E8C00185600401456004000C000405802001034
:106E9C00E40E00403C17004000ED00E086B003908B
:106EAC000291019201238DF817309DF81730204A7A
:106EBC00039B13601E4A029B53601D4A019B936007
:106ECC00039B44F20102934212D0039B44F2020250
:106EDC00934220D1019B164AD360154BDB681B688B
:106EEC00134A9361124BDB685B68114AD36112E061
:106EFC00019B0F4A13610E4B1B699B680C4A536133
:106F0C000B4B1B691B680A4A9361094B1B695B6835
:106F1C00074AD36100BF72B600BF00BF9DF817309F
:106F2C00DBB2002BFAD162B600BF00BF06B07047CF
:106F3C007C59002000B583B002900091019244F27C
:106F4C00010071466A4600F003F803B000BD00BFB3
:106F5C0030B58BB007900691059272B600BF01F068
:106F6C005BF900F083FF0346002BFAD1079B44F238
:106F7C00020293422FD0079B44F20202934269D83B
:106F8C00079B44F20102934237D0079B44F2010263
:106F9C0093425FD8079B012B05D0079B41F201025E
:106FAC0093420CD056E0394A394BD31ADB081B04F8
:106FBC0043F001033749184600F0FCFE57E0334A12
:106FCC00334BD31ADB081B0443F001033249184638
:106FDC0000F0F0FE4BE0059B09932C4A2C4BD31A86
:106FEC00DB081B0443F00100099B5B681A46099BF4
:106FFC001B682A4900F0FDFE39E0059B0893234AE3
:10700C00234BD31ADB081B0443F00104089B9D6837
:10701C00089B9B68184600F029FC03461846089B01
:10702C005B681946089B1B68069A029201930091B3
:10703C0003462A461A49204600F0EFFE134A144B29
:10704C00D31ADB081B0443F001031649184600F061
:10705C00B1FE0CE00D4A0E4BD31ADB081B0443F0B7
:10706C000103069A1049184600F0B2FE00BF0F4B00
:10707C001B6803F00103002B00D000BE059A069993
:10708C000798FFF70BFF00BF0BB030BD0487020061
:10709C000487020098870200B8870200DC87020090
:1070AC00F88702002088020034880200F0ED00E02E
:1070BC0082B0EFF310830093009B019372B600BF74
:1070CC00019B184602B0704762B600BF00BF704704
:1070DC0000B585B00190FFF7EBFF0390164B9B6852
:1070EC00002B1BD1144B01229A60144BD3F8802037
:1070FC00134B1340104A1360104B114AC3F88020F5
:10710C000E4BD3F884300C4A53600C4B4FF0FF32CB
:10711C00C3F88420019B00221A7002E0019B01221B
:10712C001A70039B002B01D1FFF7CEFF00231846EA
:10713C0005B05DF804FB00BF9C59002000E100E0A5
:10714C00FC06FFBD00B585B003468DF80730104B2B
:10715C009B68002B16D09DF80730002B12D1FFF73F
:10716C00A7FF03900B4A0A4B1B681360094A084B94
:10717C005B685360064B00229A60039B002B01D185
:10718C00FFF7A2FF0023184605B05DF804FB00BF13
:10719C009C59002000E100E000B583B0019000F0A4
:1071AC002BF80346012B03D00549432000F041F88E
:1071BC000198FFF78DFF00BF03B05DF804FB00BF23
:1071CC004C88020000B583B003468DF8073000F000
:1071DC0013F80346012B03D00649512000F029F87F
:1071EC009DF807301846FFF7ADFF00BF03B05DF800
:1071FC0004FB00BF4C88020084B0EFF305830193BD
:10720C00019BC3F308030393039B002B0DD1EFF3F6
:10721C0014830093009B0293029B03F00103002B49
:10722C000CBF01230023DBB200E00123184604B09D
:10723C00704700B585B003460091ADF80630BDF837
:10724C0006300293009B039302AB1A46002144F2D2
:10725C000200FFF77DFE00BF05B05DF804FB10B423
:10726C0087B001900091019B009A53E8004F1046A3
:10727C0043E8000191F0000FF7D1059404900391BD
:10728C00059B184607B05DF8044B704710B487B0E7
:10729C0001900091019B009A53E8004F44EA0200D0
:1072AC0043E8000191F0000FF6D10594049003918E
:1072BC00049B184607B05DF8044B704710B487B0B8
:1072CC0001900091019B009A53E8004F04EA0200E0
:1072DC0043E8000191F0000FF6D10594049003915E
:1072EC00059B184607B05DF8044B704710B487B087
:1072FC0001900091019B009A53E8004F04EB0200AF
:10730C0043E8000191F0000FF6D10594049003912D
:10731C00049B184607B05DF8044B704710B487B057
:10732C0001900091019B009A53E8004FA4EB0200DE
:10733C0043E8000191F0000FF6D1059404900391FD
:10734C00049B184607B05DF8044B704700B583B03A
:10735C00019001210198FFF799FF0346184603B0ED
:10736C005DF804FB00B583B0019000210198FFF794
:10737C00A5FF0346184603B05DF804FB00B583B0C7
:10738C0001900B468DF80330019B002B03D108496B
:10739C00E820FFF74EFF019BDA689DF80330019956
:1073AC00098A01FB03F31344184603B05DF804FB90
:1073BC008888020000B583B001900091019B002BDE
:1073CC0003D10849F520FFF734FF009B019AD268DE
:1073DC009B1A019A128AB3FBF2F3DBB2184603B084
:1073EC005DF804FB8888020000B585B00190019B14
:1073FC00002B04D11F494FF49270FFF71AFF0023A2
:10740C00039300238DF80A300DF10A031846FFF799
:10741C00C3FE019B1B681A68019B5B689A421FD9CB
:10742C00019B1B681A68013A1A601B681B78194685
:10743C000198FFF7A3FF0390019B9A68019B1B68BF
:10744C001B68D31A8DF80B30019B1B681B799DF8B8
:10745C000B209A4204D9019B1B689DF80B201A71D2
:10746C009DF80A301846FFF7ADFE039B184605B091
:10747C005DF804FB8888020010B584B0019000917F
:10748C00019B002B04D1154940F24710FFF7D1FEA8
:10749C00009B002B04D111494FF4A470FFF7C9FED7
:1074AC00009B039300238DF80B300DF10B03184652
:1074BC00FFF772FE019B1B681C68621C1A60039923
:1074CC000198FFF777FF034623709DF80B301846A1
:1074DC00FFF778FE00BF04B010BD00BF8888020023
:1074EC0000B58BB001900091019B1B8A043B079364
:1074FC00009A079B1344DA1C079BB2FBF3F38DF83D
:10750C001B300198FFF770FF0590059B002B01D1F4
:10751C00002338E0059B00221A71059B01225A7149
:10752C00079B9AB2059BDA80059B09939DF81B304B
:10753C00013B0493099B019A1A60002308931DE0F8
:10754C000198FFF751FF0390039B002B0ED0059B76
:10755C005B790133DAB2059B5A71099B039A1A6065
:10756C00039B019A1A60039B099304E0059800F0B1
:10757C000EF8002307E0089B01330893089A049B3C
:10758C009A42DDD3059B18460BB05DF804FB00B5A1
:10759C008BB00190019B0793079B5B798DF81B3097
:1075AC00019B08939DF81B30013B05930023099325
:1075BC0005E0089B1B680893099B01330993099A02
:1075CC00059B9A42F5D3089B1B680493019B089377
:1075DC00002309930BE0089B1B68039308990498FC
:1075EC00FFF74AFF039B0893099B013309939DF80E
:1075FC001B30099A9A42EED300BF00BF0BB05DF866
:10760C0004FB00B585B00190019B0393039B0433ED
:10761C0001211846FFF76AFE00BF05B05DF804FBB8
:10762C0000B587B00190019B0593059B04330121A4
:10763C001846FFF773FE0346039303AB0493049BB6
:10764C001B78002B02D10198FFF7A1FF00BF07B0F8
:10765C005DF804FB00B591B0039002910192009388
:10766C00039B002B03D14349B620FFF7E2FD039B9C
:10767C000993039B0F93099BDB881A46099B5B7943
:10768C0002FB03F3043B0893009A089B9A4203D332
:10769C003849C420FFF7CDFD099BDB880793009B7D
:1076AC001A1D079BB2FBF3F30E93009B0433079A4E
:1076BC00B3FBF2F2079901FB02F29B1A0D93019BAB
:1076CC001A68009B1344089A9A4203D2089A009BAA
:1076DC00D31A01E0019B1B680C93019B0C9A1A6056
:1076EC0005E00F9B1B680F930E9B013B0E930E9BAB
:1076FC00002BF6D100230B93079A0D9BD31A0A93F8
:10770C000A9A0C9B934228BF13460A932AE0029ACA
:10771C000B9B134406930F9A0D9B13440433059350
:10772C009DF84830002B05D00A9A0599069800F070
:10773C009BFE04E00A9A0699059800F095FE00233A
:10774C000D930F9B1B680F930C9A0A9BD31A0C93E7
:10775C000B9A0A9B13440B93079A0C9B934228BFDA
:10776C0013460A930C9B002BD1D100BF00BF11B064
:10777C005DF804FBBC88020000B589B0059004914B
:10778C0003920293039B079307AA00230093029B87
:10779C0004990598FFF75EFF079B039A9A4203D062
:1077AC000349F620FFF745FD00BF09B05DF804FB67
:1077BC00BC88020000B583B001900091019B002BA6
:1077CC0003D110495020FFF734FD009B002B03D14F
:1077DC000C495120FFF72DFD019B009A1A60019B6B
:1077EC001B681A68019B5A60019B5A68019B1B68B5
:1077FC005B689A4202D1019B00225A6000BF03B021
:10780C005DF804FBF088020000B583B00190019B89
:10781C00002B03D114496320FFF70BFD019B1B6860
:10782C00002B03D110496420FFF703FD019B5B681B
:10783C00002B14D0019B5B681A46019B1B689B684C
:10784C0013441A46019B5A60019B5A68019B1B68A2
:10785C005B689A4204D1019B00225A6000E000BF91
:10786C0003B05DF804FB00BFF088020000B585B0E2
:10787C000190019800F00EF80390039B002B01D0AF
:10788C00039B00E0024B184605B05DF804FB00BFFB
:10789C004089020086B00190164B0593164B049359
:1078AC001FE0049A059BD31ADB10DA0F13445B100C
:1078BC00DB00059A13440393039B1B680293029A03
:1078CC00019B9A4202D9039B04930AE0029A019B02
:1078DC009A4203D2039B0833059302E0039B5B6837
:1078EC0004E0059A049B9A42DBD30023184606B0A9
:1078FC00704700BF408D0200688E020000B583B057
:10790C0001900091019B1B681B6800990198984796
:10791C0000BF03B05DF804FB00B583B00190019B80
:10792C001B685B680198984700BF03B05DF804FBC7
:10793C0000B583B00190019B1B689B680198984728
:10794C0000BF03B05DF804FB82B00190019BDB68C3
:10795C0001225A7100BF02B0704782B00190019BA6
:10796C00DB685B79184602B070470000024A034B93
:10797C00D31ADB08184670471C87020004870200E4
:10798C0084B00190009100238DF80F30019B1B787F
:10799C0003F00403DBB2002B24D0019B1B78C3F350
:1079AC000103DBB2012B02D0022B0CD017E0009BA1
:1079BC001B68019A1288C2F38312D2B213449A1C28
:1079CC00009B1A600BE0009B1B68019A5288C2F363
:1079DC00891292B213449A1C009B1A6000BF0123B7
:1079EC008DF80F309DF80F30184604B0704700002A
:1079FC0000B58BB00023ADF826303E48FFF7A6FC4F
:107A0C003D48FFF7A3FC3D4B9B6804933C4B1B6824
:107A1C000693049A069B134002339B00374A134487
:107A2C000433089304AB19460898FFF7A9FF0346E3
:107A3C00002B09D0049A069B134002339B002F4A5B
:107A4C00134404330893EDE700BF0023079311E0C0
:107A5C00049B5A1C0492069A1340079A920001A99F
:107A6C000A44264902339B000B445B681360079B56
:107A7C0001330793079B012BEAD99DF80430C3F31C
:107A8C000103DBB2012B10D0022B1CD1BDF80A3044
:107A9C00ADF82630BDF80630C3F389139BB203331F
:107AAC009A08049B1344049313E0BDF80A30ADF814
:107ABC002630BDF80430C3F38313DBB21A46049BA3
:107ACC001344049305E00F494FF4C270FFF7B1FB68
:107ADC0000BF0948FFF746FC0590059B002B02D020
:107AEC00049B064A9360BDF8263018460BB05DF82F
:107AFC0004FB00BF905E00208C5E0020785A0020B2
:107B0C006C5900206C8E020000B585B0002107482E
:107B1C00FFF7A5FB0390039B0293029B83F31003D7
:107B2C000193019B184605B05DF804FB945E0020A0
:107B3C0000B589B00390029101920093039B1B0C3A
:107B4C000793FFF7E1FF0690FFF710FF0246079B34
:107B5C00934204D3214940F2A910FFF76AFB069B1C
:107B6C001904009B5A1C0A9B1340079A0A431C4990
:107B7C0002339B000B445A60009A0A9B1340023359
:107B8C009B00174A134404330593039B03F007032C
:107B9C00D9B2059A137861F3C5031370019B03F0F6
:107BAC000F03D9B2059A138861F389131380029BD2
:107BBC00C3F31501059A136861F39F231360059AAB
:107BCC001378012161F301031370059A13786FF395
:107BDC008203137000BF09B05DF804FB6C8E0200C9
:107BEC00785A002000BF704700B58DB00390029109
:107BFC0013468DF80730039B02330A9301238DF84B
:107C0C00273000238DF81B300DF11B031846FFF7AE
:107C1C00C3FA404B5A68029B1A603F4B1A683D4BA3
:107C2C0099683C4B5B68CB1A134401330B9314E0FB
:107C3C0001213A48FFF75AFBFFF7DAFE0790079944
:107C4C003648FFF753FB344B1A68324B9968314B6B
:107C5C005B68CB1A134401330B930A9A0B9B9A4221
:107C6C00E6D89DF82730002B48D0002305939DF8CB
:107C7C000730002B17D09DF81430012262F301035A
:107C8C008DF814309DF8143043F004038DF8143043
:107C9C00039B03F00F03DAB2BDF8143062F38913BF
:107CAC00ADF8143016E09DF81430022262F3010393
:107CBC008DF814309DF8143043F004038DF8143013
:107CCC00039BC3F309039AB2BDF8163062F38F130A
:107CDC00ADF816300F4B5A680F4B1B68134002332C
:107CEC009B000C4A134404330893059A089B1A60B2
:107CFC00084B5A680A9B1344064A53609DF81B3084
:107D0C001846FFF75FFA9DF8273018460DB05DF85E
:107D1C0004FB00BF785A00206C590020945E0020B0
:107D2C0000B58BB005900491039202931F4B1B6816
:107D3C00079306AB012219460298FFF755FF03463D
:107D4C00002B24D0069B023309930023089311E0E7
:107D5C00089B9B00039A1A44099B591C099107998B
:107D6C000B401268124902339B000B445A60089B6B
:107D7C0001330893089A029B9A42E9D3069A079B0F
:107D8C0000931346029A04990598FFF7D1FE084B0D
:107D9C001B78002B04D000F069F80346002BFAD1B5
:107DAC00FFF720FF00BF0BB05DF804FB6C590020FF
:107DBC00785A002000B583B0019000910023002276
:107DCC0000990198FFF7ACFF00BF03B05DF804FB0E
:107DDC0000B587B0039002910192019B059305AA0F
:107DEC00012302990398FFF79BFF00BF07B05DF8D2
:107DFC0004FB00B587B00390029101920093019BA4
:107E0C000493009B059304AA022302990398FFF79D
:107E1C0087FF00BF07B05DF804FB00B58BB0039083
:107E2C00029101920093019B0593009B06930C9B7E
:107E3C0007930D9B08930E9B099305AA05230299A2
:107E4C000398FFF76DFF00BF0BB05DF804FB00005B
:107E5C00054B9A68044B5B689A420CBF01230023C4
:107E6C00DBB21846704700BF785A002000B599B0B5
:107E7C00FFF7EEFF0346002B01D00023C0E19B4B24
:107E8C000022C3F81824BFF34F8F00BF974B9B6899
:107E9C000493974B1B681093049A109B1340023366
:107EAC009B00924A1344043311930023179300232D
:107EBC00169300230F9304AB19461198FFF760FD3E
:107ECC000346002B19D0894BD3F81834002B14D14E
:107EDC00864B5A68049B9A4205D8844B5B68834A4C
:107EEC00936000238CE1049A109B134002339B0097
:107EFC007E4A134404331193DDE70023159311E0FC
:107F0C00049B5A1C0492109A1340159A920001A9D2
:107F1C000A44764902339B000B445B681360159B43
:107F2C0001331593159B012BEAD99DF8043003F00E
:107F3C000303DBB2022B40F09C80BDF80630C3F388
:107F4C0089139BB20D93BDF80630C3F389139BB212
:107F5C00502B28BF50239BB20C930C9BC3F30903EB
:107F6C009AB2BDF8063062F38F13ADF806300C9B55
:107F7C0008330B939DF80430C3F3C203DBB20F93A9
:107F8C000B995C48FFF7ACFA1790179B002B00F08D
:107F9C00D3801798FFF735FB01A9169B0822179879
:107FAC00FFF7EAFB169B08331693049BDA43109BEE
:107FBC00134001339B000A930C9A0A9B9A4242D9B4
:107FCC000A9B002B08D0049A109B134002339B0091
:107FDC00464A1344043300E0474B08930A9B002B9A
:107FEC0002D00A9BDBB201E00C9BDBB28DF81F3098
:107FFC000A9B002B01D0404B00E0002306930A9B08
:10800C00002B06D00C9BDAB20A9BDBB2D31ADBB284
:10801C0000E000238DF817309DF81F20169B08995F
:10802C001798FFF7A9FB9DF81F30169A1344169367
:10803C00069B002B16D09DF81720169B06991798B7
:10804C00FFF79AFB0EE0049A109B134002339B003F
:10805C00264A134404330993169B0C9A09991798D2
:10806C00FFF78AFB0D9B03339A08049B134404937C
:10807C0062E09DF8043003F00303DBB2012B5BD10B
:10808C00BDF80430C3F38313DBB2062B28BF0623E1
:10809C00DAB2BDF8043062F38913ADF80430BDF8E0
:1080AC000430C3F38313DBB202330E939DF8043018
:1080BC00C3F3C203DBB20F930E9B9B0019460D4812
:1080CC00FFF70EFA1790179B002B35D01798FFF778
:1080DC0098FA01A9169B08221798FFF74DFB169BDF
:1080EC0008331693002315931DE000BF785A002027
:1080FC006C5900201C870200845A0020049B5A1CD7
:10810C000492109A134002339B003F4A1344191DEA
:10811C00169B04221798FFF72FFB169B043316931C
:10812C00159B01331593BDF80430C3F38313DBB2F5
:10813C001A46159B9342E1D3179B002B40D0324B30
:10814C00D3F810341493304BD3F81834002B1BD0C5
:10815C001798FFF765FA4DE000238DF84F3014980F
:10816C00FFF7FBFB0346002B02D001238DF84F30A9
:10817C009DF84F30002B03D017991498FFF7BEFBD6
:10818C00149BDB681B681493149B002BE4D1179889
:10819C00FFF746FA00238DF803300DF10303184660
:1081AC00FEF7FAFF184BD3F81834002B02D1049BBE
:1081BC00154A93609DF803301846FFF703F819E051
:1081CC00114BD3F81034129306E01298FFF7B0FB62
:1081DC00129BDB681B681293129B002BF5D10B4A88
:1081EC000B4BD31ADB081B0443F002030949184656
:1081FC00FFF7E0FDFFF72CFE034683F00103DBB233
:10820C00184619B05DF804FB785A00200487020068
:10821C0004870200A88E020000B583B00C4BD3F883
:10822C00103401930A4B01221A7009E00198FFF7F0
:10823C008BFB0198FFF770FB019BDB681B680193BC
:10824C00019B002BF2D100BF00BF03B05DF804FB13
:10825C00785A002000B583B00190019B002B03D10C
:10826C000449C420FEF7E5FF019B5B68184603B088
:10827C005DF804FBBC8E020000B585B06B4611495D
:10828C001846FFF797FA10E06B461846FFF7E2FF27
:10829C000390039B1B680293039B5A68029B104636
:1082AC0098476B461846FFF7AFFA6B461846FFF730
:1082BC00D1FF0346002BE7D100BF00BF05B05DF82E
:1082CC0004FB00BF4C8F020008B5FFF7D5FF00BFC1
:1082DC0008BD000000B583B00190019B002B03D1B9
:1082EC000449C420FEF7A5FF019B5B68184603B048
:1082FC005DF804FB588F02004BDF704700BF184637
:10830C0000B589B0019004AB1846FFF7F5FF079054
:10831C00079B002B03D0079B052B20D124E002AB3D
:10832C0013491846FFF746FA11E002AB1846FFF75F
:10833C00D1FF0690069B1B680593049A069B59680F
:10834C00059B1046984702AB1846FFF75DFA02AB47
:10835C001846FFF7BFFF0346002BE6D1D3E7054ACB
:10836C006B210798FEF7E6FD00BF09B05DF804FB32
:10837C00EC8F0200B48F020045F67411C2F20001BA
:10838C00096800F000B880B50B468DF803000DF1BC
:10839C0003000121012200F01FF89DF803100028B2
:1083AC0008BF411E084608BD38B545F67411C2F227
:1083BC00000104460D6800F027F8024628462146C5
:1083CC0000F09CF801301EBF0A20BDE83840FFF7D2
:1083DC00D3BF4FF0FF3038BDF8B51D4617460C46DD
:1083EC000646184600F072F8002803D407FB04F286
:1083FC00A24201D20020F8BD2846314600F07EF89A
:10840C00B0FBF4F0F8BD0000411C82070CD010F852
:10841C00012B3AB3820707D010F8012B12B3820755
:10842C0002D010F8012BEAB14FF0013C50F8042BAC
:10843C00CCFA52F37BB950F8042BCCFA52F353B963
:10844C0050F8042BCCFA52F32BB950F8042BCCFA7D
:10845C0052F3002BEAD004381BBAB3FA83F300EBC7
:10846C00D3000130401A704772B3844690EA01037E
:10847C009B0721D1830709D011F8013B00F8013B80
:10848C00013A20D08307F7D100E08446202A0AD392
:10849C002DE9F007B1E8F807A0E8F807203A202A00
:1084AC00F8D2BDE8F007042A06D351F8043B40F893
:1084BC00043B043A042AF8D22AB111F8013B00F823
:1084CC00013B013AF9D16046704700BF084B1B686D
:1084DC0083420AD0074B1B68834206D0064B1B68AD
:1084EC00181A18BF4FF0FF3070470020704700BFBC
:1084FC00785900207459002070590020006800F051
:10850C00D3B800BF1348144A032110B50161134CB2
:10851C0041614FF4806182610023C4610162104C9F
:10852C00836210214362C3620266446681660367FC
:10853C00C3664367BFF35F8F0A4BA3F1100E9C46D3
:10854C00ACEB030213F8011D81547345F8D1BFF352
:10855C005F8F10BDB4620020F88F0200B45E002063
:10856C00A45E0020149002002DE9F843C568D0F8F1
:10857C000890A9EB050890450446164609D94068B1
:10858C002844FFF771FFBFF35F8F3544E560BDE80A
:10859C00F8834068284435440F464246A5EB09054C
:1085AC00FFF762FF60682A4607EB0801FFF75CFFE4
:1085BC00BFF35F8FE560BDE8F88300BF2DE9F8439A
:1085CC000646D0E90204894617464FF00008336985
:1085DC009C4203F1FF3228BF03F1FF33A0EB0405EB
:1085EC002ABF1B18131B1B1BBD4228BF3D469D42B7
:1085FC00706828BF1D46494620442A46FFF734FFC1
:10860C00B0682C44A844A9447F1BA04208BF002496
:10861C00BFF35F8FF460002FD9D14046BDE8F883DB
:10862C0038B5204B00EB400403EBC40E0130DEF8F0
:10863C002C4000EB4000012C8C46154603EBC0008F
:10864C0005D0022C2AD0B4B10024204638BDDEF867
:10865C002830DEF82440A3429CBFDEF820105B18C3
:10866C00013B1C1B944228BF144622466146FFF76F
:10867C007BFF204638BDDEF82830DEF824209342FC
:10868C009CBFDEF820105B18013B9A1A9542DCD88F
:10869C002A466146FFF768FF2C46D6E7BDE838400E
:1086AC00FFF78CBFB4620020F8B50B4B1B78044667
:1086BC000D4616466BB1EFF311874FF0200181F395
:1086CC001188324629462046FFF7AAFF87F3118806
:1086DC00F8BDFFF717FFEEE7B4620020072904D9B5
:1086EC000023024AC0E90031106070475C6300202F
:0886FC000D83020000000000E4
:10870400688E0200000003030C8F020000000303C4
:08871400A88F0200000003031E
:10871C00705A0020A8590020B0590020B0590020F0
:04872C001800000031
:10873000633A5C6E72665F73646B5C6D6F64756CDC
:1087400065735C6E7266785C68616C5C6E72665FA5
:108750006770696F2E680000757967756C616D616F
:10876000206261736C6164690D0000006C656420B7
:1087700079616E6469200D004C454420534F4E448E
:10878000550D000000000000000000000000000087
:108790000338FDD870470000534F465444455649AE
:1087A00043453A20415353455254494F4E20464188
:1087B000494C454400000000534F46544445564937
:1087C00043453A20494E56414C4944204D454D4F72
:1087D00052592041434345535300000041535345F0
:1087E0005254494F4E204641494C45442061742023
:1087F00025733A25750000004552524F52202575C9
:10880000205B25735D2061742025733A25750D0A60
:1088100050432061743A20307825303878000000C9
:10882000456E64206F66206572726F72207265708B
:108830006F727400554E4B4E4F574E204641554C6B
:10884000542061742030782530385800433A5C6EEB
:1088500072665F73646B5C636F6D706F6E656E7470
:10886000735C6C69627261726965735C7574696C62
:108870005C6170705F7574696C5F706C6174666F59
:10888000726D2E6300000000433A5C6E72665F7387
:10889000646B5C636F6D706F6E656E74735C6C6936
:1088A000627261726965735C62616C6C6F635C6E4D
:1088B00072665F62616C6C6F632E6300433A5C6E3C
:1088C00072665F73646B5C636F6D706F6E656E7400
:1088D000735C6C69627261726965735C6D656D6F02
:1088E000626A5C6E72665F6D656D6F626A2E6300B0
:1088F000433A5C6E72665F73646B5C636F6D706F3E
:108900006E656E74735C6C69627261726965735CCA
:108910006578706572696D656E74616C5F736563AF
:1089200074696F6E5F766172735C6E72665F736599
:108930006374696F6E5F697465722E630000000076
:10894000556E6B6E6F776E206572726F7220636FFB
:10895000646500004E52465F5355434345535300F0
:108960004E52465F4552524F525F5356435F484105
:108970004E444C45525F4D495353494E4700000009
:108980004E52465F4552524F525F534F46544445F4
:10899000564943455F4E4F545F454E41424C454416
:1089A000000000004E52465F4552524F525F494E02
:1089B0005445524E414C00004E52465F4552524F74
:1089C000525F4E4F5F4D454D000000004E52465FD6
:1089D0004552524F525F4E4F545F464F554E4400E2
:1089E0004E52465F4552524F525F4E4F545F535561
:1089F00050504F52544544004E52465F4552524FDC
:108A0000525F494E56414C49445F504152414D00DE
:108A10004E52465F4552524F525F494E56414C4965
:108A2000445F5354415445004E52465F4552524FA5
:108A3000525F494E56414C49445F4C454E4754485D
:108A4000000000004E52465F4552524F525F494E61
:108A500056414C49445F464C414753004E52465F95
:108A60004552524F525F494E56414C49445F444132
:108A7000544100004E52465F4552524F525F4441AE
:108A800054415F53495A45004E52465F4552524F3A
:108A9000525F54494D454F55540000004E52465FB9
:108AA0004552524F525F4E554C4C00004E52465F5D
:108AB0004552524F525F464F5242494444454E0040
:108AC0004E52465F4552524F525F494E56414C49B5
:108AD000445F4144445200004E52465F4552524F5B
:108AE000525F4255535900004E52465F4552524F15
:108AF000525F434F4E4E5F434F554E5400000000AF
:108B00004E52465F4552524F525F5245534F555257
:108B1000434553004E52465F4552524F525F4D4FB0
:108B200044554C455F4E4F545F494E495449414C62
:108B3000495A4544000000004E52465F4552524F8C
:108B4000525F4D555445585F494E49545F4641491F
:108B50004C4544004E52465F4552524F525F4D5570
:108B60005445585F4C4F434B5F4641494C45440088
:108B70004E52465F4552524F525F4D555445585FD5
:108B8000554E4C4F434B5F4641494C454400000015
:108B90004E52465F4552524F525F4D555445585FB5
:108BA000434F4E445F494E49545F4641494C45440A
:108BB000000000004E52465F4552524F525F4D4FEB
:108BC00044554C455F414C52454144595F494E49DB
:108BD0005449414C495A4544000000004E52465FFA
:108BE0004552524F525F53544F524147455F46558D
:108BF0004C4C00004E52465F4552524F525F41501E
:108C0000495F4E4F545F494D504C454D454E54457C
:108C1000440000004E52465F4552524F525F464557
:108C200041545552455F4E4F545F454E41424C456D
:108C3000440000004E52465F4552524F525F494F2A
:108C40005F50454E44494E47000000004E52465F7B
:108C50004552524F525F4452565F5457495F4552F6
:108C6000525F4F56455252554E0000004E52465FDD
:108C70004552524F525F4452565F5457495F4552D6
:108C8000525F414E41434B004E52465F4552524F58
:108C9000525F4452565F5457495F4552525F444EAB
:108CA00041434B004E52465F4552524F525F424C39
:108CB000455F495053505F52585F504B545F545278
:108CC000554E4341544544004E52465F4552524F23
:108CD000525F424C455F495053505F4348414E4EAE
:108CE000454C5F414C52454144595F4558495354A6
:108CF000530000004E52465F4552524F525F424C65
:108D0000455F495053505F4C494E4B5F4449534374
:108D10004F4E4E4543544544000000004E52465FBE
:108D20004552524F525F424C455F495053505F503D
:108D30004545525F52454A454354454400000000B2
:108D40000000000054890200010000006089020058
:108D5000020000008089020003000000A4890200D4
:108D600004000000B889020005000000CC89020060
:108D700006000000E089020007000000F8890200F8
:108D800008000000108A020009000000288A020082
:108D90000A000000448A02000B0000005C8A020006
:108DA0000C000000748A02000D000000888A020096
:108DB0000E0000009C8A02000F000000AC8A020036
:108DC00010000000C08A020011000000D88A0200D2
:108DD00012000000E88A020013000000008B02006D
:108DE00080000000148B020081000000388B02001C
:108DF00082000000548B020083000000708B020090
:108E000084000000908B020085000000B48B0200FB
:108E100086000000DC8B020090000000F48B020052
:108E200091000000148C020092000000348C0200BB
:108E3000008200004C8C0200018200006C8C020059
:108E400002820000888C020000840000A48C0200D2
:108E500001840000C88C020002840000F48C02002F
:108E6000038400001C8D020061707000433A5C6E48
:108E700072665F73646B5C636F6D706F6E656E744A
:108E8000735C6C69627261726965735C6C6F675C5C
:108E90007372635C6E72665F6C6F675F66726F6E33
:108EA00074656E642E6300004261636B656E64736B
:108EB00020666C757368656400000000633A5C6E40
:108EC00072665F73646B5C636F6D706F6E656E74FA
:108ED000735C6C69627261726965735C65787065F8
:108EE00072696D656E74616C5F73656374696F6ED2
:108EF0005F766172735C6E72665F73656374696FCF
:108F00006E5F697465722E68000000006E72665FA5
:108F100073646800433A5C6E72665F73646B5C6393
:108F20006F6D706F6E656E74735C736F667464657D
:108F3000766963655C636F6D6D6F6E5C6E72665FA4
:108F40007364682E6300000001000007FC860200C5
:108F50000487020008000000633A5C6E72665F736B
:108F6000646B5C636F6D706F6E656E74735C6C695F
:108F7000627261726965735C6578706572696D654E
:108F80006E74616C5F73656374696F6E5F76617236
:108F9000735C6E72665F73656374696F6E5F69742C
:108FA00065722E68000000006E72665F7364685F11
:108FB000736F6300433A5C6E72665F73646B5C63ED
:108FC0006F6D706F6E656E74735C736F66746465DD
:108FD000766963655C636F6D6D6F6E5C6E72665F04
:108FE0007364685F736F632E63000000FC86020089
:108FF000FC860200080000005465726D696E616CA9
:1090000000000000000000000000545452205245AF
:05901000474745530035
:109018000090D003FF000000985E00209C5E0020B6
:04902800A05E002026
:04000003200062195E
:00000001FF
