:100000000000012019020000010200000559000053
:1000100005020000070200000902000000000000C5
:100020000000000000000000000000000B020000C3
:100030000D020000000000000F020000110200008D
:10004000C51A000013020000651B0000D51A00004D
:10005000F91A000013020000DD1300005522000011
:10006000A5260000BD260000D5260000992100002D
:1000700013020000D11F0000130200001302000051
:100080005140000025430000B91E0000411B000044
:100090003925000045250000512500005D250000A0
:1000A0006925000075250000ED26000005270000E9
:1000B000D51D0000B1170000000000000000000086
:1000C00013020000ED1D0000051E00001D1B0000B6
:1000D000AD210000551500001302000000000000D3
:1000E0000000000000000000000000000000000010
:1000F0000000000000000000000000000000000000
:1001000000000000000000000000000000000000EF
:1001100000000000000000000000000000000000DF
:1001200000000000000000000000000000000000CF
:1001300000000000000000000000000000000000BF
:1001400000000000000000000000000000000000AF
:10015000000000000000000000000000000000009F
:10016000000000000000000000000000000000008F
:10017000000000000000000000000000000000007F
:10018000000000000000000000000000000000006F
:10019000000000000000000000000000000000005F
:1001A000000000000000000000000000000000004F
:1001B000000000000000000000000000000000003F
:1001C000000000000000000000000000000000002F
:1001D000000000000000000000000000000000001F
:1001E000000000000000000000000000000000000F
:1001F00000000000000000000000000000000000FF
:10020000FEE7FEE7FEE7FEE7FEE7FEE7FEE7FEE7C6
:10021000FEE7FEE700F002B8FFF7FCBF0F484FF023
:100220000701884385460E4880470E48016841F41F
:1002300070010160BFF34F8FBFF36F8F00F01AB8EA
:1002400009480A490A4A884207D0521A05D0037859
:1002500001300B700131013AF9D1704700000120E3
:10026000DD0A000088ED00E0D4B0000000000020AE
:10027000BC010020344935480A1A02D007229143B4
:100280008D46334933480A1A06D00722914381F339
:100290000988022282F314882F483049304A00F03E
:1002A00041F830483049314A00F03CF83048314993
:1002B000314A00F037F831483149324A00F032F81B
:1002C00031483249324A00F02DF832483249334A37
:1002D00000F028F832483349334A00F023F8334815
:1002E0003349002200F029F832483349002200F057
:1002F00024F832483249091A0AF0DAFD314A9047A7
:100300001F482049884205D00268043003B4904752
:1003100003BCF7E700208646EC46002000212A4A6D
:100320009047FEE7884207D0521A05D00378013083
:100330000B700131013AF9D17047884202D0027046
:100340000130FAE7704700000000012000E00020C3
:100350000000012000000120F4E70000BC010020A3
:10036000D0020020CC030000CC030000C4AE00008B
:10037000F4E70000BC010020BC01002090B20000A6
:1003800090B2000090B2000090B2000090B2000065
:1003900090B2000090B2000090B20000F1E70000BF
:1003A00008E90000D0020020D0020020D002002086
:1003B000001B0020001B0020001B0020001B002051
:0C03C000003B0020410200002904000066
:1003CC0000B585B00190019B002B0AD0074B43F080
:1003DC0001030393019B9B010293039B0298984793
:1003EC0000E000BF05B05DF804FB00BFE0B2000008
:1003FC0000B583B00190019B002B0AD04FF47A70AA
:10040C00FFF7DEFF019B013B0193019B002BF5D114
:10041C0000E000BF03B05DF804FB000000B583B042
:10042C004FF48041002008F019FE0090009B002B37
:10043C0004D0184A1321009803F064FE08F09AFDCA
:10044C00154B5B88022B0AD9144A154BD31ADB08BF
:10045C001B0443F003031349184609F0F7F9002372
:10046C0001930D4B5B88022B0BD90C4A0C4BD31A06
:10047C00DB081B0443F00303019A0B49184609F0EF
:10048C00F3F94FF4FA70FFF7B3FF019B01330193BB
:10049C00E7E700BF90B200006C00002090AF0000B6
:1004AC00E0AE0000B8B20000CCB20000BFF34F8F3A
:1004BC0000BF064BDB6803F4E0620449044B1343B2
:1004CC00CB60BFF34F8F00BF00BFFDE700ED00E036
:1004DC000400FA0582B01D4B1B68B3F1FF3F0AD133
:1004EC001B4B1B68DBB201931A4B1B681B0903F0F7
:1004FC000F03009305E0154B1B680193164B1B680B
:10050C000093019B062B1DD1009B033B042B17D89A
:10051C0001A252F823F000BF390500003D05000090
:10052C0041050000450500004905000001230AE0D3
:10053C00012308E0012306E0012304E0012302E08B
:10054C00012300E00023184602B070473001001070
:10055C00E00F00F0E80F00F03401001082B0174BF0
:10056C001B68DBB20193164B1B681B0903F00F03CE
:10057C000093019B062B1DD1009B033B042B17D82A
:10058C0001A252F823F000BFA9050000AD05000040
:10059C00B1050000B5050000B905000001230AE013
:1005AC00002308E0002306E0002304E0002302E01F
:1005BC00002300E00023184602B07047E00F00F063
:1005CC00E80F00F082B01D4B1B68B3F1FF3F0AD15E
:1005DC001B4B1B68DBB201931A4B1B681B0903F006
:1005EC000F03009305E0154B1B680193164B1B681A
:1005FC000093019B062B1DD1009B033B042B17D8AA
:10060C0001A252F823F000BF290600002D060000BD
:10061C0031060000350600003906000001230AE00F
:10062C00012308E0012306E0012304E0012302E09A
:10063C00012300E00023184602B07047300100107F
:10064C00E00F00F0E80F00F03401001082B0174BFF
:10065C001B68DBB20193164B1B681B0903F00F03DD
:10066C000093019B062B1DD1009B033B042B17D839
:10067C0001A252F823F000BF990600009D0600006D
:10068C00A1060000A5060000A906000001230AE04F
:10069C00002308E0002306E0002304E0002302E02E
:1006AC00002300E00023184602B07047E00F00F072
:1006BC00E80F00F082B01D4B1B68B3F1FF3F0AD16D
:1006CC001B4B1B68DBB201931A4B1B681B0903F015
:1006DC000F03009305E0154B1B680193164B1B6829
:1006EC000093019B062B1DD1009B033B042B17D8B9
:1006FC0001A252F823F000BF190700001D070000EB
:10070C0021070000250700002907000001230AE04B
:10071C00012308E0012306E0012304E0012302E0A9
:10072C00012300E00023184602B07047300100108E
:10073C00E00F00F0E80F00F03401001082B0174B0E
:10074C001B68DBB20193164B1B681B0903F00F03EC
:10075C000093019B062B1DD1009B033B042B17D848
:10076C0001A252F823F000BF890700008D0700009A
:10077C0091070000950700009907000001230AE08B
:10078C00002308E0002306E0002304E0002302E03D
:10079C00002300E00023184602B07047E00F00F081
:1007AC00E80F00F082B0174B1B68DBB20193164BBD
:1007BC001B681B0903F00F030093019B062B1DD133
:1007CC00009B033B042B17D801A252F823F000BF67
:1007DC00F1070000F5070000F9070000FD07000015
:1007EC000108000001230AE0002308E0002306E0D2
:1007FC00002304E0002302E0002300E0002318465D
:10080C0002B07047E00F00F0E80F00F082B01D4B13
:10081C001B68B3F1FF3F0AD11B4B1B68DBB2019382
:10082C001A4B1B681B0903F00F03009305E0154BD3
:10083C001B680193164B1B680093019B062B1DD163
:10084C00009B033B042B17D801A252F823F000BFE6
:10085C007108000075080000790800007D08000090
:10086C008108000000230AE0002308E0012306E0D1
:10087C00012304E0012302E0012300E000231846D9
:10088C0002B0704730010010E00F00F0E80F00F0EC
:10089C003401001082B01D4B1B68B3F1FF3F0AD12D
:1008AC001B4B1B68DBB201931A4B1B681B0903F033
:1008BC000F03009305E0154B1B680193164B1B6847
:1008CC000093019B062B1DD1009B033B042B17D8D7
:1008DC0001A252F823F000BFF9080000FD08000047
:1008EC0001090000050900000909000001230AE0C4
:1008FC00012308E0012306E0012304E0012302E0C8
:10090C00012300E00023184602B0704730010010AC
:10091C00E00F00F0E80F00F03401001082B01D4B26
:10092C001B68B3F1FF3F0AD11B4B1B68DBB2019371
:10093C001A4B1B681B0903F00F03009305E0154BC2
:10094C001B680193164B1B680093019B062B1DD152
:10095C00009B033B042B17D801A252F823F000BFD5
:10096C008109000085090000890900008D0900003B
:10097C009109000001230AE0012308E0012306E0AD
:10098C00012304E0012302E0012300E000231846C8
:10099C0002B0704730010010E00F00F0E80F00F0DB
:1009AC003401001082B0154B1B680193144B1B686B
:1009BC000093019B062B1DD1009B033B042B17D8E6
:1009CC0001A252F823F000BFE9090000ED09000074
:1009DC00F1090000F5090000F909000000230AE004
:1009EC00002308E0002306E0012304E0012302E0D9
:1009FC00012300E00023184602B0704730010010BC
:100A0C003401001082B0154B1B680193144B1B680A
:100A1C000093019B062B1DD1009B033B042B17D885
:100A2C0001A252F823F000BF490A00004D0A000051
:100A3C00510A0000550A0000590A000000230AE080
:100A4C00002308E0002306E0002304E0012302E079
:100A5C00012300E00023184602B07047300100105B
:100A6C003401001008B5FFF7CDFF0346002B07D06B
:100A7C004FF010234FF08042D3F80832C2F85835AB
:100A8C0000BF08BD00BF044BD3F80034002BFAD0D4
:100A9C0000BF00BF704700BF00E0014000B583B04D
:100AAC000190054A019BC2F80435FFF7EBFF00BF2C
:100ABC0003B05DF804FB00BF00E00140024B034AA9
:100ACC001A6000BF704700BFBC0100200090D0032B
:100ADC0008B5FFF7FFFC0346002B06D0964B1B68AE
:100AEC001B0A964A03F01F031360FFF737FD0346FA
:100AFC00002B02D0924B934A1A60FFF763FD03461A
:100B0C00002B06D0904B1B685B0B904A03F007033D
:100B1C001360FFF79BFD0346002B05D08C4BDB6865
:100B2C008B4A23F08073D360FFF7C4FD0346002B80
:100B3C000ED04FF080430022C3F80C214FF08043BD
:100B4C000022C3F810214FF080430022C3F838254F
:100B5C00FFF7F4FD0346002B02D07E4B03221A60F4
:100B6C00FFF720FE0346002B0BD07B4B05221A60AF
:100B7C007A4B01221A607A4B00221A60794B3F2281
:100B8C001A60FFF743FE0346002B76D04FF08053DC
:100B9C00754AD3F80434C2F820354FF08053724AAA
:100BAC00D3F80834C2F824354FF080536E4AD3F88A
:100BBC000C34C2F828354FF080536B4AD3F81034FC
:100BCC00C2F82C354FF08053674AD3F81434C2F86E
:100BDC0030354FF08053644AD3F81834C2F83435AA
:100BEC004FF08053604AD3F81C34C2F840354FF0B4
:100BFC0080535D4AD3F82034C2F844354FF080530B
:100C0C00594AD3F82434C2F848354FF08053564A29
:100C1C00D3F82834C2F84C354FF08053524AD3F8ED
:100C2C002C34C2F850354FF080534F4AD3F830343F
:100C3C00C2F854354FF080534B4AD3F83434C2F8D1
:100C4C0060354FF08053484AD3F83834C2F86435D5
:100C5C004FF08053444AD3F83C34C2F868354FF017
:100C6C008053414AD3F84034C2F86C354FF080536E
:100C7C003D4AD3F84434C2F87035FFF70BFE0346F7
:100C8C00002B05D0394B1B68394A03F04F03136016
:100C9C00FFF744FE0346002B0DD04FF08043D3F8F2
:100CAC00003403F00103002B05D04FF080436FF0AC
:100CBC000102C3F80024FFF775FE0346002B05D094
:100CCC002C4B1B682B4A43F4806313602A4BD3F8DC
:100CDC008830294A43F47003C2F88830BFF34F8F31
:100CEC0000BFBFF36F8F00BFFFF7BCFE4FF01023A8
:100CFC00D3F80032002B05DB4FF01023D3F804326D
:100D0C00002B15DA0120FFF7C9FE4FF01023152236
:100D1C00C3F80022FFF7B6FE4FF010231522C3F8DC
:100D2C000422FFF7AFFE0020FFF7B8FEFFF7BEFB73
:100D3C00FFF7C4FE00BF08BD24030010403501407E
:100D4C0074C007400DF0ADBA440200103C050040E1
:100D5C00F0ED00E0A0050040105600408856004021
:100D6C00185600401456004000C0004058020010B5
:100D7C00E40E00403C17004000ED00E000B589B0E7
:100D8C0001900091009B0793019B1B788DF80C3010
:100D9C00019B5B680493019B9B68DBB28DF814305C
:100DAC00019BDB680693074A079B52F823300649E0
:100DBC00079A51F8221003AA1046984700BF09B0B1
:100DCC005DF804FB200300202403002000B589B04B
:100DDC0001900091009B0793019B1B788DF80C30C0
:100DEC00019B5B680493019B9B68DBB28DF814300C
:100DFC00019BDB680693074A079B52F82330064990
:100E0C00079A51F8221003AA1046984700BF09B060
:100E1C005DF804FB200300202403002030B58FB0C4
:100E2C00039002910192039B1B780C9326490C9B17
:100E3C00019A41F82320029B1A6924490C9B41F822
:100E4C002320029B5B7F1946214A0C9B13440A46C4
:100E5C001A70029B04AC1D460FCD0FC495E80F0011
:100E6C0084E80F000C9B089300230D93039B1B78C5
:100E7C001A46174B9B5C002B0DD0039B181D019B36
:100E8C00002B01D0134A00E0002204AB194602F0FB
:100E9C000BFE0D9014E0039B1B781A460C4B9B5CCD
:100EAC00002B0DD1039B03F10C00019B002B01D0F7
:100EBC00094A00E0002204AB194601F08FFF0D90A7
:100ECC000D9B18460FB030BD2003002024030020DA
:100EDC0028030020890D0000D90D000082B001907C
:100EEC004FF08042019BC2F8083300BF02B070473C
:100EFC0084B00346ADF80630BDF8063003F18043EC
:100F0C0000221A60BDF8063003F180431B6803937E
:100F1C00039B00BF04B0704782B00346ADF80630A7
:100F2C00BDF8063003F180431B68002B14BF01236E
:100F3C000023DBB2184602B07047000008B54FF42E
:100F4C008070FFF7E9FF0346002B14D04FF480703C
:100F5C00FFF7CEFF0120FFF7C1FF114B5B7983F048
:100F6C000103DBB2002B06D00D4B01225A710C4B46
:100F7C001B68002098474FF48270FFF7CDFF0346A3
:100F8C00002B0AD04FF48270FFF7B2FF0220FFF75C
:100F9C00A5FF034B1B680120984700BF08BD00BF8D
:100FAC002C03002000B583B00346ADF80630BDF825
:100FBC000630184600F026F803461B68012B0CBFC0
:100FCC0001230023DBB2184603B05DF804FB00B527
:100FDC0085B00346ADF80630BDF80630184600F073
:100FEC0011F803461A4600231360BDF80630184664
:100FFC0000F008F803461B680393039B00BF05B081
:10100C005DF804FB82B00346ADF80630BDF806303F
:10101C0003F1804303F5C043184602B0704700004B
:10102C0082B00190034BD3F80423019B1340184664
:10103C0002B070470060004082B00190054A019BED
:10104C0003F5A27352F823301B0A03F01F03184652
:10105C0002B070470060004082B00190064A019BCC
:10106C0003F5A27352F823301B0C03F00303DBB21D
:10107C00184602B0704700BF0060004000B583B056
:10108C000190019B1B68184600F095F80346002B55
:10109C0004D105494FF4F67004F05CFD4FF0A04309
:1010AC00184603B05DF804FB84B6000000B585B0AB
:1010BC0001900B468DF8033001AB1846FFF7DEFFAD
:1010CC000390019A039B02F5E07253F82230019AC7
:1010DC0023F44031039B02F5E07243F82210019A8D
:1010EC00039B02F5E07253F822109DF803301B04A9
:1010FC00019A1943039B02F5E07243F8221000BFDA
:10110C0005B05DF804FB00B585B0019001AB184645
:10111C00FFF7B4FF0390019A039B02F5E07253F8BA
:10112C0022301B0C03F00303DBB2184605B05DF84C
:10113C0004FB86B00390029101924FF0A0430493FC
:10114C00039B059319E0059B9B0018336B4453F8E4
:10115C00083CD3F82025019B1A60059B9B00183393
:10116C006B4453F8083C019A1268C3F82025019B84
:10117C0004330193059B01330593039A029B13449B
:10118C00059A9A42DFD300BF00BF06B0704700B586
:10119C0085B0019001AB1846FFF770FF0390019BDF
:1011AC00012202FA03F31A46039BC3F8202500BF61
:1011BC0005B05DF804FB84B00190019B5B090293C0
:1011CC0000230393029B002B03D14FF0FF330393B7
:1011DC0000BF019B03F01F030193039A019B22FAAA
:1011EC0003F303F00103002B14BF01230023DBB234
:1011FC00184604B0704784B001900091009B039393
:10120C00019BDB080293019B03F00703019301226E
:10121C00019B02FA03F30399029A0A4412781340D1
:10122C00184604B07047000082B00190044A019B3C
:10123C001344303393F90030184602B0704700BFA6
:10124C003403002082B00190034A019B52F82330F2
:10125C00184602B0704700BF3403002084B00190E0
:10126C00074A019B1344503393F900308DF80F302B
:10127C009DF80F3023F0C003184604B0704700BF30
:10128C003403002084B00190074A019B134450336F
:10129C0093F900308DF80F309DF80F309B09DBB2BD
:1012AC00184604B0704700BF3403002000B585B069
:1012BC000190019A01210020FFF73BFF00230393CB
:1012CC000BE0039B9B00019A13441B68002B01D07D
:1012DC00012306E0039B01330393039B002BF0D007
:1012EC000023184605B05DF804FB000000B587B07C
:1012FC000190002305935BE0344A059B1344503363
:10130C0093F90030B3F1FF3F4ED00598FFF7A6FFDD
:10131C00049001990498FFF76EFF0346002B44D00C
:10132C000598FFF7AFFF03468DF80F300498FFF7D1
:10133C00EAFE03468DF80E309DF80E30022B01D1DB
:10134C00032300E002238DF80D309DF80D30194673
:10135C000498FFF7ABFE0498FFF719FF0498FFF70A
:10136C0063FF03461846FFF76DFF0290029B002BAC
:10137C001BD09DF80F30032B0FD09DF80E30022B95
:10138C0003D19DF80F30012B07D09DF80E30032BA5
:10139C000BD19DF80F30022B07D19DF80F20029B2B
:1013AC0011460498984700E000BF059B0133059354
:1013BC00059B032BA0D90198FFF778FF0346002B60
:1013CC0097D100BF00BF07B05DF804FB34030020C9
:1013DC0000B589B000230693002300934FF480736B
:1013EC00ADF81230012307930023059321E0BDF8DB
:1013FC0012301846FFF7D6FD0346002B0ED0079887
:10140C00FFF70EFE0346002B08D0BDF8123018462D
:10141C00FFF7DDFD069A079B13430693079B5B00C2
:10142C000793BDF812300433ADF81230059B01332D
:10143C000593059B072BDAD94FF4BE70FFF7B2FD6D
:10144C000346002B0DD04FF4BE70FFF7C0FD069B7A
:10145C0043F0004306936B461A4601210020FFF728
:10146C0068FE069BDBB2002B29D0012307930023D7
:10147C00059321E0079A069B1340002B16D0059884
:10148C00FFF7DAFD03900598FFF7E6FD03468DF8AC
:10149C000B300598FFF7D6FE0190019B002B05D071
:1014AC009DF80B20019B114603989847079B5B0006
:1014BC000793059B01330593059B072BDAD9069BF4
:1014CC00002B03DA6B461846FFF710FF00BF09B07C
:1014DC005DF804FB84B001900B46ADF80230BDF80A
:1014EC000230019A134400221A60BDF80230019AAE
:1014FC0013441B680393039B00BF04B0704782B076
:10150C0001900B46ADF80230BDF80230019A13443D
:10151C001B68002B14BF01230023DBB2184602B05A
:10152C00704782B001900091019B009AC3F8082388
:10153C0000BF02B0704782B00190019B0022C3F83B
:10154C00002500BF02B0704700B583B04FF48A711C
:10155C007648FFF7D4FF0346002B1CD04FF48A715A
:10156C007248FFF7B7FF724A537943F0080353717F
:10157C006F4B5B7903F00203DBB2002B0BD06C4B8F
:10158C005B7903F01003DBB2002B04D0684A53796B
:10159C0043F0200353714FF482716448FFF7AFFF9F
:1015AC000346002B1CD04FF482716048FFF792FF6A
:1015BC005F4A537943F0040353715D4B5B7903F03D
:1015CC000103DBB2002B0BD0594B5B7903F01003FA
:1015DC00DBB2002B04D0564A537943F020035371ED
:1015EC004FF484715148FFF78AFF0346002B19D042
:1015FC004FF484714D48FFF76DFF04214B48FFF702
:10160C0090FF4A48FFF797FF494B1B680021494858
:10161C009847474B1B68002147489847444B012289
:10162C001A717EE0424B5B7903F00203DBB2002BB4
:10163C0014D03F4B5B7903F00103DBB2002B0DD0D0
:10164C003B4B5B7903F00803DBB2002B06D0384B25
:10165C005B7903F00403DBB2002B21D1344B5B79B3
:10166C00C3F30003DBB283F00103DBB2002B06D023
:10167C002F4B5B7903F00803DBB2002B10D12C4B02
:10168C005B79C3F34003DBB283F00103DBB2002BC5
:10169C0047D0274B5B7903F00403DBB2002B40D01F
:1016AC00234A53796FF3C3035371214A53796FF370
:1016BC00820353711E4B5B7903F02003DBB2002BCA
:1016CC000FD01B4A53796FF345135371184A537952
:1016DC0043F010035371164B1B68012100209847EF
:1016EC001FE0134A6B46103292E8030083E80300B4
:1016FC000F4B0F4A1033083292E8030083E80300C3
:10170C000B4B00229A600A4B0022DA60084A53798C
:10171C0043F010035371064B1B686A4601211046B7
:10172C00984700BF03B05DF804FB00BF00500240B7
:10173C0090030020A00300209803002082B00346F1
:10174C00ADF80630BDF8063003F1804303F5E833FD
:10175C001B68002B14BF01230023DBB2184602B018
:10176C00704784B00346ADF80630BDF8063003F17F
:10177C00804303F5E83300221A60BDF8063003F10C
:10178C00804303F5E8331B680393039B00BF04B04D
:10179C0070470000024B0022C3F8002500BF7047C1
:1017AC0000D0014000B58FB04FF48070FFF7C6FF3A
:1017BC000346002B68D04FF48070FFF7D2FF6C4BC0
:1017CC009B7C8DF836306A4B9B7C03F00103002B1D
:1017DC000CBF01230023DBB28DF835309DF835307A
:1017EC00634A9B0013445B68002B04D1604B5B7C09
:1017FC00DBB2022B2BD100238DF830305C4B002256
:10180C00DA745B4B5B7CDBB2022B05D100230B93B0
:10181C00574B01225A7411E09DF83630544A9B0004
:10182C0013445B680B939DF83630514A9B0013446C
:10183C0000225A604E4A9DF83530937401238DF87E
:10184C0028304B4B1B680AAA1046984713E0484BAC
:10185C00DB7C002B0FD100238DF81C300023089368
:10186C0001238DF82430424B0122DA74404B1B6863
:10187C0007AA104698473E4B5B7CDBB2022B5DD12E
:10188C003B4B01225A7459E04FF48270FFF756FF1C
:10189C000346002B52D04FF48270FFF762FFFFF724
:1018AC0079FF334B00225A7400238DF81830002333
:1018BC008DF810302E4B9B7C2D4A9B0013445B689B
:1018CC00002B12D02A4B9B7C294A9B0013445B684B
:1018DC000593274B9B7C264A9B00134400225A609D
:1018EC00234B1B6804AA10469847214B9B7C03F0A2
:1018FC000103002B0CBF01230023DBB28DF8373022
:10190C009DF837301A4A9B0013445B68002B12D0A9
:10191C009DF83730164A9B0013445B6805939DF87D
:10192C003730134A9B00134400225A60104B1B683B
:10193C0004AA104698470E4B00229A740C4B1B7D40
:10194C00DBB2002B0FD001238DF80430002302935F
:10195C0000238DF80C30064B00221A75044B1B68C3
:10196C0001AA1046984700BF0FB05DF804FB00BFFA
:10197C00A803002084B00346ADF80630BDF806304D
:10198C0003F1804300221A60BDF8063003F1804356
:10199C001B680393039B00BF04B0704782B00346DF
:1019AC00ADF80630BDF8063003F180431B68002B00
:1019BC0014BF01230023DBB2184602B0704700B5F8
:1019CC0085B00346ADF80630BDF806301846FFF773
:1019DC00E5FF03468DF80F309DF80F30002B04D037
:1019EC00BDF806301846FFF7C5FF9DF80F301846B6
:1019FC0005B05DF804FB4FF08043D3F80433184670
:101A0C007047000000B583B0FFF7F5FF0190019B14
:101A1C0003F00403002B12D04FF48470FFF7CFFFB8
:101A2C000346002B0BD0214B1B68002B04D1204903
:101A3C004FF48B7004F08EF81C4B1B689847019B7D
:101A4C0003F02003002B13D04FF48A70FFF7B7FF7D
:101A5C000346002B0CD0174B1B68002B04D11449E8
:101A6C0040F21F1004F076F8124B1B6800209847C8
:101A7C00019B03F04003002B13D04FF48C70FFF745
:101A8C009EFF0346002B0CD00A4B1B68002B04D185
:101A9C0007494FF4937004F05DF8064B1B68012066
:101AAC00984700BF03B05DF804FB00BFC0030020E3
:101ABC00A4B80000C403002008B5FFF7A3FFFFF78C
:101ACC003DFA00BF08BD000008B5064B1B68002B93
:101ADC0003D10549452004F03DF8024B1B6898479B
:101AEC0008BD00BFC8030020E0B8000008B5064BD5
:101AFC001B68002B03D10549482004F02BF8024B3E
:101B0C001B68984708BD00BFD0030020E0B8000058
:101B1C0008B5064B1B68002B03D105494B2004F07C
:101B2C0019F8024B1B68984708BD00BFD80300206A
:101B3C00E0B8000008B5064B1B68002B03D1054923
:101B4C004E2004F007F8024B1B68984708BD00BFF5
:101B5C00E0030020E0B8000008B5064B1B68002B22
:101B6C0003D10549512003F0F5FF024B1B68984740
:101B7C0008BD00BFE8030020E0B8000082B001906F
:101B8C00019B104A934201D10F4B18E0019BB3F11A
:101B9C00402F01D10D4B12E0019B0D4A934201D114
:101BAC000C4B0CE0019B0C4A934201D10B4B06E011
:101BBC00019B0B4A934201D10A4B00E000231846CB
:101BCC0002B0704700300040C8030020D003002052
:101BDC0000300240D803002000300140E003002018
:101BEC0000200040E803002000B587B00190009170
:101BFC00019B002B03D11849772003F0ABFF019810
:101C0C00FFF7BCFF0590059B002B1ED000238DF821
:101C1C001330002002F038FB059B1B79002B03D0FE
:101C2C0001238DF8133005E0059B009A1A60059B83
:101C3C0001221A71002002F03BFB9DF81330002B9F
:101C4C0003D011230393039B02E000230393039B14
:101C5C00184607B05DF804FBE0B8000000B585B08D
:101C6C000190019B002B03D10A499B2003F072FFCA
:101C7C000198FFF783FF0390039B002B05D0039B78
:101C8C0000221A60039B00221A7100BF05B05DF898
:101C9C0004FB00BFE0B8000084B001900B46ADF827
:101CAC000230BDF80230019A134400221A60BDF8CC
:101CBC000230019A13441B680393039B00BF04B0CA
:101CCC00704782B001900B46ADF80230BDF802307F
:101CDC00019A13441B68002B14BF01230023DBB2B1
:101CEC00184602B0704700B583B0019000914FF4D4
:101CFC0088710198FFF7E5FF0346002B12D04FF4D3
:101D0C0088710198FFF7C8FF009B5B7903F004030F
:101D1C00002B07D0009B1B68002B03D0009B1B687B
:101D2C00012098474FF48A710198FFF7CAFF0346C8
:101D3C00002B12D04FF48A710198FFF7ADFF009B76
:101D4C005B7903F00803002B07D0009B1B68002B6A
:101D5C0003D0009B1B68022098474FF48E710198AA
:101D6C00FFF7AFFF0346002B12D04FF48E71019892
:101D7C00FFF792FF009B5B7903F01003002B07D158
:101D8C00009B1B68002B03D0009B1B68002098470E
:101D9C004FF482710198FFF794FF0346002B0FD08C
:101DAC004FF482710198FFF777FF009B01221A71A3
:101DBC00009B1B68002B03D0009B1B6803209847DB
:101DCC0000BF03B05DF804FB08B503490348FFF7F7
:101DDC008AFF00BF08BD00BFF003002000C0014017
:101DEC0008B503490348FFF77EFF00BF08BD00BFDD
:101DFC00F80300200010024008B503490348FFF720
:101E0C0072FF00BF08BD00BF00040020002002408C
:101E1C0082B003468DF80730044BD3F804239DF8A9
:101E2C0007301340184602B0704700BF0020014035
:101E3C0084B00346ADF80630BDF8063003F180439C
:101E4C0003F5903300221A60BDF8063003F180438D
:101E5C0003F590331B680393039B00BF04B07047DA
:101E6C0082B00346ADF80630BDF8063003F180436E
:101E7C0003F590331B68184602B07047024BD3F839
:101E8C000C351846704700BF00200140024BD3F8B8
:101E9C0018351846704700BF00200140024BD3F89C
:101EAC0048351846704700BF0020014000B583B08C
:101EBC004FF48070FFF7D4FF0346002B19D001209C
:101ECC00FFF7A6FF0346002B13D04FF48070FFF7EB
:101EDC00AFFF4FF48073ADF80030FFF7CFFF034630
:101EEC005BB28DF80230264B1B686A4692E8030001
:101EFC0098474FF48270FFF7B3FF0346002B1FD0B7
:101F0C000220FFF785FF0346002B19D04FF4827097
:101F1C00FFF78EFF4FF48273ADF80030FFF7B6FF7A
:101F2C0003461BB2ADF80230FFF7B8FF03469BB275
:101F3C00ADF80430124B1B686A4692E803009847D0
:101F4C004FF48470FFF78CFF0346002B13D0042052
:101F5C00FFF75EFF0346002B0DD04FF48470FFF7A4
:101F6C0067FF4FF48473ADF80030054B1B686A466D
:101F7C0092E80300984700BF03B05DF804FB00BF74
:101F8C000804002084B00346ADF80630BDF80630D6
:101F9C0003F1804303F5504300221A60BDF806306C
:101FAC0003F1804303F550431B680393039B00BF6D
:101FBC0004B07047024BD3F80835DBB218467047B3
:101FCC0000D0004000B583B04FF48070FFF7DAFF0B
:101FDC00FFF7F0FF03468DF80730054B1B689DF8A3
:101FEC0007201046984700BF03B05DF804FB00BF04
:101FFC000C04002082B001900091019B009AC3F860
:10200C00082300BF02B0704782B001900091019B81
:10201C00D3F80423009B1340184602B0704782B0DB
:10202C0001900B46ADF80230BDF80230019A134412
:10203C001B68184602B0704784B001900B46ADF88F
:10204C000230BDF80230019A134400221A60BDF828
:10205C000230019A13441B680393039B00BF04B026
:10206C00704782B001900091019B009AC3F84823FD
:10207C0000BF02B07047000000B589B00390029118
:10208C0001924FF4803306934FF4A073ADF81E30D9
:10209C000023059330E006990398FFF7B5FF03463C
:1020AC00002B1ED0BDF81E3019460398FFF7B7FF62
:1020BC000346002B15D006990398FFF7D2FF06991B
:1020CC000398FFF797FFBDF81E3019460398FFF7EA
:1020DC00B3FF2D4A029B52F82330059AD2B2104618
:1020EC009847069B5B000693BDF81E300433ADF891
:1020FC001E30059B01330593059A019B9A42CAD366
:10210C004FF48073ADF81E3001210398FFF77CFF6C
:10211C000346002B14D0BDF81E3019460398FFF768
:10212C007EFF0346002B0BD0BDF81E3019460398DA
:10213C00FFF782FF144A029B52F823300420984781
:10214C004FF48273ADF81E3002210398FFF75CFF49
:10215C000346002B14D0BDF81E3019460398FFF728
:10216C005EFF0346002B0BD0BDF81E3019460398BA
:10217C00FFF762FF044A029B52F823300520984770
:10218C0000BF09B05DF804FB1004002008B5032261
:10219C0000210248FFF770FF00BF08BD00B00040EF
:1021AC0008B5042201210248FFF766FF00BF08BDF5
:1021BC000040024082B003468DF807309DF807308E
:1021CC0003F1804303F5E04301221A6000BF02B023
:1021DC00704782B00346ADF80630BDF8063003F107
:1021EC00804303F5E0431B68002B14BF012300233D
:1021FC00DBB2184602B0704784B00346ADF8063027
:10220C00BDF8063003F1804303F5E04300221A6069
:10221C00BDF8063003F1804303F5E0431B680393DC
:10222C00039B00BF04B0704782B001900091054A37
:10223C00019BC2F82C36034A009BC2F8303600BF13
:10224C0002B070470070004000B58FB04FF4827040
:10225C00FFF7BFFF0346002B46D04FF48270FFF709
:10226C00CBFF8E4B93F82E3083F00103DBB2002BA7
:10227C0004D18A4B93F82F30002B35D000238DF8E6
:10228C001C30864B5B680893844B1B899BB2ADF862
:10229C002430824BDB68002B03D1804B00221A7454
:1022AC0019E07E4B1A8B7D4B5A837C4BDB687B4A47
:1022BC0053607A4B1A8B794B1A81784B0022DA6077
:1022CC00764B93F82E3083F00103DBB2002B02D057
:1022DC000020FFF76FFF714B1B6807AA1046984749
:1022EC006E4B002283F82F206C4B93F82E30002B72
:1022FC005ED04FF48070FFF76CFF0346002B57D075
:10230C004FF48070FFF778FF644B5B8B634A92F855
:10231C002D2093421BD9614B5B8B604A92F82D2088
:10232C009B1A9AB25D4B5A835C4B5A685B4B1B8968
:10233C009BB21946594B5B8BCB1A5B001344574A23
:10234C0092F82D2011461846FFF76EFF29E0534BEB
:10235C005B8B524A92F82D20934214D14F4BDB6881
:10236C00002B10D04D4B012283F82F204B4B002219
:10237C005A834A4BDB68494A92F82D20114618467D
:10238C00FFF752FF0DE0454B5B8B444A92F82D2032
:10239C00934206D1414B012283F82F203F4B002260
:1023AC005A834FF48270FFF727FF0420FFF702FFD8
:1023BC004FF48870FFF70DFF0346002B0ED04FF43F
:1023CC008870FFF719FF354B00221A7402238DF821
:1023DC001030324B1B6804AA104698474FF48A7091
:1023EC00FFF7F7FE0346002B07D04FF48A70FFF778
:1023FC0003FF2A4B00221A744CE0284B5B690D93A7
:10240C0045E00D9B0A930A9B002B01D1202303E08E
:10241C000A9BB3FA83F3DBB20C934FF000420C9B94
:10242C0022FA03F3DB430D9A13400D930C9B9BB2E2
:10243C0046339BB29B00ADF82E30BDF82E301846BB
:10244C00FFF7C7FE0346002B21D0BDF82E301846EF
:10245C00FFF7D2FE01238DF80430BDF82E30A3F522
:10246C008C73DB08DBB28DF80830BDF82E30A3F589
:10247C008C7303F00403002B0CBF01230023DBB28D
:10248C008DF80930054B1B6801AA104698470D9B27
:10249C00002BB6D100BF0FB05DF804FB1804002070
:1024AC0000B585B003468DF807309DF80730052B35
:1024BC0004D91B4940F2691003F04CFB9DF807301E
:1024CC00184A52F823300393039B002B04D1144970
:1024DC0040F26B1003F03EFB9DF80730124A32F8C5
:1024EC001330ADF80A309DF807300F4A32F813302C
:1024FC001AB2BDF90A30DB431BB213401AB29DF875
:10250C00073091B2084A22F81310BDF80A109DF852
:10251C000720039B1046984700BF05B05DF804FBED
:10252C00F0BC0000540400204804002008B5002032
:10253C00FFF7B6FF00BF08BD08B50120FFF7B0FFDD
:10254C0000BF08BD08B50220FFF7AAFF00BF08BDF9
:10255C0008B50320FFF7A4FF00BF08BD08B5042091
:10256C00FFF79EFF00BF08BD08B50520FFF798FFD9
:10257C0000BF08BD84B001900B46ADF80230BDF829
:10258C000230019A134400221A60BDF80230019AFD
:10259C0013441B680393039B00BF04B0704782B0C5
:1025AC0001900B46ADF80230BDF80230019A13448D
:1025BC001B68002B14BF01230023DBB2184602B0AA
:1025CC00704782B001900091019BD3F80423009BCB
:1025DC001340002B14BF01230023DBB2184602B0BA
:1025EC00704782B00190019B9B0003F5A0739BB2D6
:1025FC00184602B0704782B001904FF48032019BB4
:10260C0002FA03F3184602B0704700B587B0039086
:10261C00029113468DF8073000238DF8153030E009
:10262C009DF815301846FFF7DCFF0346ADF8163061
:10263C009DF815301846FFF7DEFF0490BDF81630F4
:10264C0019460398FFF7ABFF0346002B14D00499EF
:10265C000398FFF7B6FF0346002B0DD0BDF81630DC
:10266C0019460398FFF786FF029B1B68029A516874
:10267C00BDF81620104698479DF8153001338DF89B
:10268C0015309DF815209DF807309A42C8D300BF2D
:10269C0000BF07B05DF804FB08B5042202490348EB
:1026AC00FFF7B3FF00BF08BD6C04002000800040A2
:1026BC0008B5042202490348FFF7A7FF00BF08BD75
:1026CC00780400200090004008B504220249034819
:1026DC00FFF79BFF00BF08BD8404002000A0004052
:1026EC0008B5062202490348FFF78FFF00BF08BD5B
:1026FC009004002000A0014008B5062202490348BE
:10270C00FFF783FF00BF08BD9C04002000B0014010
:10271C0082B003468DF807309DF90730002B0CDB97
:10272C009DF8073003F01F0205499DF907305B093E
:10273C00012000FA02F241F8232000BF02B07047DA
:10274C0000E100E082B003468DF807309DF90730B8
:10275C00002B13DB9DF8073003F01F0209499DF98C
:10276C0007305B09012000FA02F2203341F82320E4
:10277C00BFF34F8F00BFBFF36F8F00BF00BF02B01E
:10278C00704700BF00E100E082B0034600918DF875
:10279C0007309DF90730002B0ADB009BDAB20C499D
:1027AC009DF907305201D2B20B4483F800230BE0A1
:1027BC00009BDAB207499DF8073003F00F03043B86
:1027CC005201D2B20B441A7600BF02B0704700BF60
:1027DC0000E100E000ED00E082B00190019B1B0BDA
:1027EC005BB2184602B0704700B583B003460A4688
:1027FC008DF8073013468DF806309DF80630072B00
:10280C0003D908496B2003F0A5F99DF806209DF922
:10281C00073011461846FFF7B7FF00BF03B05DF84D
:10282C0004FB00BF90BE000000B583B003468DF8DA
:10283C0007309DF907301846FFF76AFF00BF03B059
:10284C005DF804FB00B583B003468DF807309DF9A5
:10285C0007301846FFF776FF00BF03B05DF804FBA6
:10286C0084B001900B46ADF80230BDF80230019AED
:10287C00134400221A60BDF80230019A13441B68FD
:10288C000393039B00BF04B0704782B001900B46CA
:10289C00ADF80230BDF80230019A13441B68002BCE
:1028AC0014BF01230023DBB2184602B0704782B07C
:1028BC0001900091019B009AC3F8042300BF02B061
:1028CC00704782B001900091019BD3F80423009BC8
:1028DC001340002B14BF01230023DBB2184602B0B7
:1028EC00704782B001900091019B009AC3F80823B5
:1028FC0000BF02B0704784B00190019BD3F88034C4
:10290C000393019B039AC3F88024039B184604B0DD
:10291C00704782B00190019B0422C3F8002500BFD0
:10292C0002B0704782B00190019B0022C3F80025D1
:10293C0000BF02B0704784B0039002910192039BD8
:10294C00019AC3F81425039B029AC3F80C2500BF07
:10295C0004B0704700B583B001904FF0FF324FF0D8
:10296C00FF310198FFF7E7FF00BF03B05DF804FBF0
:10297C0082B00190019BD3F80C35184602B0704719
:10298C0082B00190019BD3F81435184602B0704701
:10299C0082B00190019BD3F80835184602B07047FD
:1029AC0082B00190019BD3F81035184602B07047E5
:1029BC0084B0039002910192039B029AC3F80825FC
:1029CC00039B019AC3F8102500BF04B0704700B5F3
:1029DC0083B001904FF0FF324FF0FF310198FFF7B9
:1029EC00E7FF00BF03B05DF804FB82B00190019BD0
:1029FC00D3F81835DBB2184602B0704782B001909C
:102A0C000B468DF803309DF80320019BC3F81C2561
:102A1C0000BF02B0704782B001900B468DF80330B6
:102A2C009DF80330019A134401221A6000BF02B0D2
:102A3C00704782B001900B468DF8033013468DF829
:102A4C0002309DF803209DF802301343DBB21A4686
:102A5C00019BC3F86C2500BF02B0704782B0019097
:102A6C000091019B009AC3F8242500BF02B0704767
:102A7C0000B583B00190019B1B68184600F096F8D6
:102A8C000346002B04D105494FF4F67003F062F8AD
:102A9C004FF0A043184603B05DF804FBB8BE00002D
:102AAC0000B585B00190084611461A4603468DF8CC
:102ABC0003300B468DF8023013468DF8013001AB14
:102ACC001846FFF7D5FF03909DF803209DF80230C0
:102ADC005B001A439DF801309B001A439DF8183097
:102AEC001B0242EA03019DF81C301B04019A194396
:102AFC00039B02F5E07243F8221000BF05B05DF8AD
:102B0C0004FB00B585B003900023019300230093D0
:102B1C000023012201210398FFF7C2FF00BF05B07B
:102B2C005DF804FB00B585B003900B468DF80B30B7
:102B3C009DF80B300022019200220092002200210D
:102B4C000398FFF7ADFF00BF05B05DF804FB00B5BF
:102B5C0085B00390002301930023009300230122EE
:102B6C0000210398FFF79CFF00BF05B05DF804FB44
:102B7C0000B585B0019001AB1846FFF779FF0390C3
:102B8C00019B012202FA03F31946039800F004F8A2
:102B9C0000BF05B05DF804FB82B001900091019B71
:102BAC00009AC3F8082500BF02B0704784B00190AA
:102BBC00019B5B09029300230393029B002B03D11F
:102BCC004FF0FF33039300BF019B03F01F030193EE
:102BDC00039A019B22FA03F303F00103002B14BFA9
:102BEC0001230023DBB2184604B0704700B583B054
:102BFC0001900091009B1B68B3F1FF3F09D0009B33
:102C0C001B681846FFF7B4FF009B1B681846FFF7BC
:102C1C0078FF009B5B68B3F1FF3F05D0009B5B68BE
:102C2C0000211846FFF77EFF019B1A68009B9B69E9
:102C3C0019461046FFF712FF019B1868009B597D3F
:102C4C00009B1B7D1A46FFF7F4FE019B1868009B46
:102C5C001968009B5B681A46FFF76DFE009B1B7D95
:102C6C00012B22D1009B9B68B3F1FF3F05D0009B49
:102C7C009B6800211846FFF755FF009BDB68B3F1FA
:102C8C00FF3F09D0009BDB681846FFF771FF009BE4
:102C9C00DB681846FFF735FF019B1868009BD96865
:102CAC00009B9B681A46FFF783FE00BF03B05DF8DC
:102CBC0004FB000000B583B001900B468DF8033087
:102CCC00019B1B684FF48E711846FFF7C9FD019BE1
:102CDC001B684FF4A2711846FFF7C2FD019B1B68DD
:102CEC000E491846FFF7E3FD019B1B681846FFF7DA
:102CFC0073FD03461A469DF8033019461046FFF73C
:102D0C0073FD019B1B681846FFF766FD03461846CA
:102D1C00FFF78AFD00BF03B05DF804FB80000200E2
:102D2C0000B583B00190019B1B6808491846FFF75A
:102D3C00D8FD019B1B681846FFF74EFD034618464D
:102D4C00FFF780FD00BF03B05DF804FB84020200B6
:102D5C0000B587B00190019B1B681846FFF708FE71
:102D6C000590019B1B681846FFF70AFE0490019B17
:102D7C001B681846FFF70CFE0390019B1B68184656
:102D8C00FFF70EFE0290019B1B681846FFF7E2FD51
:102D9C00019B1B681846FFF71AFE059BB3F1FF3F1A
:102DAC0002D00598FFF7D3FE049BB3F1FF3F02D08E
:102DBC000498FFF7CCFE029BB3F1FF3F02D00298C0
:102DCC00FFF7C5FE039BB3F1FF3F02D00398FFF75B
:102DDC00BEFE00BF07B05DF804FB000000B587B075
:102DEC00039002910192029B002B03D12D49AA2042
:102DFC0002F0B0FE039B1B791A462C2302FB03F353
:102E0C00294A1344049300230593049B93F82A3016
:102E1C00002B03D008230593059B3EE0039B1A6807
:102E2C00039B1B791946214B53F821301946104648
:102E3C00FEF7DAFE0346002B03D011230593059B06
:102E4C002BE002990398FFF7D1FE049B019A5A607C
:102E5C00029B1A69049B1A60049B5B68002B05D0CB
:102E6C00029B1B7F19460398FFF724FF039B1B68EB
:102E7C001846FFF74EFD049B00229A61049B00222A
:102E8C00DA61049B002283F82920049B00225A61FA
:102E9C00049B012283F82A20059B184607B05DF895
:102EAC0004FB00BFE8BE0000A804002018BF00000F
:102EBC0000B585B00190019B1B791A462C2302FBAF
:102ECC0003F3114A13440393019B1B681846FFF745
:102EDC0029FD039B5B68002B02D00198FFF720FFB4
:102EEC000198FFF735FF019B1B681846FEF7B6FEED
:102EFC00039B002283F82A20039B00225A6000BF08
:102F0C0005B05DF804FB00BFA804002000B585B037
:102F1C00019000914FF48E710198FFF7A1FC009B7A
:102F2C009A68009B1B6A13441B788DF80F30009B2A
:102F3C001B6A5A1C009B1A629DF80F3019460198A7
:102F4C00FFF75CFD00BF05B05DF804FB00B585B074
:102F5C0001900091009B5B69039316E0009B93F832
:102F6C002830DBB2002B01D0002314E04FF48E711B
:102F7C000198FFF78AFC034683F00103DBB2002BB8
:102F8C00ECD100990198FFF7C1FF009B1B6A039AD3
:102F9C009A42EBD80123184605B05DF804FB0000FB
:102FAC0000B587B0039002910192039B1B791A46DE
:102FBC002C2302FB03F33C4A13440493049B93F825
:102FCC002A30012B04D039494FF48C7002F0C2FD29
:102FDC00029B002B04D1354940F2191002F0BAFDC6
:102FEC00019B002B04D131494FF48D7002F0B2FDDE
:102FFC00039800F05DF80346002B03D011230593D2
:10300C00059B4CE0049B019A5A61049B029A9A60BE
:10301C00049B00221A62049B002283F828200023C0
:10302C000593039B1B684FF48E711846FFF718FC31
:10303C00039B1B6808211846FFF7EDFC039B1B68DC
:10304C0004991846FFF762FF049B5B68002B25D19F
:10305C00039B1B6804991846FFF778FF034683F01F
:10306C000103DBB2002B02D00F23059313E000BF4A
:10307C00039B1B684FF48E711846FFF706FC034642
:10308C0083F00103DBB2002BF2D1039B1B680C21F4
:10309C001846FFF7C0FC049B00225A61059B18469A
:1030AC0007B05DF804FB00BFA8040020E8BE0000D8
:1030BC0082B00190019B1B791946074A2C2301FB16
:1030CC0003F3134414331B68002B14BF0123002398
:1030DC00DBB2184602B07047A804002010B582B0CD
:1030EC0001900091009B9B69002B08D14FF48471D7
:1030FC000198FFF7B5FB0198FFF777FC13E04FF44D
:10310C0084710198FFF7ACFB009BDA68009B5B6A4B
:10311C00D4180198FFF769FC03462370009B5B6A87
:10312C005A1C009B5A6202B010BD00B589B00390C6
:10313C000291019201238DF81030029B0693019BA2
:10314C000593039B5B68039A116804AA1046984781
:10315C0000BF09B05DF804FB00B587B00190009189
:10316C0000238DF80830009B0493019B9B6803930C
:10317C00019B00225A61019B5B68019A116802AAAB
:10318C001046984700BF07B05DF804FB00B58BB044
:10319C00019000914FF400710198FFF792FB0346E8
:1031AC00002B39D04FF492710198FFF76EFB034658
:1031BC00002B31D04FF492710198FFF751FB4FF473
:1031CC0001710198FFF78DFB009B93F8293083F078
:1031DC000103DBB2002B03D004210198FFF71BFC89
:1031EC0002238DF80C300198FFF785FB03460693FC
:1031FC00009B9B690593009BDB680493009B00225A
:10320C009A61009B0022DA61009B5B68009A11684E
:10321C0003AA1046984752E004210198FFF751FB8E
:10322C000346002B4BD04FF484710198FFF72DFB14
:10323C000346002B43D000990198FFF74FFF009BEA
:10324C009A69009B5B6A9A4239D1009BDB69002B1F
:10325C0019D0009BDB680993009B5B6A0893009B69
:10326C00DA69009B9A61009B1A69009BDA60009BEB
:10327C000022DA61009B00225A62099A0899009890
:10328C00FFF753FF1BE0009B93F8293083F00103F9
:10329C00DBB2002B03D004210198FFF7BCFB4FF4E9
:1032AC0001710198FFF71DFB009B00229A61009BA6
:1032BC00596A009BDB681A460098FFF736FF4FF4FB
:1032CC008E710198FFF7E1FA0346002B24D0009B86
:1032DC005B690793009B1B6A079A9A420DD9009B66
:1032EC0093F82830DBB283F00103DBB2002B04D05F
:1032FC0000990198FFF70AFE0EE04FF48E710198C9
:10330C00FFF7AEFA009B5B69002B05D0009B5B6955
:10331C0019460098FFF720FF4FF4A2710198FFF7B0
:10332C00B4FA0346002B1CD04FF4A2710198FFF79E
:10333C0097FA009B93F82930002B03D000210198B9
:10334C00FFF769FB009B9B69002B0AD0009B0022B6
:10335C009A61009B596A009BDB681A460098FFF73C
:10336C00E4FE00BF0BB05DF804FB000008B5034998
:10337C000348FFF70BFF00BF08BD00BFA8040020E7
:10338C000020004082B003468DF807309DF90730CD
:10339C00002B0CDB9DF8073003F01F0205499DF94B
:1033AC0007305B09012000FA02F241F8232000BF2C
:1033BC0002B0704700E100E082B003468DF80730A0
:1033CC009DF90730002B13DB9DF8073003F01F022B
:1033DC0009499DF907305B09012000FA02F22033FC
:1033EC0041F82320BFF34F8F00BFBFF36F8F00BF97
:1033FC0000BF02B0704700BF00E100E082B003469E
:10340C0000918DF807309DF90730002B0ADB009BEB
:10341C00DAB20C499DF907305201D2B20B4483F851
:10342C0000230BE0009BDAB207499DF8073003F04C
:10343C000F03043B5201D2B20B441A7600BF02B008
:10344C00704700BF00E100E000ED00E082B00190A9
:10345C00019B03F06043B3F1005F0CBF0123002319
:10346C00DBB2184602B0704782B00190019B1B0B77
:10347C005BB2184602B0704700B583B003460A46EB
:10348C008DF8073013468DF806309DF80630072B63
:10349C0003D908496B2002F05DFB9DF806209DF9CD
:1034AC00073011461846FFF7A9FF00BF03B05DF8BF
:1034BC0004FB00BF1CBF000000B583B003468DF8B1
:1034CC0007309DF907301846FFF75CFF00BF03B0CB
:1034DC005DF804FB00B583B003468DF807309DF909
:1034EC0007301846FFF768FF00BF03B05DF804FB18
:1034FC0084B001900B46ADF80230BDF80230019A51
:10350C00134400221A60BDF80230019A13441B6860
:10351C000393039B00BF04B0704782B001900B462D
:10352C00ADF80230BDF80230019A13441B68002B31
:10353C0014BF01230023DBB2184602B0704782B0DF
:10354C0001900091019BD3F80022009BDB431A40B1
:10355C00019BC3F8002200BF02B0704782B00190FB
:10356C000091019B009AC3F8042300BF02B070477E
:10357C0082B001900091019B009AC3F8082300BF10
:10358C0002B0704784B00190019BD3F88034039350
:10359C00019B039AC3F88024039B184604B0704720
:1035AC0082B00190019B0822C3F8002500BF02B035
:1035BC00704782B00190019B0022C3F8002500BF28
:1035CC0002B0704784B0039002910192039B029A5F
:1035DC00C3F80C25039B019AC3F8142500BF04B053
:1035EC00704700B583B001904FF0FF324FF0FF31C0
:1035FC000198FFF7E7FF00BF03B05DF804FB82B052
:10360C000190019BD3F80C35184602B0704782B07C
:10361C000190019BD3F81435184602B0704782B064
:10362C000190019BD3F80835184602B0704782B060
:10363C000190019BD3F81035184602B0704784B046
:10364C00039002910192039B029AC3F80825039BF5
:10365C00019AC3F8102500BF04B0704700B583B0C1
:10366C0001904FF0FF324FF0FF310198FFF7E7FF69
:10367C0000BF03B05DF804FB82B001900B468DF8DF
:10368C0003309DF80330019A134401221A6000BFE5
:10369C0002B0704782B001900B468DF80330134690
:1036AC008DF802309DF803209DF802301343DBB2F5
:1036BC001A46019BC3F86C2500BF02B0704782B05C
:1036CC0001900091019B009AC3F8242500BF02B021
:1036DC00704784B0039002910192029A039BC3F845
:1036EC004425039B019AC3F8482500BF04B07047DA
:1036FC0082B00190019BD3F84C35184602B070474C
:10370C0082B00190019BD3F83C35184602B070474B
:10371C0000B583B00190019B1B68184600F096F829
:10372C000346002B04D105494FF4F67002F012FA4F
:10373C004FF0A043184603B05DF804FB44BF0000F3
:10374C0000B585B00190084611461A4603468DF81F
:10375C0003300B468DF8023013468DF8013001AB67
:10376C001846FFF7D5FF03909DF803209DF8023013
:10377C005B001A439DF801309B001A439DF81830EA
:10378C001B0242EA03019DF81C301B04019A1943E9
:10379C00039B02F5E07243F8221000BF05B05DF800
:1037AC0004FB00B585B00390002301930023009324
:1037BC000023012201210398FFF7C2FF00BF05B0CF
:1037CC005DF804FB00B585B003900B468DF80B300B
:1037DC009DF80B3000220192002200920022002161
:1037EC000398FFF7ADFF00BF05B05DF804FB00B513
:1037FC0085B0039000230193002300930023012242
:10380C0000210398FFF79CFF00BF05B05DF804FB97
:10381C0000B585B0019001AB1846FFF779FF039016
:10382C00019B012202FA03F31946039800F004F8F5
:10383C0000BF05B05DF804FB82B001900091019BC4
:10384C00009AC3F8082500BF02B0704784B00190FD
:10385C00019B5B09029300230393029B002B03D172
:10386C004FF0FF33039300BF019B03F01F03019341
:10387C00039A019B22FA03F303F00103002B14BFFC
:10388C0001230023DBB2184604B0704700B583B0A7
:10389C0001900091009B1B68B3F1FF3F09D0009B86
:1038AC001B681846FFF7B4FF009B1B681846FFF710
:1038BC0078FF009B5B68B3F1FF3F05D0009B5B6812
:1038CC0000211846FFF77EFF019B1A68009B9B693D
:1038DC0019461046FFF7F3FE019B1868009B597DB3
:1038EC00009B1B7D1A46FFF7D5FE019B1868009BB9
:1038FC001968009B5B681A46FFF764FE009B1B7DF2
:10390C00012B22D1009B9B68B3F1FF3F05D0009B9C
:10391C009B6800211846FFF755FF009BDB68B3F14D
:10392C00FF3F09D0009BDB681846FFF771FF009B37
:10393C00DB681846FFF735FF019B1868009BD968B8
:10394C00009B9B681A46FFF77AFE00BF03B05DF838
:10395C0004FB000000B583B001900B468DF80330DA
:10396C00019B1B684FF488711846FFF7C1FD019B42
:10397C001B684FF490711846FFF7BAFD019B1B684A
:10398C004FF492711846FFF7B3FD019B1B684FF47F
:10399C00A2711846FFF7ACFD019B1B684FF4AC718C
:1039AC001846FFF7A5FD019B1B680F491846FFF74A
:1039BC00D5FD019B1B681846FFF756FD03461A46BA
:1039CC009DF8033019461046FFF756FD019B1B6806
:1039DC001846FFF749FD03461846FFF76DFD00BF7B
:1039EC0003B05DF804FB00BF1003420000B583B0C8
:1039FC000190019B1B6808491846FFF7B9FD019B14
:103A0C001B681846FFF730FD03461846FFF762FDAA
:103A1C0000BF03B05DF804FB1003420000B587B093
:103A2C000190019B1B681846FFF7E9FD0590019B6F
:103A3C001B681846FFF7EBFD0490019B1B681846AA
:103A4C00FFF7EDFD0390019B1B681846FFF7EFFD98
:103A5C000290019B1B681846FFF7C3FD019B1B6876
:103A6C001846FFF7FBFD059BB3F1FF3F02D005980D
:103A7C00FFF7BDFE049BB3F1FF3F02D00498FFF7A4
:103A8C00B6FE029BB3F1FF3F02D00298FFF7AFFEE8
:103A9C00039BB3F1FF3F02D00398FFF7A8FE00BFD2
:103AAC0007B05DF804FB000000B587B003900291ED
:103ABC000192029B002B03D12B49CF2002F04AF834
:103ACC00039B1B791A461346DB0013449B00274AC1
:103ADC001344049300230593049B93F82030002B8C
:103AEC0003D008230593059B3AE0039B1A68039BBC
:103AFC001B7919461E4B53F8213019461046FEF718
:103B0C0073F80346002B03D011230593059B27E084
:103B1C0002990398FFF7BAFE049B019A5A60029B24
:103B2C001A69049B1A60049B5B68002B05D0029BEE
:103B3C001B7F19460398FFF70DFF039B1B68184664
:103B4C00FFF72EFD049B00229A61049B0022DA6190
:103B5C00049B00225A61049B012283F82020059BC0
:103B6C00184607B05DF804FB74BF0000D4040020B5
:103B7C00A8BF000000B585B00190019B1B791A46C7
:103B8C001346DB0013449B002A4A13440393019B06
:103B9C001B680293039B5B68002B02D00198FFF714
:103BAC0025FF20210298FFF7CAFC039B9B69002B81
:103BBC0008D04FF4A2710298FFF79AFC04210298E6
:103BCC00FFF75AFD4FF4AC710298FFF791FC0C21F2
:103BDC000298FFF751FD00BF4FF4AC710298FFF74C
:103BEC009CFC034683F00103DBB2002BF4D1039B56
:103BFC009B69002B0AD04FF4A2710298FFF78DFC41
:103C0C00034683F00103DBB2002BE5D10298FFF7EA
:103C1C00D0FC0198FFF702FF0298FEF71FF8039BF8
:103C2C00002283F82020039B00225A6000BF05B0BD
:103C3C005DF804FBD404002000B589B00390029118
:103C4C000192039B1B791A461346DB0013449B001D
:103C5C00564A13440593059B93F82030012B04D04E
:103C6C00534940F2531001F075FF029B002B04D115
:103C7C004F494FF4AA7001F06DFF019B002B04D14A
:103C8C004B4940F2551001F065FF039B1B79002B4B
:103C9C0002D1019BFF2B04D945494FF4AB7001F0C5
:103CAC0059FF0298FFF7D2FB034683F00103DBB206
:103CBC00002B03D010230793079B73E0039800F0AD
:103CCC0079F80346002B03D011230793079B69E077
:103CDC00059B019A5A61059B029A9A6000230793EF
:103CEC00039B1B684FF490711846FFF701FC039B74
:103CFC001B684FF4AC711846FFF7FAFB039B18686E
:103D0C00059B9968059B5B691A46FFF7E2FC039BD0
:103D1C001B6808211846FFF7AFFC059B5B68002B5E
:103D2C003FD1039B1B684FF490711846FFF7F5FBCE
:103D3C0003468DF81B30039B1B684FF4AC7118467F
:103D4C00FFF7EBFB03468DF81A309DF81B3083F020
:103D5C000103DBB2002B06D09DF81A3083F001036F
:103D6C00DBB2002BDDD19DF81A30002B02D00F23D3
:103D7C00079313E0039B1B680C211846FFF77CFC90
:103D8C0000BF039B1B684FF4AC711846FFF7C5FBD3
:103D9C00034683F00103DBB2002BF2D1059B00221A
:103DAC005A61079B184609B05DF804FBD404002047
:103DBC0074BF000082B00190019B1B791946084A20
:103DCC000B46DB000B449B00134414331B68002B85
:103DDC0014BF01230023DBB2184602B0704700BFAA
:103DEC00D404002000B589B0039002910192012304
:103DFC008DF81030029B0693019B0593039B5B6827
:103E0C00039A116804AA1046984700BF09B05DF8E0
:103E1C0004FB00B587B00190009100238DF80830A9
:103E2C00009B0493019B9B680393019B00225A61A6
:103E3C00019B5B68019A116802AA1046984700BF63
:103E4C0007B05DF804FB00B589B0019000914FF408
:103E5C0092710198FFF761FB0346002B22D04FF4BF
:103E6C0092710198FFF744FB02238DF808300198FA
:103E7C00FFF788FB034605930198FFF741FC0346C7
:103E8C000493009BDB680393009B00229A61009BC8
:103E9C000022DA61009B5B68009A116802AA104646
:103EAC0098473BE04FF488710198FFF736FB0346C7
:103EBC00002B33D04FF488710198FFF719FB019850
:103ECC00FFF71EFC0790009B9B69079A9A4225D12D
:103EDC00009BDB69002B17D0009BDB68069320212D
:103EEC000198FFF72CFB009BDA69009B9A61009B01
:103EFC001A69009BDA60009B0022DA61069A079926
:103F0C000098FFF76FFF09E0009B00229A61009B6D
:103F1C00DB681A4607990098FFF764FF4FF4A2710B
:103F2C000198FFF7FAFA0346002B18D04FF4A27150
:103F3C000198FFF7DDFA009B9B69002B0FD0009BCB
:103F4C0000229A61009B0022DA610198FFF7D8FBEE
:103F5C000146009BDB681A460098FFF743FF4FF4BD
:103F6C0090710198FFF7D9FA0346002B14D04FF447
:103F7C0090710198FFF7BCFA0C210198FFF77CFBBC
:103F8C00009B5B69002B07D00198FFF7B1FB034640
:103F9C0019460098FFF73DFF4FF4AC710198FFF7FD
:103FAC00BCFA0346002B10D04FF4AC710198FFF70C
:103FBC009FFA009B5B69002B07D00198FFF798FBD9
:103FCC00034619460098FFF724FF00BF09B05DF8BF
:103FDC0004FB000008B503490348FFF734FF00BF9A
:103FEC0008BD00BFD40400200020004084B003466C
:103FFC00ADF80630BDF8063003F1804303F580338D
:10400C0000221A60BDF8063003F1804303F58033BB
:10401C001B680393039B00BF04B0704782B0034638
:10402C00ADF80630BDF8063003F1804303F580335C
:10403C001B68002B14BF01230023DBB2184602B00F
:10404C007047000008B54FF48070FFF7E7FF034698
:10405C00002B06D0044B1B6898474FF48070FFF779
:10406C00C5FF00BF08BD00BFF804002086B0039058
:10407C000291019201238DF817309DF81730204AD8
:10408C00039B13601E4A029B53601D4A019B936065
:10409C00039B44F20102934212D0039B44F20202AE
:1040AC00934220D1019B164AD360154BDB681B68E9
:1040BC00134A9361124BDB685B68114AD36112E0BF
:1040CC00019B0F4A13610E4B1B699B680C4A536191
:1040DC000B4B1B691B680A4A9361094B1B695B6894
:1040EC00074AD36100BF72B600BF00BF9DF81730FE
:1040FC00DBB2002BFAD162B600BF00BF06B070472E
:10410C00FC04002000B583B002900091019244F2AF
:10411C00010071466A4600F003F803B000BD00BF11
:10412C0030B58BB007900691059272B600BF05F0C2
:10413C00ABFE05F015FC0346002BFAD1079B44F2AD
:10414C00010293421AD0079B44F2020293424AD1D5
:10415C00059B0993364B5B88002B55D0354A364B63
:10416C00D31ADB081B0443F00100099B5B681A4659
:10417C00099B1B68314905F088FB45E0059B0893BA
:10418C002B4B5B88002B1ED02A4A2B4BD31ADB08F7
:10419C001B0443F00104089B9D68089B9B68184610
:1041AC0004F0B2FB03461846089B5B681946089B53
:1041BC001B68069A02920193009103462A462049F5
:1041CC00204605F0A4FB1A4B5B88002B1ED0194A25
:1041DC00194BD31ADB081B0443F001031949184689
:1041EC0005F034FB12E0124B5B88002B10D0114A07
:1041FC00114BD31ADB081B0443F00103069A124936
:10420C00184605F031FB03E000BF02E000BF00E000
:10421C0000BF0E4B1B6803F00103002B00D000BE47
:10422C00059A06990798FFF721FF00BF0BB030BD28
:10423C006C00002090AF0000E0AE0000B8C00000A1
:10424C00D4C00000FCC0000010C10000F0ED00E084
:10425C0072B600BF034B1B680133024A136000BFE8
:10426C00704700BF1C050020064B1B68013B054A2C
:10427C001360044B1B68002B01D162B600BF00BF5A
:10428C00704700BF1C05002000B583B0019000F002
:10429C0025F80346012B03D00449432001F05AFCB6
:1042AC00FFF7D6FF00BF03B05DF804FB80C1000030
:1042BC0000B583B003468DF8073000F00FF80346C5
:1042CC00012B03D00449512001F044FCFFF7CCFF33
:1042DC0000BF03B05DF804FB80C1000084B0EFF3B5
:1042EC0005830193019BC3F308030393039B002BEA
:1042FC000DD1EFF314830093009B0293029B03F008
:10430C000103002B0CBF01230023DBB200E00123CF
:10431C00184604B07047000008B5044B1B68044AEB
:10432C0012681046984700BF08BD00BF200500204A
:10433C002405002082B00190019B03F00303002BA5
:10434C000CBF01230023DBB2184602B070470000FB
:10435C0000B585B00190002303930EE00B4A039B3C
:10436C0052F82330002B05D0084A039B52F8233017
:10437C0001989847039B01330393039B032BEDD9BF
:10438C0000BF00BF05B05DF804FB00BF380500207E
:10439C0082B001900091019B1B78013B052B61D8E9
:1043AC0001A252F823F000BFCD430000D54300001A
:1043BC00FB4300002D4400004D4400006944000004
:1043CC00009B00221A704EE0009B01221A70019B88
:1043DC001A89009B9A81019B9A88009BDA81019B28
:1043EC00DA68009B9A60009B00221A743BE0009BE9
:1043FC0002221A70019B1A89009B9A81019B9A8850
:10440C00009BDA81019BDA68009B9A60019B9B7D83
:10441C00062B0CBF01230023DAB2009B1A7422E096
:10442C00009B03221A70019BDA88009B9A81019BE6
:10443C001A89009BDA81019BDA68009B9A6012E072
:10444C00009B04221A70019BDA88009B9A81009BC6
:10445C000022DA81009B00229A6004E0009B052276
:10446C001A7000E000BF00BF02B0704784B001902A
:10447C000091019B0393039A009B9A4206D2039BE3
:10448C001B68B3F1FF3F01D0012300E0002303F0D0
:10449C000103DBB2184604B0704782B00190019B57
:1044AC005B8803339B00019A1344184602B0704793
:1044BC0000B583B0019000910198FFF7EEFF024622
:1044CC00009B934201D2022311E0019B9B884FF683
:1044DC00FF72934208D0019B1B88002B04D0019BD8
:1044EC009B68B3F1FF3F01D1012300E00023184684
:1044FC0003B05DF804FB000000B583B00190019B94
:10450C00002B13D00D4BDB681A46019B93420DD345
:10451C000A4B1B691A46019B934207D80198FFF777
:10452C0009FF0346002B01D0012300E0002303F018
:10453C000103DBB2184603B05DF804FB0000002059
:10454C0082B003460A46ADF806301346ADF8043087
:10455C00BDF80620134913469B0013449B000B44E3
:10456C0008331A88BDF804301344ADF80430BDF894
:10457C0006200C4913469B0013449B000B440A3342
:10458C001A88BDF804301344ADF80430BDF804307B
:10459C00B3F5806F94BF01230023DBB2184602B041
:1045AC00704700BF4C05002084B00190009148F288
:1045BC00096303930023ADF80A3027E0BDF80A2005
:1045CC00164913469B0013449B000B4404331B6891
:1045DC00009A9A4215D9BDF80A20104913469B003F
:1045EC0013449B000B4404331B6803F58053009A5F
:1045FC009A4206D200230393019BBDF80A201A802D
:10460C0008E0BDF80A300133ADF80A30BDF80A30C5
:10461C00012BD3D9039B184604B070474C050020DE
:10462C0082B001900091009B9B7D022B09D9019BCC
:10463C001A89009BDB8813449BB203339AB2019B0B
:10464C001A81019B5A89009BDB88D31A9BB2033BCE
:10465C009AB2019B5A8100BF02B0704700B583B07B
:10466C00074B1B681946002300930823054A06488C
:10467C0003F0A8FC0346184603B05DF804FB00BF2A
:10468C0074050020F8C100000000002000B585B0C2
:10469C0003900399002300930823044A044803F071
:1046AC0091FC0346184605B05DF804FB00C20000FF
:1046BC000000002000B585B003460091ADF806302F
:1046CC0000238DF80F30BDF806300333ADF80A30F7
:1046DC00BDF80A3040F2FE32934202D948F2086328
:1046EC004BE00023ADF80C303BE0BDF80C20254925
:1046FC0013469B0013449B000B441B78002B2BD1BF
:10470C00BDF80A20BDF80C3011461846FFF718FF0B
:10471C000346002B20D001238DF80F30009BBDF8F1
:10472C000C201A80BDF80C20164913469B0013442C
:10473C009B000B440A331988BDF80C20BDF80A30D5
:10474C000B4498B20F4913469B0013449B000B4437
:10475C000A3302461A8008E0BDF80C300133ADF87C
:10476C000C30BDF80C30012BBFD99DF80F30002B4D
:10477C0001D0002301E048F20663184605B05DF84D
:10478C0004FB00BF4C05002082B003460A46ADF87E
:10479C0006301346ADF80430BDF804200D4913461D
:1047AC009B0013449B000B440A331A88BDF8063057
:1047BC00D31A9BB2BDF80420033B98B205491346AB
:1047CC009B0013449B000B440A3302461A8000BF23
:1047DC0002B070474C05002008B50121024801F0D9
:1047EC00FDFA0346184608BD4805002000B585B003
:1047FC0003460091ADF80630BDF806202449134657
:10480C009B0013449B000B4404331B6803F580533B
:10481C000293009B1B680393039B002B04D003980B
:10482C00FFF73BFE039026E0BDF80620184913461F
:10483C009B0013449B000B4404331B680833039305
:10484C0019E002990398FFF733FE0346022B10D0B0
:10485C00022B10DC002B02D0012B05D00BE0009BAF
:10486C00039A1A6001230EE00398FFF716FE0390DB
:10487C0001E0002307E002990398FFF7F7FD0346D8
:10488C00002BDED10023184605B05DF804FB00BFF9
:10489C004C05002000B585B001900091019B5B6830
:1048AC001846FFF729FE0346002B19D0019B1A89E5
:1048BC00244B1B899A4213D1019B1A68019B5B689C
:1048CC009B689A420CD1019B5B6819460098FFF7D4
:1048DC006BFE0346002B0CBF01230023DBB22CE044
:1048EC00009B00221A8023E00023029310E0029B1D
:1048FC000393039B9A68019B1B689A4208D1029A06
:10490C00019B5A600F4B1A89019B1A81012314E0F9
:10491C00009B1B8802AA11461846FFF767FF034647
:10492C00002BE4D1009B1B8801339AB2009B1A80A8
:10493C00009B1B88012BD7D90023184605B05DF8C6
:10494C0004FB00BF7C05002000B587B003900291EA
:10495C0001920093324B1B78DBB283F00103DBB284
:10496C00002B02D048F2016355E0019B002B02D0D2
:10497C00009B002B49D148F204634CE0009B9B88C0
:10498C001946284A0B469B000B449B0013441B788A
:10499C00002B33D124E0009B1B680593039B002B59
:1049AC0006D0059B9A88039B1B889A4200D017E07F
:1049BC00029B002B06D0059B1A88029B1B889A42EF
:1049CC0000D00DE0059B9A68019B1A60009B1A6849
:1049DC00019B5A60144B1A89019B1A8100231AE01F
:1049EC00009B9B88009A11461846FFF7FFFE034672
:1049FC00002BD0D1009B00221A6000E000BF009B6E
:104A0C009B8801339AB2009B9A80009B9B88012B58
:104A1C00B4D948F20963184607B05DF804FB00BF2F
:104A2C002C0500204C0500207C05002000B585B02D
:104A3C000190084B0199184601F017F903901C22BC
:104A4C000021039806F0C8F9039B184605B05DF8E1
:104A5C0004FB00BFC001002000B583B00190044BE3
:104A6C000199184601F01AF900BF03B05DF804FB78
:104A7C00C001002000B583B00190054B0199184688
:104A8C0001F020F90346184603B05DF804FB00BFA3
:104A9C00C001002000B583B00190044B0199184669
:104AAC0001F029F900BF03B05DF804FBC001002040
:104ABC0008B50A4B1B68002B04D109494FF424702C
:104ACC0001F048F80121054801F0A0F90346002B3C
:104ADC0014BF01230023DBB2184608BD34050020A7
:104AEC00CCC1000000B587B003900291039B022259
:104AFC009A750299039B1A1D0023009304230748FF
:104B0C0003F060FA0590059B002B01D1002301E016
:104B1C0048F20D63184607B05DF804FB0000002056
:104B2C0000B587B003900291039B1B69002B01D049
:104B3C00032200E00122039B9A75029B083319465D
:104B4C00039B03F10C02002300930423074803F09A
:104B5C0039FA0590059B002B01D1002301E048F2A6
:104B6C000D63184607B05DF804FB00BF0000002081
:104B7C0000B587B003900291039B1B78032B01D1E6
:104B8C00052200E00622039B9A75029B043319460A
:104B9C00039B03F10802002300930423074803F04E
:104BAC0011FA0590059B002B01D1002301E048F27E
:104BBC000D63184607B05DF804FB00BF0000002031
:104BCC0000B587B003900B46ADF80A30039900236B
:104BDC00009304230D4A0E4803F0F4F90590059B4D
:104BEC00002B02D048F20D630BE0BDF80A200949F6
:104BFC0013469B0013449B000B44103301221A7084
:104C0C000023184607B05DF804FB00BF08C2000083
:104C1C00000000204C05002000B589B0019002ABCB
:104C2C0000221A605A609A60019BDB6802930DF1B6
:104C3C00160202AB11461846FFF72CFE0346002B5A
:104C4C0012D0039B0693069B9A88019BDA80069BE5
:104C5C001A88019B1A81039BBDF816201146184631
:104C6C00FFF7AEFF079002E048F209630793079B3A
:104C7C00184609B05DF804FB00B587B00190019BA4
:104C8C00981D02AA0D4B0021FFF75EFE0590059BB7
:104C9C00002B08D1039B094A928811461846FFF74E
:104CAC008FFF059004E008220021044806F094F8D8
:104CBC00059B184607B05DF804FB00BF8C0500206F
:104CCC0000B587B003900291039B01229A75029B59
:104CDC000C331846039B1A69039BDB889B0000214D
:104CEC0000910146074803F06DF90590059B002BD8
:104CFC0001D1002301E048F20D63184607B05DF8BE
:104D0C0004FB00BF0000002082B0184B1B8901334C
:104D1C009AB2164B1A81154B00225A80134B002263
:104D2C001A730023ADF8063018E0BDF806201049C0
:104D3C0013469B0013449B000B441A78BDF80630B5
:104D4C00002A0CBF01220022D1B2084A13440A46A1
:104D5C009A72BDF806300133ADF80630BDF8063056
:104D6C00012BE2D900BF00BF02B070477C050020C8
:104D7C004C05002084B0019000238DF80F300023E7
:104D8C00ADF80C3031E0BDF80C301C4A13449B7A62
:104D9C00002B25D0BDF80C30184A134400229A720F
:104DAC00BDF80C20164913469B0013449B000B4482
:104DBC000C331B68002B13D1BDF80C201049134683
:104DCC009B0013449B000B4410331B78002B07D023
:104DDC00019BBDF80C201A8001238DF80F3008E0E0
:104DEC00BDF80C300133ADF80C30BDF80C30012B94
:104DFC00C9D99DF80F30184604B070477C050020C7
:104E0C004C05002008B5084B05221A70074B0222EE
:104E1C009A80064B1B68194600230122044803F0B4
:104E2C00D5F90346184608BD7C0500207405002002
:104E3C000000002000B583B0164B5B88ADF8023043
:104E4C00BDF80220144913469B0013449B000B44ED
:104E5C000C331B68002B14D10E4B04221A70BDF8B6
:104E6C0002200D4913469B0013449B000B44043352
:104E7C001B68194600230122084803F0A7F901908A
:104E8C0002E0FFF7BFFF0190019B184603B05DF8ED
:104E9C0004FB00BF7C0500204C0500200000002016
:104EAC0000B587B0104B5B680593104B1A680F4B1D
:104EBC009B889B0013440493059B5B880333ADF8DC
:104ECC000E30094B03221A700499074B5A68BDF82F
:104EDC000E309B0000200090054803F073F8034649
:104EEC00184607B05DF804FB7C0500207405002013
:104EFC000000002000B583B00A4B5B880A491846B5
:104F0C00FFF774FC0346002B03D0FFF7C9FF019099
:104F1C0002E0FFF78FFF0190019B184603B05DF88C
:104F2C0004FB00BF7C0500208005002008B50A4B5F
:104F3C0006221A70084B5B881946084A0B469B00E0
:104F4C000B449B00134404331B681846FFF79EFB6D
:104F5C000346184608BD00BF7C0500204C05002008
:104F6C0008B5054B07221A70034B00225A60FFF755
:104F7C0075FB0346184608BD7C05002008B50D4896
:104F8C00FFF7F8FE034683F00103DBB2002B0BD0D6
:104F9C00094B00221A70084B00225A80064B002243
:104FAC005A6041F61D5302E0FFF7A4FF0346184672
:104FBC0008BD00BF7E0500207C05002082B0094B97
:104FCC005B680193019B5B880333ADF80230064BA1
:104FDC009A88BDF8023013449AB2034B9A8000BFF2
:104FEC0002B070477C0500207405002082B01E4B77
:104FFC001B6801931D4B5B8819461D4A0B469B0091
:10500C000B449B00134404331B68174A1360174B63
:10501C005B881946164A0B469B000B449B001344B5
:10502C000433019A1A60114B5B8819460E4B988811
:10503C000F4A0B469B000B449B001344083302465B
:10504C001A80094B02229A80084B5B881946084A41
:10505C000B469B000B449B001344103300221A7028
:10506C0000BF02B0704700BF740500207C05002013
:10507C004C05002008B51A4B1B78072B2CD801A225
:10508C0052F823F0B1500000E5500000E55000004C
:10509C00BD500000C9500000D5500000D550000094
:1050AC00DD500000FFF730FE0D4B01221A7014E0AA
:1050BC00FFF784FF0A4B02221A700EE0FFF796FFEF
:1050CC00074B06221A7008E0054B07221A7004E001
:1050DC00034B01221A7000E000BF00BF08BD00BFE7
:1050EC007C05002000B587B00190009148F20E635A
:1050FC000593019B002B05D0624B00225A604FF4A4
:10510C000643BAE0009B1B79032B00F2A98001A295
:10511C0052F823F0315100003F510000CD510000F6
:10512C00ED510000009B01221A71FFF797FA0590D0
:10513C0099E000238DF813300023ADF810302BE0EC
:10514C00BDF81020504913469B0013449B000B44A0
:10515C001B78022B1BD1BDF810204B4913469B002A
:10516C0013449B000B4400221A7001238DF813305A
:10517C00BDF81020444913469B0013449B000B447C
:10518C0004331B681846FFF781FA059008E0BDF858
:10519C0010300133ADF81030BDF81030012BCFD9E1
:1051AC009DF8133083F00103DBB2002B5AD0354B42
:1051BC0001221A70334B00225A6041F61D535CE0F9
:1051CC00009B00221A71314B02229A802F4B1B68D4
:1051DC001946002301222E4802F0F8FF059042E008
:1051EC00009B00221A712B4B5B88ADF80E30274BBD
:1051FC001B680293BDF80E20234913469B001344F1
:10520C009B000B4404331B68204A1360BDF80E202E
:10521C001D4913469B0013449B000B440433029A14
:10522C001A60BDF80E20194B9888174913469B003D
:10523C0013449B000B44083302461A80134B022282
:10524C009A80BDF80E20104913469B0013449B0016
:10525C000B4400221A700298FFF718FA059002E02E
:10526C0000BF00E000BF059B002B05D0054B0022C2
:10527C005A6048F20D6300E00023184607B05DF851
:10528C0004FB00BF2C0500204C05002074050020F9
:10529C00000000207C05002000B587B00190009133
:1052AC00009B9B8A1A4613469B0013449B003B4A67
:1052BC0013440493019B002B06D000990498FFF72C
:1052CC00AFF94FF4064364E0049B5A68049B1B89B6
:1052DC009B0013440393009B9B7D062B4DD801A28E
:1052EC0052F823F03553000059530000415300008D
:1052FC004D5300000D530000655300007F53000018
:10530C00274B00225A60009B9B69254A1360254954
:10531C002348FFF7BFFA034683F00103DBB2002BEF
:10532C0002D048F2096334E003990098FFF7DAFBE6
:10533C00059026E003990098FFF7F2FB059020E01A
:10534C0003990098FFF7BCFC05901AE003990098AC
:10535C00FFF70EFC059014E0009B06229A75104B8B
:10536C005B68104A128811461846FFF729FC059015
:10537C0007E041F61D53059303E048F20E630593D5
:10538C0000BF059B002B03D000990498FFF748F948
:10539C00059B184607B05DF804FB00BF4C050020C8
:1053AC0094050020A005002000B585B00190009167
:1053BC00019B002B02D04FF4064329E0009B1B7984
:1053CC00022B1BD0022B1DDC002B02D0012B08D092
:1053DC0018E0009B02221A710098FFF71DFC039045
:1053EC0015E00098FFF748FC0390039B48F2096214
:1053FC0093420BD141F61D53039307E041F61D5325
:10540C00039304E048F20E63039300E000BF039B98
:10541C00184605B05DF804FB00B585B00190019B02
:10542C00002B02D04FF406433DE0214B1B7B002B9D
:10543C0003D01F4B00221A7301E0FFF71BFE1C4B1D
:10544C001B78013B062B29D801A252F823F000BF90
:10545C0079540000815400008954000091540000DC
:10546C00A954000099540000A1540000FFF786FDD8
:10547C00039017E0FFF73EFD039013E0FFF710FDDC
:10548C0003900FE0FFF7D6FC03900BE0FFF74EFD07
:10549C00039007E0FFF764FD039003E048F20E630E
:1054AC00039300BF039B184605B05DF804FB00BFD7
:1054BC007C05002000B589B00190404B1B68002B87
:1054CC0005D13F48FFF7D6FA03463C4A13603B4BE5
:1054DC001B68002B04D13B494FF4B46000F03AFB3D
:1054EC00364B1B681B78013B052B2CD801A252F8BC
:1054FC0023F000BF19550000295500002955000064
:10550C003955000039550000495500002B4B1B68DC
:10551C0019460198FFF7E6FD019018E0274B1B6830
:10552C0019460198FFF7B8FE019010E0234B1B6859
:10553C0019460198FFF738FF019008E00198FFF732
:10554C006BFF019003E048F20E63019300BF019BD7
:10555C00002B2BD003AB00221A605A609A60DA60E1
:10556C001A61019B41F61D52934201D0019B00E050
:10557C0000230493114B1B6803AA11461846FEF72F
:10558C0007FF03AB1846FEF7E3FE0C4B00221A6034
:10559C00002301930A48FFF77DFAFFF789FA0346C7
:1055AC0083F00103DBB2002B02D186E700BF00E0E1
:1055BC0000BF00BF09B05DF804FB00BFA4050020CC
:1055CC00A8050020CCC1000008B50121054800F059
:1055DC00EDFB0346002B02D10020FFF76BFF00BF51
:1055EC0008BD00BF3405002000B583B00190019BBD
:1055FC005B681846FFF75EFF00BF03B05DF804FB65
:10560C0000B58BB00390029101928DF8033000230A
:10561C00ADF824300023ADF82630534B1B78DBB2A9
:10562C0083F00103DBB2002B02D048F2016397E058
:10563C00029B002B02D148F2046391E0029B1B8871
:10564C004FF6FF72934203D0029B5B88002B02D172
:10565C0048F2036384E0029B5B681846FEF76AFE1F
:10566C00034683F00103DBB2002B02D048F2026345
:10567C0076E0019B002B11D1029B9B68ADF8263084
:10568C000DF11A02BDF8263011461846FFF712F834
:10569C000890089B002B09D0089B61E0019B1B889C
:1056AC00ADF81A30019B5B88ADF8263005AB184677
:1056BC00FFF7BCF90790079B002B0AD1BDF81A2005
:1056CC00BDF8263011461846FFF75EF848F207631E
:1056DC0046E0079B9DF803201A70079B00229A75E1
:1056EC00BDF81A20079B9A82029B5A68079B1A6185
:1056FC00FFF772F80246079BDA60029B1A88079B39
:10570C001A81029B5A88079B9A80079BBDF826201A
:10571C00DA809DF80330032B06D1079B04229A757F
:10572C00039B1A68079B9A61079BBDF824205A813A
:10573C0005AB1846FFF790F9039B002B0DD0039B8C
:10574C0000225A60079BDA68039B1A60039B0022B5
:10575C009A72064B1A89039B1A81FFF735FF0023B7
:10576C0018460BB05DF804FB2C0500207C050020CE
:10577C0000B585B001900091019B002B02D0009BDD
:10578C00002B02D148F204632AE00DF10A031946FA
:10579C000198FFF77FF80346002B1FD0019B5B6835
:1057AC000393BDF80A301A4613469B0013449B0022
:1057BC0008330D4A134404330121184600F00EFB44
:1057CC00009B039A1A60019B5B6803F10C02009B1F
:1057DC005A60019B01229A72002301E048F209638E
:1057EC00184605B05DF804FB4C05002000B585B0EB
:1057FC000190019B002B02D148F204633BE00DF1B8
:10580C000A0319460198FFF745F80346002B2ED0E2
:10581C00BDF80A3019461A4A0B469B000B449B00F4
:10582C0013440C331B68002B1DD0019B9B7A002B5F
:10583C0019D0BDF80A301A46114913469B0013447F
:10584C009B000B440C331B68591E0D4813469B00E0
:10585C0013449B0003440C331960019B00229A7281
:10586C000023039306E048F20563039302E048F239
:10587C0009630393039B184605B05DF804FB00BF56
:10588C004C05002000B583B001900091022300224A
:10589C0000990198FFF7B4FE0346184603B05DF873
:1058AC0004FB00B583B001900091019B002B02D149
:1058BC0048F2046306E00323002200990198FFF7E5
:1058CC009FFE0346184603B05DF804FB00B585B097
:1058DC00029201930346ADF80E300B46ADF80C3036
:1058EC0003A90DF10E00019B029AFFF72DF8034658
:1058FC00184605B05DF804FB1EF0040F1CBFEFF357
:10590C0009800AE0EFF308800549064A884201D86D
:10591C00904202D88D464FF00000034B1847000010
:10592C000000012000E000207159000000BF00BF02
:10593C00BFF34F8F00BF064BDB6803F4E0620449F2
:10594C00044B1343CB60BFF34F8F00BF00BFFDE789
:10595C0000ED00E00400FA0500B583B00190FFF7FC
:10596C00E7FF000010B588B0039004F08DFA03F047
:10597C00F7FF0346002BFAD1039B0693674B9B6AF8
:10598C000593069B002B41D0654B5B88002B0CD0FC
:10599C00644A654BD31ADB081B0443F00100069BD9
:1059AC009B691A46614903F05FFF5D4B5B88002BD6
:1059BC0015D05C4A5C4BD31ADB081B0443F0010086
:1059CC00069B1968069B5C68069B9B68069AD268C6
:1059DC000192009323460A46554903F080FF504B31
:1059EC005B88002B21D04F4A4F4BD31ADB081B048A
:1059FC0043F00100069B1A69069B5969069BDB69FB
:105A0C0000930B464B4903F054FF0EE0444B5B886C
:105A1C00002B0AD0434A444BD31ADB081B0443F037
:105A2C0001034549184603F011FF3C4BDB6A03F0B8
:105A3C000203002B0ED03A4B5B88002B0AD0394A5C
:105A4C00394BD31ADB081B0443F001033B491846BE
:105A5C0003F0FCFE0023079324E00122079B02FACB
:105A6C0003F31A46059B1340002B18D0344A079BAE
:105A7C0052F82330002B12D0294B5B88002B0ED010
:105A8C00284A294BD31ADB081B0443F001002C4A8B
:105A9C00079B52F823301A462A4903F0E5FE079B70
:105AAC0001330793079B192BD7D9059B03F0800370
:105ABC00002B10D01A4B5B88002B0CD0194A1A4BB8
:105ACC00D31ADB081B0443F00103144A526B1E4922
