:1000000000000120190200000102000003020000AC
:1000100005020000070200000902000000000000C5
:100020000000000000000000000000000B020000C3
:100030000D020000000000000F020000110200008D
:10004000130200001302000013020000130200005C
:100050001302000013020000A11F000013020000A1
:10006000FD2C0000152D00001302000013020000FB
:10007000130200001302000013020000130200002C
:10008000130200001302000013020000130200001C
:10009000130200001302000013020000130200000C
:1000A00013020000130200001302000013020000FC
:1000B0001302000013020000000000000000000016
:1000C00013020000130200001302000013020000DC
:1000D00013020000130200001302000000000000E1
:1000E0000000000000000000000000000000000010
:1000F0000000000000000000000000000000000000
:1001000000000000000000000000000000000000EF
:1001100000000000000000000000000000000000DF
:1001200000000000000000000000000000000000CF
:1001300000000000000000000000000000000000BF
:1001400000000000000000000000000000000000AF
:10015000000000000000000000000000000000009F
:10016000000000000000000000000000000000008F
:10017000000000000000000000000000000000007F
:10018000000000000000000000000000000000006F
:10019000000000000000000000000000000000005F
:1001A000000000000000000000000000000000004F
:1001B000000000000000000000000000000000003F
:1001C000000000000000000000000000000000002F
:1001D000000000000000000000000000000000001F
:1001E000000000000000000000000000000000000F
:1001F00000000000000000000000000000000000FF
:10020000FEE7FEE7FEE7FEE7FEE7FEE7FEE7FEE7C6
:10021000FEE7FEE700F002B8FFF7FCBF0F484FF023
:100220000701884385460E4880470E48016841F41F
:1002300070010160BFF34F8FBFF36F8F00F01AB8EA
:1002400009480A490A4A884207D0521A05D0037859
:1002500001300B700131013AF9D1704700000120E3
:10026000C50E000088ED00E04049000000000020BD
:1002700000000020344935480A1A02D00722914371
:100280008D46334933480A1A06D00722914381F339
:100290000988022282F314882F483049304A00F03E
:1002A00041F830483049314A00F03CF83048314993
:1002B000314A00F037F831483149324A00F032F81B
:1002C00031483249324A00F02DF832483249334A37
:1002D00000F028F832483349334A00F023F8334815
:1002E0003349002200F029F832483349002200F057
:1002F00024F832483249091A04F018FB314A904771
:100300001F482049884205D00268043003B4904752
:1003100003BCF7E700208646EC46002000212A4A6D
:100320009047FEE7884207D0521A05D00378013083
:100330000B700131013AF9D17047884202D0027046
:100340000130FAE7704700000000012000E00020C3
:100350000000012000000120604E0000000000208D
:1003600024000020CC030000CC0300004049000022
:10037000604E000000000020000000204049000006
:100380004049000040490000404900004049000049
:100390004049000040490000404900005D4E000017
:1003A000844E0000240000202400002024000020AF
:1003B000E4050020E4050020E4050020E405002019
:0C03C000E4250020410200004D05000073
:1003CC0000B583B00190019B1B68184600F08EF8B5
:1003DC000346002B04D105494FF4F67003F047FC9B
:1003EC004FF0A043184603B05DF804FB40490000F1
:1003FC0000B585B00190084611461A4603468DF8A3
:10040C0003300B468DF8023013468DF8013001ABEA
:10041C001846FFF7D5FF03909DF803209DF8023096
:10042C005B001A439DF801309B001A439DF818306D
:10043C001B0242EA03019DF81C301B04019A19436C
:10044C00039B02F5E07243F8221000BF05B05DF883
:10045C0004FB00B585B003900023019300230093A7
:10046C000023012201210398FFF7C2FF00BF05B052
:10047C005DF804FB00B585B0019001AB1846FFF7A1
:10048C009FFF0390019B012202FA03F31946039884
:10049C0000F018F800BF05B05DF804FB00B585B09E
:1004AC00019001AB1846FFF78BFF0390019B0122D3
:1004BC0002FA03F31946039800F00EF800BF05B0DA
:1004CC005DF804FB82B001900091019B009AC3F887
:1004DC00082500BF02B0704782B001900091019BCB
:1004EC00009AC3F80C2500BF02B0704784B001908D
:1004FC00019B5B09029300230393029B002B03D106
:10050C004FF0FF33039300BF019B03F01F030193D4
:10051C00039A019B22FA03F303F00103002B14BF8F
:10052C0001230023DBB2184604B0704782B001905F
:10053C00024B01221A7000BF02B070474800002025
:10054C0030B589B00620FFF784FF0820FFF781FF44
:10055C001F20FFF77EFF0620FFF78CFF0820FFF718
:10056C009DFF1C4B01AC1D460FCD0FC42B682360A7
:10057C0001238DF80D3001AB174A1946174803F0CB
:10058C006DF90790079B0693069B002B04D0144A29
:10059C004021069802F010FC104803F093FA322226
:1005AC0000210E4803F00CF8012000F05DF9062044
:1005BC00FFF760FF0820FFF771FF0021074803F0E9
:1005CC0025F803461946074803F0AFFC1F20FFF738
:1005DC0051FFF2E7A849000039050000C4490000AA
:1005EC00684900009449000000B583B00190019B5C
:1005FC001B68184600F0B5F80346002B04D10549DA
:10060C004FF4F67003F033FB4FF0A043184603B0E1
:10061C005DF804FBCC49000000B585B0019008469C
:10062C0011461A4603468DF803300B468DF80230FE
:10063C0013468DF8013001AB1846FFF7D5FF039038
:10064C009DF803209DF802305B001A439DF80130A1
:10065C009B001A439DF818301B0242EA03019DF8D7
:10066C001C301B04019A1943039B02F5E07243F8FA
:10067C00221000BF05B05DF804FB00B585B00390F7
:10068C0000230193002300930023012201210398EE
:10069C00FFF7C2FF00BF05B05DF804FB00B585B0E5
:1006AC0003900B468DF80B309DF80B300022019215
:1006BC0000220092002200210398FFF7ADFF00BF3B
:1006CC0005B05DF804FB00B585B0019001AB184690
:1006DC00FFF78AFF0390019B012202FA03F31946EC
:1006EC00039800F02AF800BF05B05DF804FB00B5D4
:1006FC0085B0019001AB1846FFF776FF0390019B84
:10070C00012202FA03F31946039800F020F800BF07
:10071C0005B05DF804FB00B583B001900091009B1F
:10072C00002B03D10198FFF7E2FF02E00198FFF7DD
:10073C00CAFF00BF03B05DF804FB82B001900091CA
:10074C00019B009AC3F8082500BF02B0704782B025
:10075C0001900091019B009AC3F80C2500BF02B0D8
:10076C00704784B00190019B5B09029300230393B3
:10077C00029B002B03D14FF0FF33039300BF019B6F
:10078C0003F01F030193039A019B22FA03F303F076
:10079C000103002B14BF01230023DBB2184604B065
:1007AC007047000000B583B00190019B032B03D967
:1007BC000749472003F05BFA064A019B13441B7858
:1007CC0001211846FFF7A7FF00BF03B05DF804FB3B
:1007DC00F44900001C4A000000B583B000230193CB
:1007EC0005E00198FFF7DEFF019B01330193019BAC
:1007FC00032BF6D900BF00BF03B05DF804FB00006B
:10080C0000B583B00023019309E0094A019B13440E
:10081C001B781846FFF731FF019B01330193019BB5
:10082C00032BF2D9FFF7D8FF00BF03B05DF804FB30
:10083C001C4A000000B583B0002301930AE0094A6A
:10084C00019B13441B7803211846FFF727FF019BDC
:10085C0001330193019B032BF1D900BF00BF03B0FF
:10086C005DF804FB204A000000B583B00190019BA9
:10087C0003F00103002B01D0FFF7C2FF019B03F033
:10088C000203002B01D0FFF7D5FF00BF03B05DF8CA
:10089C0004FB0000BFF34F8F00BF064BDB6803F473
:1008AC00E0620449044B1343CB60BFF34F8F00BF8E
:1008BC0000BFFDE700ED00E00400FA0582B01D4B1F
:1008CC001B68B3F1FF3F0AD11B4B1B68DBB20193D2
:1008DC001A4B1B681B0903F00F03009305E0154B23
:1008EC001B680193164B1B680093019B062B1DD1B3
:1008FC00009B033B042B17D801A252F823F000BF36
:10090C002109000025090000290900002D0900001B
:10091C003109000001230AE0012308E0012306E06D
:10092C00012304E0012302E0012300E00023184628
:10093C0002B0704730010010E00F00F0E80F00F03B
:10094C003401001082B0174B1B68DBB20193164BBD
:10095C001B681B0903F00F030093019B062B1DD191
:10096C00009B033B042B17D801A252F823F000BFC5
:10097C009109000095090000990900009D090000EB
:10098C00A109000001230AE0002308E0002306E08F
:10099C00002304E0002302E0002300E000231846BB
:1009AC0002B07047E00F00F0E80F00F082B01D4B72
:1009BC001B68B3F1FF3F0AD11B4B1B68DBB20193E1
:1009CC001A4B1B681B0903F00F03009305E0154B32
:1009DC001B680193164B1B680093019B062B1DD1C2
:1009EC00009B033B042B17D801A252F823F000BF45
:1009FC00110A0000150A0000190A00001D0A000067
:100A0C00210A000001230AE0012308E0012306E08B
:100A1C00012304E0012302E0012300E00023184637
:100A2C0002B0704730010010E00F00F0E80F00F04A
:100A3C003401001082B0174B1B68DBB20193164BCC
:100A4C001B681B0903F00F030093019B062B1DD1A0
:100A5C00009B033B042B17D801A252F823F000BFD4
:100A6C00810A0000850A0000890A00008D0A000036
:100A7C00910A000001230AE0002308E0002306E0AD
:100A8C00002304E0002302E0002300E000231846CA
:100A9C0002B07047E00F00F0E80F00F082B01D4B81
:100AAC001B68B3F1FF3F0AD11B4B1B68DBB20193F0
:100ABC001A4B1B681B0903F00F03009305E0154B41
:100ACC001B680193164B1B680093019B062B1DD1D1
:100ADC00009B033B042B17D801A252F823F000BF54
:100AEC00010B0000050B0000090B00000D0B0000B2
:100AFC00110B000001230AE0012308E0012306E0AA
:100B0C00012304E0012302E0012300E00023184646
:100B1C0002B0704730010010E00F00F0E80F00F059
:100B2C003401001082B0174B1B68DBB20193164BDB
:100B3C001B681B0903F00F030093019B062B1DD1AF
:100B4C00009B033B042B17D801A252F823F000BFE3
:100B5C00710B0000750B0000790B00007D0B000081
:100B6C00810B000001230AE0002308E0002306E0CB
:100B7C00002304E0002302E0002300E000231846D9
:100B8C0002B07047E00F00F0E80F00F082B0174B96
:100B9C001B68DBB20193164B1B681B0903F00F0398
:100BAC000093019B062B1DD1009B033B042B17D8F4
:100BBC0001A252F823F000BFD90B0000DD0B00009E
:100BCC00E10B0000E50B0000E90B000001230AE03B
:100BDC00002308E0002306E0002304E0002302E0E9
:100BEC00002300E00023184602B07047E00F00F02D
:100BFC00E80F00F082B01D4B1B68B3F1FF3F0AD128
:100C0C001B4B1B68DBB201931A4B1B681B0903F0CF
:100C1C000F03009305E0154B1B680193164B1B68E3
:100C2C000093019B062B1DD1009B033B042B17D873
:100C3C0001A252F823F000BF590C00005D0C00001B
:100C4C00610C0000650C0000690C000000230AE038
:100C5C00002308E0012306E0012304E0012302E065
:100C6C00012300E00023184602B070473001001049
:100C7C00E00F00F0E80F00F03401001082B01D4BC3
:100C8C001B68B3F1FF3F0AD11B4B1B68DBB201930E
:100C9C001A4B1B681B0903F00F03009305E0154B5F
:100CAC001B680193164B1B680093019B062B1DD1EF
:100CBC00009B033B042B17D801A252F823F000BF72
:100CCC00E10C0000E50C0000E90C0000ED0C00004C
:100CDC00F10C000001230AE0012308E0012306E0E7
:100CEC00012304E0012302E0012300E00023184665
:100CFC0002B0704730010010E00F00F0E80F00F078
:100D0C003401001082B01D4B1B68B3F1FF3F0AD1B8
:100D1C001B4B1B68DBB201931A4B1B681B0903F0BE
:100D2C000F03009305E0154B1B680193164B1B68D2
:100D3C000093019B062B1DD1009B033B042B17D862
:100D4C0001A252F823F000BF690D00006D0D0000E8
:100D5C00710D0000750D0000790D000001230AE0F3
:100D6C00012308E0012306E0012304E0012302E053
:100D7C00012300E00023184602B070473001001038
:100D8C00E00F00F0E80F00F03401001082B0154BBA
:100D9C001B680193144B1B680093019B062B1DD100
:100DAC00009B033B042B17D801A252F823F000BF81
:100DBC00D10D0000D50D0000D90D0000DD0D000097
:100DCC00E10D000000230AE0002308E0002306E008
:100DDC00012304E0012302E0012300E00023184674
:100DEC0002B07047300100103401001082B0154B76
:100DFC001B680193144B1B680093019B062B1DD1A0
:100E0C00009B033B042B17D801A252F823F000BF20
:100E1C00310E0000350E0000390E00003D0E0000B2
:100E2C00410E000000230AE0002308E0002306E046
:100E3C00002304E0012302E0012300E00023184614
:100E4C0002B07047300100103401001008B5FFF7F4
:100E5C00CDFF0346002B07D04FF010234FF08042FC
:100E6C00D3F80832C2F8583500BF08BD00BF044B98
:100E7C00D3F80034002BFAD000BF00BF704700BF7E
:100E8C0000E0014000B583B00190054A019BC2F817
:100E9C000435FFF7EBFF00BF03B05DF804FB00BFA8
:100EAC0000E00140024B034A1A6000BF704700BFCC
:100EBC00000000200090D00308B5FFF7FFFC0346AC
:100ECC00002B06D0964B1B681B0A964A03F01F0397
:100EDC001360FFF737FD0346002B02D0924B934A69
:100EEC001A60FFF763FD0346002B06D0904B1B687E
:100EFC005B0B904A03F007031360FFF79BFD03465F
:100F0C00002B05D08C4BDB688B4A23F08073D360AD
:100F1C00FFF7C4FD0346002B0ED04FF08043002298
:100F2C00C3F80C214FF080430022C3F810214FF07E
:100F3C0080430022C3F83825FFF7F4FD0346002B4D
:100F4C0002D07E4B03221A60FFF720FE0346002BD3
:100F5C000BD07B4B05221A607A4B01221A607A4B1C
:100F6C0000221A60794B3F221A60FFF743FE0346BA
:100F7C00002B76D04FF08053754AD3F80434C2F866
:100F8C0020354FF08053724AD3F80834C2F8243518
:100F9C004FF080536E4AD3F80C34C2F828354FF01A
:100FAC0080536B4AD3F81034C2F82C354FF0805371
:100FBC00674AD3F81434C2F830354FF08053644A82
:100FCC00D3F81834C2F834354FF08053604AD3F854
:100FDC001C34C2F840354FF080535D4AD3F82034AE
:100FEC00C2F844354FF08053594AD3F82434C2F830
:100FFC0048354FF08053564AD3F82834C2F84C3554
:10100C004FF08053524AD3F82C34C2F850354FF07D
:10101C0080534F4AD3F83034C2F854354FF08053D4
:10102C004B4AD3F83434C2F860354FF08053484AF9
:10103C00D3F83834C2F864354FF08053444AD3F8AF
:10104C003C34C2F868354FF08053414AD3F84034F1
:10105C00C2F86C354FF080533D4AD3F84434C2F893
:10106C007035FFF70BFE0346002B05D0394B1B6880
:10107C00394A03F04F031360FFF744FE0346002B7D
:10108C000DD04FF08043D3F8003403F00103002B54
:10109C0005D04FF080436FF00102C3F80024FFF736
:1010AC0075FE0346002B05D02C4B1B682B4A43F4D2
:1010BC00806313602A4BD3F88830294A43F47003B9
:1010CC00C2F88830BFF34F8F00BFBFF36F8F00BFE4
:1010DC00FFF7BCFE4FF01023D3F80032002B05DBDA
:1010EC004FF01023D3F80432002B15DA0120FFF750
:1010FC00C9FE4FF010231522C3F80022FFF7B6FEED
:10110C004FF010231522C3F80422FFF7AFFE002086
:10111C00FFF7B8FEFFF7BEFBFFF7C4FE00BF08BD2C
:10112C00240300104035014074C007400DF0ADBAE7
:10113C00440200103C050040F0ED00E0A00500402A
:10114C001056004088560040185600401456004077
:10115C0000C0004058020010E40E00403C17004054
:10116C0000ED00E0054B1B78002B04D1034B012252
:10117C001A70002300E085231846704749000020B0
:10118C0082B003468DF807309DF90730002B0CDB3D
:10119C009DF8073003F01F0205499DF907305B09E4
:1011AC00012000FA02F241F8232000BF02B0704780
:1011BC0000E100E082B0034600918DF807309DF904
:1011CC000730002B0ADB009BDAB20C499DF9073083
:1011DC005201D2B20B4483F800230BE0009BDAB22D
:1011EC0007499DF8073003F00F03043B5201D2B2BC
:1011FC000B441A7600BF02B0704700BF00E100E05C
:10120C0000ED00E082B00190019B1B0B5BB2184615
:10121C0002B0704700B583B003460A468DF807301C
:10122C0013468DF806309DF80630072B03D9084974
:10123C006B2002F01CFD9DF806209DF9073011462D
:10124C001846FFF7B7FF00BF03B05DF804FB00BF03
:10125C00244A000000B583B003468DF807309DF991
:10126C0007301846FFF78CFF00BF03B05DF804FB96
:10127C0082B003468DF807309DF8073003F18043A8
:10128C0003F5C043184602B0704700B583B003465F
:10129C00ADF80630BDF80630184600F026F80346C7
:1012AC001B68012B0CBF01230023DBB2184603B0D3
:1012BC005DF804FB00B585B00346ADF80630BDF80B
:1012CC000630184600F011F803461A460023136046
:1012DC00BDF80630184600F008F803461B68039367
:1012EC00039B00BF05B05DF804FB82B00346ADF86C
:1012FC000630BDF8063003F1804303F5C0431846B1
:10130C0002B0704782B00190034A019BC2F80433CB
:10131C0000BF02B0704700BF0060004082B0019077
:10132C00034BD3F80423019B1340184602B07047BB
:10133C000060004082B00190054A019B03F5A27346
:10134C0052F823301B0A03F01F03184602B07047F3
:10135C000060004082B00190064A019B03F5A27325
:10136C0052F823301B0C03F00303DBB2184602B017
:10137C00704700BF0060004084B00190094A019B97
:10138C0003F5A27352F8233043F00303039305498A
:10139C00019B03F5A273039A41F8232000BF04B00C
:1013AC00704700BF0060004084B00390029111466A
:1013BC001A460B468DF8073013468DF80630184A3E
:1013CC00039B03F5A27352F82330154923F49813A9
:1013DC0023F4F853039A02F5A27241F82230104A12
:1013EC00039B03F5A27352F82320029B1B0203F408
:1013FC00F8519DF807301B0403F4403319439DF852
:10140C0006301B0503F480130B4305491A43039B59
:10141C0003F5A27341F8232000BF04B0704700BF4E
:10142C000060004082B001900B468DF803300B4AEF
:10143C00019B03F5A27352F8233023F480129DF81C
:10144C0003301B0503F4801304491A43019B03F575
:10145C00A27341F8232000BF02B070470060004027
:10146C0082B00190044A019B03F5A273002142F85B
:10147C00231000BF02B070470060004000B583B07D
:10148C000190019B1B68184600F024F90346002BC1
:10149C0004D105494FF4F67002F0E9FB4FF0A0437C
:1014AC00184603B05DF804FB4C4A000000B585B04B
:1014BC000190084611461A4603468DF803300B4638
:1014CC008DF8023013468DF8013001AB1846FFF74A
:1014DC00D5FF03909DF803209DF802305B001A4362
:1014EC009DF801309B001A439DF818301B0242EA0C
:1014FC0003019DF81C301B04019A1943039B02F550
:10150C00E07243F8221000BF05B05DF804FB00B593
:10151C0085B0039000230193002300930023012244
:10152C0001210398FFF7C2FF00BF05B05DF804FB73
:10153C0000B585B003900023019300230093002392
:10154C00012200210398FFF7B1FF00BF05B05DF841
:10155C0004FB00B585B001900B468DF8033001AB50
:10156C001846FFF78BFF0390019A039B02F5E0727C
:10157C0053F82230019A23F44031039B02F5E072B8
:10158C0043F82210019A039B02F5E07253F82210E3
:10159C009DF803301B04019A1943039B02F5E0727A
:1015AC0043F8221000BF05B05DF804FB00B585B010
:1015BC00019001AB1846FFF761FF0390019B0122DC
:1015CC0002FA03F31946039800F02EF800BF05B099
:1015DC005DF804FB00B585B0019001AB1846FFF730
:1015EC004DFF0390019B012202FA03F31946039865
:1015FC0000F024F800BF05B05DF804FB00B585B021
:10160C00019001AB1846FFF739FF0390019A039B39
:10161C0002F5E07253F822301B0C03F00303DBB22B
:10162C00184605B05DF804FB82B001900091019B57
:10163C00009AC3F8082500BF02B0704782B0019031
:10164C000091019B009AC3F80C2500BF02B07047B3
:10165C0086B00390029101924FF0A0430493039B38
:10166C00059319E0059B9B0018336B4453F8083C19
:10167C00D3F82025019B1A60059B9B0018336B4403
:10168C0053F8083C019A1268C3F82025019B0433D7
:10169C000193059B01330593039A029B1344059A0E
:1016AC009A42DFD300BF00BF06B0704700B585B0CB
:1016BC00019001AB1846FFF7E1FE0390019B01225C
:1016CC0002FA03F31A46039BC3F8202500BF05B0AA
:1016DC005DF804FB84B00190019B5B09029300232D
:1016EC000393029B002B03D14FF0FF33039300BFF6
:1016FC00019B03F01F030193039A019B22FA03F34E
:10170C0003F00103002B14BF01230023DBB21846A6
:10171C0004B0704784B001900091009B0393019B2F
:10172C00DB080293019B03F0070301930122019B49
:10173C0002FA03F30399029A0A44127813401846EA
:10174C0004B0704784B001900091009B0393019BFF
:10175C00DB080293019B03F007030193039A029B9E
:10176C0013441B785AB20121019B01FA03F35BB2BB
:10177C00134359B2039A029B1344CAB21A7000BFA6
:10178C0004B0704784B001900091009B0393019BBF
:10179C00DB080293019B03F007030193039A029B5E
:1017AC0013441B785AB20121019B01FA03F35BB27B
:1017BC00DB435BB2134059B2039A029B1344CAB287
:1017CC001A7000BF04B0704782B00190074A019BA9
:1017DC001344243393F90030B3F1FF3F14BF0123BA
:1017EC000023DBB2184602B0704700BF4C0000204B
:1017FC0082B001900C4A019B1344243393F90030BE
:10180C00002B09DB084A019B1344243393F9003065
:10181C00072B01DC012300E0002303F00103DBB202
:10182C00184602B0704700BF4C00002084B00390F3
:10183C00029101928DF80330029B59B20E4A039B20
:10184C00134424330A461A700B49029B019A41F83F
:10185C0023209DF8033083F00103DBB2002B08D06A
:10186C00029B083B039A51B2034A13440A4683F87D
:10187C00442000BF04B070474C00002082B001909F
:10188C00044A019B13442433FE221A7000BF02B099
:10189C00704700BF4C00002082B00190044A019BAD
:1018AC0013442433FF221A7000BF02B0704700BFEC
:1018BC004C00002000B583B0019004490198FFF75B
:1018CC0041FF00BF03B05DF804FB00BF9100002096
:1018DC0000B583B0019004490198FFF753FF00BF96
:1018EC0003B05DF804FB00BF9100002000B583B08D
:1018FC00019007490198FFF70DFF0346002B14BF19
:10190C0001230023DBB2184603B05DF804FB00BFD3
:10191C009100002082B00190044A019B13442433AF
:10192C0093F90030184602B0704700BF4C000020FD
:10193C0082B00190034A019B52F82330184602B042
:10194C00704700BF4C00002084B00190074A019BF7
:10195C001344443393F900308DF80F309DF80F3059
:10196C0023F0C003184604B0704700BF4C000020A1
:10197C0084B00190074A019B1344443393F900301F
:10198C008DF80F309DF80F309B09DBB2184604B070
:10199C00704700BF4C00002000B589B00390029145
:1019AC0013468DF80730FF238DF81F309DF8073054
:1019BC00002B01D0002300E0082305939DF807308D
:1019CC00002B01D0082300E009230493059B069308
:1019DC0014E00F4A069B52F82330B3F1FF3F0AD1B3
:1019EC009DF80730029A06990398FFF71FFF069B94
:1019FC008DF81F3006E0069B01330693069A049B74
:101A0C009A42E6D39DF91F30184609B05DF804FBE5
:101A1C004C00002082B003468DF807309DF807304B
:101A2C00094A4FF0FF3142F823109DF80730072B7D
:101A3C0007D99DF80730083B034A1344FF2283F86B
:101A4C00442000BF02B070474C00002000B583B0AA
:101A5C002D4B93F84930002B03D008230093009BA7
:101A6C004EE000238DF8073011E09DF80730184642
:101A7C00FFF730FE0346002B04D09DF807301846C4
:101A8C00FFF70AFF9DF8073001338DF807309DF8FA
:101A9C0007301F2BE9D900238DF8073009E09DF89A
:101AAC0007301846FFF7B6FF9DF8073001338DF865
:101ABC0007309DF80730082BF1D904220021134878
:101ACC0002F052F91248FFF79DFB03460621184617
:101ADC00FFF7A0FB0E48FFF795FB03461846FFF7F0
:101AEC00B9FB4FF4BE70FFF7E5FB4FF00040FFF77A
:101AFC0009FC054B012283F8492000230093009B2D
:101B0C00184603B05DF804FB4C0000209100002047
:101B1C0000600040044B93F84930002B14BF0123A4
:101B2C000023DBB2184670474C00002000B585B08E
:101B3C00019000910198FFF7CDFD0346002B04D1D5
:101B4C002D4940F2491002F092F82C4B93F8493091
:101B5C00012B04D028494FF4A57002F088F8009BA3
:101B6C00002B04D1244940F24B1002F080F80023E2
:101B7C0003930198FFF728FE0346002B02D008239D
:101B8C00039334E0009B9B78002B19D00122002199
:101B9C000198FFF701FF03468DF80B309DF90B30D0
:101BAC00B3F1FF3F09D09DF90B00009B1A78009B05
:101BBC005B780199FFF7F8FB05E00423039302E03F
:101BCC000198FFF75BFE039B002B10D1009B5B7809
:101BDC00012B03D10198FFF7E9FC02E00198FFF714
:101BEC00F9FC0198FFF793FC0198FFF763FE039B48
:101BFC00184605B05DF804FB744A00004C00002048
:101C0C0000B583B001900198FFF764FD0346002BEB
:101C1C0004D11C4940F2811002F029F80198FFF719
:101C2C00D3FD0346002B04D116494FF4C17002F0CA
:101C3C001EF80198FFF7DCFD0346002B0ED001982F
:101C4C00FFF768FE0346DBB21846FFF7E3FE019888
:101C5C00FFF760FE03461846FFF702FC0198FFF7FA
:101C6C001BFE0198FFF742FE0346002B05D001989E
:101C7C00FFF75EFC0198FFF72BFE00BF03B05DF889
:101C8C0004FB00BF744A000000B583B001900198BA
:101C9C00FFF720FD0346002B04D1144940F2B3108A
:101CAC0001F0E5FF0198FFF78FFD0346002B04D1EF
:101CBC000E494FF4DA7001F0DAFF0198FFF798FD46
:101CCC000346002B04D1094940F2B51001F0CFFFB7
:101CDC00074A019B1344243393F900301846FFF74D
:101CEC004BFB00BF03B05DF804FB00BF744A00005F
:101CFC004C00002000B583B001900198FFF7EAFC7E
:101D0C000346002B04D10E494FF4EC7001F0AFFFE9
:101D1C000198FFF76DFD0346002B04D1084940F2F2
:101D2C00D91001F0A4FF0198FFF7F4FD0346DBB2D4
:101D3C000C33DBB29B00DBB2184603B05DF804FB3E
:101D4C00744A000000B585B001900198FFF7D2FFEE
:101D5C0003468DF80F309DF80F301846FFF788FAC0
:101D6C000346184605B05DF804FB000000B583B0CF
:101D7C0001900198FFF7AEFC0346002B04D10E49ED
:101D8C004FF4F57001F073FF0198FFF731FD034636
:101D9C00002B04D1084940F2EB1001F068FF0198C8
:101DAC00FFF7B8FD0346DBB21833DBB29B00DBB2A6
:101DBC00184603B05DF804FB744A000000B585B00A
:101DCC0001900198FFF7D2FF03468DF80F309DF874
:101DDC000F301846FFF74CFA0346184605B05DF86D
:101DEC0004FB000000B585B001900B468DF8033064
:101DFC000198FFF76FFC0346002B04D11A4940F2FF
:101E0C00FB1001F034FF0198FFF7DEFC0346002BBA
:101E1C0004D115494FF4FE7001F029FF0198FFF72A
:101E2C00E7FC0346002B04D10F4940F2FD1001F0F2
:101E3C001EFF9DF80330002B14BF01230023DBB2DF
:101E4C008DF80F30094A019B1344243393F9003069
:101E5C001A469DF80F3019461046FFF7E3FA00BFFB
:101E6C0005B05DF804FB00BF744A00004C00002074
:101E7C0000B585B00190019A01210020FFF7E8FB25
:101E8C00002303930BE0039B9B00019A13441B68F4
:101E9C00002B01D0012306E0039B01330393039B2A
:101EAC00002BF0D00023184605B05DF804FB0000B1
:101EBC0000B587B00190002305935BE0344A059B85
:101ECC001344443393F90030B3F1FF3F4ED00598DF
:101EDC00FFF73AFD049001990498FFF71BFC0346A9
:101EEC00002B44D00598FFF743FD03468DF80F30C7
:101EFC000498FFF783FB03468DF80E309DF80E30E7
:101F0C00022B01D1032300E002238DF80D309DF844
:101F1C000D3019460498FFF71CFB0498FFF7C6FB1D
:101F2C000498FFF7F7FC03461846FFF701FD0290F3
:101F3C00029B002B1BD09DF80F30032B0FD09DF86C
:101F4C000E30022B03D19DF80F30012B07D09DF8DA
:101F5C000E30032B0BD19DF80F30022B07D19DF8BF
:101F6C000F20029B11460498984700E000BF059B88
:101F7C0001330593059B002BA0D00198FFF778FF48
:101F8C000346002B97D100BF00BF07B05DF804FBE0
:101F9C004C00002000B589B0002307930023009368
:101FAC004FF48073ADF8163001230493002306938D
:101FBC0021E0BDF816301846FFF767F90346002BF1
:101FCC000ED00498FFF7AAF90346002B08D0BDF8F1
:101FDC0016301846FFF76EF9079A049B13430793C4
:101FEC00049B5B000493BDF816300433ADF8163037
:101FFC00069B01330693069B072BDAD94FF4BE7070
:10200C00FFF743F90346002B0DD04FF4BE70FFF7DA
:10201C0051F9079B43F0004307936B461A46012185
:10202C000020FFF715FB079BDBB2002B29D0012307
:10203C0004930023069321E0049A079B1340002B82
:10204C0016D00698FFF776F903900698FFF782F9F9
:10205C0003468DF80B300698FFF76AFC0190019B44
:10206C00002B05D09DF80B20019B11460398984737
:10207C00049B5B000493069B01330693069B072B82
:10208C00DAD9079B002B03DA6B461846FFF710FFD3
:10209C0000BF09B05DF804FB82B003468DF8073031
:1020AC009DF80730044A012101FA03F3C2F8043504
:1020BC0000BF02B0704700BF00F0014082B0034681
:1020CC008DF807309DF80730044A012101FA03F31B
:1020DC00C2F8083500BF02B0704700BF00F00140E5
:1020EC0084B00346029101928DF80F3008499DF897
:1020FC000F30A233029A41F83320054A9DF80F3075
:10210C00A233DB001344019A5A6000BF04B070473D
:10211C0000F0014082B003468DF807309DF807307F
:10212C00012202FA03F3184602B0704700B583B0DF
:10213C0003468DF807309DF807301846FFF7EAFF85
:10214C000346C3F31303002B14BF01230023DBB29C
:10215C00184603B05DF804FB82B0019001231846C9
:10216C0002B0704700B583B003468DF807309DF878
:10217C0007301846FFF7CEFF03461846FFF7ECFF73
:10218C000346184603B05DF804FB000000B583B0AD
:10219C0003468DF807309DF807301846FFF7BAFF55
:1021AC000246064B1B681340002B14BF012300236F
:1021BC00DBB2184603B05DF804FB00BF98000020AA
:1021CC0000B583B003468DF807309DF807301846EC
:1021DC00FFF7A0FF0246044B1B681343024A13602F
:1021EC0000BF03B05DF804FB9800002000B583B07D
:1021FC0003468DF807309DF807301846FFF78AFF25
:10220C000346DA43044B1B681340034A136000BFB8
:10221C0003B05DF804FB00BF9800002000B587B048
:10222C000190002305930023039304230593244B6F
:10223C00039300238DF8133037E0002001F0D0FC1D
:10224C009DF813301846FFF765FF0246039B1340B9
:10225C00002B15D09DF813301846FFF797FF034657
:10226C0083F00103DBB2002B0AD09DF81330184623
:10227C00FFF7A6FF019B9DF813201A70002305930E
:10228C00002001F0C1FC059B002B12D09DF81330EF
:10229C001846FFF73FFF0346DB43039A13400393B3
:1022AC009DF8133001338DF81330039B002BC4D1F0
:1022BC0000E000BF059B184607B05DF804FB00BFAB
:1022CC00FFFF0F0000B585B003468DF807300023E3
:1022DC0003939DF807301846FFF728FF034683F059
:1022EC000103DBB2002B02D0072303930FE09DF810
:1022FC0007301846FFF7E2FE002001F071FC9DF854
:10230C0007301846FFF772FF002001F07DFC039B9D
:10231C00184605B05DF804FB00B587B00346029182
:10232C0001928DF80F30029B002B02D0019B002BE9
:10233C0001D10E2325E0002305939DF80F3018469C
:10234C00FFF7F4FE034683F00103DBB2002B02D04F
:10235C000723059314E09DF80F301846FFF716FF7E
:10236C00034683F00103DBB2002B02D00823059354
:10237C0006E09DF80F30019A02991846FFF7B0FE5F
:10238C00059B184607B05DF804FB00B585B0034605
:10239C008DF80730002303939DF807301846FFF79C
:1023AC00E1FE034683F00103DBB2002B02D00723CE
:1023BC0003931AE09DF807301846FFF7B7FE034663
:1023CC00002B0DD09DF807301846FFF7DFFE0346B3
:1023DC0083F00103DBB2002B02D00823039304E04B
:1023EC009DF807301846FFF757FE039B184605B0BB
:1023FC005DF804FB00B585B003468DF8073000236B
:10240C0003939DF807301846FFF7ACFE034683F0A4
:10241C000103DBB2002B02D0072303931CE09DF8D1
:10242C0007301846FFF782FE0346002B0DD09DF8AF
:10243C0007301846FFF7AAFE034683F00103DBB210
:10244C00002B02D00823039306E09DF807301846B2
:10245C00FFF734FE00230393039B184605B05DF889
:10246C0004FB000082B003468DF807309DF907305D
:10247C00002B0CDB9DF8073003F01F0205499DF97A
:10248C0007305B09012000FA02F241F8232000BF5B
:10249C0002B0704700E100E082B003468DF80730CF
:1024AC009DF90730002B13DB9DF8073003F01F025A
:1024BC0009499DF907305B09012000FA02F220332B
:1024CC0041F82320BFF34F8F00BFBFF36F8F00BFC6
:1024DC0000BF02B0704700BF00E100E082B00346CD
:1024EC0000918DF807309DF90730002B0ADB009B1B
:1024FC00DAB20C499DF907305201D2B20B4483F881
:10250C0000230BE0009BDAB207499DF8073003F07B
:10251C000F03043B5201D2B20B441A7600BF02B037
:10252C00704700BF00E100E000ED00E082B00190D8
:10253C00019B1B0B5BB2184602B0704700B583B011
:10254C0003460A468DF8073013468DF806309DF881
:10255C000630072B03D908496B2001F088FB9DF846
:10256C0006209DF9073011461846FFF7B7FF00BF4C
:10257C0003B05DF804FB00BFA84A000000B583B0AF
:10258C0003468DF807309DF907301846FFF76AFFB0
:10259C0000BF03B05DF804FB00B583B003468DF8B3
:1025AC0007309DF907301846FFF776FF00BF03B0E0
:1025BC005DF804FB82B001900B468DF803309DF85A
:1025CC000330019A134401221A6000BF02B0704715
:1025DC0084B001900B46ADF80230BDF80230019A80
:1025EC00134400221A60BDF80230019A13441B6890
:1025FC000393039B00BF04B0704782B001900B465D
:10260C00ADF80230BDF80230019A13441B68002B60
:10261C0014BF01230023DBB2184602B0704782B00E
:10262C0001900091019BD3F80022009B1A43019B5F
:10263C00C3F8002200BF02B0704782B00190009135
:10264C00019BD3F80022009BDB431A40019BC3F88B
:10265C00002200BF02B0704782B001900091019B34
:10266C00009AC3F8042300BF02B0704782B00190F7
:10267C000091019B009AC3F8082300BF02B0704779
:10268C0082B001900091019BD3F80423009B13406E
:10269C00002B14BF01230023DBB2184602B0704795
:1026AC0082B001900B468DF80330019BD3F80435B2
:1026BC0023F003029DF8033003F003031A43019B3C
:1026CC00C3F8042500BF02B0704782B001900B46DE
:1026DC008DF80330019BD3F8083523F003029DF8E5
:1026EC00033003F003031A43019BC3F8082500BF12
:1026FC0002B0704782B001900B468DF80330019BFD
:10270C00D3F8103523F00F029DF8033003F00F03BC
:10271C001A43019BC3F8102500BF02B0704784B068
:10272C0003900B4601928DF80B309DF80B20039B08
:10273C0002F5A872019943F8221000BF04B070474B
:10274C0082B00190019B9B0003F5A0739BB21846CD
:10275C0002B0704782B001904FF48032019B02FAB4
:10276C0003F3184602B0704710B588B0039002917D
:10277C000192039B1B791A4613465B0013449B0082
:10278C006F4A13440693029B002B03D16D494A20D8
:10279C0001F06DFA019B002B03D16A494B2001F02B
:1027AC0066FA069B1B7A002B03D008230593059B26
:1027BC00C2E0039B1B68644A93420FD1029B9B7837
:1027CC00012B63D0029B9B78002B5FD0029B9B78E4
:1027DC00022B5BD0029B9B78032B57D0039B1B686F
:1027EC005A4A93420FD1029B9B78012B4ED0029BED
:1027FC009B78002B4AD0029B9B78022B46D0029BE5
:10280C009B78032B42D0039B1B68514A93420FD1F8
:10281C00029B9B78012B39D0029B9B78002B35D0E7
:10282C00029B9B78022B31D0029B9B78032B2DD0E3
:10283C00039B1B68474A93420FD1029B9B78012B49
:10284C0024D0029B9B78002B20D0029B9B78022BE0
:10285C001CD0029B9B78032B18D0039B1B683E4A11
:10286C0093420FD1029B9B78012B0FD0029B9B783C
:10287C00002B0BD0029B9B78022B07D0029B9B78E2
:10288C00032B03D02F495F2001F0F1F9069B019A2D
:10289C001A60029B5A68069B5A6000238DF81F3001
:1028AC0010E0039B1C689DF81F301846FFF748FF8B
:1028BC00034619462046FFF78BFE9DF81F30013367
:1028CC008DF81F30039B5B799DF81F209A42E8D34B
:1028DC00039B1B681846FFF729FE03461A46029B0A
:1028EC00DB7819461046FFF729FE039B1B68184638
:1028FC00FFF71CFE03461846FFF740FE039B1A68C1
:10290C00029B5B7819461046FFF7CAFE039B1A68B8
:10291C00029B9B7819461046FFF7D7FE039B1A685B
:10292C00029B1B7819461046FFF7E4FE069B01221A
:10293C001A7200230593059B184608B010BD00BF02
:10294C009C000020D04A0000008000400090004015
:10295C0000A0004000A0014000B0014000B583B0D1
:10296C000190019B1B681846FFF7E0FD03461846D3
:10297C00FFF712FE019B1B684FF0FF311846FFF763
:10298C005CFE019B1B684FF0FF311846FFF76EFE93
:10299C00019800F041F8019B1B791946064A0B4639
:1029AC005B000B449B001344083300221A7000BFD9
:1029BC0003B05DF804FB00BF9C00002000B583B0A1
:1029CC000190019B1B791946114A0B465B000B4485
:1029DC009B00134408331B78012B03D00D498F2027
:1029EC0001F045F9019B1B6800211846FFF7E2FD39
:1029FC00019B1B791946064A0B465B000B449B0056
:102A0C001344083302221A7000BF03B05DF804FBB4
:102A1C009C000020D04A000000B583B00190019BBF
:102A2C001B791946114A0B465B000B449B0013445F
:102A3C0008331B78002B03D10D49972001F017F9AF
:102A4C00019B1B6810211846FFF7B4FD019B1B79F5
:102A5C001946064A0B465B000B449B001344083393
:102A6C0001221A7000BF03B05DF804FB9C0000202B
:102A7C00D04A000000B583B00190019B1B79194628
:102A8C000B4A0B465B000B449B00134408331B782A
:102A9C00002B03D10749B32001F0E9F8019B1B6817
:102AAC000C211846FFF786FD00BF03B05DF804FB50
:102ABC009C000020D04A000010B586B00390019213
:102ACC001A460B468DF80B3013468DF80A309DF8DC
:102ADC000B301846FFF73EFE05909DF80A30002B90
:102AEC0012D0039B1C689DF80B301846FFF728FE8C
:102AFC00034619462046FFF76BFD039B1B6805999F
:102B0C001846FFF7A9FD05E0039B1B6805991846BD
:102B1C00FFF7ACFD039B1B689DF80B10019A184640
:102B2C00FFF7FDFD00BF06B010BD00B585B00390EA
:102B3C0001921A460B468DF80B301346ADF808304F
:102B4C00039B18689DF80B304FF480729A409DF8E7
:102B5C000B30012101FA03F313431946FFF76DFD06
:102B6C00039B1B68BDF8082011461846FFF757FD5C
:102B7C009DF818309DF80B10019A0398FFF79CFFF5
:102B8C0000BF05B05DF804FB10B582B00190009158
:102B9C00019B1B791946174A0B465B000B449B00A3
:102BAC00134408331B78002B03D11349FB2001F08D
:102BBC005EF8019B5B791A46009B934203D30E4946
:102BCC00FC2001F054F8019B1C680098FFF7B8FD3D
:102BDC00034619462046FFF7FBFC019B1C68009836
:102BEC00FFF7B8FD034619462046FFF735FD00BF39
:102BFC0002B010BD9C000020D04A000010B582B07D
:102C0C0001900091019B1B791946134A0B465B00FE
:102C1C000B449B00134408331B78002B04D10F4941
:102C2C0040F2071001F023F8019B5B791A46009BD8
:102C3C00934204D309494FF4847001F018F8019BB6
:102C4C001C680098FFF786FD034619462046FFF7DF
:102C5C000DFD00BF02B010BD9C000020D04A00004A
:102C6C0000B587B00390029113468DF8073000230E
:102C7C008DF8173030E09DF817301846FFF760FDDF
:102C8C000346ADF814309DF817301846FFF762FD77
:102C9C000490BDF8143019460398FFF7AEFC0346B8
:102CAC00002B14D004990398FFF7EAFC0346002B81
:102CBC000DD0BDF8143019460398FFF789FC029B20
:102CCC001B68029A5168BDF81420104698479DF86D
:102CDC00173001338DF817309DF817209DF8073009
:102CEC009A42C8D300BF00BF07B05DF804FB0000D8
:102CFC0008B5042202490348FFF7B2FF00BF08BD24
:102D0C009C0000200080004008B5042202490348C2
:102D1C00FFF7A6FF00BF08BDA800002000900040F0
:102D2C0086B003900291019201238DF817309DF823
:102D3C001730204A039B13601E4A029B53601D4AA6
:102D4C00019B9360039B44F20102934212D0039BBC
:102D5C0044F20202934220D1019B164AD360154BD8
:102D6C00DB681B68134A9361124BDB685B68114A82
:102D7C00D36112E0019B0F4A13610E4B1B699B68D8
:102D8C000C4A53610B4B1B691B680A4A9361094B34
:102D9C001B695B68074AD36100BF72B600BF00BFF6
:102DAC009DF81730DBB2002BFAD162B600BF00BF22
:102DBC0006B07047B400002000B583B002900091BB
:102DCC00019244F2010071466A4600F003F803B028
:102DDC0000BD00BF00B587B003900291019272B69E
:102DEC0000BF039B44F20102934207D0039B44F2C1
:102DFC000202934205D1019B059303E0019B0493CE
:102E0C0000E000BF074B1B6803F00103002B00D050
:102E1C0000BE019A02990398FFF782FF00BF07B02A
:102E2C005DF804FBF0ED00E082B001900B46ADF8CC
:102E3C000230BDF80230019A1344184602B07047B4
:102E4C0082B00190019BD3F81035DBB2184602B06A
:102E5C00704782B001900B468DF803309DF803202B
:102E6C00019B02F5A87253F82230184602B0704745
:102E7C0082B00190019B9B0003F5A0739BB2184696
:102E8C0002B07047F0B587B001900B468DF8033057
:102E9C009DF803300593019B00221E4617464FF008
:102EAC0000024FF000033B0143EA1673320105990F
:102EBC00C1F12006A1F1200022FA01F403FA06F672
:102ECC00344323FA00F0044323FA01F5CDE902451B
:102EDC00DDE90223012B04D3044940F2B92000F0B0
:102EEC00C6FE029B184607B0F0BD00BF044B0000A5
:102EFC0010B582B001900091019B5B791A46009B42
:102F0C00934204D3094940F2711000F0B0FE019BCA
:102F1C001C680098FFF7ACFF034619462046FFF7E4
:102F2C0083FF0346184602B010BD00BF2C4B0000B7
:102F3C0000B583B001900B468DF80330019B1B68E4
:102F4C009DF8032011461846FFF783FF03461846E9
:102F5C0003B05DF804FB00B583B001900091019BB8
:102F6C001B681846FFF76CFF034619460098FFF7DD
:102F7C0089FF0346184603B05DF804FB00B583B027
:102F8C000190019B1B68184600F04CF80346002B7F
:102F9C0004D105494FF4F67000F069FE4FF0A043E0
:102FAC00184603B05DF804FB644B000000B585B017
:102FBC00019001AB1846FFF7E1FF0390019B012242
:102FCC0002FA03F31946039800F018F800BF05B095
:102FDC005DF804FB00B585B0019001AB1846FFF716
:102FEC00CDFF0390019B012202FA03F319460398CB
:102FFC0000F00EF800BF05B05DF804FB82B0019044
:10300C000091019B009AC3F8082500BF02B07047DD
:10301C0082B001900091019B009AC3F80C2500BF6F
:10302C0002B0704784B00190019B5B0902930023AE
:10303C000393029B002B03D14FF0FF33039300BF8C
:10304C00019B03F01F030193039A019B22FA03F3E4
:10305C0003F00103002B14BF01230023DBB218463D
:10306C0004B0704782B001900B468DF8033000BF5E
:10307C0002B0704700B585B00190019B5B681B796D
:10308C001A461A4B9B5C8DF80E3001238DF80F30CD
:10309C009DF80E30FF2B20D09DF80E30FE2B1FD04C
:1030AC00019B5B689DF80E2011461846FFF740FF08
:1030BC000246019B5B681B7919460D4B53F8213076
:1030CC009A420DD1019B5B681B791A46074BFF2175
:1030DC00995400238DF80F3002E000238DF80F3047
:1030EC009DF80F30184605B05DF804FBD8000020A1
:1030FC00E000002000B583B00190019B5B680221C9
:10310C001846FFF741FD00BF03B05DF804FB00B5A6
:10311C0083B00190019B5B6802211846FFF76EFD9E
:10312C0000BF03B05DF804FB00B587B00346009107
:10313C00ADF80630009B049301238DF81730002363
:10314C008DF816303AE09DF816302649049A520054
:10315C000A4413441B78DBB2002B2AD09DF816309E
:10316C002049049A52000A441A441278D2B2013A05
:10317C00D0B21C49049A52000A44134402461A70F5
:10318C009DF816301749049A52000A4413441B78D0
:10319C00DBB2002B0AD1144A049B52F823301B6873
:1031AC000393039BDB690498984702E000238DF896
:1031BC0017309DF8163001338DF816309DF8163007
:1031CC00012BC0D99DF81730002B06D0064A049B62
:1031DC0052F823301846FFF79AFF00BF07B05DF88E
:1031EC0004FB00BFF40000200001002000B585B0F6
:1031FC000190019B1B680293029B93F820301846A8
:10320C00FFF760F800238DF80F306CE000238DF889
:10321C000E3031E09DF80F209DF80E1002981346E9
:10322C005B0013449B0003440B4408331B78FF2BB7
:10323C001DD09DF80F209DF80E10029813465B00D0
:10324C0013449B0003440B4408331B781846FFF7C8
:10325C0039F89DF80F209DF80E10029813465B006C
:10326C0013449B0003440B440833FF221A709DF84F
:10327C000E3001338DF80E309DF80E30012BC9D96C
:10328C009DF80F20029913465B0013449B000B44DE
:10329C001B68B3F1FF3F16D09DF80F20029913461F
:1032AC005B0013449B000B441B681846FEF7A8FCFC
:1032BC009DF80F20029913465B0013449B000B44AE
:1032CC004FF0FF321A609DF80F20029913465B00F5
:1032DC0013449B000B440B3300221A709DF80F30E3
:1032EC0001338DF80F309DF80F30012B8ED9019BD7
:1032FC005B681846FFF732FB00BF05B05DF804FBB6
:10330C0030B587B001900B468DF803301346ADF8FD
:10331C000030019B1B6805939DF8032013465B004E
:10332C0013449B00059A134404939DF803308DF8C5
:10333C000F30059B93F820301846FFF75BF8BDF86B
:10334C000030002B11D1049B5B7A1846FFF752F822
:10335C00049B1B7A1846FFF718F8019B5B681B79D6
:10336C001A46484BFF21995485E0BDF80020059B77
:10337C009B699A4215D3059B9B69ADF80030049B61
:10338C001B7A1846FFF736F8049B5B7A1846FEF753
:10339C00FCFF019B5B681B791A463A4BFF21995441
:1033AC0069E0049B5A68059B9B699A4249D0049B2F
:1033BC005B68002B45D0BDF80020049B5B689A42EB
:1033CC003FD2019B5868049B5A6800230321FFF7E6
:1033DC0073FB059B93F82040019B5B680321184607
:1033EC00FFF786FD0546049B9B7A002B06D0049BB9
:1033FC001B681846FEF7E2FC034605E0049B1B68BD
:10340C001846FEF79FFC03461A4629462046FEF74F
:10341C0083FF059B93F820301846FEF7B6FF019BFF
:10342C005B681B791946174A9DF803305354019B6E
:10343C005B681B791946BDF80030134A42F82130FD
:10344C0006E0019B5B681B791A460E4BFF219954D1
:10345C00019B5868BDF800209DF80F100023FFF762
:10346C002BFB049B1B7A1846FEF78FFF049B5B7AA1
:10347C001846FEF78AFFBDF80020049B5A6000BF77
:10348C0007B030BDD8000020E000002000B585B0AA
:10349C0001900B468DF803301346ADF80030019BBC
:1034AC001B6803939DF8032013465B0013449B0099
:1034BC00039A134402939DF80330012B04D92C4931
:1034CC0040F25B2000F0D3FB029BDB7A012B04D093
:1034DC0027494FF4177000F0CAFB039B93F8213077
:1034EC00022B01D008233EE0BDF80020029B5B6854
:1034FC009A420CD1039BDB69002B06D0039BDB6942
:10350C00019A526812791046984700232BE00198D3
:10351C00FFF7B0FD0346002B01D0112323E0019BE4
:10352C005B681B791A46134BFE219954BDF8002099
:10353C009DF8033019460198FFF7E2FE019B1B68CA
:10354C00DB69002B0ED0019B5B681B791A469DF83A
:10355C000330094952000A44134402221A7001989C
:10356C00FFF7C8FD0023184605B05DF804FB00BF4B
:10357C008C4B0000D8000020F400002084B0019097
:10358C000B468DF80330019B1B6803939DF80320B9
:10359C0013465B0013449B00039A13440293029B53
:1035AC005B689BB2184604B0704784B00190019BD5
:1035BC001B680393039B9B699BB2184604B070472E
:1035CC0000B585B001900B468DF803301346ADF86D
:1035DC0000300198FFF7E9FF03461A46BDF80030AA
:1035EC0002FB03F3084AA2FB03235B090393039B2F
:1035FC009AB29DF8033019460198FFF747FF03462E
:10360C00184605B05DF804FB1F85EB5110B584B06E
:10361C0001900B468DF803309DF803301946019844
:10362C00FFF7ACFF03461A46642303FB02F4019830
:10363C00FFF7BBFF0346B4FBF3F30393039B9BB26F
:10364C00184604B010BD000010B58CB00390019268
:10365C001A460B468DF80B3013468DF80A309DF840
:10366C000B30012B04D968494FF42B7000F0FFFA92
:10367C00039B1B680A939DF80B2013465B001344B5
:10368C009B000A9A134409930A9B93F82130002B50
:10369C0001D00823B4E0099B00225A60099B9DF8D5
:1036AC000A209A7203238DF81430039B19689DF835
:1036BC000B2013465B0013449B000B440A331B780E
:1036CC00002B0CBF01230023DBB28DF81530012336
:1036DC008DF8163005AB19460198FEF727FA0890BD
:1036EC00089B002B01D004238AE09DF80B200A993B
:1036FC0013465B0013449B000B44019A1A609DF81F
:10370C000A30002B03D00198FFF764FC02E001980B
:10371C00FFF74CFC00238DF82F3011E09DF82F3073
:10372C000833099A13441846FEF778FD0346002B1C
:10373C0001D0042364E09DF82F3001338DF82F3035
:10374C009DF82F30012BE9D9099B1B7A1846FEF7FF
:10375C0051FE099B5B7A1846FEF74CFE9DF80A3029
:10376C00002B06D0099B1B681846FEF727FB034667
:10377C0005E0099B1B681846FEF7E4FA034607931D
:10378C009DF80A30002B06D0099B1B681846FEF7E3
:10379C00D9FA034605E0099B1B681846FEF70EFB99
:1037AC0003460693099B1C7A039B5B689DF80B20D0
:1037BC0011461846FFF79CFB0346079A194620460C
:1037CC00FEF7AAFD099B5C7A039B5B6802211846F5
:1037DC00FFF78EFB0346069A19462046FEF79CFD22
:1037EC00099B0122DA72039B5B681B791A469DF8D0
:1037FC000B30064952000A44134400221A7000236D
:10380C0018460CB010BD00BF8C4B0000F40000201B
:10381C0084B00190002303930923029305E0019BDC
:10382C005B080193039B01330393019BB3F5805F0A
:10383C0003D3039A029B9A42F1D3074B1B78002BBC
:10384C0004D0039B002B01D101230393039BDBB218
:10385C00184604B0704700BFD400002000B58FB0EC
:10386C00059004910392059B002B04D18F4940F2E3
:10387C00113000F0FCF9049B002B01D10B2310E15B
:10388C00059B1B680C930C9B93F82130002B01D0EB
:10389C00082306E1FDF766FC0B900B9B002B04D074
:1038AC000B9B852B01D00423FBE0FEF733F9034679
:1038BC0083F00103DBB2002B07D0FEF7C7F80B90A7
:1038CC000B9B002B01D00323EBE0794B1B6803F01F
:1038DC00F003302B03D1774B00221A7002E0754BAA
:1038EC0001221A700C9BFF2283F8202000238DF8F4
:1038FC00373030E09DF837200C9913465B001344A9
:10390C009B000B440B3300221A709DF837200C9946
:10391C0013465B0013449B000B440833FF221A70C0
:10392C009DF837200C9913465B0013449B000B4405
:10393C000933FF221A709DF837200C9913465B004F
:10394C0013449B000B444FF0FF321A609DF8373044
:10395C0001338DF837309DF83730012BCAD90C9BC9
:10396C0020331846FEF75AFC0346002B04D005986A
:10397C00FFF73CFC042394E000238DF836302CE058
:10398C009DF83620049B53F82230B3F1FF3F1FD033
:10399C009DF83620049B53F822009DF83630049A8B
:1039AC0013441B7A9DF8361002460598FFF74CFE1F
:1039BC000B900B9B002B04D00598FFF717FC0B9B6F
:1039CC006FE09DF83630002219460598FFF75EFD32
:1039DC009DF8363001338DF836309DF83630012B9A
:1039EC00CED9049B1B691846FFF712FF03468DF8CE
:1039FC002B309DF82B308DF81C3000238DF81D30AA
:103A0C0000238DF81E3007238DF81F30059B5B6853
:103A1C001B790893059B5B6807A9274A1846FEF794
:103A2C00A3FE0B900B9B002B04D00598FFF7DEFB3D
:103A3C000B9B36E0059B5A68049B1B691946104684
:103A4C00FFF789FA09900C9B099A9A61059B5B68B0
:103A5C001846FFF70FF8059B5868012300930423C1
:103A6C00099A0221FFF761F8059B5B680221184651
:103A7C00FFF7C4F80C9B039ADA61059B5B681B7912
:103A8C0019460E4A059B42F82130059B5B681B7951
:103A9C001A460B4BFF2199540C9B012283F82120D1
:103AAC00002318460FB05DF804FB00BF8C4B0000E0
:103ABC00E80F00F0D4000020353100000001002098
:103ACC00D800002000B587B00190019B1B680493BF
:103ADC00049B93F82130002B04D1304940F29730ED
:103AEC0000F0C5F80023059334E0059A13465B00FB
:103AFC0013449B00049A13440393019B5B681B794A
:103B0C00274A5B001A44059B134400221A70039B3E
:103B1C00DB7A002B1BD0039B1868019B1968059A54
:103B2C0013465B0013449B000B440A331B78002B99
:103B3C000CBF01230023DBB21946FEF753F9039B9C
:103B4C001B681846FEF7A0F8039B00225A60059BE1
:103B5C0001330593059B012BC7D9019B5B681B792E
:103B6C001A46104BFF219954019B5B681B6801217D
:103B7C001846FFF777FA019B5B681846FEF77AFF49
:103B8C00019B5B681846FEF719FF049B022283F821
:103B9C00212000BF07B05DF804FB00BF8C4B000078
:103BAC00F4000020D800002072B600BF034B1B6845
:103BBC000133024A136000BF704700BF140100209C
:103BCC00064B1B68013B054A1360044B1B68002B1A
:103BDC0001D162B600BF00BF704700BF14010020C6
:103BEC0000B583B0019000F025F80346012B03D0FB
:103BFC000449432000F03BF8FFF7D6FF00BF03B0A9
:103C0C005DF804FBBC4B000000B583B003468DF897
:103C1C00073000F00FF80346012B03D00449512064
:103C2C0000F025F8FFF7CCFF00BF03B05DF804FBF4
:103C3C00BC4B000084B0EFF305830193019BC3F3ED
:103C4C0008030393039B002B0DD1EFF31483009314
:103C5C00009B0293029B03F00103002B0CBF01237A
:103C6C000023DBB200E00123184604B0704700B516
:103C7C0085B003460091ADF80630BDF806300293CE
:103C8C00009B039302AB1A46002144F20200FFF79B
:103C9C00A1F800BF05B05DF804FB0000411C8207D1
:103CAC000CD010F8012B3AB3820707D010F8012B77
:103CBC0012B3820702D010F8012BEAB14FF0013C8D
:103CCC0050F8042BCCFA52F37BB950F8042BCCFAF5
:103CDC0052F353B950F8042BCCFA52F32BB950F8D9
:103CEC00042BCCFA52F3002BEAD004381BBAB3FAEB
:103CFC0083F300EBD3000130401A704772B3844653
:103D0C0090EA01039B0721D1830709D011F8013BED
:103D1C0000F8013B013A20D08307F7D100E084463C
:103D2C00202A0AD32DE9F007B1E8F807A0E8F80734
:103D3C00203A202AF8D2BDE8F007042A06D351F81D
:103D4C00043B40F8043B043A042AF8D22AB111F897
:103D5C00013B00F8013B013AF9D16046704700BFC6
:103D6C0000220B0011001A0084465AB3830704D0BA
:103D7C0000F8011B013AF9D124E0C9B241EA012152
:103D8C0041EA0141202A11D3203A2DE9F0030B46D8
:103D9C000C460D460E460F4688468946A0E8FA03A7
:103DAC00203AFBD2BDE8F00320320BD0042A05D315
:103DBC0040F8041B043A05D0042AF9D200F8011B80
:103DCC00013AFBD16046704710B582B004460069D9
:103DDC008DF8071078B1D4E900239A4231D2626988
:103DEC00531C63618154D4E90501884229D12046D2
:103DFC0000F02CF825E0E06850B1D4E9002C6245C5
:103E0C001FD2531CB3EB0C0318BF0B46835418E0A2
:103E1C00A06858B1D4E9002C624512D2531CB3EB04
:103E2C000C0318BFCBB240F822300AE0236A43B12E
:103E3C00D4E90001884204D20DF107012046012289
:103E4C00984720680130206002B010BD10B542695F
:103E5C00002A08BF10BD0446036A002B1CBF216951
:103E6C0098470020606110BD70B5012AB8BF70BDC5
:103E7C000C460546561C28462146FFF7A5FF013E79
:103E8C00012EF8D870BDCB0648BF704789054CBFD2
:103E9C0030212021FFF7E8BF70B514460D460646C9
:103EAC0000F0AAFB014630462A462346BDE8704086
:103EBC0000F000B82DE9F04F03AF8DB047F83C3C53
:103ECC0091460E46044600F039FC0546EB46073099
:103EDC0020F00700ADEB0008C546A7F1380A5046A4
:103EEC0000212422FFF740FF43F62D70C0F20000A2
:103EFC0047E907606FF0004047F8340C47F8144C62
:103F0C0047F8205C47F8288C5046494657F83C2C1B
:103F1C0000F022F8DD46A7F10C04A546BDE8F08FB1
:103F2C00436A0846012100F0B8BA83B000B582B0EC
:103F3C000DF10C0C8CE80E0040F21C02C2F20002D7
:103F4C000146106803AA0192FFF7A6FF02B0BDE874
:103F5C00004003B0704700002DE9F04F8DB0069281
:103F6C008B460646002030600DF11E08A8F10104B6
:103F7C00049401961BF8011B252906D0002900F09A
:103F8C0077823046FFF720FFF4E7002759461BF8ED
:103F9C00012BA2F12003102B0DD88020DFE803F0B9
:103FAC00091B1B191B1B1B101B1B32131B151B1B6B
:103FBC00170040200DE05E2A0DD14FF4805008E030
:103FCC004FF4004005E0202003E0102001E04FF406
:103FDC0000700743DAE701F1010BA2F13000C0B227
:103FEC0009284FF0000019D81BF8011B00EB8000CA
:103FFC0002EB40003038A1F13002D2B20A2A0A4654
:10400C00F2D30BE0069A52F8040B0692002844BF38
:10401C0047F0100740424A7801F1020B2E2A0DD1CD
:10402C00594611F8012B2A2A0BD106999BF801202D
:10403C0051F804CB06910BF1020B18E04FF0000C79
:10404C001EE0A2F13003DBB2092B4FF0000C14D8A8
:10405C0011F8013B0CEB8C0B02EB4B02A2F1300C78
:10406C00A3F13002D2B20A2A1A46F1D38B46BCF124
:10407C00000F58BF47F4807702E047F480778B46F7
:10408C00A2F16801CBB2C90141EA5301C9B20929B5
:10409C002AD8DFE801F00814172929290529290550
:1040AC001BF8012B20E0594611F8012B682A15D179
:1040BC009BF801200BF1020B47F0080714E01BF8EA
:1040CC00012B08E0594611F8012B6C2A09D19BF8F9
:1040DC0001200BF1020B47F0020705E047F0040743
:1040EC0001E047F001078B4620EAE07A622A15DDF1
:1040FC00A2F1630015283FF63DAFDFE800F0240C79
:10410C000B0B0B0B0C0B0B0B0B36434D0B0B5C0BFC
:10411C006B0B0B172EE747F480475FE0252A00F066
:10412C00AA80582A40F0738147F40057F8054FEAEB
:10413C00076048BF27F40077782A43F2580108BF7C
:10414C0043F2780125E0DDF81890AAF1010599F801
:10415C000040304639462A46FFF795FE3046214648
:10416C00049CFFF731FE484677E1380700F1538194
:10417C00B80706993068096852BF0860002205C16B
:10418C0006984DE1F8054FEA076048BF27F4007721
:10419C00302101EAE07322E03806232101EAE070C5
:1041AC00059047F48077069A002152F8040B06928A
:1041BC004FF0080CC7E006980468002C04BF44F6C6
:1041CC001544C0F20004F805204600F12C81FFF7DD
:1041DC0065FD2BE1F80548BF27F40077002307F0B5
:1041EC0002007904059305D40028069809D1031D13
:1041FC0000210CE0A8B9069951F8040B0691C117DF
:10420C0017E0073020F0070000F108034168006850
:10421C005FEA477915D417F008091CBFC0B200211A
:10422C0011E00698073020F00703596853F8080B83
:10423C0006937B0709D43B0744BF40F3C01140B23F
:10424C0006E080B2002106931CE040F3C03100B2BE
:10425C0000290ADBBB0613D47B06DDF8149048BF9B
:10426C004FF02009CDF814900CE00023404263EB92
:10427C0001012D2305E030462521FFF7A5FD79E648
:10428C002B230593FB0548BF27F40077FB0558BF8C
:10429C004FF0010C00256E2A23DD6F3A092A00F23B
:1042AC007480DFE802F005507272727224727250E0
:1042BC0050EA010269D0C20842EA41724FF0060985
:1042CC00134669F3DF0008F80500013552EAD10006
:1042DC004FEAD1014FEAD20040EA41721846EFD1C1
:1042EC0053E0582A2FD0642A18BF692A4DD150EABE
:1042FC0001024AD0CDE902ACC24607F400460C4696
:10430C0081463EB105F00300032802BF2C200AF8B9
:10431C000500013548460A22002300F0D5F800EBD1
:10432C008002A9EB420242F0300208F80520013568
:10433C00D9F109020022A241E1D3049C0DF1040C35
:10434C009CE8401421E0002550EA01021DD0BA047B
:10435C0044F6F532C0F200025CBF44F60542C0F2EE
:10436C000002030943EA017300F00F09184612F822
:10437C00093008F80530013550EA11134FEA1111D4
:10438C004FEA101343EA0173EED1AAEB050005992D
:10439C00FF2988BF013800290A4618BF0122801A5C
:1043AC00ACEB050222EAE279A0EB090AB80507D4C6
:1043BC00304639465246FFF766FD05994FF0000A24
:1043CC00FF2904D9090A3046FFF7FEFC059900299C
:1043DC001CBF3046FFF7F8FC304639465246FFF713
:1043EC0052FD304630214A46FFF73EFD012D05DBDC
:1043FC00615D3046FFF7E8FC013DF9D8F8067FF522
:10440C00B9AD304620215246FFF72EFDB2E5002A09
:10441C007FF4B0AD3BE0069A10683168017010462D
:10442C0004300690A6E5614600F04AF9814627F46F
:10443C000077AAEB0005304639462A46FFF723FDE4
:10444C00B9F1000F07D014F8011B3046FFF7BCFC84
:10445C00B9F10109F7D1049C069804300690F806CE
:10446C007FF588AD304620212A46FFF7FDFC81E51B
:10447C00F06828B1D6E9001291423CBF00224254A8
:10448C003046FFF7E3FC30680DB0BDE8F08F3046E6
:10449C00FFF7DCFC4FF0FF30F6E7F8B51D4617468A
:1044AC000C460646184600F031F9002803D407FBE9
:1044BC0004F2A24201D20020F8BD2846314600F099
:1044CC003FF9B0FBF4F0F8BD002B35D129B9B0FBA6
:1044DC00F2FC0CFB120260467047914215D22DE99A
:1044EC00F041B2FA82F39A409940D3F1200C30FAA1
:1044FC000CFC51EA0C01984000F04EF8280036FAFA
:10450C0003F200210023BDE8F081F0B5B1FBF2FC11
:10451C000CFB1211B2FA82F39A409940D3F12006A7
:10452C0030FA06F63143984000F036F86146280020
:10453C003200DA400023F0BDF3B5B3FA83FC49082E
:10454C005FEA300013FA0CF3DCF1200432FA04F4C5
:10455C0023430CB41A0000F01FF80CBC33FA0CF314
:10456C00DCF11F0C35FA0CF518BF013D03BCA5FBA3
:10457C00026705FB0377801BB941904271EB030C7A
:10458C0005D3821A71EB0303681C0021F0BD0200F5
:10459C000B0028000021F0BD940D4FF6C2752D02C2
:1045AC00B5FBF4F4D60A013604FB04F5A5FB06565C
:1045BC00F64306EB0416550832BF00277708013581
:1045CC0005FB1677A6FB07477F0807EBC6371400D9
:1045DC001500E7FB02457F1B4D1C0400E7FB014562
:1045EC0005FB1206A64284BF013DB618964224BFB5
:1045FC000135B61A704700BF40F21811C2F2000123
:10460C000868002802BF40F20400C2F200000860F3
:10461C007047002A04BF002070478446097848B2CE
:10462C00002844BF6FF001007047BCF1000F18BFA9
:10463C00CCF800100021C3E90011002818BF01209C
:10464C0070477F298EBF6FF0010001700120704709
:10465C007F2884BF0020704744F63062C0F200020D
:10466C00515C44F6B052C0F20002105C0840704736
:10467C00A0F161011A2938BF20387047A0F141011F
:10468C001A2938BF203070477F2884BF002070471C
:10469C0044F63062C0F20002515C44F6B052C0F2F3
:1046AC000002105C08407047A0F161011A2938BF64
:1046BC0020387047A0F141011A2938BF20307047CB
:1046CC0000B500291CBF0278002A01D1002000BDD2
:1046DC00D0F800E00429034609D34FF0013CCCFA92
:1046EC005EF222B953F804EF04390329F7D8181AEB
:1046FC004FF00132C2FA5EF292FAA2F2B2FA82F2F0
:10470C00B1EBD20F88BFD108084400BD084B1B6821
:10471C0083420AD0074B1B68834206D0064B1B68AA
:10472C00181A18BF4FF0FF3070470020704700BFB9
:10473C00200000201C0000201800002040207047A2
:10474C00006800F0D3B800BF1348144A032110B519
:10475C000161134C41614FF4806182610023C4619B
:10476C000162104C836210214362C362026644668C
:10477C0081660367C3664367BFF35F8F0A4BA3F180
:10478C00100E9C46ACEB030213F8011D81547345CB
:10479C00F8D1BFF35F8F10BD38050020404E0000EC
:1047AC0038010020280100205C4E00002DE9F84360
:1047BC00C568D0F80890A9EB050890450446164644
:1047CC0009D940682844FFF799FABFF35F8F354445
:1047DC00E560BDE8F8834068284435440F464246FE
:1047EC00A5EB0905FFF78AFA60682A4607EB080172
:1047FC00FFF784FABFF35F8FE560BDE8F88300BF75
:10480C002DE9F8430646D0E90204894617464FF0D5
:10481C00000833699C4203F1FF3228BF03F1FF33D8
:10482C00A0EB04052ABF1B18131B1B1BBD4228BF82
:10483C003D469D42706828BF1D46494620442A4685
:10484C00FFF75CFAB0682C44A844A9447F1BA04233
:10485C0008BF0024BFF35F8FF460002FD9D140460E
:10486C00BDE8F88338B5204B00EB400403EBC40ED5
:10487C000130DEF82C4000EB4000012C8C46154634
:10488C0003EBC00005D0022C2AD0B4B10024204682
:10489C0038BDDEF82830DEF82440A3429CBFDEF899
:1048AC0020105B18013B1C1B944228BF1446224667
:1048BC006146FFF77BFF204638BDDEF82830DEF876
:1048CC00242093429CBFDEF820105B18013B9A1AFF
:1048DC009542DCD82A466146FFF768FF2C46D6E79E
:1048EC00BDE83840FFF78CBF38050020F8B50B4BFE
:1048FC001B7804460D4616466BB1EFF311874FF04B
:10490C00200181F31188324629462046FFF7AAFF81
:10491C0087F31188F8BDFFF717FFEEE73805002085
:10492C00072904D90023024AC0E9003110607047FE
:04493C00E005002072
:10494000633A5C6E72665F73646B5C6D6F64756C0A
:1049500065735C6E7266785C68616C5C6E72665FD3
:104960006770696F2E680000433A5C6E72665F7311
:10497000646B5C6578616D706C65735C59656E69BC
:104980005C44435F4D4F544F525C6D61696E2E63C2
:104990000000000064757479206379636C65203AC7
:1049A0002564200D0A00000007000000FFFFFFFF44
:1049B00000000000010000006400000000900040C2
:1049C0000104000024000020BC490000633A5C6E32
:1049D00072665F73646B5C6D6F64756C65735C6E3F
:1049E0007266785C68616C5C6E72665F6770696F36
:1049F0002E680000433A5C6E72665F73646B5C63A2
:104A00006F6D706F6E656E74735C626F61726473EC
:104A10005C626F617264732E6300000011121314E4
:104A20000D0E0F10633A5C6E72665F73646B5C69A7
:104A30006E746567726174696F6E5C6E7266785CC5
:104A40006E7266785F676C75652E6800633A5C6E9F
:104A500072665F73646B5C6D6F64756C65735C6EBE
:104A60007266785C68616C5C6E72665F6770696FB5
:104A70002E680000433A5C6E72665F73646B5C6D17
:104A80006F64756C65735C6E7266785C647269766F
:104A90006572735C7372635C6E7266785F6770696F
:104AA0006F74652E63000000633A5C6E72665F731C
:104AB000646B5C696E746567726174696F6E5C6E5D
:104AC0007266785C6E7266785F676C75652E6800DA
:104AD000433A5C6E72665F73646B5C6D6F64756C99
:104AE00065735C6E7266785C647269766572735C1D
:104AF0007372635C6E7266785F74696D65722E6343
:104B000000000000633A5C6E72665F73646B5C6DFC
:104B10006F64756C65735C6E7266785C68616C5C02
:104B20006E72665F74696D65722E6800633A5C6EC2
:104B300072665F73646B5C6D6F64756C65735C6EDD
:104B40007266785C647269766572735C696E636CB8
:104B50007564655C6E7266785F74696D65722E68E7
:104B600000000000633A5C6E72665F73646B5C6D9C
:104B70006F64756C65735C6E7266785C68616C5CA2
:104B80006E72665F6770696F2E680000433A5C6EF4
:104B900072665F73646B5C636F6D706F6E656E746D
:104BA000735C6C69627261726965735C70776D5C6D
:104BB0006170705F70776D2E63000000433A5C6E29
:104BC00072665F73646B5C636F6D706F6E656E743D
:104BD000735C6C69627261726965735C7574696C2F
:104BE0005C6170705F7574696C5F706C6174666F26
:104BF000726D2E63003031323334353637383941F7
:104C000042434445463031323334353637383961E2
:104C10006263646566286E756C6C2900284C000020
:104C2000584D00002C4C0000430000005D46000081
:104C30007D4600008946000095460000B54600000C
:104C4000C14600004F4600001F46000053756E002D
:104C50004D6F6E00547565005765640054687500AB
:104C60004672690053617400004A616E00466562D5
:104C7000004D617200417072004D6179004A756E9D
:104C8000004A756C0041756700536570004F63748E
:104C9000004E6F760044656300002E000053756E71
:104CA000646179004D6F6E64617900547565736459
:104CB0006179005765646E65736461790054687545
:104CC000727364617900467269646179005361743A
:104CD000757264617900004A616E7561727900468F
:104CE00065627275617279004D617263680041702E
:104CF00072696C004D6179004A756E65004A756C89
:104D000079004175677573740053657074656D62E1
:104D10006572004F63746F626572004E6F76656DE9
:104D200062657200446563656D6265720000414DA5
:104D300000504D0000256D2F25642F257900254852
:104D40003A254D3A2553002561202562202565200E
:104D500025542025590000009A4C00009C4C00006E
:104D60009C4C00009C4C00009C4C00009C4C0000A3
:104D70009C4C00009C4C00009C4C00009C4C000093
:104D8000FFFFFFFFFFFFFFFFFFFFFFFFFFFF000031
:104D90009D4C00004C4C0000D74C0000694C0000BA
:104DA0002E4D0000354D00003E4D0000474D0000E7
:104DB000202020202020202020682828282820208B
:104DC00020202020202020202020202020202020E3
:104DD000481010101010101010101010101010109B
:104DE000848484848484848484841010101010103B
:104DF0001081818181818101010101010101010194
:104E00000101010101010101010101101010101047
:104E10001082828282828202020202020202020264
:104E2000020202020202020202020210101010200C
:104E300000070320041702010857104080000000FB
:104E40005465726D696E616C000000000000000026
:0D4E5000000054545220524547474553007E
:104E60000090D0031C4C00001C4C00001C4C0000A7
:104E70001C4C00001C4C00001C01002020010020E4
:044E800024010020E9
:0400000300000219DE
:00000001FF
