:020000022000DC
:106000000000012019620200016202000362020026
:10601000056202000762020009620200000000003F
:106020000000000000000000000000000B62020001
:106030000D620200000000000F6202001162020007
:106040002DB002001362020039C402001362020084
:10605000136202001362020035C3020013620200E1
:10606000136202007D340300136202001362020017
:106070001362020013620200136202001362020044
:10608000136202002DF80200136202001362020084
:106090001362020013620200612303001362020014
:1060A0001362020013620200136202001362020014
:1060B00013620200136202000000000000000000F2
:1060C00013620200136202001362020013620200F4
:1060D000136202001362020013620200000000005B
:1060E00000000000000000000000000000000000B0
:1060F00000000000000000000000000000000000A0
:10610000000000000000000000000000000000008F
:10611000000000000000000000000000000000007F
:10612000000000000000000000000000000000006F
:10613000000000000000000000000000000000005F
:10614000000000000000000000000000000000004F
:10615000000000000000000000000000000000003F
:10616000000000000000000000000000000000002F
:10617000000000000000000000000000000000001F
:10618000000000000000000000000000000000000F
:1061900000000000000000000000000000000000FF
:1061A00000000000000000000000000000000000EF
:1061B00000000000000000000000000000000000DF
:1061C00000000000000000000000000000000000CF
:1061D00000000000000000000000000000000000BF
:1061E00000000000000000000000000000000000AF
:1061F000000000000000000000000000000000009F
:10620000FEE7FEE7FEE7FEE7FEE7FEE7FEE7FEE766
:10621000FEE7FEE700F002B8FFF7FCBF0F484FF0C3
:106220000701884385460E4880470E48016841F4BF
:1062300070010160BFF34F8FBFF36F8F00F01AB88A
:1062400009480A490A4A884207D0521A05D00378F9
:1062500001300B700131013AF9D170470000012083
:10626000D577020088ED00E0A4370300F02200207B
:10627000F0220020344935480A1A02D007229143FF
:106280008D46334933480A1A06D00722914381F3D9
:106290000988022282F314882F483049304A00F0DE
:1062A00041F830483049314A00F03CF83048314933
:1062B000314A00F037F831483149324A00F032F8BB
:1062C00031483249324A00F02DF832483249334AD7
:1062D00000F028F832483349334A00F023F83348B5
:1062E0003349002200F029F832483349002200F0F7
:1062F00024F832483249091A0DF0CCF9314A904756
:106300001F482049884205D00268043003B49047F2
:1063100003BCF7E700208646EC46002000212A4A0D
:106320009047FEE7884207D0521A05D00378013023
:106330000B700131013AF9D17047884202D00270E6
:106340000130FAE7704700000000012000E0002063
:10635000000001200000012064500300F022002012
:10636000A4230020CC630200CC630200A836030003
:1063700064500300F0220020F0220020A437030024
:10638000A4370300A4370300A4370300A437030095
:10639000A4370300A4370300A437030061500300AF
:1063A00018510300A4230020A4230020A4230020CC
:1063B000102D0020102D0020102D0020102D002069
:0C63C000104D002041620200716E0200CE
:1063CC0072DF704700BF184673DF704700BF184676
:1063DC0076DF704700BF18467ADF704700BF18465B
:1063EC007CDF704700BF18467FDF704700BF184640
:1063FC008FDF704700BF1846B1DF704700BF1846EB
:10640C0000B583B00190019B1B68184600F08EF814
:10641C000346002B04D105494FF4F67000F0ECF85C
:10642C004FF0A043184603B05DF804FBA4370300FB
:10643C0000B585B00190084611461A4603468DF802
:10644C0003300B468DF8023013468DF8013001AB4A
:10645C001846FFF7D5FF03909DF803209DF80230F6
:10646C005B001A439DF801309B001A439DF81830CD
:10647C001B0242EA03019DF81C301B04019A1943CC
:10648C00039B02F5E07243F8221000BF05B05DF8E3
:10649C0004FB00B585B00390002301930023009307
:1064AC000023012201210398FFF7C2FF00BF05B0B2
:1064BC005DF804FB00B585B0019001AB1846FFF701
:1064CC009FFF0390019B012202FA03F319460398E4
:1064DC0000F018F800BF05B05DF804FB00B585B0FE
:1064EC00019001AB1846FFF78BFF0390019B012233
:1064FC0002FA03F31946039800F00EF800BF05B03A
:10650C005DF804FB82B001900091019B009AC3F8E6
:10651C00082500BF02B0704782B001900091019B2A
:10652C00009AC3F80C2500BF02B0704784B00190EC
:10653C00019B5B09029300230393029B002B03D165
:10654C004FF0FF33039300BF019B03F01F03019334
:10655C00039A019B22FA03F303F00103002B14BFEF
:10656C0001230023DBB2184604B0704782B00190BF
:10657C00024B01221A7000BF02B0704700240020A9
:10658C0030B589B00720FFF784FF0620FFF792FF94
:10659C000820FFF7A3FF144B01AC1D460FCD0FC411
:1065AC002B68236001238DF80D3001AB0F4A19467F
:1065BC000F4801F045FF0790079B0693069B002BA5
:1065CC0004D00C4A9321069807F0AEFF084802F05D
:1065DC006BF832220021064801F002FE012000F087
:1065EC00CBFD00BF09B030BD043803007965020053
:1065FC00CC380300CC37030000B583B003460091C0
:10660C00ADF80630BDF80630009A1946034807F07D
:10661C008BFF00BF03B05DF804FB00BFEFBEADDE27
:10662C0008B51F20FFF735FF00BF08BD00B583B0CC
:10663C0008F02AFB0190019B0093009B002B04D0D7
:10664C00044AC221009807F06FFF00BF03B05DF849
:10665C0004FB00BFCC37030000B587B09DF80030B9
:10666C00012262F303038DF800309DF80030012203
:10667C0062F307138DF800306B4609221A4918464D
:10668C00FFF7AEFE0590059B0493049B002B04D0F2
:10669C00164AD121049807F047FF01AB08220021CC
:1066AC0018460CF0C1FF5023ADF80430A023ADF810
:1066BC0006300023ADF808304FF4C873ADF80A303B
:1066CC0001AB1846FFF788FE0590059B0393039BCF
:1066DC00002B04D0054ADB21039807F025FF00BFEF
:1066EC0007B05DF804FB00BF18380300CC3703007B
:1066FC0000B583B00021094803F0ECFD0190019B2B
:10670C000093009B002B04D0054AE221009807F06F
:10671C000BFF00BF03B05DF804FB00BFBC230020DF
:10672C00CC37030000B5ABB041F22353ADF81C30AD
:10673C00364B9B7C8DF81E3017AB3C220021184643
:10674C000CF072FF02238DF85C3001238DF85E3063
:10675C0006238DF85F3008AB3C22002118460CF064
:10676C0063FF0123ADF8303007AB0D93284B19684C
:10677C0017AB284A184602F07CFC2990299B2893D9
:10678C00289B002B04D0244AFC21289807F0CCFE2F
:10679C001F4B996808AB214A184602F06AFC2990F5
:1067AC00299B2793279B002B04D01B4AFF2127985A
:1067BC0007F0BAFE01AB1822002118460CF034FF8A
:1067CC0001238DF819300023ADF8103001238DF81A
:1067DC0004300023029300238DF8183040230393D8
:1067EC0001AB1A460A490E48FFF7EAFD2990299B8E
:1067FC002693269B002B05D0074A4FF487712698C9
:10680C0007F092FE00BF2BB05DF804FBA423002020
:10681C00F4220020F8220020CC37030000230020B3
:10682C00F222002000B583B00190054A40F21B1102
:10683C00019807F079FE00BF03B05DF804FB00BFC0
:10684C00CC37030000B583B003460091ADF8063099
:10685C0013468DF805309DF80530002B0ED01F2007
:10686C00FFF73CFE0E4A0F4BD31ADB081B0443F018
:10687C0003030D4918460AF039FF0DE01F20FFF7FE
:10688C0019FE074A074BD31ADB081B0443F003031A
:10689C00064918460AF02AFF00BF03B05DF804FB56
:1068AC00443703000C370300243803003838030046
:1068BC0000B587B00023029300230193144B01937E
:1068CC0001AB1946134803F0E9FD0590059B0493B1
:1068DC00049B002B05D0104A4FF4A671049807F0C6
:1068EC0023FE0E4B029302AB19460D4803F02AFF10
:1068FC000590059B0393039B002B05D0064A4FF490
:10690C00A971039807F010FE00BF07B05DF804FBF7
:10691C0031680200D0230020CC37030051680200FC
:10692C00A423002000B585B00190019B1B78002B9F
:10693C0011D10B4B1B883B211846FFF749FD0390E7
:10694C00039B0293029B002B05D0064A4FF4B471B3
:10695C00029807F0E9FD00BF05B05DF804FB00BF2D
:10696C00F0220020CC37030000B583B00190054A1B
:10697C0040F27311019807F0D7FD00BF03B05DF82A
:10698C0004FB00BFCC37030000B58BB001AB1C225D
:10699C00002118460CF048FE002301934FF4A0236D
:1069AC0002934FF4A033039303238DF8103000238C
:1069BC00ADF8123000238DF814300C4B06930C4BB1
:1069CC00079301AB184602F099FD0990099B0893B7
:1069DC00089B002B05D0074A4FF4C571089807F0A7
:1069EC00A3FD00BF0BB05DF804FB00BF31690200D2
:1069FC0075690200CC37030000B583B00C4B1B78D3
:106A0C0001211846FFF7E0FC0190019B0093009BCD
:106A1C00002B05D0074A40F29511009807F084FD31
:106A2C00002000F02DFB00BF03B05DF804FB00BF9D
:106A3C00F2220020CC37030000B58DB001900091FC
:106A4C00019B1B88562B00F0EC80562B00F3FC802E
:106A5C00522B00F0BF80522B00F3F680212B2DDC43
:106A6C00102BC0F2F180103B112B00F2ED8001A233
:106A7C0052F823F0D16A02003F6B0200556C020001
:106A8C00856B0200556C0200556C0200556C0200BF
:106A9C00556C0200556C0200556C0200556C0200DE
:106AAC00556C0200556C0200556C0200556C0200CE
:106ABC00556C0200556C0200AD6B02003B2B00F0D4
:106ACC009D80C1E0694A6A4BD31ADB081B0443F072
:106ADC000303684918460AF009FE012000F0D0FAB9
:106AEC00002000F0E7FA019B9A88634B1A80624BF6
:106AFC001B881946614803F0F3FC0B900B9B049325
:106B0C00049B002B05D05E4A4FF4D671049807F015
:106B1C000BFD07F049FC0B900B9B0393039B002B85
:106B2C0000F09480564A4FF4D771039807F0FCFCA0
:106B3C008CE04E4A4E4BD31ADB081B0443F0030384
:106B4C00504918460AF0D2FD012000F0B3FA4A4B26
:106B5C004FF6FF721A8007F053FC0B900B9B0593BA
:106B6C00059B002B05D0464A4FF4DB71059807F0C6
:106B7C00DBFCFFF741FF74E03F4B18880023002239
:106B8C008521FFF731FC0B900B9B0693069B002B8A
:106B9C005ED03B4A4FF4E071069807F0C5FC57E015
:106BAC0000238DF8083000238DF80930019B9B8859
:106BBC0002AA11461846FFF71BFC0B900B9B079380
:106BCC00079B002B46D02E4A4FF4E671079807F02E
:106BDC00ABFC3FE0284B1888002300220021FFF774
:106BEC000BFC0B900B9B0993099B002B34D0244A74
:106BFC004FF4E971099807F097FC2DE0019B9B88F5
:106C0C0013211846FFF7E4FB0B900B9B0893089B92
:106C1C00002B23D01A4A4FF4ED71089807F084FC2E
:106C2C001CE0019B9B8813211846FFF7D1FB0B90AE
:106C3C000B9B0A930A9B002B12D0114A4FF4F17153
:106C4C000A9807F071FC0BE000BF0AE000BF08E0F7
:106C5C0000BF06E000BF04E000BF02E000BF00E0A0
:106C6C0000BF00BF0DB05DF804FB00BF443703004C
:106C7C000C37030074380300F0220020D0230020CE
:106C8C00CC3703008038030000B587B00BF0E0FA76
:106C9C000590059B0493049B002B05D0164A40F2EB
:106CAC00F511049807F040FC0023019301AB194641
:106CBC0001200BF085FB0590059B0393039B002B98
:106CCC0005D00D4A40F2FB11039807F02DFC01ABE7
:106CDC0018460BF069FC0590059B0293029B002B58
:106CEC0005D0054A40F2FF11029807F01DFC00BFC9
:106CFC0007B05DF804FB00BFCC37030000B585B0CE
:106D0C0003460A468DF8073013468DF806309DF879
:106D1C0007300D2B2FD11F4A1F4BD31ADB081B0436
:106D2C0043F003031D4918460AF0E0FC1C4B1B887A
:106D3C009DF806201B49184603F0A0FD0390039B09
:106D4C00002B21D0039B43F2020293421CD0039BE5
:106D5C00082B19D0039B43F20142934214D0039B9E
:106D6C000293029B002B0FD00F4A40F21321029882
:106D7C0007F0DAFB08E09DF807300B4A4FF4067178
:106D8C00184607F0D1FB00E000BF00BF05B05DF86E
:106D9C0004FB00BF443703000C370300903803009A
:106DAC00F0220020A4230020CC37030000B583B0D0
:106DBC0040F233320121094807F06EFA0190019B31
:106DCC000093009B002B05D0054A4FF40B710098E3
:106DDC0007F0AAFB00BF03B05DF804FB04230020FE
:106DEC00CC37030000B583B04FF4804100200AF08B
:106DFC00A7F90190019B0093009B002B05D0064A3C
:106E0C004FF40D71009807F08FFB0AF02FF900BFBB
:106E1C0003B05DF804FB00BFCC37030000B583B0B2
:106E2C0009F0D6FD0190019B0093009B002B05D02F
:106E3C00044A4FF41071009807F076FB00BF03B0C2
:106E4C005DF804FBCC37030008B50AF0ABFC034635
:106E5C0083F00103DBB2002B01D009F0CFFD00BFA2
:106E6C0008BD000008B5FFF7BDFFFFF79FFFFFF758
:106E7C00D7FBFFF7DBFBFFF783FBFFF7CFFFFFF73A
:106E8C0003FFFFF7E9FBFFF733FCFFF711FDFFF7FB
:106E9C0049FCFFF779FD084A084BD31ADB081B04A1
:106EAC0043F00303064918460AF020FCFFF7A4FD43
:106EBC00FFF7CAFFFCE700BF443703000C370300A1
:106ECC00AC38030000B583B00190019B1B681846D9
:106EDC0000F0B5F80346002B04D105494FF4F670C9
:106EEC00FFF78AFB4FF0A043184603B05DF804FB94
:106EFC00D438030000B585B00190084611461A46F7
:106F0C0003468DF803300B468DF8023013468DF88E
:106F1C00013001AB1846FFF7D5FF03909DF8032015
:106F2C009DF802305B001A439DF801309B001A4318
:106F3C009DF818301B0242EA03019DF81C301B041B
:106F4C00019A1943039B02F5E07243F8221000BF2B
:106F5C0005B05DF804FB00B585B0039000230193E8
:106F6C00002300930023012201210398FFF7C2FFA5
:106F7C0000BF05B05DF804FB00B585B003900B466F
:106F8C008DF80B309DF80B300022019200220092FC
:106F9C00002200210398FFF7ADFF00BF05B05DF89C
:106FAC0004FB00B585B0019001AB1846FFF78AFFD2
:106FBC000390019B012202FA03F31946039800F097
:106FCC002AF800BF05B05DF804FB00B585B0019050
:106FDC0001AB1846FFF776FF0390019B012202FAE2
:106FEC0003F31946039800F020F800BF05B05DF8D4
:106FFC0004FB00B583B001900091009B002B03D1E2
:10700C000198FFF7E2FF02E00198FFF7CAFF00BF0B
:10701C0003B05DF804FB82B001900091019B009AD3
:10702C00C3F8082500BF02B0704782B001900091F0
:10703C00019B009AC3F80C2500BF02B0704784B0C6
:10704C000190019B5B09029300230393029B002B8D
:10705C0003D14FF0FF33039300BF019B03F01F03D9
:10706C000193039A019B22FA03F303F00103002B13
:10707C0014BF01230023DBB2184604B07047000094
:10708C0000B583B00190019B032B03D90749412024
:10709C00FFF7B2FA064A019B13441B7800211846ED
:1070AC00FFF7A7FF00BF03B05DF804FBFC3803003B
:1070BC002439030000B583B00190019B032B03D945
:1070CC0007494720FFF798FA064A019B13441B789F
:1070DC0001211846FFF78DFF00BF03B05DF804FBDC
:1070EC00FC3803002439030000B583B0002301935E
:1070FC0005E00198FFF7DEFF019B01330193019B33
:10710C00032BF6D900BF00BF03B05DF804FB0000F1
:10711C0000B583B00023019309E0094A019B134495
:10712C001B781846FFF717FF019B01330193019B56
:10713C00032BF2D9FFF7D8FF00BF03B05DF804FBB7
:10714C002439030000B583B0002301930AE0094AF7
:10715C00019B13441B7803211846FFF70DFF019B7D
:10716C0001330193019B032BF1D900BF00BF03B086
:10717C005DF804FB2839030000B583B00190019B36
:10718C0003F00103002B01D0FFF7C2FF019B03F0BA
:10719C000203002B01D0FFF7D5FF00BF03B05DF851
:1071AC0004FB0000BFF34F8F00BF064BDB6803F4FA
:1071BC00E0620449044B1343CB60BFF34F8F00BF15
:1071CC0000BFFDE700ED00E00400FA0582B01D4BA6
:1071DC001B68B3F1FF3F0AD11B4B1B68DBB2019359
:1071EC001A4B1B681B0903F00F03009305E0154BAA
:1071FC001B680193164B1B680093019B062B1DD13A
:10720C00009B033B042B17D801A252F823F000BFBC
:10721C003172020035720200397202003D720200B6
:10722C004172020001230AE0012308E0012306E079
:10723C00012304E0012302E0012300E000231846AF
:10724C0002B0704730010010E00F00F0E80F00F0C2
:10725C003401001082B0174B1B68DBB20193164B44
:10726C001B681B0903F00F030093019B062B1DD118
:10727C00009B033B042B17D801A252F823F000BF4C
:10728C00A1720200A5720200A9720200AD72020086
:10729C00B172020001230AE0002308E0002306E09B
:1072AC00002304E0002302E0002300E00023184642
:1072BC0002B07047E00F00F0E80F00F082B01D4BF9
:1072CC001B68B3F1FF3F0AD11B4B1B68DBB2019368
:1072DC001A4B1B681B0903F00F03009305E0154BB9
:1072EC001B680193164B1B680093019B062B1DD149
:1072FC00009B033B042B17D801A252F823F000BFCC
:10730C002173020025730200297302002D73020001
:10731C003173020001230AE0012308E0012306E097
:10732C00012304E0012302E0012300E000231846BE
:10733C0002B0704730010010E00F00F0E80F00F0D1
:10734C003401001082B0174B1B68DBB20193164B53
:10735C001B681B0903F00F030093019B062B1DD127
:10736C00009B033B042B17D801A252F823F000BF5B
:10737C009173020095730200997302009D730200D1
:10738C00A173020001230AE0002308E0002306E0B9
:10739C00002304E0002302E0002300E00023184651
:1073AC0002B07047E00F00F0E80F00F082B01D4B08
:1073BC001B68B3F1FF3F0AD11B4B1B68DBB2019377
:1073CC001A4B1B681B0903F00F03009305E0154BC8
:1073DC001B680193164B1B680093019B062B1DD158
:1073EC00009B033B042B17D801A252F823F000BFDB
:1073FC001174020015740200197402001D7402004D
:10740C002174020001230AE0012308E0012306E0B5
:10741C00012304E0012302E0012300E000231846CD
:10742C0002B0704730010010E00F00F0E80F00F0E0
:10743C003401001082B0174B1B68DBB20193164B62
:10744C001B681B0903F00F030093019B062B1DD136
:10745C00009B033B042B17D801A252F823F000BF6A
:10746C008174020085740200897402008D7402001C
:10747C009174020001230AE0002308E0002306E0D7
:10748C00002304E0002302E0002300E00023184660
:10749C0002B07047E00F00F0E80F00F082B0174B1D
:1074AC001B68DBB20193164B1B681B0903F00F031F
:1074BC000093019B062B1DD1009B033B042B17D87B
:1074CC0001A252F823F000BFE9740200ED7402002F
:1074DC00F1740200F5740200F974020001230AE051
:1074EC00002308E0002306E0002304E0002302E070
:1074FC00002300E00023184602B07047E00F00F0B4
:10750C00E80F00F082B01D4B1B68B3F1FF3F0AD1AE
:10751C001B4B1B68DBB201931A4B1B681B0903F056
:10752C000F03009305E0154B1B680193164B1B686A
:10753C000093019B062B1DD1009B033B042B17D8FA
:10754C0001A252F823F000BF697502006D750200AC
:10755C0071750200757502007975020000230AE04E
:10756C00002308E0012306E0012304E0012302E0EC
:10757C00012300E00023184602B0704730010010D0
:10758C00E00F00F0E80F00F03401001082B01D4B4A
:10759C001B68B3F1FF3F0AD11B4B1B68DBB2019395
:1075AC001A4B1B681B0903F00F03009305E0154BE6
:1075BC001B680193164B1B680093019B062B1DD176
:1075CC00009B033B042B17D801A252F823F000BFF9
:1075DC00F1750200F5750200F9750200FD750200E7
:1075EC000176020001230AE0012308E0012306E0F2
:1075FC00012304E0012302E0012300E000231846EC
:10760C0002B0704730010010E00F00F0E80F00F0FE
:10761C003401001082B01D4B1B68B3F1FF3F0AD13F
:10762C001B4B1B68DBB201931A4B1B681B0903F045
:10763C000F03009305E0154B1B680193164B1B6859
:10764C000093019B062B1DD1009B033B042B17D8E9
:10765C0001A252F823F000BF797602007D76020079
:10766C0081760200857602008976020001230AE009
:10767C00012308E0012306E0012304E0012302E0DA
:10768C00012300E00023184602B0704730010010BF
:10769C00E00F00F0E80F00F03401001082B0154B41
:1076AC001B680193144B1B680093019B062B1DD187
:1076BC00009B033B042B17D801A252F823F000BF08
:1076CC00E1760200E5760200E9760200ED76020032
:1076DC00F176020000230AE0002308E0002306E014
:1076EC00012304E0012302E0012300E000231846FB
:1076FC0002B07047300100103401001082B0154BFD
:10770C001B680193144B1B680093019B062B1DD126
:10771C00009B033B042B17D801A252F823F000BFA7
:10772C004177020045770200497702004D7702004D
:10773C005177020000230AE0002308E0002306E052
:10774C00002304E0012302E0012300E0002318469B
:10775C0002B07047300100103401001008B5FFF77B
:10776C00CDFF0346002B07D04FF010234FF0804283
:10777C00D3F80832C2F8583500BF08BD00BF044B1F
:10778C00D3F80034002BFAD000BF00BF704700BF05
:10779C0000E0014000B583B00190054A019BC2F89E
:1077AC000435FFF7EBFF00BF03B05DF804FB00BF2F
:1077BC0000E00140024B034A1A6000BF704700BF53
:1077CC000C2300200090D00308B5FFF7FFFC034604
:1077DC00002B06D0964B1B681B0A964A03F01F031E
:1077EC001360FFF737FD0346002B02D0924B934AF0
:1077FC001A60FFF763FD0346002B06D0904B1B6805
:10780C005B0B904A03F007031360FFF79BFD0346E5
:10781C00002B05D08C4BDB688B4A23F08073D36034
:10782C00FFF7C4FD0346002B0ED04FF0804300221F
:10783C00C3F80C214FF080430022C3F810214FF005
:10784C0080430022C3F83825FFF7F4FD0346002BD4
:10785C0002D07E4B03221A60FFF720FE0346002B5A
:10786C000BD07B4B05221A607A4B01221A607A4BA3
:10787C0000221A60794B3F221A60FFF743FE034641
:10788C00002B76D04FF08053754AD3F80434C2F8ED
:10789C0020354FF08053724AD3F80834C2F824359F
:1078AC004FF080536E4AD3F80C34C2F828354FF0A1
:1078BC0080536B4AD3F81034C2F82C354FF08053F8
:1078CC00674AD3F81434C2F830354FF08053644A09
:1078DC00D3F81834C2F834354FF08053604AD3F8DB
:1078EC001C34C2F840354FF080535D4AD3F8203435
:1078FC00C2F844354FF08053594AD3F82434C2F8B7
:10790C0048354FF08053564AD3F82834C2F84C35DA
:10791C004FF08053524AD3F82C34C2F850354FF004
:10792C0080534F4AD3F83034C2F854354FF080535B
:10793C004B4AD3F83434C2F860354FF08053484A80
:10794C00D3F83834C2F864354FF08053444AD3F836
:10795C003C34C2F868354FF08053414AD3F8403478
:10796C00C2F86C354FF080533D4AD3F84434C2F81A
:10797C007035FFF70BFE0346002B05D0394B1B6807
:10798C00394A03F04F031360FFF744FE0346002B04
:10799C000DD04FF08043D3F8003403F00103002BDB
:1079AC0005D04FF080436FF00102C3F80024FFF7BD
:1079BC0075FE0346002B05D02C4B1B682B4A43F459
:1079CC00806313602A4BD3F88830294A43F4700340
:1079DC00C2F88830BFF34F8F00BFBFF36F8F00BF6B
:1079EC00FFF7BCFE4FF01023D3F80032002B05DB61
:1079FC004FF01023D3F80432002B15DA0120FFF7D7
:107A0C00C9FE4FF010231522C3F80022FFF7B6FE73
:107A1C004FF010231522C3F80422FFF7AFFE00200D
:107A2C00FFF7B8FEFFF7BEFBFFF7C4FE00BF08BDB3
:107A3C00240300104035014074C007400DF0ADBA6E
:107A4C00440200103C050040F0ED00E0A0050040B1
:107A5C0010560040885600401856004014560040FE
:107A6C0000C0004058020010E40E00403C170040DB
:107A7C0000ED00E082B001900B46ADF80230BDF88D
:107A8C000230019A1344184602B0704782B001903C
:107A9C00019BD3F81035DBB2184602B0704782B0A8
:107AAC0001900B468DF803309DF80320019B02F5E5
:107ABC00A87253F82230184602B0704782B0019079
:107ACC00019B9B0003F5A0739BB2184602B0704754
:107ADC00F0B587B001900B468DF803309DF803305C
:107AEC000593019B00221E4617464FF000024FF0F3
:107AFC0000033B0143EA167332010599C1F12006DC
:107B0C00A1F1200022FA01F403FA06F6344323FA19
:107B1C0000F0044323FA01F5CDE90245DDE9022327
:107B2C00012B04D3044940F2B920FEF765FD029BFA
:107B3C00184607B0F0BD00BF2C39030010B582B059
:107B4C0001900091019B5B791A46009B934204D3F0
:107B5C00094940F27110FEF74FFD019B1C6800981B
:107B6C00FFF7ACFF034619462046FFF783FF034699
:107B7C00184602B010BD00BF5439030000B583B0E5
:107B8C0001900B468DF80330019B1B689DF8032078
:107B9C0011461846FFF783FF0346184603B05DF8FD
:107BAC0004FB00B583B001900091019B1B68184643
:107BBC00FFF76CFF034619460098FFF789FF034651
:107BCC00184603B05DF804FB00B583B00190019B2F
:107BDC001B68184600F04CF80346002B04D10549ED
:107BEC004FF4F670FEF708FD4FF0A043184603B0B3
:107BFC005DF804FB8C39030000B585B0019001AB36
:107C0C001846FFF7E1FF0390019B012202FA03F3F0
:107C1C001946039800F018F800BF05B05DF804FB96
:107C2C0000B585B0019001AB1846FFF7CDFF03906E
:107C3C00019B012202FA03F31946039800F00EF897
:107C4C0000BF05B05DF804FB82B001900091019B70
:107C5C00009AC3F8082500BF02B0704782B00190AB
:107C6C000091019B009AC3F80C2500BF02B070472D
:107C7C0084B00190019B5B09029300230393029B48
:107C8C00002B03D14FF0FF33039300BF019B03F094
:107C9C001F030193039A019B22FA03F303F00103E0
:107CAC00002B14BF01230023DBB2184604B070472D
:107CBC0082B001900B468DF8033000BF02B07047C4
:107CCC0000B585B00190019B5B681B791A461A4B75
:107CDC009B5C8DF80E3001238DF80F309DF80E3023
:107CEC00FF2B20D09DF80E30FE2B1FD0019B5B6824
:107CFC009DF80E2011461846FFF740FF0246019BE7
:107D0C005B681B7919460D4B53F821309A420DD103
:107D1C00019B5B681B791A46074BFF219954002382
:107D2C008DF80F3002E000238DF80F309DF80F30E6
:107D3C00184605B05DF804FB442400204C240020B8
:107D4C0000B583B00190019B5B68022118460BF0D3
:107D5C00DBFA00BF03B05DF804FB00B583B0019003
:107D6C00019B5B68022118460BF008FB00BF03B0B7
:107D7C005DF804FB00B587B003460091ADF8063002
:107D8C00009B049301238DF8173000238DF81630D7
:107D9C003AE09DF816302649049A52000A441344DE
:107DAC001B78DBB2002B2AD09DF816302049049AA0
:107DBC0052000A441A441278D2B2013AD0B21C4989
:107DCC00049A52000A44134402461A709DF8163065
:107DDC001749049A52000A4413441B78DBB2002B57
:107DEC000AD1144A049B52F823301B680393039B5B
:107DFC00DB690498984702E000238DF817309DF852
:107E0C00163001338DF816309DF81630012BC0D981
:107E1C009DF81730002B06D0064A049B52F82330ED
:107E2C001846FFF79AFF00BF07B05DF804FB00BFD0
:107E3C00602400206C24002000B585B00190019BCB
:107E4C001B680293029B93F8203018460AF0E0FD61
:107E5C0000238DF80F306CE000238DF80E3031E0EC
:107E6C009DF80F209DF80E10029813465B001344EA
:107E7C009B0003440B4408331B78FF2B1DD09DF84B
:107E8C000F209DF80E10029813465B0013449B00C4
:107E9C0003440B4408331B7818460AF0B9FD9DF8CF
:107EAC000F209DF80E10029813465B0013449B00A4
:107EBC0003440B440833FF221A709DF80E30013333
:107ECC008DF80E309DF80E30012BC9D99DF80F207E
:107EDC00029913465B0013449B000B441B68B3F1DF
:107EEC00FF3F16D09DF80F20029913465B001344F8
:107EFC009B000B441B68184603F0EEFE9DF80F2008
:107F0C00029913465B0013449B000B444FF0FF3265
:107F1C001A609DF80F20029913465B0013449B00D6
:107F2C000B440B3300221A709DF80F3001338DF87F
:107F3C000F309DF80F30012B8ED9019B5B681846D2
:107F4C000BF0CCF800BF05B05DF804FB30B587B082
:107F5C0001900B468DF803301346ADF80030019BB1
:107F6C001B6805939DF8032013465B0013449B008C
:107F7C00059A134404939DF803308DF80F30059B3C
:107F8C0093F8203018460AF0E2FDBDF80030002BC3
:107F9C0011D1049B5B7A18460AF0D9FD049B1B7A1D
:107FAC0018460AF09FFD019B5B681B791A46484BEB
:107FBC00FF21995485E0BDF80020059B9B699A42EE
:107FCC0015D3059B9B69ADF80030049B1B7A1846B2
:107FDC000AF0BDFD049B5B7A18460AF083FD019BF9
:107FEC005B681B791A463A4BFF21995469E0049B54
:107FFC005A68059B9B699A4249D0049B5B68002B8D
:10800C0045D0BDF80020049B5B689A423FD2019B8F
:10801C005868049B5A68002303210BF00DF9059B4B
:10802C0093F82040019B5B6803211846FFF786FDFF
:10803C000546049B9B7A002B06D0049B1B681846B4
:10804C0003F028FF034605E0049B1B68184603F069
:10805C00E5FE03461A46294620460AF00AFD059B12
:10806C0093F8203018460AF03DFD019B5B681B79A4
:10807C001946174A9DF803305354019B5B681B79D2
:10808C001946BDF80030134A42F8213006E0019B36
:10809C005B681B791A460E4BFF219954019B58685B
:1080AC00BDF800209DF80F1000230BF0C5F8049BC1
:1080BC001B7A18460AF016FD049B5B7A18460AF0E8
:1080CC0011FDBDF80020049B5A6000BF07B030BD05
:1080DC00442400204C24002000B585B001900B46B0
:1080EC008DF803301346ADF80030019B1B680393E9
:1080FC009DF8032013465B0013449B00039A134422
:10810C0002939DF80330012B04D92C4940F25B20DB
:10811C00FEF772FA029BDB7A012B04D027494FF44D
:10812C001770FEF769FA039B93F82130022B01D0EC
:10813C0008233EE0BDF80020029B5B689A420CD1FC
:10814C00039BDB69002B06D0039BDB69019A526809
:10815C0012791046984700232BE00198FFF7B0FDE9
:10816C000346002B01D0112323E0019B5B681B7994
:10817C001A46134BFE219954BDF800209DF803308C
:10818C0019460198FFF7E2FE019B1B68DB69002B87
:10819C000ED0019B5B681B791A469DF80330094988
:1081AC0052000A44134402221A700198FFF7C8FDCA
:1081BC000023184605B05DF804FB00BFB43903007A
:1081CC00442400206024002084B00190019B1B6893
:1081DC000393039B9B699BB2184604B07047000045
:1081EC0000B585B001900B468DF803301346ADF801
:1081FC0000300198FFF7E8FF03461A46BDF800303F
:10820C0002FB03F3084AA2FB03235B090393039BC2
:10821C009AB29DF8033019460198FFF75DFF0346AB
:10822C00184605B05DF804FB1F85EB5110B58CB0FA
:10823C00039001921A460B468DF80B3013468DF8BD
:10824C000A309DF80B30012B04D968494FF42B7080
:10825C00FEF7D2F9039B1B680A939DF80B2013467B
:10826C005B0013449B000A9A134409930A9B93F8EE
:10827C002130002B01D00823B4E0099B00225A6066
:10828C00099B9DF80A209A7203238DF81430039BE6
:10829C0019689DF80B2013465B0013449B000B449C
:1082AC000A331B78002B0CBF01230023DBB28DF8A3
:1082BC00153001238DF8163005AB1946019803F0E3
:1082CC00A1FC0890089B002B01D004238AE09DF8A8
:1082DC000B200A9913465B0013449B000B44019A34
:1082EC001A609DF80A30002B03D00198FFF798FC18
:1082FC0002E00198FFF780FC00238DF82F3011E08D
:10830C009DF82F300833099A134418460AF026FBBF
:10831C000346002B01D0042364E09DF82F30013379
:10832C008DF82F309DF82F30012BE9D9099B1B7A42
:10833C0018460AF00CFC099B5B7A18460AF007FCFD
:10834C009DF80A30002B06D0099B1B68184603F0D9
:10835C00A1FD034605E0099B1B68184603F05EFD72
:10836C00034607939DF80A30002B06D0099B1B6827
:10837C00184603F053FD034605E0099B1B6818469D
:10838C0003F088FD03460693099B1C7A039B5B68EC
:10839C009DF80B2011461846FFF7D0FB0346079AB1
:1083AC00194620460AF065FB099B5C7A039B5B68C7
:1083BC0002211846FFF7C2FB0346069A19462046CF
:1083CC000AF057FB099B0122DA72039B5B681B794D
:1083DC001A469DF80B30064952000A4413440022F9
:1083EC001A70002318460CB010BD00BFB43903003E
:1083FC006024002084B0019000230393092302938E
:10840C0005E0019B5B080193039B01330393019BE4
:10841C00B3F5805F03D3039A029B9A42F1D3074BC7
:10842C001B78002B04D0039B002B01D10123039359
:10843C00039BDBB2184604B0704700BF43240020F6
:10844C0000B58FB0059004910392059B002B04D1CD
:10845C008F4940F21130FEF7CFF8049B002B01D16D
:10846C000B2310E1059B1B680C930C9B93F821309C
:10847C00002B01D0082306E10AF09AF90B900B9B14
:10848C00002B04D00B9B852B01D00423FBE003F0C5
:10849C00ADFB034683F00103DBB2002B07D003F0E6
:1084AC0041FB0B900B9B002B01D00323EBE0794B92
:1084BC001B6803F0F003302B03D1774B00221A70AA
:1084CC0002E0754B01221A700C9BFF2283F82020CE
:1084DC0000238DF8373030E09DF837200C99134687
:1084EC005B0013449B000B440B3300221A709DF865
:1084FC0037200C9913465B0013449B000B44083344
:10850C00FF221A709DF837200C9913465B00134418
:10851C009B000B440933FF221A709DF837200C99ED
:10852C0013465B0013449B000B444FF0FF321A6060
:10853C009DF8373001338DF837309DF83730012BEB
:10854C00CAD90C9B203318460AF008FA0346002BB4
:10855C0004D00598FFF770FC042394E000238DF8F9
:10856C0036302CE09DF83620049B53F82230B3F1C2
:10857C00FF3F1FD09DF83620049B53F822009DF836
:10858C003630049A13441B7A9DF83610024605982F
:10859C00FFF74CFE0B900B9B002B04D00598FFF7BC
:1085AC004BFC0B9B6FE09DF836300022194605986A
:1085BC00FFF792FD9DF8363001338DF836309DF87B
:1085CC003630012BCED9049B1B691846FFF712FFDE
:1085DC0003468DF82B309DF82B308DF81C30002382
:1085EC008DF81D3000238DF81E3007238DF81F30B9
:1085FC00059B5B681B790893059B5B6807A9274A59
:10860C0018460AF069FC0B900B9B002B04D00598C4
:10861C00FFF712FC0B9B36E0059B5A68049B1B6909
:10862C0019461046FFF7BDFA09900C9B099A9A61FE
:10863C00059B5B6818460AF0DDFD059B5868012315
:10864C0000930423099A02210AF02FFE059B5B6814
:10865C00022118460AF092FE0C9B039ADA61059BE4
:10866C005B681B7919460E4A059B42F82130059B25
:10867C005B681B791A460B4BFF2199540C9B01220A
:10868C0083F82120002318460FB05DF804FB00BFCF
:10869C00B4390300E80F00F043240020817D020070
:1086AC006C2400204424002000B587B00190019B6D
:1086BC001B680493049B93F82130002B04D13049A0
:1086CC0040F29730FDF798FF0023059334E0059AAC
:1086DC0013465B0013449B00049A13440393019BC1
:1086EC005B681B79274A5B001A44059B13440022E4
:1086FC001A70039BDB7A002B1BD0039B1868019B21
:10870C001968059A13465B0013449B000B440A330B
:10871C001B78002B0CBF01230023DBB2194603F09E
:10872C00CDFB039B1B68184603F01AFB039B00222E
:10873C005A60059B01330593059B012BC7D9019BFF
:10874C005B681B791A46104BFF219954019B5B689F
:10875C001B6801211846FFF7ABFA019B5B681846B2
:10876C000AF048FD019B5B6818460AF0E7FC049B85
:10877C00022283F8212000BF07B05DF804FB00BF84
:10878C00B439030060240020442400206DDF7047BE
:10879C0000BF184679DF704700BF18467DDF704771
:1087AC0000BF184664DF704700BF184682B003460E
:1087BC000091ADF80630BDF80630DAB2009B1A70A5
:1087CC00BDF806301B0A9AB2009B0133D2B21A7064
:1087DC000223184602B0704700B589B0039002918D
:1087EC001346ADF80630029B1B8803F10902BDF855
:1087FC0006309A4201D90C2353E004AB1846FFF71C
:10880C00C5FF0790079B0693069B002B01D0069B88
:10881C0047E0029B1B881A46039B134408221A70DC
:10882C00029B1B8801339AB2029B1A80029B1B8805
:10883C001A46039B13441B221A70029B1B8801339C
:10884C009AB2029B1A80029B1B881A46039B9818AB
:10885C0004AB0133062219460AF0B0FE029B1B88BA
:10886C0006339AB2029B1A809DF8103023F0010354
:10887C00DBB2002B07D1029B1B881A46039B1344C7
:10888C0000221A7006E0029B1B881A46039B1344B5
:10889C0001221A70029B1B8801339AB2029B1A8028
:1088AC000023184609B05DF804FB00B589B00390AD
:1088BC0002910192ADF80230039B1B78012B05D17C
:1088CC00039B5B78002B01D1072391E0019B1B8854
:1088DC009A1CBDF802309A420ED8039B1B78012BD0
:1088EC000CD1019B1B881A46039B5B7813449A1C82
:1088FC00BDF802309A4201D90C2379E0019B1B8808
:10890C00BDF80220D31A9BB2023BADF81C30BDF867
:10891C001C30ADF81230019B1B880233029A1344B1
:10892C000DF1120211461846FFF738FF0690069B10
:10893C000593059B002B01D0059B59E0039B1B78ED
:10894C00022B06D0039B5B781A46BDF812309A4274
:10895C0009D3BDF81230BDF81C209A4203D3092369
:10896C008DF81F3016E008238DF81F30039B1B7801
:10897C00012B0BD1039B5B781A46BDF81C3093423C
:10898C0004D3039B5B78ADF8123003E0BDF81C30C8
:10899C00ADF81230BDF81230FE2B01D90C2327E0B4
:1089AC00BDF81230DAB2019B1B881946029B0B44AE
:1089BC000132D2B21A70019B1B8801339AB2019B0F
:1089CC001A80019B1B881A46029B13449DF81F209A
:1089DC001A70019B1B8801339AB2019B1A80019B70
:1089EC001A88BDF8123013449AB2019B1A800023E6
:1089FC00184609B05DF804FB00B589B003900291EC
:108A0C001346ADF80630029B1B881A1DBDF80630C4
:108A1C009A4201D90C233AE00DF116031846FFF7E0
:108A2C00B9FE0790079B0693069B002B01D0069B73
:108A3C002DE0029B1B881A46039B134403221A70D9
:108A4C00029B1B8801339AB2029B1A80029B1B88E3
:108A5C001A46039B134419221A70029B1B8801337C
:108A6C009AB2029B1A80BDF81620029B1B881946ED
:108A7C00039B0B4419461046FFF798FE03461A4613
:108A8C00029B1B8813449AB2029B1A80002318463F
:108A9C0009B05DF804FB84B0029101921A460346BA
:108AAC008DF80F301346ADF80C30019B1B88DA1C87
:108ABC00BDF80C309A4201D90C2328E0019B1B888D
:108ACC001A46029B134402221A70019B1B88013325
:108ADC009AB2019B1A80019B1B881A46029B134475
:108AEC0001221A70019B1B8801339AB2019B1A80D8
:108AFC00019B1B881A46029B13449DF80F201A7089
:108B0C00019B1B8801339AB2019B1A8000231846E3
:108B1C0004B0704784B0029101921A4603468DF856
:108B2C000F301346ADF80C30019B1B88DA1CBDF8D6
:108B3C000C309A4201D90C2328E0019B1B881A4661
:108B4C00029B134402221A70019B1B8801339AB2B8
:108B5C00019B1A80019B1B881A46029B13440A2214
:108B6C001A70019B1B8801339AB2019B1A80019BDE
:108B7C001B881A46029B13449DF80F201A70019B08
:108B8C001B8801339AB2019B1A800023184604B04B
:108B9C00704700B58FB0039001930B468DF80B30E6
:108BAC0013468DF80A3000238DF83330109B1B8848
:108BBC00ADF8303000230D9370E0039B5A680D9B89
:108BCC009B001A4405AB106818600DF11B0105AB36
:108BDC0000221846FFF7E6FD0A900A9B0993099BB1
:108BEC00002B01D0099B7BE09DF81B309DF80A20DF
:108BFC009A4250D19DF83330002B01D0002300E075
:108C0C0002238DF82330109B1B881A469DF81B30CD
:108C1C001A449DF823301A44BDF844309A4201DDC1
:108C2C000C235DE09DF8333083F00103DBB2002BA5
:108C3C0016D0109B1B8801339AB2109B1A80109B84
:108C4C001B881A46019B13449DF80B201A70109B2D
:108C5C001B8801339AB2109B1A8001238DF8333094
:108C6C00109B1B881A46019B1A440DF11B0105AB86
:108C7C001846FFF797FD0A900A9B0793079B002B5A
:108C8C0001D0079B2CE0109B1B889DF81B201344E4
:108C9C009AB2109B1A800D9B01330D93039B1B887A
:108CAC001A460D9B934288DB9DF83330002B16D06F
:108CBC00109B1A88BDF83030D31A9BB2013BADF82B
:108CCC002E30BDF82E30FF2B01D90C2308E0BDF857
:108CDC003030019A1344BDF82E20D2B21A70002302
:108CEC0018460FB05DF804FB00B58BB005900393EC
:108CFC000B468DF8133013468DF812309DF8131077
:108D0C00BDF8343001930C9B0093039B0222059811
:108D1C00FFF73FFF0990099B0893089B002B01D09C
:108D2C00089B14E09DF81210BDF8343001930C9B95
:108D3C000093039B10220598FFF72BFF0990099BCA
:108D4C000793079B002B01D0079B00E000231846DC
:108D5C000BB05DF804FB82B00190019B1B88052BC6
:108D6C000AD9019B1B88B3F5486F07D9019B1B8857
:108D7C004FF6FF72934201D0072325E0019B5B88DD
:108D8C00052B0AD9019B5B88B3F5486F07D9019B6A
:108D9C005B884FF6FF72934201D0072314E0019BCE
:108DAC001B884FF6FF7293420DD0019B5B884FF6E8
:108DBC00FF72934207D0019B1A88019B5B889A42F1
:108DCC0001D9072300E00023184602B0704700B514
:108DDC0087B0039002910192ADF80230019B1B8881
:108DEC009A1DBDF802309A4201D90C234BE003982E
:108DFC00FFF7B1FF0590059B0493049B002B01D05A
:108E0C00049B40E0019B1B881A46029B13440522DD
:108E1C001A70019B1B8801339AB2019B1A80019B2B
:108E2C001B881A46029B134412221A70019B1B8842
:108E3C0001339AB2019B1A80039B1A88019B1B88F1
:108E4C001946029B0B4419461046FFF7AFFC03462C
:108E5C001A46019B1B8813449AB2019B1A80039BF0
:108E6C005A88019B1B881946029B0B4419461046D5
:108E7C00FFF79CFC03461A46019B1B8813449AB2CD
:108E8C00019B1A800023184607B05DF804FB00B55F
:108E9C0087B0039002910192ADF80230039B9B883E
:108EAC0002330593019B1B881A46059B13449A1C9D
:108EBC00BDF802309A4201D90C2353E0059BFE2BDE
:108ECC0001D90C234EE0059BDAB2019B1B88194695
:108EDC00029B0B440132D2B21A70019B1B880133E6
:108EEC009AB2019B1A80019B1B881A46029B134461
:108EFC00FF221A70019B1B8801339AB2019B1A80C6
:108F0C00039B1A88019B1B881946029B0B4419462C
:108F1C001046FFF74BFC03461A46019B1B88134473
:108F2C009AB2019B1A80039B9B88002B19D0039B40
:108F3C009B68002B01D1072314E0019B1B881A4668
:108F4C00029B9818039B9968039B9B881A460AF00E
:108F5C0035FB019B1A88039B9B8813449AB2019B97
:108F6C001A800023184607B05DF804FB00B589B0E1
:108F7C00039002910192ADF80230039B9B6A002B87
:108F8C0001D1072371E000238DF81F3065E0039BAE
:108F9C00996A9DF81F2013465B0013449B000B44F9
:108FAC000693069B9B8802330593059BFE2B01D9E8
:108FBC000C235AE0059BDAB2019B1B881946029BD5
:108FCC000B440132D2B21A70019B1B8801339AB246
:108FDC00019B1A80019B1B881A46029B1344162284
:108FEC001A70019B1B8801339AB2019B1A80069B55
:108FFC001A88019B1B881946029B0B441946104684
:10900C00FFF7D4FB03461A46019B1B8813449AB204
:10901C00019B1A80069B9B88002B19D0069B9B6892
:10902C00002B01D1072320E0019B1B881A46029BD1
:10903C009818069B9968069B9B881A460AF0BEFAFC
:10904C00019B1A88069B9B8813449AB2019B1A8039
:10905C009DF81F3001338DF81F30039B93F82C3093
:10906C009DF81F209A4292D30023184609B05DF850
:10907C0004FB00B595B00590049103920023139363
:10908C00039B1B88ADF84A30039B00221A80059B7A
:10909C0093F82D30002B0ED0BDF84A301A460399A8
:1090AC000498FFF799FB1390139B1193119B002BC2
:1090BC0001D0119BD8E0059B9B78002B0ED0BDF8FE
:1090CC004A301A4603990498FFF796FC1390139BA9
:1090DC001093109B002B01D0109BC5E0059BDB78F7
:1090EC00002B10D0059BDB7858B2BDF84A30039AA0
:1090FC000499FFF7D0FC1390139B0F930F9B002B3D
:10910C0001D00F9BB0E0059B5B68002B11D0059B39
:10911C005B6893F90000BDF84A30039A0499FFF795
:10912C00F9FC1390139B0E930E9B002B01D00E9BFE
:10913C009AE0059B1B89002B14D0059B03F10800BA
:10914C00BDF84A300193039B0093049B0622022135
:10915C00FFF7CAFD1390139B0D930D9B002B01D0B1
:10916C000D9B81E0059B1B8A002B14D0059B03F102
:10917C001000BDF84A300193039B0093049B072217
:10918C000321FFF7B1FD1390139B0C930C9B002B49
:10919C0001D00C9B68E0059B1B8B002B14D0059B0E
:1091AC0003F11800BDF84A300193039B0093049B14
:1091BC0015221421FFF798FD1390139B0B930B9B17
:1091CC00002B01D00B9B4FE0059B1B6A002B0FD093
:1091DC00059B186ABDF84A30039A0499FFF7F7FD0E
:1091EC001390139B0A930A9B002B01D00A9B3BE024
:1091FC00059B5B6A002B0FD0059B586ABDF84A3063
:10920C00039A0499FFF743FE1390139B0993099B50
:10921C00002B01D0099B27E0059B93F82C30002BE9
:10922C000ED0BDF84A30039A04990598FFF79EFEBC
:10923C001390139B0893089B002B01D0089B13E001
:10924C00059B1B78002B0ED0BDF84A30039A04996D
:10925C000598FFF72AFB1390139B0793079B002B92
:10926C0001D0079B00E0139B184615B05DF804FB7A
:10927C0075DF704700BF184676DF704700BF184691
:10928C007ADF704700BF18467BDF704700BF184677
:10929C0084B00346ADF806300023039316E00F4963
:1092AC00039A13469B0013449B000B441B88BDF888
:1092BC0006209A4207D1039A13469B0013449B0045
:1092CC00064A134406E0039B01330393039B002BD4
:1092DC00E5D00023184604B0704700BFA02400203E
:1092EC0082B001900B46ADF80230019BBDF8022014
:1092FC001A80019B00221A72019B054903F10A0294
:10930C000B4603CB1060516000BF02B0704700BF2A
:10931C00D024002082B00190019B4FF6FF721A807E
:10932C0000BF02B0704788B00390029111461A46F4
:10933C000B46ADF806301346ADF80430039B9B8802
:10934C001A46BDF8063013440793039B9B881946B5
:10935C00039B9B88BDF80620934228BF13469BB203
:10936C00CB1A0693039BDB881A46BDF804301344D2
:10937C000593039BDB881946039BDB88BDF804200F
:10938C00934228BF13469BB2CB1A0493029B5A8874
:10939C00039B1B889A4205D3029B5A88039B5B88CC
:1093AC009A4201D900231CE0029B9B881A46069B1B
:1093BC00934205D8029B9B881A46079B934201D285
:1093CC0000230EE0029BDB881A46049B934205D8CF
:1093DC00029BDB881A46059B934201D2002300E0D6
:1093EC000123184608B0704700B583B00190064BB6
:1093FC009B69002B03D0044B9B690198984700BFD5
:10940C0003B05DF804FB00BFB424002000B585B0A8
:10941C0003460091ADF80630BDF8063000991846A9
:10942C00FFF726FF0390039B002B05D0039B112B0A
:10943C0002D00398FFF7D8FF039B002B0CBF01232E
:10944C000023DBB2184605B05DF804FB00B589B00B
:10945C000190019B0793079B9BB21846FFF718FFDF
:10946C000690069B002B42D0069B1A7A224B1B7B44
:10947C009A4215D2079B9AB2069B0A33194610469C
:10948C00FFF7C4FF03468DF813309DF81330002B03
:10949C002DD0069B1B7A0133DAB2069B1A7226E09A
:1094AC00069B00221A72144B1B7C002B0FD0079BBF
:1094BC009BB23B211846FFF7DFFE0590059B002B66
:1094CC0005D0059B082B02D00598FFF78DFF0A4BA2
:1094DC005B69002B0BD000238DF80C30079B9BB2E3
:1094EC00ADF80E30044B5B6903AA1046984700BFD9
:1094FC0009B05DF804FB00BFB424002030B587B080
:10950C000190019B002B01D10E2353E02B4A019BB0
:10951C0014461D460FCD0FC495E8070084E80700DC
:10952C00264B274A1A60019B1B68002B11D0019B0C
:10953C001B681846FFF7A4FE0490049B002B01D077
:10954C00049B37E0019B1A681D4B1068516803C3DC
:10955C0008E01B48FFF798FE0490049B002B01D0F9
:10956C00049B27E00023059320E0059A13469B00FB
:10957C0013449B00134A134403930398FFF7CAFE4A
:10958C00059B5B01104A1A44039B5A60039B0433EE
:10959C000E4A0021184605F0B5FB0490049B002BE5
:1095AC0001D0032306E0059B01330593059B002B9B
:1095BC00DBD00023184607B030BD00BFB424002018
:1095CC00D0240020A02400208024002059940200E4
:1095DC0000B587B003460091ADF80630009B5B7A6E
:1095EC00002B1AD1009B1B7A002B03D1164B5B6806
:1095FC00059302E0144B9B680593009B5B68BDF8D8
:10960C0006200599184605F0B7FB0490049B002B27
:10961C0016D00498FFF7E8FE12E0009B00221A72A5
:10962C00094B5B69002B0BD001238DF80C30BDF876
:10963C000630ADF80E30044B5B6903AA1046984710
:10964C0000BF07B05DF804FBB424002000B585B062
:10965C000190019BDB7B8DF80F30019B9B88ADF853
:10966C000C309DF80F30012B2CD14FF6FF70FFF70B
:10967C000FFE0290029B002B03D10420FFF7B4FED7
:10968C0021E0BDF80C3019460298FFF729FE029B29
:10969C0003F10A00019B03F110014FF6FF7340F236
:1096AC00F312FFF740FE03461A46029B5A72074B11
:1096BC00DB89002B07D1BDF80C3002991846FFF757
:1096CC0087FF00E000BF05B05DF804FBB424002068
:1096DC0000B587B00190019B9B88ADF81630BDF8A2
:1096EC0016301846FFF7D4FD0490049B002B0ED0C7
:1096FC00049B5B68184605F097FB0390039B002BBB
:10970C0002D00398FFF770FE0498FFF703FE00BF2A
:10971C0007B05DF804FB000000B587B00190019B19
:10972C0006330593059B1A88194BDB899A422BD17A
:10973C00059B5B89022B27D1019B9B88ADF81230CE
:10974C00BDF812301846FFF7A3FD0390039B002BC6
:10975C001AD0059B0C33184600F0FEF90346002B7B
:10976C0006D0BDF8123003991846FFF731FF0BE015
:10977C00039B5B68184605F057FB0290029B002B7D
:10978C0002D00298FFF730FE00BF07B05DF804FB73
:10979C00B424002000B585B00190019B9B88ADF8E6
:1097AC000E30BDF80E301846FFF772FD0290029B8A
:1097BC00002B15D0029B03F10A00019B03F1080159
:1097CC004FF6FF7340F2F312FFF7ADFD03461A4656
:1097DC00029B5A72BDF80E3002991846FFF7F8FE3C
:1097EC0000BF05B05DF804FB00B583B0019000919B
:1097FC00019B1B88502B12D0502B18DC122B12D033
:10980C00122B14DC102B02D0112B04D00FE001987A
:10981C00FFF71CFF0CE00198FFF75AFF08E00198D6
:10982C00FFF77AFF04E00198FFF7B4FF00E000BFF8
:10983C0000BF03B05DF804FB30B58FB00190009110
:10984C0000230293009B002B1AD000230D9314E0ED
:10985C006B460D99184606F024F90346002B09D0E7
:10986C00029B5A1C02920D9A92B25B0038336B44E5
:10987C0023F82C2C0D9B01330D930D9B132BE7D947
:10988C00019B1D4602AC0FCC0FC50FCC0FC594E845
:10989C00070085E8070001980FB030BD00B583B014
:1098AC000346ADF80630BDF80630132B01D9002362
:1098BC000CE0BDF806301946064806F0C1F8BDF8B4
:1098CC0006301946044806F0BBF80123184603B0CD
:1098DC005DF804FBE0240020DC24002000B585B0FA
:1098EC000346ADF80630002303930DE0039B9B0069
:1098FC00094A13440433BDF806201146184606F0F5
:10990C00B7F8039B01330393039B1D2BEED900BFC8
:10991C0000BF05B05DF804FBD824002000B583B06F
:10992C000346ADF80630BDF806301946034806F07C
:10993C009FF800BF03B05DF804FB00BFE0240020DB
:10994C0030B59BB0184B9B68DB431893164B5A6889
:10995C0018AB1146184606F003F9189A6B461146D7
:10996C001846FFF769FF0DAC6D460FCD0FC40FCD38
:10997C000FC495E8070084E80700002319930BE057
:10998C00199B5B0068336B4433F8303C1846FFF787
:10999C00A5FF199B013319930D9B199A9A42EFD38A
:1099AC0000BF00BF1BB030BDD824002000B583B071
:1099BC0001900B46ADF8023013468DF801309DF83E
:1099CC000130002B06D0BDF802301946019806F084
:1099DC0037F805E0BDF802301946019806F048F852
:1099EC0000BF03B05DF804FB00B585B00190009199
:1099FC00019B9B88ADF80E30019B1B88103B0A2BFA
:109A0C0000F2888001A252F823F000BF459A0200B0
:109A1C00819A0200219B0200219B0200219B0200E3
:109A2C00219B0200219B0200219B0200219B020032
:109A3C00EB9A02008D9A0200FFF782FFBDF80E3000
:109A4C001846FFF72BFF034683F00103DBB2002B14
:109A5C0005D0324AF021042004F066FD57E0019B4A
:109A6C00DB7B022B53D1BDF80E3019462C4805F088
:109A7C00E7FF4CE0BDF80E301846FFF74FFF49E00A
:109A8C00019B1B7AC3F30313DBB28DF80D309DF8E9
:109A9C000D30032B8CBF01230023DAB2BDF80E303E
:109AAC0019462048FFF782FF9DF80D30022B8CBF22
:109ABC0001230023DAB2BDF80E3019461A48FFF71D
:109ACC0075FF9DF80D30012B8CBF01230023DAB2FA
:109ADC00BDF80E3019461548FFF768FF1AE0019BD8
:109AEC001B7A002B15D1019B5B7AC3F3C003DBB24D
:109AFC00002B14BF012300238DF80C309DF80C2093
:109B0C00BDF80E3019460748FFF750FF01E000BFC3
:109B1C0000E000BF00BF05B05DF804FBF4390300A2
:109B2C00E4240020F0240020EC240020E824002071
:109B3C0082B00190019B1B781AB2019B01331B78F8
:109B4C001B021BB213431BB29BB2184602B07047E8
:109B5C00AADF704700BF184600B585B00190019888
:109B6C00FFF7E6FF0346ADF80E30BDF80E3003F0FC
:109B7C000103002B14BF01230023DBB2184605B0F0
:109B8C005DF804FB82B0034600918DF80730009A13
:109B9C0013786FF303031370009A13786FF30713A2
:109BAC0013709DF80730052B5BD801A252F823F0F7
:109BBC00D59B0200EB9B0200059C02001F9C02003F
:109BCC00399C0200539C0200009A13786FF3030334
:109BDC001370009A13786FF30713137040E0009A18
:109BEC001378012161F303031370009A1378012198
:109BFC0061F30713137033E0009A1378012161F3BA
:109C0C0003031370009A1378022161F30713137086
:109C1C0026E0009A1378012161F303031370009A74
:109C2C001378032161F30713137019E0009A13786A
:109C3C00022161F303031370009A1378012161F37D
:109C4C00071313700CE0009A1378022161F30303DD
:109C5C001370009A1378022161F30713137000BF7D
:109C6C0000BF00BF02B0704700B595B0034602912B
:109C7C000192ADF80E30029B9B78002B03D101238F
:109C8C008DF81E3003E0029B9B788DF81E30029BF2
:109C9C001B88ADF81C3006AB03220021184609F0D6
:109CAC00C3FC029B5B7C06AA11461846FFF76AFFB1
:109CBC00029B9A7C06AB013319461046FFF762FFF4
:109CCC00029BDA7B9DF81A3062F3C3038DF81A30CD
:109CDC00029B1A7C9DF81A3062F304138DF81A302B
:109CEC00029B1A7B9DF81A3062F300038DF81A3030
:109CFC00029B1B7D002B01D0022200E001229DF86B
:109D0C001A3062F342038DF81A300DAB1C2200217D
:109D1C00184609F089FC029B5B7B03F01003DBB255
:109D2C00002B06D1029B5B7B03F02003DBB2002BE4
:109D3C0024D004AB03220021184609F075FC029BC9
:109D4C00DA7C04AB013319461046FFF71BFF9DF874
:109D5C001030012262F303038DF810309DF810309F
:109D6C00012262F307138DF810309DF81230012296
:109D7C0062F342038DF8123004AB1293029B5B7BAF
:109D8C008DF83430029B9B7B8DF8353008AB142258
:109D9C000021184609F048FC07AB089306AB099361
:109DAC00029B9B88ADF82C30029B9B68002B06D045
:109DBC00029BDB88ADF82830029B9B680C93029BBE
:109DCC009B69002B4FD005AB03220021184609F0EC
:109DDC002BFC029B9B691B88ADF83C30029B9B695A
:109DEC005B88ADF83E30029B9B695B680E9305ABBC
:109DFC001193029B9B691B7B05AA11461846FFF722
:109E0C00C1FE029B9B695A7B05AB01331946104678
:109E1C00FFF7B8FE029B9B699A7A9DF8163062F3A5
:109E2C00C3038DF81630029B9B69DA7A9DF81630C5
:109E3C0062F304138DF81630029B9B691A7A9DF815
:109E4C00163062F300038DF81630029B9B699B7BE6
:109E5C00002B01D0022200E001229DF8163062F3A3
:109E6C0042038DF81630029BDB69002B02D0029B5B
:109E7C00DB69109308AA0DA9BDF80E00019BFFF732
:109E8C0067FE0346184615B05DF804FB90DF70477B
:109E9C0000BF1846A5DF704700BF1846B5DF7047F6
:109EAC0000BF184682B00190019B17221A80019BBB
:109EBC0017225A80019B00221A71019B00225A71B1
:109ECC00019B1B229A71019B1B22DA7100BF02B00D
:109EDC007047000030B589B003460A46ADF806302D
:109EEC001346ADF80430BDF80430ADF81430BDF8AD
:109EFC000430ADF816300023ADF818300023ADF85F
:109F0C001A3003AB00221A609A8003AA05A9BDF887
:109F1C0006301846FFF7BAFF0790079B002B39D085
:109F2C001E4A1F4BD31ADB081B0443F00104BDF877
:109F3C000650079806F0A4FE03462A461949204607
:109F4C0007F0F3FBBDF80C30002B03D1BDF80E303D
:109F5C00002B0ED0114A124BD31ADB081B0443F012
:109F6C000100BDF80C301A46BDF80E300E4907F052
:109F7C00DCFBBDF81030002B0CD0084A084BD31A70
:109F8C00DB081B0443F00103BDF8102007491846F9
:109F9C0007F0BAFB079B184609B030BD64370300C5
:109FAC000C370300383A0300843A0300C43A030028
:109FBC0010B586B001900091009B9B88ADF80E30D7
:109FCC00BDF80E30DB00019A134406330593019B58
:109FDC001A79059B9A71009BDB7B012B02D0022B1B
:109FEC0005D009E0019B1A88059B1A8004E0019BAF
:109FFC005A88059B1A8000BF059B1A88059B5B88B5
:10A00C009A4226D9059B1A88BDF80E30114618467F
:10A01C00FFF740FF0490049B002B03D1059B01220A
:10A02C005A7116E0049B112B03D1059B01221A7166
:10A03C000FE0114A114BD31ADB081B0443F0010447
:10A04C00049806F01DFE03461A460D49204607F0FB
:10A05C005BFB059B9A79059BDB799A4208D9059B9A
:10A06C009B791A46BDF80E3011461846FFF732FFA1
:10A07C0000BF06B010BD00BF643703000C370300EF
:10A08C001C3B030000B583B001900091009B9B88A2
:10A09C00DB00019A134406331846FFF703FF00BF99
:10A0AC0003B05DF804FB00B587B001900091009BF4
:10A0BC009B88ADF81630009B5B89ADF81430BDF869
:10A0CC001630DB00019A134406330493049B1B885F
:10A0DC00BDF81420934228BF13469AB2049B5A80B1
:10A0EC00049B5B88172B38BF17239AB2049B5A80AA
:10A0FC00019B1B69002B15D0049B5B79002B11D0A5
:10A10C0040F67723ADF80830BDF81630ADF80A30BC
:10A11C00049B5B88ADF80C30019B1B6902AA1146AD
:10A12C0001989847049B00225A71049B00221A71D3
:10A13C0000BF07B05DF804FB10B588B0019000912A
:10A14C00009B9B88ADF81A30009BDB88ADF818306B
:10A15C00BDF81A30DB00019A134406330593BDF8A1
:10A16C001830172B38BF1723ADF81830059B1B88F8
:10A17C00BDF81820934228BF13469AB2059B5A800B
:10A18C00059B00221A71059B1A88BDF81A301146DE
:10A19C001846FFF783FE0790079B002B0FD0174A3A
:10A1AC00174BD31ADB081B0443F00104079806F085
:10A1BC0067FD03461A461349204607F0A5FA059B8E
:10A1CC005B79002B16D1019B1B69002B13D040F639
:10A1DC007723ADF80C30BDF81A30ADF80E30059B76
:10A1EC005B88ADF81030019B1B6903AA11460198DE
:10A1FC00984700E000BF08B010BD00BF64370300F3
:10A20C000C370300503B030030B591B00190009126
:10A21C00009B04AC1D1D0FCD0FC40FCD0FC495E8D2
:10A22C00070084E80700BDF81030ADF83E30BDF8EB
:10A23C001420BDF83E30D1B2019ADB0013440A461B
:10A24C005A73019B1B69002B19D002AB00221A60B8
:10A25C009A804DF67A23ADF80830BDF83E30ADF853
:10A26C000A30BDF83E30019ADB0013445B7B8DF85D
:10A27C000C30019B1B6902AA11460198984700BF3C
:10A28C0011B030BD00B587B001900091009B043334
:10A29C000593059B1B88DB00019A1344063304933A
:10A2AC00059B9B888DF80F30049B9B799DF80F20A4
:10A2BC00934228BF13468DF80E30059B1B889DF8E2
:10A2CC000E2092B211461846FFF704FE00BF07B0ED
:10A2DC005DF804FB00B585B001900091019B002B4B
:10A2EC0001D10E231DE0019B009A1A61019B1722DC
:10A2FC001A80019B17225A80019B1B221A71002382
:10A30C0003930AE0039BDB00019A134406331846BF
:10A31C00FFF7C8FD039B01330393039B002BF1D084
:10A32C000023184605B05DF804FB000010B586B09C
:10A33C0001900091009B0593019B9B88ADF8123016
:10A34C00BDF81230002B40F09880019B1B88552BD8
:10A35C0048D0552B55DC242B32DC102B51DB103B19
:10A36C00142B4ED801A252F823F000BFD3A3020045
:10A37C00DDA302000FA402000FA402000FA4020030
:10A38C000FA402000FA402000FA402000FA40200ED
:10A39C000FA402000FA402000FA402000FA40200DD
:10A3AC000FA402000FA402000FA402000FA40200CD
:10A3BC000FA402000FA4020005A40200FBA30200DC
:10A3CC003A2B0AD01DE001990598FFF7F1FD19E031
:10A3DC0001990598FFF756FE14E001990598FFF7CF
:10A3EC0062FE0FE001990598FFF7A6FE0AE00199BD
:10A3FC000598FFF709FF05E001990598FFF742FF63
:10A40C0000E000BFBDF81230059ADB0013449B7AC4
:10A41C00002B33D0BDF81230059ADB001344DA88D8
:10A42C00BDF8123011461846FFF734FD0390039B1C
:10A43C00002B0ED1BDF81230059ADB00134400221C
:10A44C009A72BDF81230059ADB0013440122DA72BD
:10A45C0014E0039B112B11D0094A0A4BD31ADB08C9
:10A46C001B0443F00104039806F00AFC03461A4649
:10A47C000549204607F048F900E000BF06B010BDC2
:10A48C00643703000C3703001C3B0300B0DF70473C
:10A49C0000BF184666DF704700BF184682B00190B7
:10A4AC000091019B002B01D10E2316E0009B002B89
:10A4BC0001D10E2311E0019B1B78DE2B01D1082367
:10A4CC000BE0009B1A68019B5A60019BDE221A70FC
:10A4DC00019B4FF6FF725A800023184602B070475A
:10A4EC0082B001900B46ADF80230019B002B01D1DC
:10A4FC000E230AE0019B1B78DE2B01D0082304E01D
:10A50C00019BBDF802205A800023184602B0704708
:10A51C0000B585B00190019B1B7A002B18D0019BD4
:10A52C005B8800211846FFF7B5FF0390039B002BB7
:10A53C0003D1019B00221A720AE0039B112B03D159
:10A54C00019B01221A7203E0019B5B6803989847F8
:10A55C0000BF05B05DF804FB00B583B0019000911D
:10A56C00009B1B79012B0BD1009B1A88019B5B88EC
:10A57C009A4205D1019B01221A720198FFF7C8FF7C
:10A58C0000BF03B05DF804FB82B00190009100BFE6
:10A59C0002B0704700B589B001900091009B1A88F9
:10A5AC00019B5B889A4236D1009B02330793079B31
:10A5BC001B78022B31D1079B1B7A042B07D0079BEE
:10A5CC001B7A062B03D0079B1B7A052B27D102ABDA
:10A5DC0000221A605A609A60DA6002238DF8083003
:10A5EC004FF4C073ADF80C30079B1B7A052B02D1CE
:10A5FC000023ADF80C30009B1B8802AA11461846AC
:10A60C00FFF744FF0690069B002B09D0019B5B686B
:10A61C000698984704E000BF02E000BF00E000BFCE
:10A62C0009B05DF804FB00B585B001900091009B6A
:10A63C00002B43D0019B002B40D0009B0393039B2A
:10A64C001B78DE2B3AD1019B9A88039B5B889A423C
:10A65C0002D10398FFF75CFF019B1B88512B18D08C
:10A66C00512B28DC112B1BD0112B24DC012B02D0FD
:10A67C00022B07D01FE0019B043319460398FFF708
:10A68C006BFF1BE0019B043319460398FFF77CFF1B
:10A69C0014E0019B043319460398FFF77BFF0DE090
:10A6AC00019B9A88039B5B889A4206D1039B4FF6C9
:10A6BC00FF725A8001E000BF00E000BF05B05DF8FA
:10A6CC0004FBA8DF704700BF1846AEDF704700BF21
:10A6DC00184662DF704700BF184600B585B0019080
:10A6EC000091009B06330393039B1A88019B5B88A4
:10A6FC009A420FD1039B5B89012B0BD1019B5B69A8
:10A70C00002B07D0019B5B69009A9088039A127BFF
:10A71C000199984700BF05B05DF804FB00B585B002
:10A72C0001900091009B0393019B1B88502B04D13B
:10A73C0001990398FFF7D1FF00E000BF00BF05B0FF
:10A74C005DF804FB10B592B001900091009B1A6863
:10A75C00019B5A61484B02AC0FCB84E80F00019B64
:10A76C0003F1120202AB11461846FFF7B2FF11902B
:10A77C00119B1093109B002B01D0109B79E0019B37
:10A78C009B7C8DF83A3041F22353ADF83830019A66
:10A79C000EAB19460120FFF794FF1190119B0F93FC
:10A7AC000F9B002B01D00F9B63E006AB20220021F6
:10A7BC00184608F039FF41F22453ADF81830019BCC
:10A7CC009B7C8DF81A300123ADF81E300123ADF8B7
:10A7DC001C309DF8253043F002038DF825309DF890
:10A7EC00253043F010038DF8253001238DF82930E6
:10A7FC0001238DF82B30019B1888019B03F10A0271
:10A80C0006AB1946FFF730FA1190119B002B01D0C3
:10A81C00119B2EE006AB20220021184608F004FF05
:10A82C0041F22553ADF81830019B9B7C8DF81A3002
:10A83C000123ADF81E300123ADF81C309DF82530F6
:10A84C0043F002038DF825309DF8253043F00803C2
:10A85C008DF8253001238DF8293001238DF82A300D
:10A86C00019B1888019B9A1C06AB1946FFF7FCF953
:10A87C000346184612B010BD803B030000B589B0EA
:10A88C0003460091ADF8063013468DF805300123D0
:10A89C00ADF80E3004AB10220021184608F0C4FEAF
:10A8AC0001238DF81230009B5B89ADF810300DF14F
:10A8BC00050307930DF10E03069304AABDF80630A9
:10A8CC0011461846FFF701FF0346184609B05DF81C
:10A8DC0004FB000082B003468DF807309DF9073069
:10A8EC00002B13DB9DF8073003F01F0209499DF97B
:10A8FC0007305B09012000FA02F2203341F82320D3
:10A90C00BFF34F8F00BFBFF36F8F00BF00BF02B00C
:10A91C00704700BF00E100E0044BD3F80034002B7B
:10A92C0014BF01230023DBB218467047000001401E
:10A93C0008B507F0E1FC034683F00103DBB2002B02
:10A94C0003D109497B20FBF757FEFFF7E5FF0346D0
:10A95C0083F00103DBB2002B04D000F041FB034B6E
:10A96C0000229A7000BF08BD983B030054250020BC
:10A97C0000B583B000230193184B1B78002B02D039
:10A98C00852301931CE0154B00229A60134B002287
:10A99C005A60124B00221A61104B0022DA601048E8
:10A9AC0000F0E4FA019007F0A7FC034683F00103E2
:10A9BC00DBB2002B01D000F0FFFA084B01221A7019
:10A9CC00FFF7AAFF0346002B02D0044B01229A701A
:10A9DC00019B184603B05DF804FB00BF5425002012
:10A9EC00C5AA020084B00190019B1B680393039BD2
:10A9FC00002B03D0039B1A68019B1A60039B18461B
:10AA0C0004B0704700B583B0164B1B78002B04D1F3
:10AA1C00154940F21710FBF7EFFD124BDB68002BCA
:10AA2C0004D111494FF48C70FBF7E6FD00238DF82F
:10AA3C0007300DF10703184604F0C6FA094BDB6822
:10AA4C00013B084AD360074BDB68002B01D1FFF7B1
:10AA5C006FFF9DF80730184604F0CCFA00BF03B026
:10AA6C005DF804FB54250020983B030000B585B02D
:10AA7C0003468DF807309DF80730002B02D10C4BA4
:10AA8C00039301E00B4B03930398FFF7ABFF02908A
:10AA9C00029B002B06D0029B5B689DF8072010469A
:10AAAC009847F1E700BF00BF05B05DF804FB00BF9D
:10AABC005C2500206425002000B583B003468DF88A
:10AACC0007309DF80730002B05D10A4B01225A7034
:10AADC000020FFF7CBFF9DF80730012B05D1054B6C
:10AAEC0001229A700120FFF7C1FF00BF03B05DF88F
:10AAFC0004FB00BF5425002000B583B001900091E9
:10AB0C00019B002B05D1054B01225A700020FFF749
:10AB1C00ADFF00BF03B05DF804FB00BF542500205F
:10AB2C0000B585B0034600918DF807309DF80730CD
:10AB3C00032B29D0032B35DC002B02D0012B04D0A6
:10AB4C0030E00020FFF7C6FE2DE000238DF80F301B
:10AB5C000DF10F03184604F037FA154B1B7883F0F0
:10AB6C000103DBB2002B01D0FFF702FF104BDB68B7
:10AB7C0001330F4AD3600E4B01229A709DF80F30AF
:10AB8C00184604F037FA0EE0094B1B78002B04D161
:10AB9C00084940F25220FBF72FFD00F00DFAFFF7A9
:10ABAC0031FF00E000BF00BF05B05DF804FB00BF43
:10ABBC0054250020983B030000B589B0019000910A
:10ABCC00009B0793019B1B788DF80C30019B5B68F5
:10ABDC000493019B9B68DBB28DF81430019BDB68FE
:10ABEC000693074A079B52F823300649079A51F8F7
:10ABFC00221003AA1046984700BF09B05DF804FB69
:10AC0C00682500206C25002000B589B001900091CA
:10AC1C00009B0793019B1B788DF80C30019B5B68A4
:10AC2C000493019B9B68DBB28DF81430019BDB68AD
:10AC3C000693074A079B52F823300649079A51F8A6
:10AC4C00221003AA1046984700BF09B05DF804FB18
:10AC5C00682500206C25002030B58FB00390029140
:10AC6C000192039B1B780C9326490C9B019A41F88B
:10AC7C002320029B1A6924490C9B41F82320029B38
:10AC8C005B7F1946214A0C9B13440A461A70029B9F
:10AC9C0004AC1D460FCD0FC495E80F0084E80F00DF
:10ACAC000C9B089300230D93039B1B781A46174BA0
:10ACBC009B5C002B0DD0039B181D019B002B01D01E
:10ACCC00134A00E0002204AB194602F015FE0D9069
:10ACDC0014E0039B1B781A460C4B9B5C002B0DD18C
:10ACEC00039B03F10C00019B002B01D0094A00E0EF
:10ACFC00002204AB194601F08DFF0D900D9B1846F8
:10AD0C000FB030BD682500206C2500207025002078
:10AD1C00C5AB020015AC020082B003468DF80730BB
:10AD2C009DF90730002B0CDB9DF8073003F01F0258
:10AD3C0005499DF907305B09012000FA02F241F840
:10AD4C00232000BF02B0704700E100E082B0034650
:10AD5C0000918DF807309DF90730002B0ADB009B22
:10AD6C00DAB20C499DF907305201D2B20B4483F888
:10AD7C0000230BE0009BDAB207499DF8073003F083
:10AD8C000F03043B5201D2B20B441A7600BF02B03F
:10AD9C00704700BF00E100E000ED00E082B00190E0
:10ADAC00019B1B0B5BB2184602B0704700B583B019
:10ADBC0003460A468DF8073013468DF806309DF889
:10ADCC000630012B03D99DF80630032B0BD99DF8C7
:10ADDC000630042B03D99DF80630072B03D90849FC
:10ADEC006B20FBF709FC9DF806209DF907301146F6
:10ADFC001846FFF7ABFF00BF03B05DF804FB00BFC4
:10AE0C00CC3B030000B583B003468DF807309DF9A9
:10AE1C0007301846FFF780FF00BF03B05DF804FB56
:10AE2C0082B003468DF807300F4A9DF90730002B8E
:10AE3C0000DA1F335B115BB252F823209DF9073007
:10AE4C00594203F01F0301F01F0158BF4B425BB284
:10AE5C0022FA03F303F00103002B14BF0123002398
:10AE6C00DBB2184602B0704700E100E082B00190FE
:10AE7C004FF08042019BC2F8083300BF02B070470C
:10AE8C0082B003468DF807309DF8073003F18043FC
:10AE9C0001221A6000BF02B0704784B00346ADF8BF
:10AEAC000630BDF8063003F1804300221A60BDF86D
:10AEBC00063003F180431B680393039B00BF04B06F
:10AECC00704782B00346ADF80630BDF8063003F18A
:10AEDC0080431B68002B14BF01230023DBB21846F0
:10AEEC0002B0704782B001904FF08042019BC2F8D3
:10AEFC00183500BF02B070474FF08043D3F81834B8
:10AF0C001B0C03F00103002B14BF01230023DBB245
:10AF1C001846704700B583B006238DF807304FF004
:10AF2C008040FFF73BFF03461846FFF779FF0346C7
:10AF3C0083F00103DBB2002B13D04FF08040FFF7FE
:10AF4C002DFF03461A469DF8073019461046FFF7A9
:10AF5C002DFF4FF08040FFF721FF03461846FFF707
:10AF6C0051FF00BF03B05DF804FB000000B585B0D5
:10AF7C000190019B002B03D10D49A420FBF73CFB56
:10AF8C00002303930B4B1B79002B02D085230393D7
:10AF9C0008E0084A019B1360064B01221A71054B0D
:10AFAC0000225A71039B184605B05DF804FB00BFE4
:10AFBC00FC3B03007425002008B5074B1B79002BC4
:10AFCC0003D10649BD20FBF717FBFFF7A3FF0120B8
:10AFDC00FFF788FF00BF08BD74250020FC3B030071
:10AFEC0008B50D4B1B79002B03D10C49F720FBF74F
:10AFFC0003FB0220FFF73AFF4FF48270FFF74DFF7F
:10B00C000C20FFF73DFF00BFFFF776FF0346002B38
:10B01C00FAD100BF00BF08BD74250020FC3B030023
:10B02C0008B54FF48070FFF74CFF0346002B14D08B
:10B03C004FF48070FFF731FF0120FFF717FF114B22
:10B04C005B7983F00103DBB2002B06D00D4B0122A0
:10B05C005A710C4B1B68002098474FF48270FFF715
:10B06C0030FF0346002B0AD04FF48270FFF715FF18
:10B07C000220FFF7FBFE034B1B680120984700BF23
:10B08C0008BD00BF7425002082B003468DF8073040
:10B09C009DF90730002B0CDB9DF8073003F01F02E5
:10B0AC0005499DF907305B09012000FA02F241F8CD
:10B0BC00232000BF02B0704700E100E082B00346DD
:10B0CC0000918DF807309DF90730002B0ADB009BAF
:10B0DC00DAB20C499DF907305201D2B20B4483F815
:10B0EC0000230BE0009BDAB207499DF8073003F010
:10B0FC000F03043B5201D2B20B441A7600BF02B0CC
:10B10C00704700BF00E100E000ED00E082B001906C
:10B11C00019B1B0B5BB2184602B0704700B583B0A5
:10B12C0003460A468DF8073013468DF806309DF815
:10B13C000630012B03D99DF80630032B0BD99DF853
:10B14C000630042B03D99DF80630072B03D9084988
:10B15C006B20FBF751FA9DF806209DF9073011463C
:10B16C001846FFF7ABFF00BF03B05DF804FB00BF50
:10B17C00303C030000B583B003468DF807309DF9D1
:10B18C0007301846FFF780FF00BF03B05DF804FBE3
:10B19C0082B003468DF807309DF8073003F18043E9
:10B1AC0003F5C043184602B0704700B583B00346A0
:10B1BC00ADF80630BDF80630184600F026F8034608
:10B1CC001B68012B0CBF01230023DBB2184603B014
:10B1DC005DF804FB00B585B00346ADF80630BDF84C
:10B1EC000630184600F011F803461A460023136087
:10B1FC00BDF80630184600F008F803461B680393A8
:10B20C00039B00BF05B05DF804FB82B00346ADF8AC
:10B21C000630BDF8063003F1804303F5C0431846F1
:10B22C0002B0704782B00190034A019BC2F804330C
:10B23C0000BF02B0704700BF0060004082B00190B8
:10B24C00034A019BC2F8083300BF02B0704700BF2D
:10B25C000060004082B00190034BD3F80423019BA3
:10B26C001340184602B070470060004082B0019055
:10B27C00084A019B03F5A27352F82330054943F0A9
:10B28C000102019B03F5A27341F8232000BF02B019
:10B29C00704700BF0060004082B00190084A019BDB
:10B2AC0003F5A27352F82330054923F00102019BE8
:10B2BC0003F5A27341F8232000BF02B0704700BF12
:10B2CC000060004084B00390029113468DF8073063
:10B2DC00144A039B03F5A27352F82330114923F44B
:10B2EC00473323F44073039A02F5A27241F82230DB
:10B2FC000C4A039B03F5A27352F82320029B1B02FA
:10B30C0003F4F8519DF807301B0403F440330B434E
:10B31C0004491A43039B03F5A27341F8232000BF91
:10B32C0004B070470060004082B00190054A019B58
:10B33C0003F5A27352F823301B0A03F01F031846BF
:10B34C0002B070470060004082B00190064A019B39
:10B35C0003F5A27352F823301B0C03F00303DBB28A
:10B36C00184602B0704700BF0060004084B00190E6
:10B37C00094A019B03F5A27352F8233043F00303EF
:10B38C0003930549019B03F5A273039A41F823200B
:10B39C0000BF04B0704700BF0060004084B0039051
:10B3AC00029111461A460B468DF8073013468DF85C
:10B3BC000630184A039B03F5A27352F82330154943
:10B3CC0023F4981323F4F853039A02F5A27241F86C
:10B3DC002230104A039B03F5A27352F82320029BE0
:10B3EC001B0203F4F8519DF807301B0403F440339F
:10B3FC0019439DF806301B0503F480130B430549D4
:10B40C001A43039B03F5A27341F8232000BF04B039
:10B41C00704700BF0060004082B001900B468DF871
:10B42C0003300B4A019B03F5A27352F8233023F42B
:10B43C0080129DF803301B0503F4801304491A4352
:10B44C00019B03F5A27341F8232000BF02B07047A3
:10B45C000060004082B00190044A019B03F5A27386
:10B46C00002142F8231000BF02B07047006000407A
:10B47C0000B583B00190019B1B68184600F072F96F
:10B48C000346002B04D105494FF4F670FBF7B4F8D2
:10B49C004FF0A043184603B05DF804FB583C030082
:10B4AC0000B585B00190084611461A4603468DF842
:10B4BC0003300B468DF8023013468DF8013001AB8A
:10B4CC001846FFF7D5FF03909DF803209DF8023036
:10B4DC005B001A439DF801309B001A439DF818300D
:10B4EC001B0242EA03019DF81C301B04019A19430C
:10B4FC00039B02F5E07243F8221000BF05B05DF823
:10B50C0004FB00B585B00390002301930023009346
:10B51C000023012201210398FFF7C2FF00BF05B0F1
:10B52C005DF804FB00B585B003900B468DF80B302D
:10B53C009DF80B3000220192002200920022002183
:10B54C000398FFF7ADFF00BF05B05DF804FB00B535
:10B55C0085B0039000230193002300930023012264
:10B56C0000210398FFF79CFF00BF05B05DF804FBBA
:10B57C0000B585B0019001AB1846FFF779FF039039
:10B58C00019A039B02F5E07253F8223023F0020378
:10B59C000293019A039B02F5E072029943F8221080
:10B5AC0000BF05B05DF804FB00B585B001900B46FB
:10B5BC008DF8033001AB1846FFF75AFF0390019A40
:10B5CC00039B02F5E07253F82230019A23F44031C8
:10B5DC00039B02F5E07243F82210019A039B02F5DB
:10B5EC00E07253F822109DF803301B04019A1943A2
:10B5FC00039B02F5E07243F8221000BF05B05DF822
:10B60C0004FB00B585B0019001AB1846FFF730FF85
:10B61C000390019B012202FA03F31946039800F0F0
:10B62C004BF800BF05B05DF804FB00B585B0019088
:10B63C0001AB1846FFF71CFF0390019B012202FA95
:10B64C0003F31946039800F041F800BF05B05DF80C
:10B65C0004FB00B585B0019001AB1846FFF708FF5D
:10B66C000390039800F020F80246019B22FA03F3A2
:10B67C0003F00103184605B05DF804FB00B585B076
:10B68C00019001AB1846FFF7F3FE0390019A039B60
:10B69C0002F5E07253F822301B0C03F00303DBB20B
:10B6AC00184605B05DF804FB82B00190019BD3F8FD
:10B6BC001035184602B0704782B001900091019B82
:10B6CC00009AC3F8082500BF02B0704782B0019001
:10B6DC000091019B009AC3F80C2500BF02B0704783
:10B6EC0086B00390029101924FF0A0430493039B08
:10B6FC00059319E0059B9B0018336B4453F8083CE9
:10B70C00D3F82025019B1A60059B9B0018336B44D2
:10B71C0053F8083C019A1268C3F82025019B0433A6
:10B72C000193059B01330593039A029B1344059ADD
:10B73C009A42DFD300BF00BF06B0704700B585B09A
:10B74C00019001AB1846FFF793FE0390019B012279
:10B75C0002FA03F31A46039BC3F8202500BF05B079
:10B76C005DF804FB84B00190019B5B0902930023FC
:10B77C000393029B002B03D14FF0FF33039300BFC5
:10B78C00019B03F01F030193039A019B22FA03F31D
:10B79C0003F00103002B14BF01230023DBB2184676
:10B7AC0004B0704784B001900091009B0393019BFF
:10B7BC00DB080293019B03F0070301930122019B19
:10B7CC0002FA03F30399029A0A44127813401846BA
:10B7DC0004B0704784B001900091009B0393019BCF
:10B7EC00DB080293019B03F007030193039A029B6E
:10B7FC0013441B785AB20121019B01FA03F35BB28B
:10B80C00134359B2039A029B1344CAB21A7000BF75
:10B81C0004B0704784B001900091009B0393019B8E
:10B82C00DB080293019B03F007030193039A029B2D
:10B83C0013441B785AB20121019B01FA03F35BB24A
:10B84C00DB435BB2134059B2039A029B1344CAB256
:10B85C001A7000BF04B0704782B00190074A019B78
:10B86C001344303393F90030B3F1FF3F14BF01237D
:10B87C000023DBB2184602B0704700BF7C250020C5
:10B88C0082B001900C4A019B1344303393F9003081
:10B89C00002B09DB084A019B1344303393F9003029
:10B8AC00072B01DC012300E0002303F00103DBB2D2
:10B8BC00184602B0704700BF7C25002082B0019072
:10B8CC00064A019B1344303393F90030072BCCBF4D
:10B8DC0001230023DBB2184602B070477C25002000
:10B8EC0082B00190064A019B1344303393F9003027
:10B8FC00DB43DBB2DB09DBB2184602B0704700BF9A
:10B90C007C25002084B00390029101928DF80330C5
:10B91C00029B59B20E4A039B134430330A461A70E9
:10B92C000B49029B019A41F823209DF8033083F0C8
:10B93C000103DBB2002B08D0029B083B039A51B2E7
:10B94C00034A13440A4683F8502000BF04B07047E2
:10B95C007C25002082B00190044A019B13443033B3
:10B96C00FE221A7000BF02B0704700BF7C25002079
:10B97C0082B00190044A019B13443033FF221A70A9
:10B98C0000BF02B0704700BF7C25002000B583B01B
:10B99C00019004490198FFF71DFF00BF03B05DF84B
:10B9AC0004FB00BFD025002000B583B001900449F2
:10B9BC000198FFF72FFF00BF03B05DF804FB00BF39
:10B9CC00D025002000B583B0019007490198FFF7FE
:10B9DC00E9FE0346002B14BF01230023DBB21846FB
:10B9EC0003B05DF804FB00BFD025002082B00190AD
:10B9FC00044A019B1344303393F90030184602B0CB
:10BA0C00704700BF7C25002082B00190034A019B47
:10BA1C0052F82330184602B0704700BF7C25002036
:10BA2C0084B00190074A019B1344503393F90030C2
:10BA3C008DF80F309DF80F3023F0C003184604B07A
:10BA4C00704700BF7C25002084B00190074A019B01
:10BA5C001344503393F900308DF80F309DF80F30AC
:10BA6C009B09DBB2184604B0704700BF7C25002050
:10BA7C0000B589B00390029113468DF80730FF236F
:10BA8C008DF81F309DF80730002B01D0002300E00B
:10BA9C00082305939DF80730002B01D0082300E004
:10BAAC000C230493059B069314E00F4A069B52F853
:10BABC002330B3F1FF3F0AD19DF80730029A069963
:10BACC000398FFF71FFF069B8DF81F3006E0069BBF
