:1000000000000120190200000102000003020000AC
:1000100005020000070200000902000000000000C5
:100020000000000000000000000000000B020000C3
:100030000D020000000000000F020000110200008D
:10004000D917000013020000130200001302000081
:1000500013020000130200006D1C000013020000D8
:10006000130200001302000013020000130200003C
:10007000130200001302000013020000130200002C
:10008000651F000009230000130200001302000096
:10009000130200001302000013020000130200000C
:1000A00013020000130200001302000013020000FC
:1000B0001302000013020000000000000000000016
:1000C00013020000130200001302000013020000DC
:1000D00013020000130200001302000000000000E1
:1000E0000000000000000000000000000000000010
:1000F0000000000000000000000000000000000000
:1001000000000000000000000000000000000000EF
:1001100000000000000000000000000000000000DF
:1001200000000000000000000000000000000000CF
:1001300000000000000000000000000000000000BF
:1001400000000000000000000000000000000000AF
:10015000000000000000000000000000000000009F
:10016000000000000000000000000000000000008F
:10017000000000000000000000000000000000007F
:10018000000000000000000000000000000000006F
:10019000000000000000000000000000000000005F
:1001A000000000000000000000000000000000004F
:1001B000000000000000000000000000000000003F
:1001C000000000000000000000000000000000002F
:1001D000000000000000000000000000000000001F
:1001E000000000000000000000000000000000000F
:1001F00000000000000000000000000000000000FF
:10020000FEE7FEE7FEE7FEE7FEE7FEE7FEE7FEE7C6
:10021000FEE7FEE700F002B8FFF7FCBF0F484FF023
:100220000701884385460E4880470E48016841F41F
:1002300070010160BFF34F8FBFF36F8F00F01AB8EA
:1002400009480A490A4A884207D0521A05D0037859
:1002500001300B700131013AF9D1704700000120E3
:10026000FD0F000088ED00E0942400000000002055
:1002700000000020344935480A1A02D00722914371
:100280008D46334933480A1A06D00722914381F339
:100290000988022282F314882F483049304A00F03E
:1002A00041F830483049314A00F03CF83048314993
:1002B000314A00F037F831483149324A00F032F81B
:1002C00031483249324A00F02DF832483249334A37
:1002D00000F028F832483349334A00F023F8334815
:1002E0003349002200F029F832483349002200F057
:1002F00024F832483249091A02F0C2F8314A9047CC
:100300001F482049884205D00268043003B4904752
:1003100003BCF7E700208646EC46002000212A4A6D
:100320009047FEE7884207D0521A05D00378013083
:100330000B700131013AF9D17047884202D0027046
:100340000130FAE7704700000000012000E00020C3
:10035000000001200000012008270000000000200C
:1003600004000020CC030000CC0300009424000013
:100370000827000000000020000000209424000056
:10038000942400009424000094240000942400008D
:100390009424000094240000942400000527000009
:1003A0000C270000040000200400002004000020AE
:1003B000BC000020BC000020BC000020BC000020CD
:0C03C000BC20002041020000CD05000020
:1003CC0000B585B00190019B002B0AD0074B43F080
:1003DC0001030393019B9B010293039B0298984793
:1003EC0000E000BF05B05DF804FB00BF0025000075
:1003FC0000B583B00190019B1B68184600F073F8A0
:10040C000346002B04D105494FF4F67001F084FF2C
:10041C004FF0A043184603B05DF804FB9424000091
:10042C0000B585B00190084611461A4603468DF872
:10043C0003300B468DF8023013468DF8013001ABBA
:10044C001846FFF7D5FF03909DF803209DF8023066
:10045C005B001A439DF801309B001A439DF818303D
:10046C001B0242EA03019DF81C301B04019A19433C
:10047C00039B02F5E07243F8221000BF05B05DF853
:10048C0004FB00B585B003900B468DF80B309DF83E
:10049C000B300022019200220092002200210398CE
:1004AC00FFF7BEFF00BF05B05DF804FB00B585B0DB
:1004BC00019001AB1846FFF79BFF0390039800F0E7
:1004CC000AF80246019B22FA03F303F001031846D3
:1004DC0005B05DF804FB82B00190019BD3F8103598
:1004EC00184602B0704784B00190019B5B090293DF
:1004FC0000230393029B002B03D14FF0FF33039394
:10050C0000BF019B03F01F030193039A019B22FA86
:10051C0003F303F00103002B14BF01230023DBB210
:10052C00184604B0704700B583B00190019B002BB6
:10053C000AD04FF47A70FFF743FF019B013B019304
:10054C00019B002BF5D100E000BF03B05DF804FB6C
:10055C0000BF704700B587B000230593144A6B4663
:10056C0007CA83E807006B461249184601F008FDDC
:10057C000590059B0493049B002B04D00E4A1A2172
:10058C00049801F01FFE0D4801F07AFD0590059BC3
:10059C000393039B002B04D0074A1D21039801F001
:1005AC0011FE01F04BFD00BF07B05DF804FB00BF6E
:1005BC00EC2400005D050000BC24000004000020B9
:1005CC0000B585B0012000F0EBF903210D20FFF7F9
:1005DC0058FF00F06FFE0290029B0193019B002BD1
:1005EC0004D0194A2921019801F0ECFD002000F0FB
:1005FC00BFFE0023039308E0002000F083F9642081
:10060C00FFF791FF039B01330393039B092BF3DD4E
:10061C0000F052F9FFF79EFF0D20FFF747FF03464E
:10062C00002B0AD100F05BF900BF0D20FFF73EFF55
:10063C000346002BF9D000F03FF9044B1B78184609
:10064C0001F05AFDE8E700BFBC24000004000020C4
:10065C0000B583B00190019B1B68184600F0D7F8D9
:10066C000346002B04D105494FF4F67001F054FEFB
:10067C004FF0A043184603B05DF804FB08250000BA
:10068C0000B585B00190084611461A4603468DF810
:10069C0003300B468DF8023013468DF8013001AB58
:1006AC001846FFF7D5FF03909DF803209DF8023004
:1006BC005B001A439DF801309B001A439DF81830DB
:1006CC001B0242EA03019DF81C301B04019A1943DA
:1006DC00039B02F5E07243F8221000BF05B05DF8F1
:1006EC0004FB00B585B00390002301930023009315
:1006FC000023012201210398FFF7C2FF00BF05B0C0
:10070C005DF804FB00B585B003900B468DF80B30FB
:10071C009DF80B3000220192002200920022002151
:10072C000398FFF7ADFF00BF05B05DF804FB00B503
:10073C0085B0019001AB1846FFF78AFF0390019B2F
:10074C00012202FA03F31946039800F04CF800BF9B
:10075C0005B05DF804FB00B585B0019001AB1846FF
:10076C00FFF776FF0390019B012202FA03F319466F
:10077C00039800F042F800BF05B05DF804FB00B52B
:10078C0085B0019001AB1846FFF762FF0390039B05
:10079C00D3F804350293029BDA43019B012101FA41
:1007AC0003F31A40039BC3F80825019B01229A40CE
:1007BC00029B1A40039BC3F80C2500BF05B05DF8E3
:1007CC0004FB00B583B001900091009B002B03D17A
:1007DC000198FFF7C0FF02E00198FFF7A8FF00BFE8
:1007EC0003B05DF804FB82B001900091019B009A6C
:1007FC00C3F8082500BF02B0704782B00190009189
:10080C00019B009AC3F80C2500BF02B0704784B05E
:10081C000190019B5B09029300230393029B002B25
:10082C0003D14FF0FF33039300BF019B03F01F0371
:10083C000193039A019B22FA03F303F00103002BAB
:10084C0014BF01230023DBB2184604B0704700002C
:10085C0000B583B00190019B032B03D907494120BC
:10086C0001F05AFD064A019B13441B7800211846DF
:10087C00FFF7A7FF00BF03B05DF804FB30250000B5
:10088C005825000000B583B00190019B032B03D9C0
:10089C000749472001F040FD064A019B13441B7891
:1008AC0001211846FFF78DFF00BF03B05DF804FB74
:1008BC00302500005825000000B583B000230193BB
:1008CC0005E00198FFF7DEFF019B01330193019BCB
:1008DC00032BF6D900BF00BF03B05DF804FB00B5D5
:1008EC0083B00023019305E00198FFF7B1FF019B52
:1008FC0001330193019B032BF6D900BF00BF03B05A
:10090C005DF804FB00B583B00190019B032B03D968
:10091C0007495F2001F000FD064A019B13441B7838
:10092C001846FFF72CFF00BF03B05DF804FB00BFB7
:10093C00302500005825000000B583B0002301933A
:10094C0009E0094A019B13441B781846FFF7C9FEBE
:10095C00019B01330193019B032BF2D9FFF7ACFFF1
:10096C0000BF03B05DF804FB5825000000B583B050
:10097C00002301930AE0094A019B13441B780321CD
:10098C001846FFF7BFFE019B01330193019B032B1C
:10099C00F1D900BF00BF03B05DF804FB5C2500007B
:1009AC0000B583B00190019B03F00103002B01D033
:1009BC00FFF7C2FF019B03F00203002B01D0FFF7EE
:1009CC00D5FF00BF03B05DF804FB0000BFF34F8FF1
:1009DC0000BF064BDB6803F4E0620449044B13438D
:1009EC00CB60BFF34F8F00BF00BFFDE700ED00E011
:1009FC000400FA0582B01D4B1B68B3F1FF3F0AD10E
:100A0C001B4B1B68DBB201931A4B1B681B0903F0D1
:100A1C000F03009305E0154B1B680193164B1B68E5
:100A2C000093019B062B1DD1009B033B042B17D875
:100A3C0001A252F823F000BF590A00005D0A000021
:100A4C00610A0000650A0000690A000001230AE03F
:100A5C00012308E0012306E0012304E0012302E066
:100A6C00012300E00023184602B07047300100104B
:100A7C00E00F00F0E80F00F03401001082B0174BCB
:100A8C001B68DBB20193164B1B681B0903F00F03A9
:100A9C000093019B062B1DD1009B033B042B17D805
:100AAC0001A252F823F000BFC90A0000CD0A0000D1
:100ABC00D10A0000D50A0000D90A000001230AE07F
:100ACC00002308E0002306E0002304E0002302E0FA
:100ADC00002300E00023184602B07047E00F00F03E
:100AEC00E80F00F082B01D4B1B68B3F1FF3F0AD139
:100AFC001B4B1B68DBB201931A4B1B681B0903F0E1
:100B0C000F03009305E0154B1B680193164B1B68F4
:100B1C000093019B062B1DD1009B033B042B17D884
:100B2C0001A252F823F000BF490B00004D0B00004E
:100B3C00510B0000550B0000590B000001230AE07B
:100B4C00012308E0012306E0012304E0012302E075
:100B5C00012300E00023184602B07047300100105A
:100B6C00E00F00F0E80F00F03401001082B0174BDA
:100B7C001B68DBB20193164B1B681B0903F00F03B8
:100B8C000093019B062B1DD1009B033B042B17D814
:100B9C0001A252F823F000BFB90B0000BD0B0000FE
:100BAC00C10B0000C50B0000C90B000001230AE0BB
:100BBC00002308E0002306E0002304E0002302E009
:100BCC00002300E00023184602B07047E00F00F04D
:100BDC00E80F00F082B01D4B1B68B3F1FF3F0AD148
:100BEC001B4B1B68DBB201931A4B1B681B0903F0F0
:100BFC000F03009305E0154B1B680193164B1B6804
:100C0C000093019B062B1DD1009B033B042B17D893
:100C1C0001A252F823F000BF390C00003D0C00007B
:100C2C00410C0000450C0000490C000001230AE0B7
:100C3C00012308E0012306E0012304E0012302E084
:100C4C00012300E00023184602B070473001001069
:100C5C00E00F00F0E80F00F03401001082B0174BE9
:100C6C001B68DBB20193164B1B681B0903F00F03C7
:100C7C000093019B062B1DD1009B033B042B17D823
:100C8C0001A252F823F000BFA90C0000AD0C00002B
:100C9C00B10C0000B50C0000B90C000001230AE0F7
:100CAC00002308E0002306E0002304E0002302E018
:100CBC00002300E00023184602B07047E00F00F05C
:100CCC00E80F00F082B0174B1B68DBB20193164B98
:100CDC001B681B0903F00F030093019B062B1DD10E
:100CEC00009B033B042B17D801A252F823F000BF42
:100CFC00110D0000150D0000190D00001D0D000058
:100D0C00210D000001230AE0002308E0002306E087
:100D1C00002304E0002302E0002300E00023184637
:100D2C0002B07047E00F00F0E80F00F082B01D4BEE
:100D3C001B68B3F1FF3F0AD11B4B1B68DBB201935D
:100D4C001A4B1B681B0903F00F03009305E0154BAE
:100D5C001B680193164B1B680093019B062B1DD13E
:100D6C00009B033B042B17D801A252F823F000BFC1
:100D7C00910D0000950D0000990D00009D0D0000D7
:100D8C00A10D000000230AE0002308E0012306E087
:100D9C00012304E0012302E0012300E000231846B4
:100DAC0002B0704730010010E00F00F0E80F00F0C7
:100DBC003401001082B01D4B1B68B3F1FF3F0AD108
:100DCC001B4B1B68DBB201931A4B1B681B0903F00E
:100DDC000F03009305E0154B1B680193164B1B6822
:100DEC000093019B062B1DD1009B033B042B17D8B2
:100DFC0001A252F823F000BF190E00001D0E0000D6
:100E0C00210E0000250E0000290E000001230AE02F
:100E1C00012308E0012306E0012304E0012302E0A2
:100E2C00012300E00023184602B070473001001087
:100E3C00E00F00F0E80F00F03401001082B01D4B01
:100E4C001B68B3F1FF3F0AD11B4B1B68DBB201934C
:100E5C001A4B1B681B0903F00F03009305E0154B9D
:100E6C001B680193164B1B680093019B062B1DD12D
:100E7C00009B033B042B17D801A252F823F000BFB0
:100E8C00A10E0000A50E0000A90E0000AD0E000082
:100E9C00B10E000001230AE0012308E0012306E063
:100EAC00012304E0012302E0012300E000231846A3
:100EBC0002B0704730010010E00F00F0E80F00F0B6
:100ECC003401001082B0154B1B680193144B1B6846
:100EDC000093019B062B1DD1009B033B042B17D8C1
:100EEC0001A252F823F000BF090F00000D0F000003
:100EFC00110F0000150F0000190F000000230AE06D
:100F0C00002308E0002306E0012304E0012302E0B3
:100F1C00012300E00023184602B070473001001096
:100F2C003401001082B0154B1B680193144B1B68E5
:100F3C000093019B062B1DD1009B033B042B17D860
:100F4C0001A252F823F000BF690F00006D0F0000E2
:100F5C00710F0000750F0000790F000000230AE0EC
:100F6C00002308E0002306E0002304E0012302E054
:100F7C00012300E00023184602B070473001001036
:100F8C003401001008B5FFF7CDFF0346002B07D046
:100F9C004FF010234FF08042D3F80832C2F8583586
:100FAC0000BF08BD00BF044BD3F80034002BFAD0AF
:100FBC0000BF00BF704700BF00E0014000B583B028
:100FCC000190054A019BC2F80435FFF7EBFF00BF07
:100FDC0003B05DF804FB00BF00E00140024B034A84
:100FEC001A6000BF704700BF000000200090D003C3
:100FFC0008B5FFF7FFFC0346002B06D0964B1B6889
:10100C001B0A964A03F01F031360FFF737FD0346D4
:10101C00002B02D0924B934A1A60FFF763FD0346F4
:10102C00002B06D0904B1B685B0B904A03F0070318
:10103C001360FFF79BFD0346002B05D08C4BDB6840
:10104C008B4A23F08073D360FFF7C4FD0346002B5B
:10105C000ED04FF080430022C3F80C214FF0804398
:10106C000022C3F810214FF080430022C3F838252A
:10107C00FFF7F4FD0346002B02D07E4B03221A60CF
:10108C00FFF720FE0346002B0BD07B4B05221A608A
:10109C007A4B01221A607A4B00221A60794B3F225C
:1010AC001A60FFF743FE0346002B76D04FF08053B7
:1010BC00754AD3F80434C2F820354FF08053724A85
:1010CC00D3F80834C2F824354FF080536E4AD3F865
:1010DC000C34C2F828354FF080536B4AD3F81034D7
:1010EC00C2F82C354FF08053674AD3F81434C2F849
:1010FC0030354FF08053644AD3F81834C2F8343585
:10110C004FF08053604AD3F81C34C2F840354FF08E
:10111C0080535D4AD3F82034C2F844354FF08053E5
:10112C00594AD3F82434C2F848354FF08053564A04
:10113C00D3F82834C2F84C354FF08053524AD3F8C8
:10114C002C34C2F850354FF080534F4AD3F830341A
:10115C00C2F854354FF080534B4AD3F83434C2F8AC
:10116C0060354FF08053484AD3F83834C2F86435B0
:10117C004FF08053444AD3F83C34C2F868354FF0F2
:10118C008053414AD3F84034C2F86C354FF0805349
:10119C003D4AD3F84434C2F87035FFF70BFE0346D2
:1011AC00002B05D0394B1B68394A03F04F031360F1
:1011BC00FFF744FE0346002B0DD04FF08043D3F8CD
:1011CC00003403F00103002B05D04FF080436FF087
:1011DC000102C3F80024FFF775FE0346002B05D06F
:1011EC002C4B1B682B4A43F4806313602A4BD3F8B7
:1011FC008830294A43F47003C2F88830BFF34F8F0C
:10120C0000BFBFF36F8F00BFFFF7BCFE4FF0102382
:10121C00D3F80032002B05DB4FF01023D3F8043247
:10122C00002B15DA0120FFF7C9FE4FF01023152211
:10123C00C3F80022FFF7B6FE4FF010231522C3F8B7
:10124C000422FFF7AFFE0020FFF7B8FEFFF7BEFB4E
:10125C00FFF7C4FE00BF08BD240300104035014059
:10126C0074C007400DF0ADBA440200103C050040BC
:10127C00F0ED00E0A00500401056004088560040FC
:10128C00185600401456004000C000405802001090
:10129C00E40E00403C17004000ED00E0044BD3F896
:1012AC000034002B14BF01230023DBB21846704717
:1012BC000000014000B583B000230193144B1B7850
:1012CC00002B02D08523019314E0114B00229A606D
:1012DC000F4B00225A600E4B00221A610C4B00225D
:1012EC00DA600C4800F01CFA019000F03FFA084B51
:1012FC0001221A70FFF7D2FF0346002B02D0044BD9
:10130C0001229A70019B184603B05DF804FB00BFE4
:10131C00080000206514000084B001900091019B2E
:10132C001B68039306E0039A009B9A420DD0039B23
:10133C001B680393039B002BF5D1019B1A68009B40
:10134C001A60019B009A1A6000E000BF04B070475D
:10135C0084B00190019B1B680393039B002B03D06B
:10136C00039B1A68019B1A60039B184604B07047D4
:10137C0000B583B00190224B1B78002B03D121497F
:10138C00F62000F0C9FF1E4B9B78DBB2002B12D06D
:10139C00019B002B03D0019B5B6801209847002028
:1013AC0000F064FF164BDB680133154AD360002054
:1013BC0000F070FF17E0002000F058FF019B002B9D
:1013CC0003D001991048FFF7A7FF0D4BDB68002BEA
:1013DC0001D100F0DFF90A4BDB680133084AD36016
:1013EC00002000F057FF064BDB68002B04D10549A9
:1013FC004FF4897000F090FF00BF03B05DF804FB60
:10140C0008000020602500001800002000B585B001
:10141C0003468DF807309DF80730002B02D10C4B9A
:10142C00039301E00B4B03930398FFF791FF02909A
:10143C00029B002B06D0029B5B689DF80720104690
:10144C009847F1E700BF00BF05B05DF804FB00BF93
:10145C00100000201800002000B583B003468DF862
:10146C0007309DF80730002B05D10A4B01225A702A
:10147C000020FFF7CBFF9DF80730012B05D1054B62
:10148C0001229A700120FFF7C1FF00BF03B05DF885
:10149C0004FB00BF0800002082B003468DF8073023
:1014AC009DF90730002B0CDB9DF8073003F01F0271
:1014BC0005499DF907305B09012000FA02F241F859
:1014CC00232000BF02B0704700E100E082B0034669
:1014DC0000918DF807309DF90730002B0ADB009B3B
:1014EC00DAB20C499DF907305201D2B20B4483F8A1
:1014FC0000230BE0009BDAB207499DF8073003F09C
:10150C000F03043B5201D2B20B441A7600BF02B057
:10151C00704700BF00E100E000ED00E082B00190F8
:10152C00019B1B0B5BB2184602B0704700B583B031
:10153C0003460A468DF8073013468DF806309DF8A1
:10154C000630072B03D908496B2000F0E5FE9DF807
:10155C0006209DF9073011461846FFF7B7FF00BF6C
:10156C0003B05DF804FB00BF9425000000B583B008
:10157C0003468DF807309DF907301846FFF78CFFAE
:10158C0000BF03B05DF804FB82B003468DF8073052
:10159C000F4A9DF90730002B00DA1F335B115BB249
:1015AC0052F823209DF90730594203F01F0301F034
:1015BC001F0158BF4B425BB222FA03F303F0010345
:1015CC00002B14BF01230023DBB2184602B0704776
:1015DC0000E100E082B001904FF08042019BC2F824
:1015EC00043300BF02B0704782B001904FF08042CC
:1015FC00019BC2F8083300BF02B0704782B00346AB
:10160C008DF807309DF8073003F1804301221A60F2
:10161C0000BF02B0704784B00346ADF80630BDF889
:10162C00063003F1804300221A60BDF8063003F146
:10163C0080431B680393039B00BF04B0704782B0C8
:10164C000346ADF80630BDF8063003F180431B6845
:10165C00002B14BF01230023DBB2184602B07047E5
:10166C0082B001904FF08042019BC2F8183500BF48
:10167C0002B0704700B583B006238DF807304FF0E9
:10168C008040FFF74BFF03461846FFF77DFF0346EC
:10169C0083F00103DBB2002B13D04FF08040FFF737
:1016AC003DFF03461A469DF8073019461046FFF7D2
:1016BC003DFF4FF08040FFF731FF03461846FFF720
:1016CC0055FF00BF03B05DF804FB000084B0124B63
:1016DC00DB680393104A039B43F08073D3600F4B7A
:1016EC001B6802930D4A029B43F0010313600B4BE2
:1016FC005B68019300BF094B5A68019BD31AB3F581
:10170C000A5FF8D3054A029B1360034A039BD3601C
:10171C0000BF04B0704700BFF0ED00E0001000E027
:10172C0000B585B00190019B002B03D10D49A4207D
:10173C0000F0F2FD002303930B4B1B79002B02D01E
:10174C008523039308E0084A019B1360064B012292
:10175C001A71054B00225A71039B184605B05DF8AF
:10176C0004FB00BFBC2500001C00002008B5074B83
:10177C001B79002B03D10649BD2000F0CDFDFFF7EE
:10178C0079FF0120FFF76CFF00BF08BD1C00002093
:10179C00BC25000008B50B4B1B79002B03D10A4963
:1017AC00EA2000F0B9FD4FF48270FFF734FF0220FD
:1017BC00FFF710FFFFF78AFF0820FFF71FFF00BF9E
:1017CC0008BD00BF1C000020BC25000008B54FF46C
:1017DC008070FFF734FF0346002B14D04FF4807059
:1017EC00FFF719FF0120FFF7FFFE114B5B7983F028
:1017FC000103DBB2002B06D00D4B01225A710C4BAE
:10180C001B68002098474FF48270FFF718FF0346BF
:10181C00002B0AD04FF48270FFF7FDFE0220FFF779
:10182C00E3FE034B1B680120984700BF08BD00BFB7
:10183C001C00002000B583B00346ADF80630BDF89F
:10184C000630184600F026F803461B68012B0CBF27
:10185C0001230023DBB2184603B05DF804FB00B58E
:10186C0085B00346ADF80630BDF80630184600F0DA
:10187C0011F803461A4600231360BDF806301846CB
:10188C0000F008F803461B680393039B00BF05B0E8
:10189C005DF804FB82B00346ADF80630BDF80630A7
:1018AC0003F1804303F5C043184602B070470000B3
:1018BC0082B00190034BD3F80423019B13401846CC
:1018CC0002B070470060004082B00190054A019B55
:1018DC0003F5A27352F823301B0A03F01F031846BA
:1018EC0002B070470060004082B00190064A019B34
:1018FC0003F5A27352F823301B0C03F00303DBB285
:10190C00184602B0704700BF0060004000B583B0BD
:10191C000190019B1B68184600F095F80346002BBC
:10192C0004D105494FF4F67000F0F6FC4FF0A043DB
:10193C00184603B05DF804FB1826000000B585B00E
:10194C0001900B468DF8033001AB1846FFF7DEFF14
:10195C000390019A039B02F5E07253F82230019A2E
:10196C0023F44031039B02F5E07243F82210019AF4
:10197C00039B02F5E07253F822109DF803301B0410
:10198C00019A1943039B02F5E07243F8221000BF41
:10199C0005B05DF804FB00B585B0019001AB1846AD
:1019AC00FFF7B4FF0390019A039B02F5E07253F822
:1019BC0022301B0C03F00303DBB2184605B05DF8B4
:1019CC0004FB86B00390029101924FF0A043049364
:1019DC00039B059319E0059B9B0018336B4453F84C
:1019EC00083CD3F82025019B1A60059B9B001833FB
:1019FC006B4453F8083C019A1268C3F82025019BEC
:101A0C0004330193059B01330593039A029B134402
:101A1C00059A9A42DFD300BF00BF06B0704700B5ED
:101A2C0085B0019001AB1846FFF770FF0390019B46
:101A3C00012202FA03F31A46039BC3F8202500BFC8
:101A4C0005B05DF804FB84B00190019B5B09029327
:101A5C0000230393029B002B03D14FF0FF3303931E
:101A6C0000BF019B03F01F030193039A019B22FA11
:101A7C0003F303F00103002B14BF01230023DBB29B
:101A8C00184604B0704784B001900091009B0393FA
:101A9C00019BDB080293019B03F0070301930122D6
:101AAC00019B02FA03F30399029A0A441278134039
:101ABC00184604B07047000082B00190044A019BA4
:101ACC001344303393F90030184602B0704700BF0E
:101ADC002400002082B00190034A019B52F823306D
:101AEC00184602B0704700BF2400002084B001905B
:101AFC00074A019B1344503393F900308DF80F3093
:101B0C009DF80F3023F0C003184604B0704700BF97
:101B1C002400002084B00190074A019B13445033E9
:101B2C0093F900308DF80F309DF80F309B09DBB224
:101B3C00184604B0704700BF2400002000B585B0E3
:101B4C000190019A01210020FFF73BFF0023039332
:101B5C000BE0039B9B00019A13441B68002B01D0E4
:101B6C00012306E0039B01330393039B002BF0D06E
:101B7C000023184605B05DF804FB000000B587B0E3
:101B8C000190002305935BE0344A059B13445033CA
:101B9C0093F90030B3F1FF3F4ED00598FFF7A6FF45
:101BAC00049001990498FFF76EFF0346002B44D074
:101BBC000598FFF7AFFF03468DF80F300498FFF739
:101BCC00EAFE03468DF80E309DF80E30022B01D143
:101BDC00032300E002238DF80D309DF80D301946DB
:101BEC000498FFF7ABFE0498FFF719FF0498FFF772
:101BFC0063FF03461846FFF76DFF0290029B002B14
:101C0C001BD09DF80F30032B0FD09DF80E30022BFC
:101C1C0003D19DF80F30012B07D09DF80E30032B0C
:101C2C000BD19DF80F30022B07D19DF80F20029B92
:101C3C0011460498984700E000BF059B01330593BB
:101C4C00059B032BA0D90198FFF778FF0346002BC7
:101C5C0097D100BF00BF07B05DF804FB2400002043
:101C6C0000B589B000230793002300934FF48073D1
:101C7C00ADF81630012304930023069321E0BDF840
:101C8C0016301846FFF7D6FD0346002B0ED00498ED
:101C9C00FFF70EFE0346002B08D0BDF81630184691
:101CAC00FFF7DDFD079A049B13430793049B5B002E
:101CBC000493BDF816300433ADF81630069B01338F
:101CCC000693069B072BDAD94FF4BE70FFF7B2FDD3
:101CDC000346002B0DD04FF4BE70FFF7C0FD079BE1
:101CEC0043F0004307936B461A4601210020FFF78F
:101CFC0068FE079BDBB2002B29D001230493002341
:101D0C00069321E0049A079B1340002B16D00698EB
:101D1C00FFF7DAFD03900698FFF7E6FD03468DF812
:101D2C000B300698FFF7D6FE0190019B002B05D0D7
:101D3C009DF80B20019B114603989847049B5B0070
:101D4C000493069B01330693069B072BDAD9079B5A
:101D5C00002B03DA6B461846FFF710FF00BF09B0E3
:101D6C005DF804FB82B003468DF807309DF907300F
:101D7C00002B0CDB9DF8073003F01F0205499DF981
:101D8C0007305B09012000FA02F241F8232000BF62
:101D9C0002B0704700E100E082B0034600918DF87C
:101DAC0007309DF90730002B0ADB009BDAB20C4997
:101DBC009DF907305201D2B20B4483F800230BE09B
:101DCC00009BDAB207499DF8073003F00F03043B80
:101DDC005201D2B20B441A7600BF02B0704700BF5A
:101DEC0000E100E000ED00E000B583B003460A46D8
:101DFC008DF8073013468DF806309DF80630072B0A
:101E0C0003D908496B2000F087FA9DF806209DF94C
:101E1C00073011461846FFF7BFFF00BF03B05DF84F
:101E2C0004FB00BF7426000000B583B003468DF898
:101E3C0007309DF907301846FFF794FF00BF03B039
:101E4C005DF804FB82B003468DF80730034A9DF819
:101E5C000730C2F80C3500BF02B0704700000140DB
:101E6C0082B003468DF807309DF8073003F18043AC
:101E7C0003F5803301221A6000BF02B0704784B0B2
:101E8C000346ADF80630BDF8063003F1804303F588
:101E9C00803300221A60BDF8063003F1804303F54D
:101EAC0080331B680393039B00BF04B0704782B060
:101EBC000346ADF80630BDF8063003F1804303F558
:101ECC0080331B68002B14BF01230023DBB21846A0
:101EDC0002B0704782B00190034A019BC2F80433F0
:101EEC0000BF02B0704700BF0000014082B00190FB
:101EFC00034A019BC2F8043500BF02B0704700BF13
:101F0C000000014082B003468DF80730074BD3F830
:101F1C0008259DF80730012101FA03F30349134307
:101F2C00C1F8083500BF02B0704700BF0000014087
:101F3C0082B003468DF80730054A9DF8073003F54B
:101F4C00C073044942F8231000BF02B0704700BFB1
:101F5C00000001403546526E08B54FF48070FFF713
:101F6C00A6FF0346002B06D0044B1B6898474FF482
:101F7C008070FFF784FF00BF08BD00BF8400002005
:101F8C0030B587B001900091019B002B03D12849FB
:101F9C004A2000F0C1F9009B002B03D124494E20AC
:101FAC0000F0BAF9234A009B1360234B1B78002BDB
:101FBC0023D1214B01221A70019B1B781846FFF785
:101FCC0041FF019B5B6800221C4615464FF0000048
:101FDC004FF00001E90341EA5441E0034FF47A72F7
:101FEC004FF0000300F0AEF902460B46CDE9022398
:101FFC00DDE90223012B08D303E008230593059B9D
:10200C0013E00B49642000F087F9029B1846FFF798
:10201C006DFF019B1B7A19461020FFF7E5FE10207F
:10202C00FFF702FF00230593059B184607B030BD50
:10203C009C260000840000208000002008B50D4B79
:10204C001B78002B03D10C49752000F065F90B4B64
:10205C001B78012B03D00849762000F05DF9012094
:10206C00FFF738FF0020FFF7FBFE044B02221A702B
:10207C0000BF08BD810000209C26000080000020CD
:10208C0000B585B00190019B002B03D117498C2022
:10209C0000F042F9164B1B78012B03D013498D200D
:1020AC0000F03AF9002000F0E1F8124B1B78072BF6
:1020BC0011D8104B1A78019B1A700E4B1B780133F8
:1020CC00DAB20C4B1A70019B1B781846FFF71AFFFB
:1020DC000023039301E004230393002000F0DAF8BB
:1020EC00039B184605B05DF804FB00BF9C2600005E
:1020FC00800000208100002000B583B003468DF8DD
:10210C000730084B1B78022B03D00749A22000F0A4
:10211C0003F99DF807301846FFF70AFF00BF03B01C
:10212C005DF804FB800000209C26000086B0039024
:10213C000291019201238DF817309DF81730204A37
:10214C00039B13601E4A029B53601D4A019B9360C4
:10215C00039B44F20102934212D0039B44F202020D
:10216C00934220D1019B164AD360154BDB681B6848
:10217C00134A9361124BDB685B68114AD36112E01E
:10218C00019B0F4A13610E4B1B699B680C4A5361F0
:10219C000B4B1B691B680A4A9361094B1B695B68F3
:1021AC00074AD36100BF72B600BF00BF9DF817305D
:1021BC00DBB2002BFAD162B600BF00BF06B070478D
:1021CC008800002000B583B002900091019244F287
:1021DC00010071466A4600F003F803B000BD00BF71
:1021EC0000B587B003900291019272B600BF039BB9
:1021FC0044F20102934207D0039B44F20202934241
:10220C0005D1019B059303E0019B049300E000BF03
:10221C00074B1B6803F00103002B00D000BE019A92
:10222C0002990398FFF782FF00BF07B05DF804FB2B
:10223C00F0ED00E072B600BF034B1B680133024A9D
:10224C00136000BF704700BFA8000020064B1B683E
:10225C00013B054A1360044B1B68002B01D162B68D
:10226C0000BF00BF704700BFA800002000B583B0BE
:10227C00019000F025F80346012B03D004494320BC
:10228C0000F04AF8FFF7D6FF00BF03B05DF804FB7F
:10229C00CC26000000B583B003468DF8073000F063
:1022AC000FF80346012B03D00449512000F034F8F9
:1022BC00FFF7CCFF00BF03B05DF804FBCC26000099
:1022CC0084B0EFF305830193019BC3F308030393DD
:1022DC00039B002B0DD1EFF314830093009B02930F
:1022EC00029B03F00103002B0CBF01230023DBB284
:1022FC0000E00123184604B07047000008B5044BF9
:10230C001B68044A12681046984700BF08BD00BFFE
:10231C00AC000020B000002000B585B00346009151
:10232C00ADF80630BDF806300293009B039302AB68
:10233C001A46002144F20200FFF752FF00BF05B01D
:10234C005DF804FB002B35D129B9B0FBF2FC0CFB7A
:10235C00120260467047914215D22DE9F041B2FA53
:10236C0082F39A409940D3F1200C30FA0CFC51EADC
:10237C000C01984000F04EF8280036FA03F20021C8
:10238C000023BDE8F081F0B5B1FBF2FC0CFB12119F
:10239C00B2FA82F39A409940D3F1200630FA06F64D
:1023AC003143984000F036F8614628003200DA409C
:1023BC000023F0BDF3B5B3FA83FC49085FEA3000A3
:1023CC0013FA0CF3DCF1200432FA04F423430CB4BA
:1023DC001A0000F01FF80CBC33FA0CF3DCF11F0CE4
:1023EC0035FA0CF518BF013D03BCA5FB026705FBD4
:1023FC000377801BB941904271EB030C05D3821A11
:10240C0071EB0303681C0021F0BD02000B002800D7
:10241C000021F0BD940D4FF6C2752D02B5FBF4F4FE
:10242C00D60A013604FB04F5A5FB0656F64306EB6B
:10243C000416550832BF00277708013505FB1677BF
:10244C00A6FB07477F0807EBC63714001500E7FB10
:10245C0002457F1B4D1C0400E7FB014505FB1206E2
:10246C00A64284BF013DB618964224BF0135B61A68
:10247C00704700BF072904D90023024AC0E9003184
:08248C0010607047B800002049
:10249400633A5C6E72665F73646B5C6D6F64756CDB
:1024A40065735C6E7266785C68616C5C6E72665FA4
:1024B4006770696F2E680000433A5C6E72665F73E2
:1024C400646B5C6578616D706C65735C59656E698D
:1024D4005C57415443485F444F475F54494D45520C
:1024E4005C6D61696E2E630001000000D00700007E
:1024F4000600000000000000000000000338FDD8C2
:1025040070470000633A5C6E72665F73646B5C6D67
:102514006F64756C65735C6E7266785C68616C5C24
:102524006E72665F6770696F2E680000433A5C6E76
:1025340072665F73646B5C636F6D706F6E656E74EF
:10254400735C626F617264735C626F617264732E38
:1025540063000000111213140D0E0F10433A5C6E49
:1025640072665F73646B5C696E74656772617469CB
:102574006F6E5C6E7266785C6C65676163795C6EC5
:1025840072665F6472765F636C6F636B2E630000C8
:10259400633A5C6E72665F73646B5C696E746567E4
:1025A400726174696F6E5C6E7266785C6E72667866
:1025B4005F676C75652E6800433A5C6E72665F7384
:1025C400646B5C6D6F64756C65735C6E7266785C6D
:1025D400647269766572735C7372635C6E7266783A
:1025E4005F636C6F636B2E6300000000633A5C6E84
:1025F40072665F73646B5C696E746567726174693B
:102604006F6E5C6E7266785C6E7266785F676C750E
:10261400652E6800633A5C6E72665F73646B5C6D12
:102624006F64756C65735C6E7266785C68616C5C13
:102634006E72665F6770696F2E680000433A5C6E65
:1026440072665F73646B5C6D6F64756C65735C6EEE
:102654007266785C647269766572735C7372635CCB
:102664006E7266785F6770696F74652E6300000030
:10267400633A5C6E72665F73646B5C696E74656703
:10268400726174696F6E5C6E7266785C6E72667885
:102694005F676C75652E6800433A5C6E72665F73A3
:1026A400646B5C6D6F64756C65735C6E7266785C8C
:1026B400647269766572735C7372635C6E72667859
:1026C4005F7764742E630000433A5C6E72665F73D6
:1026D400646B5C636F6D706F6E656E74735C6C6954
:1026E400627261726965735C7574696C5C61707047
:1026F4005F7574696C5F706C6174666F726D2E6364
:0127040000D4
:042708000090D0036A
:0400000300000219DE
:00000001FF
